:020000041000EA
:1000000000B5324B212058609868022188439860DF
:10001000D860186158612E4B002199600221596106
:100020000121F02299502B49196001219960352056
:1000300000F044F80222904214D00621196600F024
:1000400034F8196E01211966002018661A6600F04E
:100050002CF8196E196E196E052000F02FF8012189
:100060000842F9D1002199601B49196000215960AB
:100070001A491B48016001219960EB211966A021F2
:10008000196600F012F800219960164914480160C1
:100090000121996001BC002800D000471248134993
:1000A000086003C880F30888084703B5996A0420EC
:1000B0000142FBD001200142F8D103BD02B5186610
:1000C0001866FFF7F2FF186E186E02BD00000240BE
:1000D000000000180000070000035F00212200005C
:1000E000F4000018222000A00001001008ED00E03C
:1000F00000000000000000000000000074B24E7A12
:1001000000000420E3010010C3010010E903001007
:10011000C1010010C1010010C1010010C101001097
:10012000C1010010C1010010C10100104503001001
:10013000C1010010C1010010C9030010D503001057
:10014000CD010010CD010010CD010010CD01001037
:10015000CD010010CD010010CD010010CD01001027
:10016000CD010010CD010010CD010010CD01001017
:10017000CD010010CD010010CD010010CD01001007
:10018000CD010010CD010010CD010010CD010010F7
:10019000CD010010CD010010CD010010CD010010E7
:1001A000CD010010CD010010CD010010CD010010D7
:1001B000CD010010CD010010CD010010CD010010C7
:1001C00000BE00BE00BE00BE00BE00BE00F03FF894
:1001D000103800BE00202049086006C881F3088856
:1001E00010471E48006800282DD10CA40ECC002911
:1001F00002D000F010F8F9E719491A4A002000E08F
:1002000001C19142FCD1184988471849884700BE6E
:10021000FDE701C901C29A42FBD370474C8E021020
:10022000C0000020C8100020609E021000000420C2
:1002300000000420609E0210001004200010042022
:100240000000000070470A4818F052FD0047EFF325
:100250000580C0B27047000008ED00E0000000D04B
:10026000D8100020ACF20020CD02001099670110D8
:1002700057560000F8B5C046F8BC08BC9E4670470B
:10028000F8B5C04610B5064C2378002B07D1054BB6
:10029000002B02D0044800E000BF0123237010BDF2
:1002A000281600200000000084020010044B10B546
:1002B000002B03D00349044800E000BF10BDC04636
:1002C000000000002C16002084020010164B002BAA
:1002D00000D1144B9D46402292029A1A9246002168
:1002E0008B460F461348144A121A1BF049FB0F4B5A
:1002F000002B00D098470E4B002B00D098470020D1
:10030000002104000D000D48002802D00C4816F012
:1003100046FA1AF09FFE2000290012F013FC16F096
:100320003BFAC04600000800000004200000000066
:10033000A52A0110D8100020ACF200209F67011000
:10034000000000007046C0082CD3EFF309808169DB
:1003500002390978002929D101B50FC8B8470CBC6A
:1003600003C29E461E4B06CB91421ED0083B1A602C
:10037000002909D0EFF3098020388863F0C0444693
:100380004D4656465F46F0C0906B1030F0C8A04610
:10039000A946B246BB4680F309882038F0C802203F
:1003A000C0430047EFF30880D1E770470D4A136858
:1003B0009942FAD801B5890053589C460FC8E047C6
:1003C0000CBC10609E46704701B511F031FE03BCB5
:1003D0008E46C7E701B511F0E9FD03BC8E46C1E7C3
:1003E000CC04002044660210102304E0202302E025
:1003F000302300E040239C46F0B404AE7546E80884
:1004000001D3EFF309860E4F0FCE0FC70FBC0FC7F6
:100410004046494652465B460FC71DCE3100A60AEC
:1004200000D304316E0900D248311FC7EFF30980B1
:100430006946EFF3148663C76046014915F048FD2D
:100440001CF2002001480421014B1847D00600206F
:10045000018D011002B4714649084900095649004E
:100460008E4402BC7047C04602B471464908490038
:10047000095C49008E4402BC7047C0460022430814
:100480008B4274D303098B425FD3030A8B4244D35C
:10049000030B8B4228D3030C8B420DD3FF2209029E
:1004A00012BA030C8B4202D31212090265D0030B5D
:1004B0008B4219D300E0090AC30B8B4201D3CB0353
:1004C000C01A5241830B8B4201D38B03C01A524195
:1004D000430B8B4201D34B03C01A5241030B8B4297
:1004E00001D30B03C01A5241C30A8B4201D3CB0282
:1004F000C01A5241830A8B4201D38B02C01A524167
:10050000430A8B4201D34B02C01A5241030A8B4269
:1005100001D30B02C01A5241CDD2C3098B4201D381
:10052000CB01C01A524183098B4201D38B01C01AFF
:10053000524143098B4201D34B01C01A5241030976
:100540008B4201D30B01C01A5241C3088B4201D325
:10055000CB00C01A524183088B4201D38B00C01AD2
:10056000524143088B4201D34B00C01A5241411AF9
:1005700000D20146524110467047FFE701B5002006
:1005800000F0F0F802BDC0460029F7D076E77047CA
:1005900003460B437FD4002243088B4274D30309E4
:1005A0008B425FD3030A8B4244D3030B8B4228D385
:1005B000030C8B420DD3FF22090212BA030C8B42AB
:1005C00002D31212090265D0030B8B4219D300E04B
:1005D000090AC30B8B4201D3CB03C01A5241830BD0
:1005E0008B4201D38B03C01A5241430B8B4201D380
:1005F0004B03C01A5241030B8B4201D30B03C01AA9
:100600005241C30A8B4201D3CB02C01A5241830A22
:100610008B4201D38B02C01A5241430A8B4201D351
:100620004B02C01A5241030A8B4201D30B02C01A7B
:100630005241CDD2C3098B4201D3CB01C01A5241E2
:1006400083098B4201D38B01C01A524143098B426B
:1006500001D34B01C01A524103098B4201D30B0154
:10066000C01A5241C3088B4201D3CB00C01A524179
:1006700083088B4201D38B00C01A524143088B423E
:1006800001D34B00C01A5241411A00D201465241D7
:10069000104670475DE0CA0F00D04942031000D3F6
:1006A0004042534000229C4603098B422DD3030A4B
:1006B0008B4212D3FC22890112BA030A8B420CD35B
:1006C000890192118B4208D3890192118B4204D384
:1006D00089013AD0921100E08909C3098B4201D304
:1006E000CB01C01A524183098B4201D38B01C01A3E
:1006F000524143098B4201D34B01C01A52410309B5
:100700008B4201D30B01C01A5241C3088B4201D363
:10071000CB00C01A524183088B4201D38B00C01A10
:100720005241D9D243088B4201D34B00C01A5241E7
:10073000411A00D20146634652415B10104601D374
:100740004042002B00D54942704763465B1000D3FE
:10075000404201B5002000F005F802BD0029F8D0A4
:1007600016E770477047C046D0400B1CD1409C46EE
:10077000203AD3401843524263469340184370478F
:10078000D0400B1C1141203A03D49C46134118431E
:1007900063465242934018437047C0469140031C41
:1007A00090409C46203A9340194352426346D340BE
:1007B000194370478446101C62468C46191C6346D8
:1007C00000E0C0461FB502F04FF8002801D4002118
:1007D000C8421FBD10B501F0A7FF4042013010BD57
:1007E00010B502F041F8002801DB002010BD012007
:1007F00010BDC04610B502F037F8002801DD00201A
:1008000010BD012010BDC04610B501F0C9FF002881
:1008100001DC002010BD012010BDC04610B501F064
:10082000BFFF002801DA002010BD012010BDC04626
:100830008446081C6146FFE71FB500F051FD002803
:1008400001D40021C8421FBD10B500F0D3FC4042C6
:10085000013010BD10B500F043FD002801DB002081
:1008600010BD012010BDC04610B500F039FD0028B4
:1008700001DD002010BD012010BDC04610B500F004
:10088000E1FC002801DC002010BD012010BDC046A5
:1008900010B500F0D7FC002801DA002010BD0120BF
:1008A00010BDC0461C2101231B04984201D3000C3B
:1008B00010391B0A984201D3000A08391B099842D3
:1008C00001D30009043902A2105C40187047C046E9
:1008D0000403020201010101000000000000000009
:1008E00010B5002903D1FFF7DDFF203002E0081C1E
:1008F000FFF7D8FF10BDC046002B15D1002A13D139
:10090000002906DB01DC002806D00020C043410896
:1009100002E080210906002007B4024801A1401826
:10092000029003BD41FEFFFF03B4684601B5029883
:1009300000F098F9019B9E4602B00CBC7047C0467F
:10094000002B11D1002A0FD1002900D1002802D09C
:100950000021C943081C07B4024802A140180290B4
:1009600003BDC04601FEFFFF03B4684601B502980F
:1009700000F0B6F8019B9E4602B00CBC7047C04622
:10098000F0B5CE46474615042D0C2E0080B5070461
:10099000140C3F0C9946030C7E435D43674363434D
:1009A0007F19340CE4199C46A54203D980235B02CD
:1009B0009846C4444B4643435143250C3604654492
:1009C000360C2404A4195B19591820000CBC90465D
:1009D0009946F0BD9E2110B5C905041CFFF758FFCC
:1009E000002803D1201C00F0D7FF10BD9E21201C41
:1009F000C90500F0F7FD00F0CFFF80231B069C46E1
:100A00006044F2E770B500220C4B04000D00FFF7C4
:100A100005FF002804D12000290002F063FD70BD0D
:100A2000064B00222000290002F0F8F902F05AFDDE
:100A300080231B069C466044F1E7C0460000E0416D
:100A400070B505000C000022002328002100FFF7EC
:100A5000C7FE002804D12800210000F00DF870BD69
:100A600080231B06E118280000F006F802000B00A6
:100A7000002150429941F2E770B500220B4B0D0066
:100A8000040001F059FFFFF7BDFF060002F09AFDD8
:100A90000022074B01F050FF02000B00200029004C
:100AA00002F0BCF9FFF7AEFF310070BD0000F03D71
:100AB0000000F04170B50600080002F049FD002278
:100AC000064B01F039FF0D000400300002F07AFD02
:100AD0002B00220001F00AF870BDC0460000F04172
:100AE000F0B54F464646D646C0B5040082B00D006C
:100AF000914698468B422FD82CD041464846FFF766
:100B0000EFFE290006002000FFF7EAFE331A9C469C
:100B1000203B9A4600D576E04B46524693401F0054
:100B20004B46624693401E00AF4228D825D053461C
:100B3000A41BBD41002B00DA7BE0002200230092C1
:100B4000019301235246934001930123624693404F
:100B5000009318E08242D0D9002200230092019332
:100B60000A9B002B01D01C605D600098019902B0C7
:100B70001CBC90469946A246F0BDA342D7D900229C
:100B80000023009201936346002BE9D0FB079846AF
:100B9000414672080A437B0866460EE0AB4201D12B
:100BA000A2420CD8A41A9D41012024196D410021B4
:100BB000013E24184D41002E06D0AB42EED9013E35
:100BC00024196D41002EF8D100980199534600195F
:100BD0006941002B23DB2B005246D3402A00644698
:100BE000E2401C0053461500002B2DDB2600574623
:100BF000BE40330026006746BE403200801A99414D
:100C000000900191ACE7624620239B1A4A46DA40E5
:100C10006146130042468A4017001F4380E7624640
:100C200020239B1A2A0066469A402300F340134370
:100C3000D4E76246202300219B1A002200910192F2
:100C40000122DA40019280E72023624626009B1AA7
:100C5000DE402F00B0466646B74046463B00334371
:100C6000C8E7C046F0B583B016001F0000900191A0
:100C700002F0B0FD04000D0002000B00300039004E
:100C8000FFF77EFE009A019B121A8B410899200003
:100C90000A604B60290003B0F0BDC046F8B5474676
:100CA000CE4643025B0A4400C20F9C464800DD006A
:100CB0004B02240E5B0A000E80B598462600914632
:100CC000C90FDB00271A8A4229D0002F15DD002822
:100CD0004AD1002B00D095E0ED08FF2C00D188E030
:100CE0006B025B0AE6B25B02F605580A3043D20794
:100CF00010430CBC90469946F8BD002F00D087E009
:100D0000601CC0B2012800DCB6E0EE1A720100D50A
:100D1000C5E0002E3DD1002200260023E3E7002F8E
:100D200000DC96E000285DD0FF2C60D08022D20449
:100D300013431B2F00DDECE02022D21B1800934050
:100D4000F8405A1E93410343ED186B017BD50134E3
:100D5000FF2C00D1B7E0012207262A406B089A4DEC
:100D60001D4015432E4029E0FF2CB5D08022D2042F
:100D700013431B2F00DDB2E02022D21B1900934049
:100D8000F9405A1E93410B43ED1A6B015BD5AD013F
:100D9000AE093000FFF786FD05388640844265DCE9
:100DA000041B330020200134E340041BA640751EC1
:100DB000AE41334307261D0000241E4001224B464E
:100DC0001A40002E04D00F232B40042B00D00435F2
:100DD0006B0100D480E70134E6B2FF2C2FD1FF264F
:100DE000002380E7002B52D1FF2C00D074E70A00CB
:100DF000ED08002DF3D08023DB032B435B025B0A5D
:100E0000FF2670E7013F002FBED0FF2CB1D163E772
:100E1000002C47D0FF2869D08024E4047A4225437F
:100E20001B2A00DDC5E02C002026D440B21A9540D4
:100E30006A1E954125435D1B04008946A5E7AB0169
:100E40005B0A50E7002401224B461A406B07BAD1D7
:100E500042E7002F3BD10134E0B201284ADDFF2CEC
:100E6000BDD00726ED186D082E40A7E70723574D84
:100E7000241A35401E40A1E7002C1BD1002D6ED155
:100E8000002B00D19AE00A001D003C0024E7013F3E
:100E9000002F00D158E7FF2C00D04AE7A7E75E1BE0
:100EA000894676E7002D1CD10A00FF281FD00400D8
:100EB0001D0011E7002D5DD1002B17D180230022EA
:100EC000DB03FF260FE70A00FF2600230BE7002CB9
:100ED00021D1002D66D1FF28E9D11D0087E701232C
:100EE00052E77A1CA7D0FA43FF2899D10A001D00C7
:100EF000FF24F1E6002E21D1002D4FD0002B4CD045
:100F0000ED186B019ED5314B07362E4001241D4054
:100F100054E7012318E7FF28DFD08024E4047F4250
:100F200025431B2F4DDC2026F61B2C00B540FC4032
:100F30006A1E95412543ED18040006E7002DCCD02C
:100F4000002B00D153E780216046C903084203D03B
:100F50004046084200D11D000121114047E7002B07
:100F600000D1B9E6EA1A500125D507265D1B2E40AF
:100F7000894623E7FF24002B00D1ADE6802260469E
:100F8000D203104204D04046104201D11D008946D0
:100F900001224B46FF241A409EE62B00DD080A0082
:100FA00000249DE67A1CC6D0FF43FF28B9D11D005E
:100FB0001DE701253FE7151E00D044E7002200236E
:100FC00091E60125B7E7C046FFFFFF7DFFFFFFFB6E
:100FD000F8B557464E464546DE464402E0B5460063
:100FE0008846640A360EC70F002E63D0FF2E24D029
:100FF0008023E400DB041C43002399469B467F3E8C
:10100000434642465D02D20F5B006D0A1B0E9046BE
:10101000924665D0FF2B55D080220021ED00D204EE
:101020007F3B1543F61A43464A467B400F2A00D9B8
:101030008DE06D48920082589746002C54D10823C9
:101040009946063BFF269B46DAE7002553460229D0
:101050001BD0032900D1BFE0012928D030007F3008
:10106000002820DD6A0704D00F222A40042A00D07D
:1010700004352A0103D530005C4A80301540FE2833
:1010800003DCAC01640AC2B201E0FF220024640266
:10109000D205600ADB07104318433CBC90469946D2
:1010A000A246AB46F8BD0122101A1B287CDD0022A7
:1010B0000024ECE7002C1DD104239946033B0026B5
:1010C0009B469DE7FF3E002D20D1022143464A4624
:1010D0007B400A430F2AD8D8454892008258974649
:1010E000002D19D10121F1E70C239946093BFF2678
:1010F0009B4685E72000FFF7D5FB7626431F9C40E3
:1011000000237642361A99469B4679E74A460323DE
:101110001A439146032186E72800FFF7C3FB431FCC
:1011200036189D40763600217DE780240023E403B5
:10113000FF22ACE700258023DB031C4228D01D42A0
:1011400026D12B435C02640A4346FF229FE76201DB
:101150006C01A24224D21B210025013E0127100070
:101160006D005200002801DB944201D8121B3D4360
:1011700001390029F3D11400621E944125436DE723
:10118000BA46594625005346022900D061E77CE75C
:101190008023DB031C436402640A3B00FF2276E7E2
:1011A000121B1A210125D9E79E362A00B5402C00D2
:1011B000C240651EAC411443620704D00F22224096
:1011C000042A00D00434620103D4A401640A00227A
:1011D0005DE7012200245AE78024E4032C436402E3
:1011E000640AFF2253E7C046C40C0210FFFFFFF75A
:1011F000040D021070B542004E024C0045026D0A0B
:10120000120EC30F760A240EC90FFF2A0FD0FF2C2F
:1012100011D00120A24200D070BDB542FCD18B425A
:101220000DD0002AF8D12800451EA841F4E701207E
:10123000002DF1D1EBE70120002EEDD1E9E70020F0
:10124000EAE7C04670B54A004E02450244006D0A06
:10125000240EC30F760A120EC90FFF2C15D0FF2AD9
:101260000ED0002C15D1002A01D1002E1CD0002D4B
:1012700014D08B4227D00220013B1840013870BDAA
:10128000002EEED002204042F9E7002DFAD1FF2ACD
:101290000ED0002A0ED1002EEDD00BE00123013933
:1012A000994308000130EAE70020002DE7D0E2E78B
:1012B000002EE7D18B42DED1944205DD0221581E7B
:1012C00008400138DBE70024A24204DCB542D2D852
:1012D0000020B542D3D2581E012398430130CEE7F7
:1012E00030B5420044024D02C30F4800640A120E9A
:1012F0006D0A000EC90FFF2A12D0FF280CD0002A59
:1013000012D1002819D1002D17D1002C2BD002208A
:10131000013B1840013826E0002DF0D0022022E0E9
:10132000002CFBD1FF281FD000281FD1002D1DD17C
:101330000220013B1840013815E0002C0ED08B42F2
:10134000E5D10022904204DCAC42E0D80020AC425F
:1013500009D2581E01239843013004E001230139CA
:1013600099430800013030BD002DD7D18B42CED13A
:101370008242E7DD0221581E08400138F3E7C046EB
:10138000F0B54E4657464546DE46E0B543025B0A99
:10139000450083B00F1C99462D0EC60F002D57D067
:1013A000FF2D24D08020DB00C00418430023814699
:1013B0009A469B467F3D7C027A00FB0F640A120E20
:1013C000984623D0FF2A4BD0E30080240020E40479
:1013D0007F3A1C43AD186B1C474601935346774038
:1013E0003A000F2B48D87D499B00CB589F46002BD5
:1013F00000D085E008339A46063B9B467C027A0083
:10140000FB0FFF25640A120E9846DBD1002C00D09A
:1014100090E0524601231A4392460120DBE74C46F6
:1014200058461700022824D0032800D1CFE000221C
:10143000002301284DD15802D205400AFF0710436E
:10144000384303B03CBC90469946A246AB46F0BD3B
:10145000002B5BD104239A46033B00259B46AAE759
:10146000FF35002C60D1524602231A4392460220D7
:10147000B1E7FF220023DEE74B461B0C9C464B46A0
:101480002604360C180461463300220C6446000C16
:1014900043434E435043544380191A0C121896424A
:1014A00003D9802149028C4664441B041B0C1004A0
:1014B000C01883015E1EB341800E1843130C1B1924
:1014C0009B0103431C00230179D5012362081C40C2
:1014D0001443019A7F32002A4DDD630704D00F23A5
:1014E0002340042B00D00434230103D53C4B019A44
:1014F0001C408032FE2ABCDCA3015B0AD2B29AE710
:101500000C239A46093BFF259B4654E71800FFF73A
:10151000C9F94A46431F76259A4000236D429146F9
:101520002D1A9A469B4646E7524603231A43924693
:10153000032050E72000FFF7B5F9431F2D1A9C4008
:10154000763D002047E780230027DB03FF2272E778
:10155000424666E74C463200584662E780234A46D8
:10156000DB031A4222D01C4220D123435B025B0AD8
:101570004746FF225FE701239A1A1B2A21DC23003A
:101580000199D3409E318C401A0023005C1EA34178
:1015900013435A0704D00F221A40042A00D0043300
:1015A0005A0111D49B015B0A002244E780234A467A
:1015B000DB0313435B025B0A3700FF223BE7019525
:1015C00087E70022002336E70122002333E7802348
:1015D000DB0323435B025B0AFF222CE7440D02106E
:1015E000FFFFFFF7F8B54746CE464400C20F80B56F
:1015F00047024802400A8446664648007F0A240E95
:10160000F60025009046FB00000EC90FB146FF28EA
:1016100000D185E001267140261A914257D0002E54
:1016200043DD002800D07FE04946002900D1AAE030
:10163000013E002E00D0F7E05B1A5A0100D48BE087
:101640009B019C092000FFF72DF905388440854255
:1016500000DDD3E0451B230020200135EB40451B76
:10166000AC40621E94412343072400251C40012204
:1016700041460A40002C04D00F211940042900D013
:101680000433590100D480E00135ECB2FF2D00D0C5
:10169000A3E0FF2400235B02E405580AD20720439D
:1016A00010430CBC90469946F8BD002E74D1601CC6
:1016B000C0B2012800DCA7E04A469C1A620100D5AE
:1016C000B6E0002CBED1002200240023E3E7002E68
:1016D00000DC85E0002846D0FF2C49D08022484617
:1016E000D2041043814601221B2E09DC20204C46E7
:1016F000801B84404A462000F240441EA041024321
:101700009B185A0128D50135FF2D00D1A8E00122F0
:10171000072494491A405B080B4013431C40A6E77A
:10172000002E00D078E775E7FF2C54D08022494680
:10173000D2041143894601221B2E09DC2021484690
:10174000891B88404A460100F240481E81410A43F5
:101750009B1A5A0100D573E7012241460A405907F6
:1017600000D089E711E04846002858D1FF2C0CD161
:10177000DB08002B00D18CE78020C00303435B0211
:101780005B0AFF2487E7FF2C25D0DB08FF2DF0D074
:101790005B025B0AECB27EE7002C4DD0FF2818D02C
:1017A0008024E404724223431B2A00DDC4E01C00B1
:1017B0002025D440AA1A93405A1E934123434A46F7
:1017C0000500D31A884638E7721CF8D0F243FF2888
:1017D000EAD10A004B46FF25D7E79B015B0A5AE78F
:1017E000002E41D1651CE9B2012945DDFF2D00D154
:1017F0004FE707244B445B081C4038E707225A4B4D
:101800002D1A2340144032E7002C1DD1002B7AD131
:101810004B46002B00D191E00A000025B5E7013EC0
:10182000002E19D14B446CE7FF2C84D1FF25ACE787
:101830004A468846D41A05E7002BC5D10A00FF287E
:10184000C8D005004B46A0E7002B49D14B46002BE2
:1018500077D00A00FF2598E7FF2C00D043E787E701
:101860000A00FF24002316E7002C15D1002B57D1C6
:10187000FF28E6D14B467BE7002C20D1002B57D028
:101880004946002953D04B445A0168D50724364AAB
:101890001C4001251340EAE6FF28EBD08022D20449
:1018A000764213431B2E53DC2025AD1B1A00AB40A0
:1018B000F2405C1EA34113434B44050021E7002B7B
:1018C000D8D04946002900D152E78021C9030F42F0
:1018D00000D14DE76046084200D049E74B4647E754
:1018E0004846FF25002800D14FE78022D203174247
:1018F00004D06046104201D14B4688460122414641
:10190000FF250A4041E7484600281FD01A1A500117
:1019100020D54A460724D31A1C4088460025A6E64F
:10192000741CC9D0F643FF28BCD14B4620E799462A
:101930004B460025DB082BE7012340E7002200236C
:10194000A9E680230022DB03FF24A4E600251CE790
:101950000123B1E7002AF1D013000025FCE60025A1
:10196000FAE6C046FFFFFF7DFFFFFFFB42024B028E
:1019700040004900520A5B0A090E000EFF2806D0FB
:101980000020FF2902D11800431E98417047FE38FD
:10199000002AFBD1F4E7C04641024200C30F490AC6
:1019A000120E00207E2A0DD99D2A0CD8802000041A
:1019B0000143952A0ADC9620821AD1404842002B26
:1019C00000D108007047034A9818FBE7963A914007
:1019D000F4E7C046FFFFFF7F70B500283DD0C31776
:1019E000C5185D40C40F2800FEF75CFF9E22121A46
:1019F000962A07DCD2B2082833DD08388540680211
:101A0000400A23E0992A0BDD052329001B1AD9403F
:101A100003001B339D402B005D1EAB4119430D009D
:101A2000052801DD431F9D402B000F490B406E0729
:101A300009D00F263540042D05D004335D0102D5B1
:101A40009F220B40121A9B01580AD2B24002D205C3
:101A5000400AE4071043204370BD00240022002008
:101A6000F4E76802400AF1E7FFFFFFFB70B5041ED0
:101A700034D0FEF717FF9E22121A962A07DCD2B244
:101A800008282EDD083884406002400A21E0992AA7
:101A900009DD030021001B3399404B1E99410523AA
:101AA0001B1ADC400C43052801DD431F9C4023002A
:101AB0000D490B40650709D00F252C40042C05D09B
:101AC00004335C0102D59F220B40121A9B01580A75
:101AD000D2B24002D205400A104370BD002200205D
:101AE000F7E76002400AF4E7FFFFFFFBF0B54F465F
:101AF0004646D6460C000903C0B5490A470F5E00AA
:101B000039431F03DB0F9C4665007B0A570F1F43B9
:101B10006D0DE40F760DA146C000B846D200AB1B98
:101B200064457BD0002B5FDD002E00D0A4E03E009A
:101B3000164300D112E15E1E002E00D09EE1871AEE
:101B40004346B84280410125C91A4042091A0B0296
:101B500000D431E149024E0A002E00D16EE130007E
:101B6000FEF7A0FE0300083B1F2B00DD61E12022F1
:101B70003900D21A9E40D1409F400E439D4200DD65
:101B800051E15D1B6B1C1F2B00DD7CE12021C91A7C
:101B90003D0030008F408840DD40791E8F4131008C
:101BA00007222843D940002507433A40002A09D09C
:101BB0000F233B40042B05D03B1DBB42BF417F425E
:101BC000C9191F000B0200D426E26A1CC64B55053A
:101BD0006D0D9A4200D106E1C44AFF080A4053073E
:101BE00052023B43120B8EE0002B00D0B8E06B1C7E
:101BF0005B055B0D012B00DC30E1871A4346B842E0
:101C0000B641CB1A76429E1B330200D54CE13B0015
:101C10003343A1D100220024002570E0002B00DC1A
:101C2000E5E0002E00D183E0AF4EB54260D08026C3
:101C300036043743B846382B00DC3EE143461343B5
:101C40001F007A1E97413F18874280414042091881
:101C50000B0200D4B0E0A44B01359D4200D1C3E09B
:101C6000A24A7B080A4001210F401F435108D307B5
:101C700007221F433A4099E79B4EB54238D0802651
:101C800036043743B846382B00DDDCE01F2B00DC80
:101C900030E11E004746203EF740BC46202B04D0D2
:101CA0004026F31A46469E403243170063467A1E8A
:101CB00097411F43CCE0002B00D104E2434613437D
:101CC00000D159E14B07C00818438023C9081B0302
:101CD000194208D04546ED081D4204D14346D008BC
:101CE000590708432900420FC9007F4D1143C00026
:101CF0004B07CA087C49C00803438D4268D01203D1
:101D00006D05120B6D0D002112031800130B0A0D47
:101D100012051A43764B2D0513402B435B00E40755
:101D20005B08234319001CBC90469946A246F0BDAF
:101D30003E00164312D05E1E002E00D000E1871830
:101D40008742804141444042091801250B0233D5A6
:101D5000022585E764463300414610001D00C7E7B1
:101D6000002D00D0DAE00C000443F3D05C1C00D15D
:101D70009FE15D4CA64200D12FE1DB43382B00DD13
:101D800066E11F2B00DD83E120240500E41A0F002B
:101D9000DD40D940A0404346A7405B1A441EA04105
:101DA00098462F433843171ABA429241434652424B
:101DB000991A64463500CAE607223A40002A00D044
:101DC000F6E64B07CA084849FF083B438D4296D1C7
:101DD0001900114300D19EE1802109030A43120337
:101DE000120B414D8FE71500002200238BE7002BDB
:101DF00000D0C7E06B1C5F057F0D012F00DCF1E018
:101E0000394DAB4200D1B9E085180A0085428941BD
:101E10004244494251180722CF076D082F43490811
:101E20003A401D00C2E607223049ED1A31403A40DF
:101E3000BCE63E002838864000279FE63800FEF7C3
:101E400031FD20308EE6434613431F007A1E974132
:101E5000C71BB84280414042091A78E60E003B0099
:101E600006431343002D61D1002E00D0F4E0002B77
:101E700000D11BE164463900100039E71A4FBB421C
:101E80007AD03300FFE630001F3DE840202B03D01E
:101E90004021CB1A9E4037437B1E9F4107220743B8
:101EA0003A400021002589E7171A4346BA42B64155
:101EB000591A76428E1B64464EE61F2B00DDADE0BC
:101EC00020264746F61AB740B9461700B246DF400B
:101ED0004E463E4337005646B240561EB241174367
:101EE0004246DA408918AEE6FF070000FFFF7FFF99
:101EF000FFFF0F8020264746F61AB740B946170065
:101F0000B246DF404E463E4337005646B240561E6C
:101F1000B24117434246DA40891A99E77F4CA642FC
:101F20005BD0802424045B42214327E7002E0CD1A0
:101F3000002B00D1CBE0644639001000774DD7E686
:101F4000764FBB4218D0330075E6002B14D04B07F8
:101F5000C00818438023C9081B03194207D0FC0896
:101F60001C4204D17907D0080843E14621004C46C1
:101F7000420FC9001143C000684DB9E61D000022A0
:101F80000023C0E6002D5BD10D00054300D1E2E641
:101F90005D1C00D1B0E0614DAE421FD0DB43382B59
:101FA00071DC1F2B00DD96E020250F00ED1AAF40FD
:101FB000B9460700AA46DF404D463D432F0055462F
:101FC000A840D940451EA84188440743BF189742FE
:101FD00092415142414435003AE66446350041465B
:101FE000100085E60B000343002D00D063E6002BB4
:101FF000F5D04346134300D17AE6871887428041E3
:1020000007224144404209183A400B0200D4D5E669
:10201000434B01351940C9E5380069E61E004746C3
:10202000203EF740BC46202B04D04026F31A4646FB
:102030009E403243170063467A1E97411F4302E6D3
:10204000364DAE42CAD080252D045B422943A6E717
:102050000843411E8841A6E6002B00D148E6871AB6
:102060004346B842B641CB1A76429E1B33024BD54B
:10207000171A4346BA429241591A5242891A072204
:1020800064463A4092E501430F00791E8F419DE777
:102090001C000F00203CE740202B03D04024E31A13
:1020A00099400843411E884138437CE600220024C1
:1020B00025E6171A4346BA429241591A5242891AE2
:1020C0006446350043E541461000144D10E6802279
:1020D0000024120380E61D000F00203DEF40BC46A7
:1020E000202B03D04025EB1A994008430700634694
:1020F000781E87411F4369E7871897429B414144F7
:102100005B42C9183500A3E53B003343CED007221C
:1021100031003A4052E600231A00F4E5FF070000C0
:10212000FFFF7FFFF0B55746DE464E464546E0B519
:10213000834607000E03480085B092461C00360B0C
:10214000400DCD0F002800D19DE0954B984239D02D
:102150008023F6001B041E43924A7B0F33439946AB
:10216000944603006344009300230026FF0002937B
:1021700023031B0B98466300E40F52465B0D01944A
:1021800000D1B3E086498B4200D19EE04246D100A7
:10219000802212040A435146490F11438B4681495C
:1021A00052468C4600996344CB1A0021D20000931A
:1021B0002B0063409A460F2E00D905E17A4BB600FA
:1021C0009B599F465B463343994600D0B8E00223B3
:1021D0000826002700900293CAE7CB463A000299EE
:1021E0000195019B9A46022927D0032900D180E25C
:1021F000012944D06D49009B8C4663441C00002C8F
:1022000038DD530700D013E2D2085B46DB0109D565
:102210005946674B19408B468021C9008C46009B6C
:1022200063441C00634B9C4207DC5B4664055F070C
:102230005B0217431B0B620D02E000230027584A84
:1022400000211B031C0B0B0D1B05234314055A4ACD
:10225000380013401C4353466400DB0764081C43EA
:10226000210005B03CBC90469946A246AB46F0BD65
:102270000122524201231B1B382B00DCADE100225E
:1022800000230027DCE75B46334399465ED0002EEF
:1022900000D18AE13000FEF705FB03000B3B1C2B4D
:1022A00000DD7BE11D22D31A5A460100DA400839CD
:1022B0008E4013005F46334399468F403F4B0026C4
:1022C0001B1A00930023029352E7414653460B43E7
:1022D0003B499B468C46009B634400935B46002B26
:1022E0003BD1022300221E43022161E743461343F0
:1022F0009B4637D04346002B00D162E14046FEF7B3
:10230000D1FA03000B3B1C2B00DD53E102004146D8
:10231000083A914088461D21CB1A5146D9400B00FE
:1023200041460B439B46534693401A00009B254968
:102330009C46604403008C4663440093002137E7C9
:102340000323B14600900C26029311E7002300936B
:1023500001330426002702930AE70323C3461E43E2
:10236000032125E701331E430022012120E700233A
:102370009A46802300271B03094A61E780234946C8
:102380001B03194200D1E2E05946194200D0DEE0B9
:102390000B431B0317001B0BA246014A50E7C04624
:1023A000FF07000001FCFFFF840D0210FF03000087
:1023B000FFFFFFFEFE070000FFFF0F800DFCFFFF89
:1023C00001F8FFFFF3030000D94500D9CBE000D1AD
:1023D000C6E03C0048460027009B013B00935B465B
:1023E000160E1B021E431302984633041B0C99461B
:1023F000310C0191FEF7C8F84A4642430B04210C08
:10240000050019438A4207D98919013D8E4203D834
:102410008A4201D9851E8919881A0199FEF7B4F8F4
:1024200009048C464A46210464464243090C0300D1
:1024300021438A4204D98919013B8E4200D8F1E038
:102440002D041D43AB464346891A4246280C12040C
:102450001D0C5B46140C22001B041B0C5A430394F6
:102460006B434443029568431B19150CEB189C42BF
:1024700003D980246402A44660441C0C15041B0488
:102480002D0C20185D19814277D373D00C1AA24A03
:102490007D1BAF42BF419446009B7F426344E01BDB
:1024A0001C00864200D1DBE00199FEF76DF84A4638
:1024B00042430B04290C070019438A4207D98919A2
:1024C000013F8E4203D88A4201D9871E8919881A92
:1024D0000199FEF759F809044A46894629044D46F0
:1024E0004243090C030029438A4207D98919013B59
:1024F0008E4203D88A4201D9831E89193F04891A62
:102500003A00039F1A43380013041B0C58438146BA
:102510000298150C6F43434345434846000C8446DC
:10252000DB1963449F4203D98020400284466544FE
:1025300048461F0C00041B04000C7D191818A94202
:1025400000D284E000D17FE001231A4357E68023C4
:102550004A461B0313431B031B0BAA466F4A6FE635
:10256000BA4200D935E74B46DC0758087B081C43C4
:10257000FF0734E70024AF4289D247444745A441CE
:102580005B466442A4196418013BA6421ED2A042D5
:102590006DD800D1B6E0241A9B4678E703005A466E
:1025A000283B9A400027914688E65846FEF77AF97C
:1025B000203072E603005246283B9A4093460022A0
:1025C000B4E65046FEF76EF920309AE6A642E2D114
:1025D000B845DCD9341A9B4659E71F2B65DC504CB3
:1025E0000099A4465C46614408008C40110082407A
:1025F000D940501E82410C4314435A46DA4013001E
:10260000620709D00F222240042A05D02200141D9F
:102610009442894149425B181A0262D50122002383
:1026200000270DE68A4200D80AE7831E891907E7CA
:102630000F231340042B00D1E6E5171D974292416A
:1026400053429B44FA08E0E5002800D1D7E5711811
:10265000531EB14227D3A94215D358D01A0073E7AD
:10266000002B00DC04E6012300229B44CDE502237D
:102670004744474589415B429C46494289190C19A8
:10268000E344241A03E743465F0047459B41B846AD
:102690005B429E19023A8919A94200D054E740458D
:1026A00000D051E7ABE51A00F6E71F215F4649422B
:1026B0000C1BE740202B07D01A49009B8C46634433
:1026C00018005B4683401A43501E82413A43072755
:1026D0000023174009D00F210023114014000429C2
:1026E00095D122005F075B021B0BD2081743002223
:1026F000A6E5802359461B030B431B0317001B0B46
:10270000064A9DE5BD42B2D89B460024BFE68045FF
:10271000B9D31A00C3E7C046FF030000FF0700005B
:102720001E0400003E040000F0B54F464646D64663
:102730008446C0B58046194E18030F034D00000BA8
:102740005C0082463F0B6D0DC90F9146640DDB0F97
:102750000120B5420AD0B44203D0A54201D1574569
:102760000CD01CBC90469946A246F0BD66463E433E
:10277000F7D1AC42F5D154461443F2D10120C845FB
:10278000EFD1994207D0002DEBD163461F433800AB
:10279000471EB841E5E70020E3E7C046FF07000019
:1027A000F0B54F464646D6464D00C0B50E03C90F9C
:1027B0008A462C491F035C008046360B6D0D9146FE
:1027C0003F0B640DDB0F8D421ED08C4216D0002DC6
:1027D0001ED130438446002C01D13A4323D06246B7
:1027E000002A1AD09A4529D05146022001390840C2
:1027F00001381CBC90469946A246F0BD39001143F1
:10280000E5D002204042F4E73043FAD1AC420FD089
:10281000002C0FD13A43E7D00CE00122013B934357
:1028200018000130E5E763460020002BE1D0DBE72C
:102830003A43E6D19A45D7D1A542D5DCA54205DB7E
:10284000BE42D1D808D00020BE42D2D25046012389
:10285000013898430130CCE7C845C5D80020C845A9
:10286000F4D3C6E7FF070000F0B54F464646D6460C
:102870004D00C0B50E03C90F8A462E491F035C00E8
:102880008046360B6D0D91463F0B640DDB0F8D427C
:1028900018D08C4211D0002D18D130438446002C22
:1028A0001ED13A431CD163460020002B30D0514644
:1028B00002200139084001382AE039001143EAD0EA
:1028C000022025E03043FBD1AC4226D0002C26D19B
:1028D0003A4324D15146022001390840013817E01B
:1028E0006246002A0FD09A45E1D1A54205DBBE42DF
:1028F000DDD819D00020BE420AD25046012301384B
:102900009843013004E00122013B93431800013059
:102910001CBC90469946A246F0BD3A43D0D19A4598
:10292000C5D1A542C3DCE0E7C845C0D80020C845F2
:10293000E3D3EDE7FF070000F0B55746DE464E460D
:102940004546E0B5834606000F03480087B092462F
:102950001D003F0B400DCC0F002800D16FE0DE4B77
:10296000984238D08023FF001B041F43730F3B4362
:102970000193DA4B0027994600239B46F6008144D9
:102980002B0369001B0B52469846490DED0F002999
:1029900000D185E0D04B994200D173E04346DA0084
:1029A00080231B0413435246CC48520F84461343E2
:1029B000524600206144D2008944210069400091C0
:1029C0008C46012149448A460F2F00D990E0C44922
:1029D000BF00CF59BF465B463B43019300D06AE13D
:1029E00002230827002681469B46C9E73200584645
:1029F000019B61460091022800D175E0032800D1B7
:102A0000FEE1012800D02CE100230027002600254C
:102A10003F032A0D3F0BB34812053A4302401B0502
:102A20001343009A5B00D1075B080B433000190089
:102A300007B03CBC90469946A246AB46F0BD5B460B
:102A40003B43019300D12FE1002F00D1A5E13800D5
:102A5000FDF728FF03000B3B1C2B00DD96E11D2238
:102A6000D31A5A460100DA405E4608398F401300F7
:102A70008E403B4301939C4B00271B1A9946002331
:102A80009B467DE7414653460B4393498C46E144C0
:102A9000002B00D01AE102220220174300228CE70B
:102AA000134300D10DE14346002B00D181E14046A4
:102AB000FDF7F8FE02000B3A1C2A00DD72E101006E
:102AC000434608398B4098461D239A1A5346D340F3
:102AD0001A004346134352468A404946081A82491F
:102AE00089468144002068E77B4B002700268EE75B
:102AF000140C1204120C1100370C3604350C7943F7
:102B000028008C462E0060436044834656432100D3
:102B1000300C80465846794340440291844506D99A
:102B20008846802149028C46E044414602913604A1
:102B3000010C360C00048B4681191E0C1B041B0C67
:102B40000391190079438C46280075436544A846D3
:102B50005843050C45447743A94203D980214902D3
:102B60008C466744290C8C4639000004000C2D0467
:102B70002D186144AB4405915946049101990F0405
:102B80003F0C080C390051434243904602008C46EA
:102B9000090C8B4662437C4344445C44A04503D902
:102BA0008021490288464244210C88466146090436
:102BB000090C8C4639005943434370437E430F0C44
:102BC000F6182404BE19644442448C46B34203D927
:102BD00080235B0298464044029B61469846049BD2
:102BE000370443449B46AB45AD416B420D04059908
:102BF0002D0C8C467F196744FD18A8465D462D199B
:102C0000A542A44193466442A446C344DC448F4297
:102C1000BF4198459B4193459241A445A4415B42E5
:102C20007F421F43360C52426442BF192243BF18F1
:102C3000624638184302D20D039913436A020A43CD
:102C4000501E82416146ED0D2A434E023243D901A6
:102C500000D4B3E00126500832400243DE0732437D
:102C60005B08224C5444002C62DD510709D00F2030
:102C70001040042805D0101D9042924152429B18EA
:102C80000200D90104D580241948E40003405444CB
:102C90001848844200DD27E75E075B02D2081F0B5D
:102CA000630516435B0DB2E6002399460133042702
:102CB00000269B4664E60323019781460C279B462A
:102CC0005EE6012201201743002276E6032303205B
:102CD0001F43434671E6C046FF07000001FCFFFFAB
:102CE000C40D0210FFFF0F800DFCFFFFFF0300006B
:102CF000FFFFFFFEFE0700000023802700933F0335
:102D00000026434B83E6019B3200A446584670E6FA
:102D1000AC466EE6802701993F0339422DD03B42F5
:102D20002BD11F433F033F0B00951600384B6EE637
:102D300001252D1B382D00DD66E61F2D40DC3548B2
:102D40001C005044160082408440EE40501E8241D8
:102D500034431443EB40620709D00F222240042A77
:102D600005D02200141D9442804140421B181A02D3
:102D70003ED501230027002649E68027019B3F031B
:102D80001F433F033F0B0094214B40E603005A468C
:102D9000283B9A40002601926DE65846FDF782FDD9
:102DA000203057E603005246283B9A401300002289
:102DB00093E65046FDF776FD20307BE6CA4650E7A5
:102DC0001F201E004042041BE640202D03D0124C61
:102DD0005444A3401A43501E824132430726002721
:102DE000164009D00F200023104014000428B9D148
:102DF00022005E075B021F0BD2081643002306E683
:102E000080273F031F433F033F0B1600004BFEE5A7
:102E1000FF0700001E0400003E040000F8B55746FE
:102E20004E464546DE460C000903E0B5490A460F0A
:102E30005F0031431E03DB0F760A9B46530F33437B
:102E4000C84E6500C000E40FD2006D0DA246814659
:102E50007F0D9C469046B74200D1B9E05B46012603
:102E600073409B46EE1BA34500D183E0002E63DD3B
:102E7000002F00D0B1E06346134300D123E1731E5D
:102E8000002B00D0BAE1861A6346B042804101258A
:102E9000C91A4042091A0B0200D447E149024B0A01
:102EA00098464346002B00D189E14046FDF7FAFCE5
:102EB0000300083B1F2B00DD7CE120223000D21AEA
:102EC0004146D040994002009E400A439D4200DDA9
:102ED0006AE15D1B6B1C1F2B00DD94E120211000BB
:102EE0003500C91A8E40DA408840DD40711E8E419F
:102EF000110007222843002506433240002A09D04A
:102F00000F233340042B05D0331DB342B641764224
:102F100089191E000B0200D43DE26A1C914B550535
:102F20006D0D9A4200D119E18F4AF6080A40570701
:102F300052023743120B9BE0002E00D0C5E06E1CFE
:102F40007605760D012E00DC48E16746861ACB1B1C
:102F5000B042BF417F42B8461F004346FF1A3B00C4
:102F6000B8461B0200D55FE137439AD10022002406
:102F7000002579E0002E00DCFAE0002F00D18DE082
:102F8000784B9D4267D0802367461B041F43BC4695
:102F9000382E00DC52E1634613435A1E93411E183B
:102FA00086428041404209180B0200D4BEE06D4BBE
:102FB00001359D4200D1D2E06B4A73080A400121DD
:102FC0000E401E435108D30707221E43324095E7A7
:102FD0001E00164300D045E740E7624B9D423AD0C1
:102FE000802367461B041F43BC46382E00DDEBE000
:102FF0001F2E00DC3AE133006746203BDF403B00F8
:10300000202E05D04027BF1B6646BE403243904667
:103010004646721E96413343DAE0002B00D114E29B
:103020006346134300D168E180234E07C008C908F6
:103030001B030643194208D06046C008184204D159
:1030400063460100D2085E071643F3009946C900A3
:10305000720F444D11434B46DE08424B4F07374336
:10306000CA089D4200D16EE012036D05120B6D0D72
:1030700000211203130B0A0D12051A433B4B2D05B9
:1030800013402B435B00E4075B082343380019001F
:103090003CBC90469946A246AB46F8BD63461343F6
:1030A00011D0731E002B00D007E1861886428041A4
:1030B00061444042091801250B0237D502257BE700
:1030C0003E00614691463500C5E75C46002D00D0C4
:1030D000E1E00B000343F3D0731C00D1ACE1214BC2
:1030E0009F4200D13AE1F343382B00DD6FE11F2B03
:1030F00000DD8CE120250E00ED1AAE40B046060042
:10310000AA46DE40454635432E005546D940A840E4
:103110006346451EA8415B1A9C463043161AB242CC
:10312000924163465242991A3D00B4E6072232406A
:10313000002A00D0E4E60B4BF6084F073743CA08D5
:103140009D4200D090E73B00134300D1A6E18023CD
:103150001B031A431203120B024D89E715000022CC
:10316000002785E7FF070000FFFF7FFFFFFF0F80BD
:10317000002E00D0C7E06B1C5E05760D012E00DC32
:10318000F0E0C84DAB4200D1B9E085180A00854295
:1031900089416244494251180722CE076D082E43E7
:1031A000490832401D00A9E6BF49ED1A1140072227
:1031B0003240A3E6320028388240002686E63000FE
:1031C000FDF770FB203073E6634613435A1E9341AC
:1031D000C61AB04280414042091A5CE60E006746BA
:1031E00006431743002D5ED1002E00D0F3E0002FE0
:1031F00000D11EE15C46614691462CE7A94FBE42D4
:103200007BD01E00F1E610001F3DE840202B03D0CC
:103210004021CB1A9A401643731E9E410722064353
:1032200032400021002583E7161A6346B2428041EE
:10323000591A40420B1A98465C4632E61F2E00DDB2
:10324000ABE02027BB1B9A4663465746BB409946D6
:1032500013004F46F3401F433B005746BA40571EEA
:10326000BA4113436246F240891898E62027BB1BF7
:103270009A4663465746BB40994613004F46F34073
:103280001F433B005746BA40571EBA41134362469C
:10329000F240891A9CE7834B9F425FD080252D0422
:1032A0007342294320E7002E0CD1002F00D1D0E03B
:1032B0005C46614691467B4DCDE67A4FBE421CD0BE
:1032C0001E0065E6002F18D0C0084E070643802078
:1032D000C9080003014208D06346DC08044204D157
:1032E0002100DA46D2085E071643F300994601240E
:1032F0005346C900720F11431C406A4DABE61D00D6
:1033000000220027B4E6002D59D10B00034300D161
:10331000D6E6731C00D1B2E0624B9F421ED0F3434D
:10332000382B6FDC1F2B00DD97E020250E00ED1AF7
:10333000AE40B0460600AA46DE40454635432E0064
:103340005546A840D940451EA8418C440643B618AE
:1033500096429241514261443D0025E63D0061465E
:10336000914678E60B000343002D00D055E6002B74
:10337000F5D06346134300D16DE68618864280413E
:1033800061444042091800220B0200D4D0E6464BAB
:1033900001351940B2E5B1465DE633006746203B92
:1033A000DF403B00202E05D04027BF1B6646BE40B5
:1033B000324390464646721E96413343EFE5394B01
:1033C0009F42CBD080252D0473422943A8E70843B0
:1033D000411E8841A2E6002F00D13CE66346861AD2
:1033E000CF1AB0429B415B42FB1A98461B024ED556
:1033F000161A6346B2429241591A5242891A5C46E1
:1034000000227BE501430E00711E8E419FE71D00E7
:103410000E00203DEE40B046202B04D04025EB1A94
:1034200099400843814648464346411E8841184317
:1034300074E60022002417E6161A6346B24292414F
:10344000591A5242891A3D0025E561469146154DAB
:1034500001E680220024120379E61D000E00203DC3
:10346000EE40B046202B04D04025EB1A994008438B
:1034700081464E464346711E8E411E4367E78618BD
:1034800096429B4161445B42C9183D008CE547462A
:103490003743CED007224146324049E600273A0062
:1034A000E6E5C046FF070000FFFF7FFF70B50C4E4A
:1034B0000D031C0349005B002D0B490D240B5B0D14
:1034C000B14208D0064900208B4203D114432000AA
:1034D000441EA04170BD05430120002DFAD1F1E743
:1034E000FF07000030B5144D0A034B00120B5B0DB3
:1034F000C90F0024AB4211DD104CA34210DC802424
:10350000640322430E4CE41A1F2C0CDD0D48C31A31
:10351000DA4013005C42002900D11C00200030BDBD
:10352000094BCC18FAE7094DE040AC4663449A4099
:1035300013000343EEE7C046FE0300001D04000035
:103540003304000013040000FFFFFF7FEDFBFFFFCB
:1035500070B500282DD0C317C5185D40C40F2800D2
:10356000FDF7A0F9154B1B1A5B055B0D0A2815DD4D
:103570000B38854000222D032D0B002110002D0358
:103580000A0D2D0B12052A430D4D1B052A4013432E
:103590005B00E4075B082343190070BD02002900AB
:1035A000153291400A000B21081AC5402D032D0B3E
:1035B000E3E70024002300250022DEE71E040000CC
:1035C000FFFF0F8010B5041E25D0FDF76BF9144BDB
:1035D0001B1A5B055B0D0A2812DD0B3884400022A4
:1035E0002403240B0021100024030A0D240B1205D0
:1035F00022430C4C1B05224013435B00590810BDAD
:1036000002002100153291400A000B21081AC44023
:103610002403240BE6E7002300240022E2E7C0464F
:103620001E040000FFFF0F804100090E4B1C70B507
:10363000DBB24602750AC40F012B14DDE0239B00A8
:103640006D07360BCB1800210A0D280012051C4D02
:1036500032435B052A405B0813435B00E4075B08C9
:103660002343190070BD002914D1002D1ED028005D
:10367000FDF718F90A281CDC0B232A001B1ADA4074
:10368000030015339D400F4B12031B1A5B05160BED
:103690005B0DD8E7002D06D0320B802636036D0770
:1036A0001643094BCFE7084B0026CCE70023002642
:1036B000C9E703002A000B3B9A400025E3E7C04618
:1036C000FFFF0F8089030000FF070000F0B54C00EA
:1036D000640D0B03621C5B0A460F5205C90F1E43A3
:1036E000C500520D012A29DD374BE718FE2F1CDCDF
:1036F000002F3BDD8001431E98410722F3006D0F30
:1037000003432B431A40002A04D00F221A40042AF4
:1037100000D004338022D2041A4024D00137FAB2F8
:10372000FF2F02D09B01580A01E0FF220020400237
:10373000D205400AC90710430843F0BD3543002CA9
:1037400004D1002D0AD100220020F0E7002DECD09A
:103750008020C0033043FF22E9E7002400235B02FE
:10376000580AE2B2E3E7DB083C00F8E73B00173316
:10377000F3DB80231B0433431E26F61B1F2E14DDB0
:1037800002225242D71B1A00FA401700202E04D002
:103790000E4A94466444A3401D432B005D1EAB417A
:1037A00007223B431A400027ADE7094A2800A21828
:1037B000954093406C1EA541F04007222B430343E4
:1037C0001A4000279FE7C04680FCFFFFA2FCFFFFD6
:1037D00082FCFFFFF0B54E465746DE464546E0B553
:1037E0000F00002183B006008946002F06DA390059
:1037F000002746428F41012149428946002B07DAC2
:103800004946C943100089461900002342428B41B2
:1038100034003D0092469846BB4269D866D0414686
:103820005046FDF75DF8834639003000FDF758F843
:103830005B461B1A9C46203B9B4600D575E05146D3
:10384000584681400B005146604681400A00BB4209
:1038500061D85ED034003D005946A41A9D4100292C
:1038600000DA7AE0002100200126009001915946FB
:103870008E400196614601268E40614600960029E1
:1038800050D0D90756085F080E4363460EE0AF429A
:1038900001D1A6420CD8A41BBD41012124196D41C0
:1038A0000022013B64185541002B06D0AF42EED9EF
:1038B000013B24196D41002BF8D1009801995B461A
:1038C00000196941002B3DDB2E00DE4063462C00D1
:1038D000DC405B46002B4BDB34005D46AC402300F4
:1038E0006446A6403200801A994103E0B24296D95C
:1038F000002000214B46002B04D003000C000021C7
:103900005842A14103B03CBC90469946A246AB4602
:10391000F0BDB1429ED90021002000900191614686
:103920000029AED100980199E4E720236246514670
:103930009B1AD94040460091614688400300009997
:103940000B4380E7624620239B1A2A009A402600F8
:1039500013006246D6401E43B8E761462026012781
:10396000761A00200021F74000900191019781E72D
:103970006746202362463500BC409B1ADD40230089
:103980002B43ADE7024670B50A4392072AD11E4D7C
:10399000EE0104C808C9541B9443344017D0D0B278
:1039A000D9B2401A2106014310D190B299B2401AFF
:1039B000210401430AD110021902000A090A401A1F
:1039C0002102014302D1100E190E401A70BD9A4215
:1039D000DFD010BA19BA884201D9012070BD002089
:1039E000C04370BD02780B7801300131002A09D044
:1039F0009A4207D102780B7801300131002A01D0B8
:0C3A00009A42EFD0D01A70BD0101010104
:0A3A0C0000230360436083607047ED
:0A3A160000230360436083607047E3
:0A3A200000230360436083607047D9
:043A2A0001207047C0
:0A3A2E0010B503681B6A984710BD2D
:0A3A380010B503685B6A984710BDE3
:023A42007047CB
:103A440070B50400002020290ED023000022242574
:103A5400FC33186F90420AD02B005343E618B66922
:103A64008E4202D1181D201870BD0132F2E70020E9
:023A7400FAE76F
:103A7600E02302005B0030B5C45800237132FF32E8
:103A86009C420AD00432151F2D688D4203D166333D
:0E3A96009B00185830BD0133F2E70020FAE71C
:103AA4000300F7B5050004000F000026FC331B6F6C
:103AB40018350193019BB34210D02B68202B0AD1F7
:103AC40039006868FFF75CFF002804D12430704394
:103AD40004302018FEBD01362435EBE70020F9E759
:103AE40010B50400DD30FF300CF0A8FD200010BD3F
:103AF40003680200C31A19880020042903D99B888B
:083B0400834200D0D058704745
:103B0C0080210D4B10B51A680C4B09061A600C4B32
:103B1C000C4A1B680C485B1813600C4B0C4A1B6856
:103B2C005B1813600B4B0C4A1B685B180B4913603A
:103B3C000CF038FC10BDC046A4020020A8020020E6
:103B4C00802E00208C2E0020C81F0020842E0020E8
:103B5C00902E0020882E0020942E0020630E021040
:103B6C00F0B50E1C8BB0011C151C0993071CFDF73E
:103B7C0001FC311C041C301CFDF7FCFB011C201C3F
:103B8C00FDF786F8291C041C281CFDF7F3FB011C0F
:103B9C00201CFDF77DF815F01FFFD549041CFCF720
:103BAC0053FE002800D0A0E1211C381CFDF70AFAB6
:103BBC00211C0590301CFDF705FA211C071C281C44
:103BCC00FDF700FACB4B061C1B680193CA4B0198FE
:103BDC001B680293C94B02991B680393C84B1B6863
:103BEC000493FDF7C7FB0499041C0398FDF7C2FB73
:103BFC00011C201CFDF7F0FC011CFDF749F8039992
:103C0C0006900198FDF7B6FB0499041C0298FDF789
:103C1C00B1FB011C201CFDF73BF8011CFDF738F82B
:103C2C000399041C081CFDF7A5FB0199051C081C35
:103C3C00FDF7A0FB011C281CFDF7CEFC0499051C0C
:103C4C00081CFDF797FB011C281CFDF7C5FC02990D
:103C5C00051C081CFDF78EFB011C281CFDF718F831
:103C6C00051C011C381CFDF785FB211C0790301C22
:103C7C00FDF780FB011C0798FDF7AEFC0699079039
:103C8C00301CFDF777FB291C061C0598FDF772FB11
:103C9C00011C301CFDF7A0FC211C08900598FDF7B9
:103CAC0069FB0699041C381CFDF764FB011C201CE5
:103CBC00FDF792FC934906900798FDF75BFB129970
:103CCC00FDF758FB904C2168FCF7E2FF8D49061C70
:103CDC0020600898FDF74EFB1299FDF74BFB8B4CBF
:103CEC002168FCF7D5FF8749051C20600698FDF775
:103CFC0041FB1299FDF73EFB854F3968FCF7C8FF75
:103D0C008449041C38600998FDF734FB8249071C70
:103D1C000798FDF72FFB311CFCF7BAFF391CFCF799
:103D2C00B7FF7C49071C1098FDF724FB7A49061C49
:103D3C000898FDF71FFB291CFCF7AAFF311CFCF7A8
:103D4C00A7FF744905901198FDF714FB7249051CE7
:103D5C000698FDF70FFB211CFCF79AFF291CFCF7BA
:103D6C0097FFFC21041C89051298FDF703FB8022A8
:103D7C00019B1206061C391C9818FDF7FBFA0599D5
:103D8C00051C0498FDF7F6FA011C281CFDF724FC11
:103D9C00211C051C0298FDF7EDFA011C281CFDF7EF
:103DAC001BFC311CFDF7E6FA0399FCF771FF534B32
:103DBC00391C186006900398FDF7DCFA211C051CD1
:103DCC000498FDF7D7FA011C281CFCF761FF059934
:103DDC00051C0298FDF7CEFA011C281CFDF7FCFB14
:103DEC00311CFDF7C7FA0199FCF752FF414B0599BD
:103DFC00186007900398FDF7BDFA211C051C01986B
:103E0C00FDF7B8FA011C281CFDF7E6FB391C051C54
:103E1C000298FDF7AFFA011C281CFCF739FF311C86
:103E2C00FDF7A8FA0499FCF733FF354B051C186015
:103E3C00211C0398FDF79EFA0599041C0198FDF7C7
:103E4C0099FA011C201CFCF723FF391C041C049854
:103E5C00FDF790FA011C201CFDF7BEFB311CFDF791
:103E6C0089FA0299FCF714FF234B06991860041C7D
:103E7C00081CFDF77FFA0799071C081CFDF77AFA56
:103E8C00011C381CFCF704FF291C061C281CFDF720
:103E9C0071FA011C301CFCF7FBFE211C051C201CBC
:103EAC00FDF768FA011C281CFCF7F2FE15F094FDD6
:103EBC00124B041C011C1868FDF784F80F4B211CD5
:103ECC0018600C4B1868FDF77DF80A4B211C186024
:103EDC000B4B1868FDF776F8094B211C1860064B44
:103EEC001868FDF76FF8044B18600BB0F0BDC046B6
:103EFC00BD378635802E0020882E0020A40200209D
:103F0C00842E00208FC2F53C842B0020882B0020AF
:0C3F1C008C2B002035FA8E3C0000604029
:103F2800F0B58D4B8BB01D688C4B07901B680891C2
:103F380001938B4B01991B68281C0293894B0992AA
:103F48001B680393884B1B680493884B1F68884B36
:103F58001B680593874B1E68FDF70EFA0399041C2E
:103F68000298FDF709FA011C201CFDF737FB391CE4
:103F7800041C0498FDF700FA011C201CFDF72EFB19
:103F8800311C041C0598FDF7F7F9011C201CFDF7EE
:103F980025FB03990690281CFDF7EEF90299041CED
:103FA8000198FDF7E9F9011C201CFCF773FE311C90
:103FB800041C0498FDF7E0F9011C201CFCF76AFEBC
:103FC8000599041C381CFDF7D7F9011C201CFDF7C6
:103FD80005FB391C0090281CFDF7CEF9311C041C88
:103FE8000298FDF7C9F9011C201CFDF7F7FA04999E
:103FF800041C0198FDF7C0F9011C201CFCF74AFEBF
:104008000599041C0398FDF7B7F9011C201CFCF75F
:1040180041FE311C041C281CFDF7AEF9391C051C97
:104028000298FDF7A9F9011C281CFCF733FE049936
:10403800051C0398FDF7A0F9011C281CFDF7CEFA12
:104048000599051C0198FDF797F9011C281CFCF738
:1040580021FE211C051C201CFDF78EF90099071C68
:10406800081CFDF789F9391CFCF714FE011CFCF744
:1040780011FE011CFE208005FDF7B0FA0099061C10
:104088000698FDF779F9291C0190201CFDF774F9B1
:10409800011C0198FCF7FEFD011CFCF7FBFD311C1F
:1040A80015F098FC3449FDF767F9099B211C186045
:1040B8000698FDF761F9291C061C0098FDF75CF9C4
:1040C800011C301CFDF78AFA011CFCF7E3FD2B49A3
:1040D800061CFCF7BBFB002838D1FE21301C8905E3
:1040E800FCF7C8FB002833D1301C15F021FC22490D
:1040F800FDF742F9089B291C1860281CFDF73CF9BC
:10410800391CFCF7C7FD011CFCF7C4FD011CFE208F
:104118008005FDF763FA291C061C0698FDF72CF9A3
:10412800211C051C0098FDF727F9011C281CFCF729
:10413800B1FD011CFCF7AEFD311C15F04BFC0E491E
:10414800FDF71AF9079B18600BB0F0BD0B4ECBE7D3
:10415800FE26B605C8E7C046A8020020A402002033
:104168008C2E0020802E0020902E0020842E0020EF
:10417800942E0020882E0020E12E6542000080BF8A
:10418800F7B50D1C0021041C01921F1CFCF77CFBD9
:1041980000285CD1324E64006408291C201CFCF7FE
:1041A80055FB8023002850D1291C201CFDF716FA46
:1041B800291C041C2B48FDF711FA011C201CFCF7D4
:1041C80003FF0199FDF7D8F8FE218905041CFCF7C7
:1041D80051FB002801D0FE24A405211C201CFDF75A
:1041E800CBF8211CFDF7C8F8391CFDF7C5F8051CEC
:1041F800FE20391C8005FDF7F1F9211CFDF7BCF8FC
:10420800011C281CFCF746FD0021041CFCF71EFBC2
:1042180000281FD1FE21201C8905FCF72BFB002854
:104228001AD1211C301CFDF7A7F80F49FDF7A4F897
:104238008621C905FCF72EFDFDF7AAFB28232728B0
:1042480003DDDC2800DDDC20C3B21800FEBDFE263D
:10425800B605A0E70024E4E7FE24A405E1E7C0468C
:0C426800000080BF000034420000B8429B
:1042740070B50C00FDF7AEFB1C4BA400E158FDF734
:10428400AFF91B4B051CE058011CFCF705FD041C91
:1042940068004008211CFCF7DBFA00281ED100212D
:1042A400281CFCF7F3FA002802D180231B06E4182B
:1042B400211C281CFDF794F90E49FCF787FE0E49D2
:1042C400041CFCF7C5FA00280AD1FE21201C89052C
:1042D400FCF7D2FA002805D1201C70BD0024FBE7AE
:1042E400054CF9E7FE24A405F6E7C0465C0200206D
:0C42F4006C0200200000B442000080BFFB
:10430000514BF7B51B78514D0E002F68002B05D18E
:10431000381CFCF75FFBC3B21800FEBD0221FFF79B
:10432000A9FF0321041C3000FFF7A4FF011C201C7F
:10433000FDF758F94649041CFCF78CFA002876D1A1
:10434000FE21201C8905FCF799FA002872D1002172
:10435000201CFCF79DFA00286FD0FE26B6056400ED
:1043600064083C49201CFCF789FA002867D03949C9
:10437000201CFDF737F93849FCF72AFE041C211CE4
:10438000201CFCF7FDFF211CFCF7FAFF3349FCF76A
:10439000F7FF33490190201CFCF7F2FF011C019844
:1043A000FCF77CFC311CFCF7EBFF2E49FCF7E8FF27
:1043B0008621C905FCF772FC2B49061CFCF74AFA5A
:1043C00000283ED12949301CFCF758FA002800D0BB
:1043D000264E391C301CFDF705F92549FCF7D0FFA6
:1043E000391CFCF75BFC0021061C2860201CFCF734
:1043F0002BFA00280FD08621301CC905FDF7F2F8F2
:10440000802140004008C905FCF72EFA002802D0A0
:104410008623DB052B602868FDF7BEFA28232728B2
:1044200000DC79E7DC2800DC75E7DC2073E7084C6A
:10443000261C94E7FE24A405FAE7054E8FE7002426
:104440009DE7094EC5E7C046BF710020AC020020C1
:10445000000080BFCDCC4C3ECDCC4C3FCDCCCC3D34
:104460006666663F0000B8420000204200005C43E0
:044470008FC2F53DC5
:1044740070B506AE04AC3678257805AC2478002EE9
:1044840001D008263443C3706B40662682705A40BC
:1044940099234170514044714C40067005718471F8
:0444A400C37170BDB3
:1044A800030070B5044A04C30A1D70CA70C31268B9
:0C44B8001A600B7D037570BD24660210B5
:1044C40070B5030004000D001600002809D0174938
:1044D400FFF756FA002806D1DC2333705C3B2B70BF
:1044E4007F3B180070BD12492000FFF749FA0028ED
:1044F40003D1282333705833F1E70E492000FFF726
:104504003FFA002805D180233370583B2B70273B9A
:10451400E7E709492000FFF733FA00239842E0D186
:10452400803333705C332B70DB3BDAE75B0F0210B4
:0C453400630F02106C0F0210710F0210D8
:10454000F0B5334B85B01B78009107000192314CD8
:104550003149002B12D0314B31491B78002B0DD142
:1045600002AB9E1D802302AAD51D2A0031003370A4
:104570002B70FFF7A7FF002805D12A4920000BF078
:1045800017FF05B0F0BD3278274B1A702A78274BF9
:104590001A706A46264B12791A70DC23009A9A42E6
:1045A00003D81300A52A00DAA523DBB21A1CC02BFE
:1045B00001D9204A127820491C320A701A1CCE2BCD
:1045C00001D91E4A12781E490E320A701A1CD02BCD
:1045D00001D91C4B1A7813001B4A0C33DBB2137041
:1045E0001A4A1B49137000221A4B20001A601A4BFA
:1045F00014321A60194B0A3A1A600123074A1370E1
:104600000BF0B1FE390020000BF0E6FEB9E7C04622
:10461000C0710020C81F0020BE110210C17100200F
:10462000DF11021004120210820200207E0200201C
:104630007D020020040E02107C020020050E0210F4
:1046400081020020060E0210800200207F0200205E
:104650003F120210242C0020202C0020282C0020A7
:1046600070B5002400251026244B32001C70244B0A
:1046700021001C70234B24481C70244B1C70244BBD
:104680001C70244B1C60244B1C60244B1D60244B6D
:104690001D60244B1D6017F073F932002100224881
:1046A00017F06EF9FE22214B92051D60204B1D6014
:1046B000204B1D60204B1A608622204BD2051D60C6
:1046C0001F4B1D601F4B1D601F4B1A6001221F4BAB
:1046D0001A7001231E4A5B4213601E4A13601E4A71
:1046E00014601E4A13601E4B1C701E4B1C701E4B28
:1046F0001C601E491E480BF05BFE70BDC07100209F
:10470000C1710020C2710020002C0020BF71002068
:10471000CE7100203C2C0020FC2B0020482C0020D7
:10472000442C0020402C0020102C00208C2B00203A
:10473000882B0020842B0020A4020020882E00203B
:10474000842E0020802E0020AC020020B5710020B5
:10475000A00200208C020020E02C00208802002013
:10476000C7710020C8710020E42C0020081102103D
:04477000C81F00203E
:10477400F0B589B003930EAB1B78494C04930FAB8F
:104784001B78051C059310AB1B780F1C069311AB0B
:104794001B7844492000161C07930BF0E2FD281CEB
:1047A400FEF740FF012502000B00009520000BF0EE
:1047B4003FFF3D4920000BF0D4FD381CFEF732FFCB
:1047C400009502000B0020000BF032FF3749200057
:1047D4000BF0C7FD301CFEF725FF00950B0002000F
:1047E40020000BF025FF324920000BF0BAFD0A220D
:1047F400069920000BF045FE2E4920000BF0B1FD78
:104804000A22049920000BF03CFE2B4920000BF0F7
:10481400A8FD0A22039920000BF033FE274920004B
:104824000BF09FFD0A22059920000BF02AFE244973
:1048340020000BF096FD0A22079920000BF021FEC0
:10484400204920000BF08DFD0A22129920000BF064
:1048540018FE1D4920000BF084FD0A221399200044
:104864000BF00FFE194920000BF07BFD0A2214996E
:1048740020000BF006FE164920000BF072FD0A2200
:10488400159920000BF0FDFD124920000BF069FD85
:10489400114B0A22196820000BF0F7FD09B0F0BD96
:1048A400C81F0020F90E0210EF0E0210F30E0210C2
:1048B400F70E0210FC0E0210010F0210060F021078
:1048C4000B0F0210110F0210160F02101B0F021013
:0C48D400200F0210250F0210A00200208F
:1048E000013810B506280CD8FBF7BEFD04210C11C9
:1048F0000B0B15000122104B10491A7010480BF0D9
:1049000057FD10BD01220F4B0F491A70F6E7FFF754
:10491000FDF80E49F2E701220D4B1A7000220D4BF3
:104920001A700CF029F80C4B0C491860E6E70122CC
:104930000B4B0C491A70E1E7BD7100208D0E02107F
:10494000C81F0020BE7100209E0E0210B20E021081
:10495000C7710020C8710020E42C0020C30E021093
:08496000BC710020DE0E021004
:10496800F0B5774B87B01B7805900C00002B5ED014
:10497800744B1B78002B5AD00BF0FAFF724A019047
:104988001168431A4F2B52D910602000FDF720F808
:104998006E4D6968FCF722FE6D4F7968FCF714FBD1
:1049A800E6236C4E5B00F4580490E3680598029384
:1049B80023690393FDF70CF82968FCF70FFE3968A3
:1049C800FCF702FB0299FCF7FFFA14F08FFFFCF7E3
:1049D800DFFF039BC0187F2800DD7F20020063688B
:1049E800803201DA80204042187002990498FCF75E
:1049F800EBFA14F07BFFFCF7CBFF039BC0187F2872
:104A080000DD7F20E62302005B00F3585B688032FC
:104A180001DA802040425870E4235B00F05804F02B
:104A280085FF002805D04C494C480BF0BDFC07B069
:104A3800F0BDE8235B00F35800215D688023012264
:104A4800040069565B42A85688421ADC061C984244
:104A580000DA1E1C73B20132092AF4D1CB1A029370
:104A6800A31E5A1E9341029804333D493D4A83428E
:104A78000BDD01235B420B60002111603A4A136091
:104A8800D5E70B0014000100E5E70B68A34245D009
:104A9800019B0C601360002CC9D01368002BC6D092
:104AA800019AD31A5E22FF329342C0D92E4B2F4E61
:104AB8001C603368A342BAD02D4F019B3A689B1AF9
:104AC8002C4A9342B3D9254D2B4928000BF047FCBB
:104AD8002A49082C02D82A4BA200D15828000BF0EA
:104AE80049FC284928000BF03AFC0A22210028003A
:104AF8000BF0C5FC244928000BF031FC0A2202996E
:104B080028000BF0BCFC214928000BF04DFC2000CC
:104B1800FFF7E2FE019B34603B6088E7002CBCD1C4
:104B28001368019AD31A5E22FF32934200D87EE7B7
:104B38000D4B5F3A1C600D4BFF3A1A6077E7C04691
:104B4800C9710020C6710020602C0020900200204E
:104B580098020020BC2E0020770F0210C81F0020EA
:104B68008C020020E02C0020A002002088020020F7
:104B78005C2C002083030000890F0210850E0210B0
:104B88003C0E0210980F02109F0F0210A90F02107E
:104B9800F0B5050006003E4BD535C35ADD368FB05B
:104BA8000400FF35FF36002B0BD13A490BA80BF058
:104BB80092FD0BA930000BF0A1FD01230BA82B716E
:104BC80034E0354BC35A002B01D13449EEE70B686A
:104BD800C8182060FEF78AFF03282CD0304905A8A2
:104BE8000BF079FD05A908A80BF098FD032108A88A
:104BF8000BF0FAFD2B490BF0E9FD07002068FEF7E2
:104C080075FF010038000BF0FAFD01000BA80BF04E
:104C180085FD0BA930000BF071FD01230BA82B714A
:104C28000BF00AFD08A80BF007FD05A80BF004FD22
:104C380028000FB0F0BDB02011F0CAFF0023029386
:104C480001938023DB0100932300E9332168221DAF
:104C5800FF33070004F0CEFBE4235B00E750380085
:104C680004F072FD1049071EA0D1E4235B00010087
:104C7800E05804F035FCE6235B00E050043B3900C3
:104C8800E05804F00BFCE8235B00E05007498DE78F
:104C9800E841000096280210EA410000B8280210F6
:104CA800DB280210FD28021004290210FC2802103B
:104CB800F0B585B005000E0014000393202908D133
:104CC800234804F065FE234804F062FE012005B085
:104CD800F0BD03681B6A98470190002807D01E485A
:104CE80004F056FE31001D4804F052FEEEE7FC23A6
:104CF8009C46AC446346196F092906D93100184807
:104D080004F046FE0A211748EEE7242322004B430D
:104D1800EB1802931F1D19CA19C73C0089CA89C418
:104D280089CA89C4029B01319E6163461967E021E3
:104D380049006B5801989A00AA181400FC34666759
:104D4800CC24039E6400013316516B50BFE7C04664
:104D5800BC270210ED270210022802103128021089
:084D68005228021083280210FA
:104D700070B52F4D8AB02F4928000BF019FB2E4E2D
:104D80002E4B2F4A01A8F25006F0E4FF2D4C2E4B7B
:104D900001AA09212000FFF78FFF01A805F030F9D3
:104DA0002A4B01AA13212000FFF786FF01A807F074
:104DB000B9F8274B01AA19212000FFF77DFF01A8B0
:104DC00005F052FC234B01AA72212000FFF774FF6B
:104DD00001A805F0DBFA204B01AA06212000FFF70D
:104DE0006BFF1E493000FFF7D7FE1D4908300BF05E
:104DF00015FD1C491C4B002812D1187008701B4966
:104E000028000BF0B0FA1A4901A80BF08BFC01A99D
:104E100028000BF0D7FA01A80BF012FC0AB070BD05
:104E2000012228000A7013491A700BF0C1FAF5E745
:104E3000C81F00202E110210BC2E0020E8410000E7
:104E400002000900C02E00204D74001001740010F3
:104E500039750010FD730010F97300105012021024
:104E6000FC280210C9710020C67100205D110210DB
:084E70009830002073110210BC
:104E780070B5174801F0E4FD164801F0E1FD164849
:104E88000BF010F9154C164B002563602300FC331A
:104E98005D67E2235B00E5500433E5500433E550D9
:104EA800104A0433E5500433E25001220433E2543B
:104EB8000D490E4825600BF00EFC0D4B0D4AE550D0
:104EC8000D4B0E49E550200011F060FC70BDC04646
:104ED800AC700020C47000206C2B0020BC2E002079
:104EE800100E0210600E0210FC28021098300020EC
:104EF800E841000048020020EC410000E53A0010BB
:104F080070B5154E8CB0367810AC11AD24782D786C
:104F1800002E1ED0114E3678002E1AD00194009320
:104F2800029513000A00010004A8FFF79FFA0C4934
:104F380006A8FFF7B5FA0B4C0B4A06A9200001F0AA
:104F4800E5FC082204A9200001F0FDFC200001F086
:104F5800F5FC0CB070BDC046CD7100205802002091
:0C4F68006C2B0020AC7000209A1F000091
:104F740037B50F4A030012780E4D002A03D00E4AAB
:104F84001278002A02D100232B7037BD002480211F
:104F940002220800009201942632FFF7B3FF074B68
:104FA400074908482C701C700BF000FAEDE7C04666
:104FB400CD710020C071002058020020C171002072
:084FC4002B0F0210C81F002092
:104FCC0010B50E4B86B01B78002B15D00C496846DB
:104FDC00FFF764FA0B4C0C4A6946200001F094FC74
:104FEC000A490222200001F0ACFC200001F0A4FCD4
:104FFC00074908480BF0D6F906B010BDCD7100205A
:10500C006C2B0020C4700020901F00004D12021069
:08501C00430F0210C81F002021
:1050240010B50E4B86B01B78002B15D00C49684682
:10503400FFF738FA0B4C0C4A6946200001F068FC73
:105044000A490222200001F080FC200001F078FCD3
:10505400074908480BF0AAF906B010BDCD7100202D
:105064006C2B0020C4700020901F0000A0270210A9
:08507400AB0F0210C81F002061
:10507C0070B51A4B86B01B78002B2CD0184B1B78B4
:10508C00002B28D0041E00DC01240025154968469D
:10509C00FFF704FA144E154A6946300001F034FC4F
:1050AC0008221349300001F04CFC300001F044FCA4
:1050BC0001351E200BF074FCAC42E7DC01220D4DD7
:1050CC000D4B0E4928001A700BF047F90A222100EB
:1050DC0028000BF0D6F906B070BDC046CD7100208B
:1050EC00580200206C2B0020AC7000209A1F00008E
:1050FC00A2270210C81F0020B8710020C60F021092
:10510C0030B5040091B0002827D00378002B24D0B0
:10511C003F2116F0A7FF210005000200684616F09B
:10512C0097FB00246B465C556B46185D002805D038
:10513C0018F0AEFA6B4618550134F5E79C496846F1
:10514C00FEF71AFC002805D09A496846FEF714FCB5
:10515C00002804D1984B01221A7011B030BD974928
:10516C006846FEF709FC002805D095496846FEF70D
:10517C0003FC002801D1934BEDE793496846FEF7F9
:10518C00FBFB002805D091496846FEF7F5FB00288B
:10519C0001D18F4BDFE78F496846FEF7EDFB002806
:1051AC000BD08D496846FEF7E7FB002805D08B49EC
:1051BC006846FEF7E1FB002801D1894BCBE7894912
:1051CC006846FEF7D9FB002805D087496846FEF7EC
:1051DC00D3FB002801D1854BBDE785496846FEF716
:1051EC00CBFB002805D083496846FEF7C5FB002899
:1051FC0004D1FEF785FC804B0022ADE77F49684661
:10520C00FEF7BAFB00280BD07D496846FEF7B4FBCD
:10521C00002805D07B496846FEF7AEFB002802D17A
:10522C00FFF718FA99E778496846FEF7A5FB0028BE
:10523C0002D1FFF7C5FE90E774496846FEF79CFB68
:10524C00002805D1FFF7BCFE0620FFF711FF84E70D
:10525C006F496846FEF790FB002805D06D496846FB
:10526C00FEF78AFB002803D1FFF7D6FE6A4BC3E793
:10527C006A496846FEF780FB002805D068496846F5
:10528C00FEF77AFB00280DD10023664A664913709D
:10529C00664A1370664A1370664A136066480BF0D0
:1052AC0081F85AE765496846FEF766FB002805D089
:1052BC0063496846FEF760FB002804D10122594B74
:1052CC0060491A70EAE705225F49684616F084FEC9
:1052DC00002808D15D4B1A785D4B19786B46581D28
:1052EC00FFF728F939E75B496846FEF745FB0028CC
:1052FC0005D1564B58481A78554B1978F0E7574951
:10530C006846FEF739FB002805D1504B54481A78F3
:10531C004F4B1978E4E753496846FEF72DFB0028FC
:10532C0005D14A4B50481A78494B1978D8E74F4960
:10533C006846FEF721FB002805D1444B4C481A78EF
:10534C00434B1978CCE74B496846FEF715FB3A4CB2
:10535C00002805D048496846FEF70EFB00280FD1FF
:10536C000123464D46492A78200053402B700AF001
:10537C00F4FF2B784349002B00D1434920008EE7E2
:10538C0042496846FEF7F8FA002805D040496846BD
:10539C00FEF7F2FA002801D13E49EFE73E49200022
:1053AC000AF0DBFF694620000BF010F8D5E6C0468A
:1053BC0037100210F00F0210BE7100201A100210EC
:1053CC00F80F0210BC710020FD0F0210FF0F02102D
:1053DC00BD71002004100210181002101E100210D3
:1053EC00BA7100200610021008100210BB710020C8
:1053FC001410021011100210B5710020951002103B
:10540C00161002101C10021031100210281002107D
:10541C00E50F02102E100210B8710020701002104F
:10542C0039100210580200203F100210C0710020E9
:10543C00C1710020242C0020C81F0020691002100C
:10544C006B100210721002108810021084020020DF
:10545C0083020020F50F02105B0F02108E10021059
:10546C00630F0210911002106C0F021094100210B6
:10547C00710F02109810021097100210C6710020C4
:10548C009A100210DF0F0210E70F0210F610021034
:0C549C00A0100210A5100210F810021061
:1054A800E121F0B5454C87B04902200009F06CFABB
:1054B80043480BF077FA434920000AF075FF424948
:1054C80020000AF04CFF414800F0B2FD002809D145
:1054D80020003F49FA240AF067FF640020000BF01F
:1054E80061FAFBE73B4920000AF05EFF3A492000D9
:1054F8000AF035FF394E200031680AF03BFF384981
:1055080020000AF02CFF374D374B31681A68280005
:10551800FA2701F044F91F267F00280001F02FF92F
:1055280003280AD0013E002E07D038000BF03AFAC3
:105538002E2120000AF022FFEFE7280001F01FF9D2
:105548002A4B032833D10122294920001A700AF076
:1055580006FF2900684601F009F9694620000AF0AB
:1055680041FF244B244819680AF090FE2349244837
:1055780001F05CF92349244801F058F9FFF722FDAE
:105588000620FFF777FD214920000AF00DFFFFF7FD
:10559800EBFB0BF0FDF91E4B18600BF0E9F91D4B06
:1055A80018600BF0E5F91C4B186007B0F0BD00223D
:1055B8001A4920001A700AF0F7FEE4E7C81F002015
:1055C800DC0500008B290210B529021054160020B2
:1055D800D5290210E7290210EA29021054020020F6
:1055E800002A0210AC16002050020020CD710020C5
:1055F800062A02104C0200206C2B00209B1F000082
:10560800AC7000209C1F0000C4700020552A0210B6
:10561800582C0020542C0020642C0020242A02102E
:10562800F0B5D34C97B0200000F096FC00285DD070
:10563800200000F098FC002858D012AB11AA10A93D
:10564800200000F0E7FB15AB200014AA13A900F016
:105658002BFCC84B14981B78139C159D002B00D16C
:10566800D2E1C54B1B78002B00D1FCE1119B0993BB
:10567800109B0893129B0A93C04B1968FBF7AEFF67
:1056880080231B060B90E018BD4B1968FBF7A6FF9B
:10569800BC4B0C901968281CFBF7A0FF071C0BF0EB
:1056A80077F9B94D06002B68C01AFCF7DBF9B74942
:1056B800FBF762FEB649041CFBF7DCF8002800D0B3
:1056C800B34C802212069446089B2E60634419004E
:1056D8000C9B0A9A00930998029401970B9BFEF77A
:1056E80041FAAC4AAC49AD48FEF71AFC0E200BF063
:1056F8007FF90C900F200BF07BF90D9010200BF028
:1057080077F90E9011200BF073F90C990F900D9802
:10571800FFF726F9974B1B78002B00D10DE10BF012
:1057280027F99F4C2368C01A132800D805E10BF00D
:105738001FF99A4B2060186880231B06C018FF22A7
:10574800FC2383219B059205C905FEF719FDFC235F
:10575800FE22089090489B05920592490068FEF742
:105768000FFDFC23FE2209908A489B0592058D496E
:105778000068FEF705FD0F9907000E98FEF7BCFDBF
:105788006A4620215218884B127805001A70874BF8
:10579800874A18701378002B00D117E200230124E0
:1057A8001370844B1C70844B1B78002B04D1FFF7BB
:1057B80009FC0620FFF75EFC804A13780B93002B48
:1057C80007D0002313707E4A089813600224FFF75D
:1057D800CDFB7C4B1A780A92002A1BD07A4E32688D
:1057E800002A00DC12E2794B00241F78784B38003D
:1057F8001B780993774B09991D78774B2A001B78FA
:105808000094089301230193089BFFF779FB336801
:10581800013B33606B4B1B78002B10D1654B1B7819
:10582800002B0CD00BF0A4F8654B1B68984206D2ED
:105838006A4B1A78131CAA4200D22B1CDDB2684BA3
:105848001B78002B43D0674E3368002B14D00BF025
:105858008FF83368C01A644B984209D90023604A0C
:1058680062491370624A6348137033600AF09CFD02
:105878005B4B1B78002B2AD04E4B1B78002B2AD071
:10588800504B1B78002B29D1594B1E78002E0ED176
:10589800DC2F00D0F2E12900089A5748FEF74CFEA9
:1058A8000123534A13704E4B1E704E4B1E60504AD4
:1058B8001378002B0BD03B00783BDBB2102B06D8BB
:1058C800099B783BDBB2102B01D800231370394BAE
:1058D8001B78002B02D1002C00D128250A9B002B15
:1058E8000AD10B9B002B07D101930094089B2A0037
:1058F80009993800FFF704FB0BF03AF83F4E33687C
:10590800C01A202819D90BF033F80F9B3060079381
:105918000E9B204A06930D9B1F4905930C9B1F481D
:105928000493089B03940293099B019500931268C2
:105938003B0009680068FEF719FF2E4C200008F0AC
:1059480033FF002800D13FE1200008F0B5FFC0B2C6
:105958000D28F2D02A4C23680A2800D0A3E1002B96
:10596800EBDD00252748C554FFF7CCFB2560E4E7AD
:1059780054160020C2710020BF710020302C002076
:10598800342C0020382C0020582C0020BD378635B8
:10599800CDCC4C3D982E00207C2E0020DC700020C1
:1059A800542C0020000020418402002083020020A3
:1059B800BE710020C0710020B8710020BC710020A9
:1059C800242C0020C1710020202C002082020020FD
:1059D8007E0200207C0200207D0200207F02002041
:1059E800C7710020E42C0020B80B000069290210C0
:1059F800C8710020C81F0020710F0210642C0020FD
:105A0800F429002075710020AC4F3968FBF742F982
:105A18003860AB4F211C061C3868FBF7DFFD386087
:105A2800A84F041C3968281CFBF734F9A64A051C42
:105A38001368386001331360C72B14DDA349301C89
:105A4800FBF7C2FAA24BA1491860201CFBF7BCFA6D
:105A5800A04B9E491860281CFBF7B6FA9E4B9F4A3C
:105A68001860012313709E4B1C78002C46D19D4B67
:105A7800E058C0B20AF0BCFFFBF7AAFF9A4E051C1B
:105A8800011CA059FBF706F9291CA051281CFBF79B
:105A980073FC964F011CE059FBF7FCF8E051043405
