:020000041000EA
:1000000000B5324B212058609868022188439860DF
:10001000D860186158612E4B002199600221596106
:100020000121F02299502B49196001219960352056
:1000300000F044F80222904214D00621196600F024
:1000400034F8196E01211966002018661A6600F04E
:100050002CF8196E196E196E052000F02FF8012189
:100060000842F9D1002199601B49196000215960AB
:100070001A491B48016001219960EB211966A021F2
:10008000196600F012F800219960164914480160C1
:100090000121996001BC002800D000471248134993
:1000A000086003C880F30888084703B5996A0420EC
:1000B0000142FBD001200142F8D103BD02B5186610
:1000C0001866FFF7F2FF186E186E02BD00000240BE
:1000D000000000180000070000035F00212200005C
:1000E000F4000018222000A00001001008ED00E03C
:1000F00000000000000000000000000074B24E7A12
:1001000000000420E3010010C3010010E903001007
:10011000C1010010C1010010C1010010C101001097
:10012000C1010010C1010010C10100104503001001
:10013000C1010010C1010010C9030010D503001057
:10014000CD010010CD010010CD010010CD01001037
:10015000CD010010CD010010CD010010CD01001027
:10016000CD010010CD010010CD010010CD01001017
:10017000CD010010CD010010CD010010CD01001007
:10018000CD010010CD010010CD010010CD010010F7
:10019000CD010010CD010010CD010010CD010010E7
:1001A000CD010010CD010010CD010010CD010010D7
:1001B000CD010010CD010010CD010010CD010010C7
:1001C00000BE00BE00BE00BE00BE00BE00F03FF894
:1001D000103800BE00202049086006C881F3088856
:1001E00010471E48006800282DD10CA40ECC002911
:1001F00002D000F010F8F9E719491A4A002000E08F
:1002000001C19142FCD1184988471849884700BE6E
:10021000FDE701C901C29A42FBD3704794BA0110AD
:10022000C0000020C8100020A8CA0110000004204F
:1002300000000420A8CA01100010042000100420AF
:100240000000000070470A480FF09AF90047EFF3EA
:100250000580C0B27047000008ED00E0000000D04B
:10026000D8100020DCAE0020CD02001029D00010F4
:1002700057560000F8B5C046F8BC08BC9E4670470B
:10028000F8B5C04610B5064C2378002B07D1054BB6
:10029000002B02D0044800E000BF0123237010BDF2
:1002A000281600200000000084020010044B10B546
:1002B000002B03D00349044800E000BF10BDC04636
:1002C000000000002C16002084020010164B002BAA
:1002D00000D1144B9D46402292029A1A9246002168
:1002E0008B460F461348144A121A11F08FF90F4B20
:1002F000002B00D098470E4B002B00D098470020D1
:10030000002104000D000D48002802D00C480CF01C
:100310008EFE10F0E1FC2000290009F05BF80CF0E3
:1003200083FEC0460000080000000420000000001A
:1003300035930010D8100020DCAE00202FD0001024
:10034000000000007046C0082CD3EFF309808169DB
:1003500002390978002929D101B50FC8B8470CBC6A
:1003600003C29E461E4B06CB91421ED0083B1A602C
:10037000002909D0EFF3098020388863F0C0444693
:100380004D4656465F46F0C0906B1030F0C8A04610
:10039000A946B246BB4680F309882038F0C802203F
:1003A000C0430047EFF30880D1E770470D4A136858
:1003B0009942FAD801B5890053589C460FC8E047C6
:1003C0000CBC10609E46704701B508F079FA03BC7A
:1003D0008E46C7E701B508F031FA03BC8E46C1E787
:1003E000E8040020D4910110102304E0202302E04F
:1003F000302300E040239C46F0B404AE7546E80884
:1004000001D3EFF309860E4F0FCE0FC70FBC0FC7F6
:100410004046494652465B460FC71DCE3100A60AEC
:1004200000D304316E0900D248311FC7EFF30980B1
:100430006946EFF3148663C7604601490CF090F9F2
:100440004CAE002001480421014B1847E006002073
:1004500091F5001002B47146490849000956490057
:100460008E4402BC7047C04602B471464908490038
:10047000095C49008E4402BC7047C0460022430814
:100480008B4274D303098B425FD3030A8B4244D35C
:10049000030B8B4228D3030C8B420DD3FF2209029E
:1004A00012BA030C8B4202D31212090265D0030B5D
:1004B0008B4219D300E0090AC30B8B4201D3CB0353
:1004C000C01A5241830B8B4201D38B03C01A524195
:1004D000430B8B4201D34B03C01A5241030B8B4297
:1004E00001D30B03C01A5241C30A8B4201D3CB0282
:1004F000C01A5241830A8B4201D38B02C01A524167
:10050000430A8B4201D34B02C01A5241030A8B4269
:1005100001D30B02C01A5241CDD2C3098B4201D381
:10052000CB01C01A524183098B4201D38B01C01AFF
:10053000524143098B4201D34B01C01A5241030976
:100540008B4201D30B01C01A5241C3088B4201D325
:10055000CB00C01A524183088B4201D38B00C01AD2
:10056000524143088B4201D34B00C01A5241411AF9
:1005700000D20146524110467047FFE701B5002006
:1005800000F0F0F802BDC0460029F7D076E77047CA
:1005900003460B437FD4002243088B4274D30309E4
:1005A0008B425FD3030A8B4244D3030B8B4228D385
:1005B000030C8B420DD3FF22090212BA030C8B42AB
:1005C00002D31212090265D0030B8B4219D300E04B
:1005D000090AC30B8B4201D3CB03C01A5241830BD0
:1005E0008B4201D38B03C01A5241430B8B4201D380
:1005F0004B03C01A5241030B8B4201D30B03C01AA9
:100600005241C30A8B4201D3CB02C01A5241830A22
:100610008B4201D38B02C01A5241430A8B4201D351
:100620004B02C01A5241030A8B4201D30B02C01A7B
:100630005241CDD2C3098B4201D3CB01C01A5241E2
:1006400083098B4201D38B01C01A524143098B426B
:1006500001D34B01C01A524103098B4201D30B0154
:10066000C01A5241C3088B4201D3CB00C01A524179
:1006700083088B4201D38B00C01A524143088B423E
:1006800001D34B00C01A5241411A00D201465241D7
:10069000104670475DE0CA0F00D04942031000D3F6
:1006A0004042534000229C4603098B422DD3030A4B
:1006B0008B4212D3FC22890112BA030A8B420CD35B
:1006C000890192118B4208D3890192118B4204D384
:1006D00089013AD0921100E08909C3098B4201D304
:1006E000CB01C01A524183098B4201D38B01C01A3E
:1006F000524143098B4201D34B01C01A52410309B5
:100700008B4201D30B01C01A5241C3088B4201D363
:10071000CB00C01A524183088B4201D38B00C01A10
:100720005241D9D243088B4201D34B00C01A5241E7
:10073000411A00D20146634652415B10104601D374
:100740004042002B00D54942704763465B1000D3FE
:10075000404201B5002000F005F802BD0029F8D0A4
:1007600016E770477047C046D0400B1CD1409C46EE
:10077000203AD3401843524263469340184370478F
:100780009140031C90409C46203A934019435242AA
:100790006346D340194370478446101C62468C461A
:1007A000191C634600E0C0461FB501F021FE002879
:1007B00001D40021C8421FBD10B501F079FD4042AF
:1007C000013010BD10B501F013FE002801DB002040
:1007D00010BD012010BDC04610B501F009FE002873
:1007E00001DD002010BD012010BDC04610B501F094
:1007F0009BFD002801DC002010BD012010BDC0467B
:1008000010B501F091FD002801DA002010BD012093
:1008100010BDC0468446081C6146FFE71FB500F0C6
:10082000F5FC002801D40021C8421FBD10B500F01E
:1008300077FC4042013010BD10B500F0E7FC002805
:1008400001DB002010BD012010BDC04610B500F036
:10085000DDFC002801DD002010BD012010BDC046D8
:1008600010B500F085FC002801DC002010BD01203F
:1008700010BDC04610B500F07BFC002801DA002056
:1008800010BD012010BDC0461C2101231B0498424D
:1008900001D3000C10391B0A984201D3000A083911
:1008A0001B09984201D30009043902A2105C4018C8
:1008B0007047C0460403020201010101000000006C
:1008C00000000000002B15D1002A13D1002906DBFF
:1008D00001DC002806D00020C043410802E080214E
:1008E0000906002007B4024801A14018029003BD88
:1008F00075FEFFFF03B4684601B5029800F048F9A1
:10090000019B9E4602B00CBC7047C046002B11D123
:10091000002A0FD1002900D1002802D00021C943AC
:10092000081C07B4024802A14018029003BDC0464B
:1009300035FEFFFF03B4684601B5029800F066F883
:10094000019B9E4602B00CBC7047C046F0B5CE4637
:10095000474615042D0C2E0080B50704140C3F0CDF
:100960009946030C7E435D43674363437F19340C10
:10097000E4199C46A54203D980235B029846C444EF
:100980004B4643435143250C36046544360C24043E
:10099000A4195B19591820000CBC90469946F0BD6B
:1009A0009E2110B5C905041CFFF764FF002803D180
:1009B000201C00F03FFE10BD9E21201CC90500F048
:1009C00075FC00F037FE80231B069C466044F2E76E
:1009D00070B500220C4B04000D00FFF711FF00283A
:1009E00004D12000290002F041FB70BD064B00221B
:1009F0002000290001F0D6FF02F038FB80231B06FF
:100A00009C466044F1E7C0460000E041F0B54F4627
:100A10004646D646C0B5040082B00D0091469846C1
:100A20008B422FD82CD04146484602F097FC290033
:100A30000600200002F092FC331A9C46203B9A46A6
:100A400000D576E04B46524693401F004B46624627
:100A500093401E00AF4228D825D05346A41BBD4169
:100A6000002B00DA7BE00022002300920193012397
:100A7000524693400193012362469340009318E04D
:100A80008242D0D900220023009201930A9B002BBE
:100A900001D01C605D600098019902B01CBC9046BA
:100AA0009946A246F0BDA342D7D900220023009266
:100AB00001936346002BE9D0FB0798464146720834
:100AC0000A437B0866460EE0AB4201D1A2420CD835
:100AD000A41A9D41012024196D410021013E2418D2
:100AE0004D41002E06D0AB42EED9013E24196D4196
:100AF000002EF8D100980199534600196941002B46
:100B000023DB2B005246D3402A006446E2401C00FF
:100B100053461500002B2DDB26005746BE40330000
:100B200026006746BE403200801A9941009001912C
:100B3000ACE7624620239B1A4A46DA40614613001E
:100B400042468A4017001F4380E7624620239B1AD3
:100B50002A0066469A402300F3401343D4E76246D6
:100B6000202300219B1A0022009101920122DA40E9
:100B7000019280E72023624626009B1ADE402F0068
:100B8000B0466646B74046463B003343C8E7C046DA
:100B9000F0B583B016001F000090019102F0EAFB4F
:100BA00004000D0002000B0030003900FFF7CEFEFC
:100BB000009A019B121A8B41089920000A604B6031
:100BC000290003B0F0BDC046F8B54746CE46430203
:100BD0005B0A4400C20F9C464800DD004B02240E15
:100BE0005B0A000E80B5984626009146C90FDB00CF
:100BF000271A8A4229D0002F15DD00284AD1002B60
:100C000000D095E0ED08FF2C00D188E06B025B0A74
:100C1000E6B25B02F605580A3043D20710430CBC1B
:100C200090469946F8BD002F00D087E0601CC0B206
:100C3000012800DCB6E0EE1A720100D5C5E0002EF6
:100C40003DD1002200260023E3E7002F00DC96E0E0
:100C500000285DD0FF2C60D08022D20413431B2FCC
:100C600000DDECE02022D21B18009340F8405A1E11
:100C700093410343ED186B017BD50134FF2C00D168
:100C8000B7E0012207262A406B089A4D1D40154304
:100C90002E4029E0FF2CB5D08022D20413431B2F15
:100CA00000DDB2E02022D21B19009340F9405A1E09
:100CB00093410B43ED1A6B015BD5AD01AE093000DA
:100CC000FFF7E2FD05388640844265DC041B3300F3
:100CD00020200134E340041BA640751EAE4133437F
:100CE00007261D0000241E4001224B461A40002EFC
:100CF00004D00F232B40042B00D004356B0100D40B
:100D000080E70134E6B2FF2C2FD1FF26002380E7D5
:100D1000002B52D1FF2C00D074E70A00ED08002D03
:100D2000F3D08023DB032B435B025B0AFF2670E7D3
:100D3000013F002FBED0FF2CB1D163E7002C47D07C
:100D4000FF2869D08024E4047A4225431B2A00DD71
:100D5000C5E02C002026D440B21A95406A1E954169
:100D600025435D1B04008946A5E7AB015B0A50E7FC
:100D7000002401224B461A406B07BAD142E7002FEC
:100D80003BD10134E0B201284ADDFF2CBDD007265B
:100D9000ED186D082E40A7E70723574D241A35405C
:100DA0001E40A1E7002C1BD1002D6ED1002B00D1DD
:100DB0009AE00A001D003C0024E7013F002F00D10B
:100DC00058E7FF2C00D04AE7A7E75E1B894676E785
:100DD000002D1CD10A00FF281FD004001D0011E7C0
:100DE000002D5DD1002B17D180230022DB03FF26CD
:100DF0000FE70A00FF2600230BE7002C21D1002D6E
:100E000066D1FF28E9D11D0087E7012352E77A1C4C
:100E1000A7D0FA43FF2899D10A001D00FF24F1E66C
:100E2000002E21D1002D4FD0002B4CD0ED186B019E
:100E30009ED5314B07362E4001241D4054E7012337
:100E400018E7FF28DFD08024E4047F4225431B2FCE
:100E50004DDC2026F61B2C00B540FC406A1E954157
:100E60002543ED18040006E7002DCCD0002B00D15F
:100E700053E780216046C903084203D04046084238
:100E800000D11D000121114047E7002B00D1B9E638
:100E9000EA1A500125D507265D1B2E40894623E717
:100EA000FF24002B00D1ADE680226046D203104221
:100EB00004D04046104201D11D00894601224B4614
:100EC000FF241A409EE62B00DD080A0000249DE660
:100ED0007A1CC6D0FF43FF28B9D11D001DE70125AC
:100EE0003FE7151E00D044E70022002391E60125CC
:100EF000B7E7C046FFFFFF7DFFFFFFFBF8B5574692
:100F00004E464546DE464402E0B546008846640A41
:100F1000360EC70F002E63D0FF2E24D08023E400AE
:100F2000DB041C43002399469B467F3E43464246D2
:100F30005D02D20F5B006D0A1B0E9046924665D093
:100F4000FF2B55D080220021ED00D2047F3B1543BA
:100F5000F61A43464A467B400F2A00D98DE06D4879
:100F6000920082589746002C54D108239946063B9C
:100F7000FF269B46DAE70025534602291BD00329AA
:100F800000D1BFE0012928D030007F30002820DDCB
:100F90006A0704D00F222A40042A00D004352A010F
:100FA00003D530005C4A80301540FE2803DCAC01DC
:100FB000640AC2B201E0FF2200246402D205600A82
:100FC000DB07104318433CBC90469946A246AB460B
:100FD000F8BD0122101A1B287CDD00220024ECE75A
:100FE000002C1DD104239946033B00269B469DE718
:100FF000FF3E002D20D1022143464A467B400A4352
:101000000F2AD8D84548920082589746002D19D10A
:101010000121F1E70C239946093BFF269B4685E712
:101020002000FFF731FC7626431F9C4000237642C8
:10103000361A99469B4679E74A4603231A43914656
:10104000032186E72800FFF71FFC431F36189D4049
:10105000763600217DE780240023E403FF22ACE7FD
:1010600000258023DB031C4228D01D4226D12B43C0
:101070005C02640A4346FF229FE762016C01A242C0
:1010800024D21B210025013E012710006D005200D3
:10109000002801DB944201D8121B3D43013900298D
:1010A000F3D11400621E944125436DE7BA465946B8
:1010B00025005346022900D061E77CE78023DB034B
:1010C0001C436402640A3B00FF2276E7121B1A21CC
:1010D0000125D9E79E362A00B5402C00C240651E86
:1010E000AC411443620704D00F222240042A00D0EE
:1010F0000434620103D4A401640A00225DE70122E2
:1011000000245AE78024E4032C436402640AFF228B
:1011100053E7C04694830110FFFFFFF7D48301100B
:1011200070B542004E024C0045026D0A120EC30F0C
:10113000760A240EC90FFF2A0FD0FF2C11D00120F0
:10114000A24200D070BDB542FCD18B420DD0002A26
:10115000F8D12800451EA841F4E70120002DF1D167
:10116000EBE70120002EEDD1E9E70020EAE7C046D9
:1011700070B54A004E02450244006D0A240EC30FAA
:10118000760A120EC90FFF2C15D0FF2A0ED0002CA4
:1011900015D1002A01D1002E1CD0002D14D08B4275
:1011A00027D00220013B1840013870BD002EEED040
:1011B00002204042F9E7002DFAD1FF2A0ED0002A82
:1011C0000ED1002EEDD00BE0012301399943080028
:1011D0000130EAE70020002DE7D0E2E7002EE7D15A
:1011E0008B42DED1944205DD0221581E08400138B1
:1011F000DBE70024A24204DCB542D2D80020B5428D
:10120000D3D2581E012398430130CEE730B54200B7
:1012100044024D02C30F4800640A120E6D0A000E0C
:10122000C90FFF2A12D0FF280CD0002A12D10028A3
:1012300019D1002D17D1002C2BD00220013B1840D2
:10124000013826E0002DF0D0022022E0002CFBD156
:10125000FF281FD000281FD1002D1DD10220013BE7
:101260001840013815E0002C0ED08B42E5D1002249
:10127000904204DCAC42E0D80020AC4209D2581EB7
:1012800001239843013004E0012301399943080008
:10129000013030BD002DD7D18B42CED18242E7DD67
:1012A0000221581E08400138F3E7C046F8B547460A
:1012B000CE464400C20F80B547024802400A844629
:1012C000664648007F0A240EF60025009046FB0083
:1012D000000EC90FB146FF2800D185E001267140FC
:1012E000261A914257D0002E43DD002800D07FE01F
:1012F0004946002900D1AAE0013E002E00D0F7E0C7
:101300005B1A5A0100D48BE09B019C092000FFF777
:10131000BBFA05388440854200DDD3E0451B23003D
:1013200020200135EB40451BAC40621E9441234315
:10133000072400251C40012241460A40002C04D00D
:101340000F211940042900D00433590100D480E052
:101350000135ECB2FF2D00D0A3E0FF2400235B0297
:10136000E405580AD207204310430CBC9046994626
:10137000F8BD002E74D1601CC0B2012800DCA7E0CB
:101380004A469C1A620100D5B6E0002CBED100226C
:1013900000240023E3E7002E00DC85E0002846D08F
:1013A000FF2C49D080224846D204104381460122B6
:1013B0001B2E09DC20204C46801B84404A4620001E
:1013C000F240441EA04102439B185A0128D5013522
:1013D000FF2D00D1A8E00122072494491A405B08A0
:1013E0000B4013431C40A6E7002E00D078E775E7BA
:1013F000FF2C54D080224946D20411438946012251
:101400001B2E09DC20214846891B88404A460100E2
:10141000F240481E81410A439B1A5A0100D573E7E6
:10142000012241460A40590700D089E711E04846A9
:10143000002858D1FF2C0CD1DB08002B00D18CE701
:101440008020C00303435B025B0AFF2487E7FF2C75
:1014500025D0DB08FF2DF0D05B025B0AECB27EE703
:10146000002C4DD0FF2818D08024E404724223437E
:101470001B2A00DDC4E01C002025D440AA1A93409A
:101480005A1E934123434A460500D31A884638E73B
:10149000721CF8D0F243FF28EAD10A004B46FF2520
:1014A000D7E79B015B0A5AE7002E41D1651CE9B2E0
:1014B000012945DDFF2D00D14FE707244B445B0890
:1014C0001C4038E707225A4B2D1A2340144032E7BC
:1014D000002C1DD1002B7AD14B46002B00D191E07E
:1014E0000A000025B5E7013E002E19D14B446CE7F8
:1014F000FF2C84D1FF25ACE74A468846D41A05E77D
:10150000002BC5D10A00FF28C8D005004B46A0E734
:10151000002B49D14B46002B77D00A00FF2598E7D6
:10152000FF2C00D043E787E70A00FF24002316E7DB
:10153000002C15D1002B57D1FF28E6D14B467BE775
:10154000002C20D1002B57D04946002953D04B44C2
:101550005A0168D50724364A1C4001251340EAE6A3
:10156000FF28EBD08022D204764213431B2E53DC9B
:101570002025AD1B1A00AB40F2405C1EA341134373
:101580004B44050021E7002BD8D04946002900D163
:1015900052E78021C9030F4200D14DE7604608425F
:1015A00000D049E74B4647E74846FF25002800D1D1
:1015B0004FE78022D203174204D06046104201D187
:1015C0004B46884601224146FF250A4041E74846EE
:1015D00000281FD01A1A500120D54A460724D31AD2
:1015E0001C4088460025A6E6741CC9D0F643FF2897
:1015F000BCD14B4620E799464B460025DB082BE73C
:10160000012340E700220023A9E680230022DB0318
:10161000FF24A4E600251CE70123B1E7002AF1D04E
:1016200013000025FCE60025FAE6C046FFFFFF7D1B
:10163000FFFFFFFB41024200C30F490A120E0020C8
:101640007E2A0DD99D2A0CD8802000040143952ABA
:101650000ADC9620821AD1404842002B00D10800B3
:101660007047034A9818FBE7963A9140F4E7C04662
:10167000FFFFFF7FF0B54F464646D6460C000903F4
:10168000C0B5490A470F5E0039431F03DB0F9C4674
:1016900065007B0A570F1F436D0DE40F760DA146C1
:1016A000C000B846D200AB1B64457BD0002B5FDD89
:1016B000002E00D0A4E03E00164300D112E15E1ED1
:1016C000002E00D09EE1871A4346B8428041012592
:1016D000C91A4042091A0B0200D431E149024E0AEC
:1016E000002E00D16EE13000FFF7CEF80300083B7A
:1016F0001F2B00DD61E120223900D21A9E40D1402B
:101700009F400E439D4200DD51E15D1B6B1C1F2B72
:1017100000DD7CE12021C91A3D0030008F40884067
:10172000DD40791E8F41310007222843D940002532
:1017300007433A40002A09D00F233B40042B05D031
:101740003B1DBB42BF417F42C9191F000B0200D4A1
:1017500026E26A1CC64B55056D0D9A4200D106E182
:10176000C44AFF080A40530752023B43120B8EE063
:10177000002B00D0B8E06B1C5B055B0D012B00DC7F
:1017800030E1871A4346B842B641CB1A76429E1BD7
:10179000330200D54CE13B003343A1D100220024A9
:1017A000002570E0002B00DCE5E0002E00D183E096
:1017B000AF4EB54260D0802636043743B846382B4A
:1017C00000DC3EE1434613431F007A1E97413F1859
:1017D00087428041404209180B0200D4B0E0A44B7C
:1017E00001359D4200D1C3E0A24A7B080A40012195
:1017F0000F401F435108D30707221F433A4099E780
:101800009B4EB54238D0802636043743B846382B35
:1018100000DDDCE01F2B00DC30E11E004746203EEF
:10182000F740BC46202B04D04026F31A46469E4083
:101830003243170063467A1E97411F43CCE0002BCA
:1018400000D104E24346134300D159E14B07C008DD
:1018500018438023C9081B03194208D04546ED08E8
:101860001D4204D14346D008590708432900420FBE
:10187000C9007F4D1143C0004B07CA087C49C0080E
:1018800003438D4268D012036D05120B6D0D0021CC
:1018900012031800130B0A0D12051A43764B2D057F
:1018A00013402B435B00E4075B08234319001CBC77
:1018B00090469946A246F0BD3E00164312D05E1EE9
:1018C000002E00D000E18718874280414144404209
:1018D000091801250B0233D5022585E7644633003C
:1018E000414610001D00C7E7002D00D0DAE00C00D3
:1018F0000443F3D05C1C00D19FE15D4CA64200D1B3
:101900002FE1DB43382B00DD66E11F2B00DD83E197
:1019100020240500E41A0F00DD40D940A0404346D2
:10192000A7405B1A441EA04198462F433843171A1C
:10193000BA42924143465242991A64463500CAE679
:1019400007223A40002A00D0F6E64B07CA08484969
:10195000FF083B438D4296D11900114300D19EE10F
:10196000802109030A431203120B414D8FE7150032
:10197000002200238BE7002B00D0C7E06B1C5F0523
:101980007F0D012F00DCF1E0394DAB4200D1B9E011
:1019900085180A008542894142444942511807226C
:1019A000CF076D082F4349083A401D00C2E60722C1
:1019B0003049ED1A31403A40BCE63E0028388640B6
:1019C00000279FE63800FEF75FFF20308EE6434693
:1019D00013431F007A1E9741C71BB8428041404203
:1019E000091A78E60E003B0006431343002D61D12F
:1019F000002E00D0F4E0002B00D11BE1644639003A
:101A0000100039E71A4FBB427AD03300FFE63000AE
:101A10001F3DE840202B03D04021CB1A9E40374386
:101A20007B1E9F41072207433A400021002589E79A
:101A3000171A4346BA42B641591A76428E1B64467B
:101A40004EE61F2B00DDADE020264746F61AB740D4
:101A5000B9461700B246DF404E463E433700564671
:101A6000B240561EB24117434246DA408918AEE6EC
:101A7000FF070000FFFF7FFFFFFF0F802026474684
:101A8000F61AB740B9461700B246DF404E463E430D
:101A900037005646B240561EB24117434246DA401E
:101AA000891A99E77F4CA6425BD0802424045B42CC
:101AB000214327E7002E0CD1002B00D1CBE0644658
:101AC00039001000774DD7E6764FBB4218D033006F
:101AD00075E6002B14D04B07C00818438023C908B3
:101AE0001B03194207D0FC081C4204D17907D00817
:101AF0000843E14621004C46420FC9001143C00093
:101B0000684DB9E61D0000220023C0E6002D5BD120
:101B10000D00054300D1E2E65D1C00D1B0E0614D4F
:101B2000AE421FD0DB43382B71DC1F2B00DD96E06B
:101B300020250F00ED1AAF40B9460700AA46DF4046
:101B40004D463D432F005546A840D940451EA8416B
:101B500088440743BF18974292415142414435009F
:101B60003AE6644635004146100085E60B00034323
:101B7000002D00D063E6002BF5D04346134300D17F
:101B80007AE687188742804107224144404209187B
:101B90003A400B0200D4D5E6434B01351940C9E564
:101BA000380069E61E004746203EF740BC46202B21
:101BB00004D04026F31A46469E403243170063463F
:101BC0007A1E97411F4302E6364DAE42CAD08025A9
:101BD0002D045B422943A6E70843411E8841A6E63F
:101BE000002B00D148E6871A4346B842B641CB1ACB
:101BF00076429E1B33024BD5171A4346BA42924196
:101C0000591A5242891A072264463A4092E5014322
:101C10000F00791E8F419DE71C000F00203CE7401C
:101C2000202B03D04024E31A99400843411E8841E9
:101C300038437CE60022002425E6171A4346BA42C0
:101C40009241591A5242891A6446350043E5414689
:101C50001000144D10E680220024120380E61D00BF
:101C60000F00203DEF40BC46202B03D04025EB1A4F
:101C70009940084307006346781E87411F4369E780
:101C8000871897429B4141445B42C9183500A3E540
:101C90003B003343CED0072231003A4052E60023C6
:101CA0001A00F4E5FF070000FFFF7FFFF0B557467D
:101CB000DE464E464546E0B5834607000E03480023
:101CC00085B092461C00360B400DCD0F002800D188
:101CD0009DE0954B984239D08023F6001B041E43AB
:101CE000924A7B0F33439946944603006344009322
:101CF00000230026FF00029323031B0B984663007A
:101D0000E40F52465B0D019400D1B3E086498B424B
:101D100000D19EE04246D100802212040A4351467F
:101D2000490F11438B46814952468C4600996344C2
:101D3000CB1A0021D20000932B0063409A460F2E4D
:101D400000D905E17A4BB6009B599F465B46334369
:101D5000994600D0B8E0022308260027009002939D
:101D6000CAE7CB463A0002990195019B9A4602299F
:101D700027D0032900D180E2012944D06D49009B7E
:101D80008C4663441C00002C38DD530700D013E25E
:101D9000D2085B46DB0109D55946674B19408B4693
:101DA0008021C9008C46009B63441C00634B9C420D
:101DB00007DC5B4664055F075B0217431B0B620D84
:101DC00002E000230027584A00211B031C0B0B0DC7
:101DD0001B05234314055A4A380013401C4353463D
:101DE0006400DB0764081C43210005B03CBC90463E
:101DF0009946A246AB46F0BD0122524201231B1B6D
:101E0000382B00DCADE1002200230027DCE75B4635
:101E1000334399465ED0002E00D18AE13000FEF7B0
:101E200033FD03000B3B1C2B00DD7BE11D22D31A8D
:101E30005A460100DA4008398E4013005F463343AA
:101E400099468F403F4B00261B1A009300230293B4
:101E500052E7414653460B433B499B468C46009B09
:101E6000634400935B46002B3BD1022300221E43B8
:101E7000022161E7434613439B4637D04346002B7C
:101E800000D162E14046FEF7FFFC03000B3B1C2B38
:101E900000DD53E102004146083A914088461D2189
:101EA000CB1A5146D9400B0041460B439B46534643
:101EB00093401A00009B25499C46604403008C46D1
:101EC00063440093002137E70323B14600900C26BA
:101ED000029311E7002300930133042600270293A5
:101EE0000AE70323C3461E43032125E701331E43AC
:101EF0000022012120E700239A46802300271B03AC
:101F0000094A61E7802349461B03194200D1E2E0F8
:101F10005946194200D0DEE00B431B0317001B0B90
:101F2000A246014A50E7C046FF07000001FCFFFF40
:101F300014840110FF030000FFFFFFFEFE070000F6
:101F4000FFFF0F800DFCFFFF01F8FFFFF303000010
:101F5000D94500D9CBE000D1C6E03C004846002777
:101F6000009B013B00935B46160E1B021E431302AF
:101F7000984633041B0C9946310C0191FEF704FB83
:101F80004A4642430B04210C050019438A4207D9F3
:101F90008919013D8E4203D88A4201D9851E8919CB
:101FA000881A0199FEF7F0FA09048C464A46210482
:101FB00064464243090C030021438A4204D989192B
:101FC000013B8E4200D8F1E02D041D43AB46434651
:101FD000891A4246280C12041D0C5B46140C220080
:101FE0001B041B0C5A4303946B4344430295684300
:101FF0001B19150CEB189C4203D980246402A446DB
:1020000060441C0C15041B042D0C20185D19814222
:1020100077D373D00C1AA24A7D1BAF42BF419446BE
:10202000009B7F426344E01B1C00864200D1DBE042
:102030000199FEF7A9FA4A4642430B04290C07000E
:1020400019438A4207D98919013F8E4203D88A422F
:1020500001D9871E8919881A0199FEF795FA090492
:102060004A46894629044D464243090C0300294348
:102070008A4207D98919013B8E4203D88A4201D985
:10208000831E89193F04891A3A00039F1A433800B6
:1020900013041B0C584381460298150C6F434343AD
:1020A00045434846000C8446DB1963449F4203D9EC
:1020B000802040028446654448461F0C00041B04EF
:1020C000000C7D191818A94200D284E000D17FE0ED
:1020D00001231A4357E680234A461B0313431B037D
:1020E0001B0BAA466F4A6FE6BA4200D935E74B464A
:1020F000DC0758087B081C43FF0734E70024AF4285
:1021000089D247444745A4415B466442A4196418F8
:10211000013BA6421ED2A0426DD800D1B6E0241ADF
:102120009B4678E703005A46283B9A400027914691
:1021300088E65846FEF7A8FB203072E603005246B8
:10214000283B9A4093460022B4E65046FEF79CFB9B
:1021500020309AE6A642E2D1B845DCD9341A9B4633
:1021600059E71F2B65DC504C0099A4465C4661443E
:1021700008008C4011008240D940501E82410C431F
:1021800014435A46DA401300620709D00F22224056
:10219000042A05D02200141D9442894149425B184B
:1021A0001A0262D50122002300270DE68A4200D8D8
:1021B0000AE7831E891907E70F231340042B00D178
:1021C000E6E5171D9742924153429B44FA08E0E529
:1021D000002800D1D7E57118531EB14227D3A94278
:1021E00015D358D01A0073E7002B00DC04E6012356
:1021F00000229B44CDE502234744474589415B4289
:102200009C46494289190C19E344241A03E74346C2
:102210005F0047459B41B8465B429E19023A8919C7
:10222000A94200D054E7404500D051E7ABE51A0081
:10223000F6E71F215F4649420C1BE740202B07D0E1
:102240001A49009B8C46634418005B4683401A433E
:10225000501E82413A4307270023174009D00F211F
:10226000002311401400042995D122005F075B026E
:102270001B0BD20817430022A6E5802359461B03F7
:102280000B431B0317001B0B064A9DE5BD42B2D84A
:102290009B460024BFE68045B9D31A00C3E7C04679
:1022A000FF030000FF0700001E0400003E040000C2
:1022B000F0B54F464646D6468446C0B58046194ED0
:1022C00018030F034D00000B5C0082463F0B6D0DA1
:1022D000C90F9146640DDB0F0120B5420AD0B4420C
:1022E00003D0A54201D157450CD01CBC904699465D
:1022F000A246F0BD66463E43F7D1AC42F5D1544606
:102300001443F2D10120C845EFD1994207D0002DE6
:10231000EBD163461F433800471EB841E5E7002074
:10232000E3E7C046FF070000F0B54F464646D646F5
:102330004D00C0B50E03C90F8A462C491F035C002F
:102340008046360B6D0D91463F0B640DDB0F8D42C1
:102350001ED08C4216D0002D1ED130438446002C56
:1023600001D13A4323D06246002A1AD09A4529D097
:10237000514602200139084001381CBC904699465C
:10238000A246F0BD39001143E5D002204042F4E7F7
:102390003043FAD1AC420FD0002C0FD13A43E7D0F2
:1023A0000CE00122013B934318000130E5E763464E
:1023B0000020002BE1D0DBE73A43E6D19A45D7D1A4
:1023C000A542D5DCA54205DBBE42D1D808D000200D
:1023D000BE42D2D250460123013898430130CCE7A7
:1023E000C845C5D80020C845F4D3C6E7FF0700009C
:1023F000F0B54F464646D6464D00C0B50E03C90F50
:102400008A462E491F035C008046360B6D0D9146AF
:102410003F0B640DDB0F8D4218D08C4211D0002D84
:1024200018D130438446002C1ED13A431CD1634658
:102430000020002B30D051460220013908400138DD
:102440002AE039001143EAD0022025E03043FBD1D5
:10245000AC4226D0002C26D13A4324D1514602204A
:1024600001390840013817E06246002A0FD09A452A
:10247000E1D1A54205DBBE42DDD819D00020BE4225
:102480000AD25046012301389843013004E001226A
:10249000013B9343180001301CBC90469946A2466C
:1024A000F0BD3A43D0D19A45C5D1A542C3DCE0E79F
:1024B000C845C0D80020C845E3D3EDE7FF070000BA
:1024C000F0B55746DE464E464546E0B58346060023
:1024D0000F03480087B092461D003F0B400DCC0F04
:1024E000002800D16FE0DE4B984238D08023FF00F7
:1024F0001B041F43730F3B430193DA4B002799469C
:1025000000239B46F60081442B0369001B0B5246B7
:102510009846490DED0F002900D185E0D04B994236
:1025200000D173E04346DA0080231B041343524674
:10253000CC48520F84461343524600206144D200D7
:1025400089442100694000918C46012149448A4612
:102550000F2F00D990E0C449BF00CF59BF465B465A
:102560003B43019300D06AE10223082700268146FD
:102570009B46C9E732005846019B614600910228FC
:1025800000D175E0032800D1FEE1012800D02CE144
:1025900000230027002600253F032A0D3F0BB348E8
:1025A00012053A4302401B051343009A5B00D10712
:1025B0005B080B433000190007B03CBC90469946BD
:1025C000A246AB46F0BD5B463B43019300D12FE1F1
:1025D000002F00D1A5E13800FEF756F903000B3BB0
:1025E0001C2B00DD96E11D22D31A5A460100DA4069
:1025F0005E4608398F4013008E403B4301939C4B4D
:1026000000271B1A994600239B467DE74146534607
:102610000B4393498C46E144002B00D01AE102227F
:102620000220174300228CE7134300D10DE14346FB
:10263000002B00D181E14046FEF726F902000B3A5B
:102640001C2A00DD72E10100434608398B409846A0
:102650001D239A1A5346D3401A0043461343524649
:102660008A404946081A824989468144002068E721
:102670007B4B002700268EE7140C1204120C11006D
:10268000370C3604350C794328008C462E00604305
:102690006044834656432100300C804658467943B7
:1026A00040440291844506D98846802149028C46DF
:1026B000E044414602913604010C360C00048B467E
:1026C00081191E0C1B041B0C0391190079438C46C5
:1026D000280075436544A8465843050C4544774394
:1026E000A94203D9802149028C466744290C8C46B3
:1026F00039000004000C2D042D186144AB440591F1
:102700005946049101990F043F0C080C39005143BC
:102710004243904602008C46090C8B4662437C4340
:1027200044445C44A04503D9802149028846424480
:10273000210C884661460904090C8C46390059432E
:10274000434370437E430F0CF6182404BE196444BF
:1027500042448C46B34203D980235B0298464044EE
:10276000029B61469846049B370443449B46AB4515
:10277000AD416B420D0405992D0C8C467F196744C1
:10278000FD18A8465D462D19A542A4419346644212
:10279000A446C344DC448F42BF4198459B419345C6
:1027A0009241A445A4415B427F421F43360C5242F2
:1027B0006442BF192243BF18624638184302D20D43
:1027C000039913436A020A43501E82416146ED0D8C
:1027D0002A434E023243D90100D4B3E00126500807
:1027E00032400243DE0732435B08224C5444002C43
:1027F00062DD510709D00F201040042805D0101DBC
:102800009042924152429B180200D90104D5802483
:102810001948E400034054441848844200DD27E787
:102820005E075B02D2081F0B630516435B0DB2E621
:10283000002399460133042700269B4664E60323C0
:10284000019781460C279B465EE601220120174333
:10285000002276E6032303201F43434671E6C04669
:10286000FF07000001FCFFFF54840110FFFF0F80F1
:102870000DFCFFFFFF030000FFFFFFFEFE0700004F
:102880000023802700933F030026434B83E6019BF0
:102890003200A446584670E6AC466EE680270199A1
:1028A0003F0339422DD03B422BD11F433F033F0B07
:1028B00000951600384B6EE601252D1B382D00DDE6
:1028C00066E61F2D40DC35481C005044160082404F
:1028D0008440EE40501E824134431443EB40620773
:1028E00009D00F222240042A05D02200141D944250
:1028F000804140421B181A023ED5012300270026C2
:1029000049E68027019B3F031F433F033F0B009491
:10291000214B40E603005A46283B9A40002601928C
:102920006DE65846FDF7B0FF203057E603005246EB
:10293000283B9A401300002293E65046FDF7A4FF7F
:1029400020307BE6CA4650E71F201E004042041B91
:10295000E640202D03D0124C5444A3401A43501E8D
:102960008241324307260027164009D00F2000235A
:10297000104014000428B9D122005E075B021F0B2F
:10298000D2081643002306E680273F031F433F0378
:102990003F0B1600004BFEE5FF0700001E04000081
:1029A0003E040000F8B557464E464546DE460C004C
:1029B0000903E0B5490A460F5F0031431E03DB0FF0
:1029C000760A9B46530F3343C84E6500C000E40FA0
:1029D000D2006D0DA24681467F0D9C469046B742BF
:1029E00000D1B9E05B46012673409B46EE1BA34530
:1029F00000D183E0002E63DD002F00D0B1E06346FC
:102A0000134300D123E1731E002B00D0BAE1861AD4
:102A10006346B04280410125C91A4042091A0B029F
:102A200000D447E149024B0A98464346002B00D1A7
:102A300089E14046FDF728FF0300083B1F2B00DD1E
:102A40007CE120223000D21A4146D0409940020059
:102A50009E400A439D4200DD6AE15D1B6B1C1F2BFB
:102A600000DD94E1202110003500C91A8E40DA40C3
:102A70008840DD40711E8E41110007222843002549
:102A800006433240002A09D00F233340042B05D0DF
:102A9000331DB342B641764289191E000B0200D4A1
:102AA0003DE26A1C914B55056D0D9A4200D119E12A
:102AB0008F4AF6080A40570752023743120B9BE031
:102AC000002E00D0C5E06E1C7605760D012E00DCD0
:102AD00048E16746861ACB1BB042BF417F42B846E9
:102AE0001F004346FF1A3B00B8461B0200D55FE1BA
:102AF00037439AD100220024002579E0002E00DC23
:102B0000FAE0002F00D18DE0784B9D4267D0802302
:102B100067461B041F43BC46382E00DC52E1634667
:102B200013435A1E93411E188642804140420918A1
:102B30000B0200D4BEE06D4B01359D4200D1D2E0C6
:102B40006B4A73080A4001210E401E435108D30707
:102B500007221E43324095E71E00164300D045E78A
:102B600040E7624B9D423AD0802367461B041F43D7
:102B7000BC46382E00DDEBE01F2E00DC3AE13300CE
:102B80006746203BDF403B00202E05D04027BF1B7F
:102B90006646BE40324390464646721E96413343D7
:102BA000DAE0002B00D114E26346134300D168E160
:102BB00080234E07C008C9081B030643194208D0EA
:102BC0006046C008184204D163460100D2085E077F
:102BD0001643F3009946C900720F444D11434B460A
:102BE000DE08424B4F073743CA089D4200D16EE0D2
:102BF00012036D05120B6D0D00211203130B0A0D4C
:102C000012051A433B4B2D0513402B435B00E40791
:102C10005B082343380019003CBC90469946A24605
:102C2000AB46F8BD6346134311D0731E002B00D092
:102C300007E1861886428041614440420918012517
:102C40000B0237D502257BE73E00614691463500F1
:102C5000C5E75C46002D00D0E1E00B000343F3D054
:102C6000731C00D1ACE1214B9F4200D13AE1F34308
:102C7000382B00DD6FE11F2B00DD8CE120250E00DD
:102C8000ED1AAE40B0460600AA46DE404546354342
:102C90002E005546D940A8406346451EA8415B1A00
:102CA0009C463043161AB242924163465242991AE8
:102CB0003D00B4E607223240002A00D0E4E60B4B88
:102CC000F6084F073743CA089D4200D090E73B0003
:102CD000134300D1A6E180231B031A431203120BF6
:102CE000024D89E715000022002785E7FF07000055
:102CF000FFFF7FFFFFFF0F80002E00D0C7E06B1C9F
:102D00005E05760D012E00DCF0E0C84DAB4200D12F
:102D1000B9E085180A008542894162444942511848
:102D20000722CE076D082E43490832401D00A9E650
:102D3000BF49ED1A114007223240A3E6320028387D
:102D40008240002686E63000FDF79EFD203073E6C7
:102D5000634613435A1E9341C61AB0428041404213
:102D6000091A5CE60E00674606431743002D5ED144
:102D7000002E00D0F3E0002F00D11EE15C4661463A
:102D800091462CE7A94FBE427BD01E00F1E6100011
:102D90001F3DE840202B03D04021CB1A9A40164318
:102DA000731E9E410722064332400021002583E71F
:102DB000161A6346B2428041591A40420B1A98468D
:102DC0005C4632E61F2E00DDABE02027BB1B9A4697
:102DD00063465746BB40994613004F46F3401F4396
:102DE0003B005746BA40571EBA4113436246F24071
:102DF000891898E62027BB1B9A4663465746BB4076
:102E0000994613004F46F3401F433B005746BA40D4
:102E1000571EBA4113436246F240891A9CE7834B1E
:102E20009F425FD080252D047342294320E7002E66
:102E30000CD1002F00D1D0E05C46614691467B4D1D
:102E4000CDE67A4FBE421CD01E0065E6002F18D09A
:102E5000C0084E0706438020C9080003014208D07D
:102E60006346DC08044204D12100DA46D2085E073A
:102E70001643F300994601245346C900720F1143CB
:102E80001C406A4DABE61D0000220027B4E6002D71
:102E900059D10B00034300D1D6E6731C00D1B2E038
:102EA000624B9F421ED0F343382B6FDC1F2B00DD9B
:102EB00097E020250E00ED1AAE40B0460600AA4667
:102EC000DE40454635432E005546A840D940451EB4
:102ED000A8418C440643B61896429241514261443F
:102EE0003D0025E63D006146914678E60B00034330
:102EF000002D00D055E6002BF5D06346134300D1DA
:102F00006DE68618864280416144404209180022DD
:102F10000B0200D4D0E6464B01351940B2E5B1466C
:102F20005DE633006746203BDF403B00202E05D0A6
:102F30004027BF1B6646BE40324390464646721E3F
:102F400096413343EFE5394B9F42CBD080252D048A
:102F500073422943A8E70843411E8841A2E6002F97
:102F600000D13CE66346861ACF1AB0429B415B42D1
:102F7000FB1A98461B024ED5161A6346B24292417E
:102F8000591A5242891A5C4600227BE501430E0021
:102F9000711E8E419FE71D000E00203DEE40B046A1
:102FA000202B04D04025EB1A99400843814648461F
:102FB0004346411E8841184374E60022002417E668
:102FC000161A6346B2429241591A5242891A3D007A
:102FD00025E561469146154D01E680220024120345
:102FE00079E61D000E00203DEE40B046202B04D0B7
:102FF0004025EB1A9940084381464E464346711ED0
:103000008E411E4367E7861896429B4161445B42AE
:10301000C9183D008CE547463743CED007224146CC
:10302000324049E600273A00E6E5C046FF070000C7
:10303000FFFF7FFF70B50C4E0D031C0349005B00C2
:103040002D0B490D240B5B0DB14208D00649002021
:103050008B4203D114432000441EA04170BD0543A0
:103060000120002DFAD1F1E7FF07000030B5144D23
:103070000A034B00120B5B0DC90F0024AB4211DD9C
:10308000104CA34210DC8024640322430E4CE41A4B
:103090001F2C0CDD0D48C31ADA4013005C420029D6
:1030A00000D11C00200030BD094BCC18FAE7094DB7
:1030B000E040AC4663449A4013000343EEE7C04649
:1030C000FE0300001D040000330400001304000090
:1030D000FFFFFF7FEDFBFFFF70B500282DD0C3176A
:1030E000C5185D40C40F2800FDF7CEFB154B1B1A19
:1030F0005B055B0D0A2815DD0B38854000222D038A
:103100002D0B002110002D030A0D2D0B12052A4353
:103110000D4D1B052A4013435B00E4075B08234366
:10312000190070BD02002900153291400A000B21E0
:10313000081AC5402D032D0BE3E7002400230025CA
:103140000022DEE71E040000FFFF0F8010B5041E02
:1031500025D0FDF799FB144B1B1A5B055B0D0A2864
:1031600012DD0B38844000222403240B00211000C0
:1031700024030A0D240B120522430C4C1B0522408C
:1031800013435B00590810BD020021001532914025
:103190000A000B21081AC4402403240BE6E700238D
:1031A00000240022E2E7C0461E040000FFFF0F805B
:1031B0004100090E4B1C70B5DBB24602750AC40F04
:1031C000012B14DDE0239B006D07360BCB1800218B
:1031D0000A0D280012051C4D32435B052A405B088E
:1031E00013435B00E4075B082343190070BD00290B
:1031F00014D1002D1ED02800FDF746FB0A281CDC48
:103200000B232A001B1ADA40030015339D400F4B95
:1032100012031B1A5B05160B5B0DD8E7002D06D0B9
:10322000320B802636036D071643094BCFE7084B58
:103230000026CCE700230026C9E703002A000B3B49
:103240009A400025E3E7C046FFFF0F808903000096
:10325000FF070000F0B54C00640D0B03621C5B0A15
:10326000460F5205C90F1E43C500520D012A29DD24
:10327000374BE718FE2F1CDC002F3BDD8001431E7F
:1032800098410722F3006D0F03432B431A40002A95
:1032900004D00F221A40042A00D004338022D20422
:1032A0001A4024D00137FAB2FF2F02D09B01580AEE
:1032B00001E0FF2200204002D205400AC907104366
:1032C0000843F0BD3543002C04D1002D0AD1002263
:1032D0000020F0E7002DECD08020C0033043FF2217
:1032E000E9E7002400235B02580AE2B2E3E7DB08C7
:1032F0003C00F8E73B001733F3DB80231B04334328
:103300001E26F61B1F2E14DD02225242D71B1A0066
:10331000FA401700202E04D00E4A94466444A3407D
:103320001D432B005D1EAB4107223B431A40002783
:10333000ADE7094A2800A218954093406C1EA541AC
:10334000F04007222B4303431A4000279FE7C04663
:1033500080FCFFFFA2FCFFFF82FCFFFF10B50029ED
:1033600003D1FDF791FA203002E0081CFDF78CFA3A
:1033700010BDC046F0B54E465746DE464546E0B560
:103380000F00002183B006008946002F06DA3900BD
:10339000002746428F41012149428946002B07DA26
:1033A0004946C943100089461900002342428B4117
:1033B00034003D0092469846BB4269D866D04146EB
:1033C0005046FFF7CBFF834639003000FFF7C6FFBA
:1033D0005B461B1A9C46203B9B4600D575E0514638
:1033E000584681400B005146604681400A00BB426E
:1033F00061D85ED034003D005946A41A9D41002991
:1034000000DA7AE00021002001260090019159465F
:103410008E400196614601268E4061460096002945
:1034200050D0D90756085F080E4363460EE0AF42FE
:1034300001D1A6420CD8A41BBD41012124196D4124
:103440000022013B64185541002B06D0AF42EED953
:10345000013B24196D41002BF8D1009801995B467E
:1034600000196941002B3DDB2E00DE4063462C0035
:10347000DC405B46002B4BDB34005D46AC40230058
:103480006446A6403200801A994103E0B24296D9C0
:10349000002000214B46002B04D003000C0000212B
:1034A0005842A14103B03CBC90469946A246AB4667
:1034B000F0BDB1429ED900210020009001916146EB
:1034C0000029AED100980199E4E7202362465146D5
:1034D0009B1AD940404600916146884003000099FC
:1034E0000B4380E7624620239B1A2A009A4026005D
:1034F00013006246D6401E43B8E7614620260127E6
:10350000761A00200021F74000900191019781E791
:103510006746202362463500BC409B1ADD402300ED
:103520002B43ADE7024670B50A4392072AD11E4DE0
:10353000EE0104C808C9541B9443344017D0D0B2DC
:10354000D9B2401A2106014310D190B299B2401A63
:10355000210401430AD110021902000A090A401A83
:103560002102014302D1100E190E401A70BD9A4279
:10357000DFD010BA19BA884201D9012070BD0020ED
:10358000C04370BD02780B7801300131002A09D0A8
:103590009A4207D102780B7801300131002A01D01C
:0C35A0009A42EFD0D01A70BD0101010169
:0E35AC0010B504008B6803F0ABFD200010BDCD
:1035BC00F7B501260F24234D0021070002202E70A1
:1035CC0003F0FEFE0021032003F0FAFE310004207C
:1035DC0003F0F6FE0021052003F0F2FE022003F0BA
:1035EC004DFE0196B61939002141019B300019405E
:1035FC0003F0E6FE012003F041FE0121032003F05D
:10360C00DFFE300003F03AFE0320002103F0D8FE69
:10361C00012003F033FE013CE5D2022003F02EFE24
:10362C000121052003F0CCFE052003F027FE00212C
:10363C00022003F0C5FE0021032003F0C1FE00238D
:08364C002B70F7BDF72D0020E3
:1036540010B5044B4000C05A034B1880FFF7ACFF71
:0C36640010BDC0461E8601106A2D00201B
:10367000F7B501260724214D3100070005202E70E3
:1036800003F0A4FE0021042003F0A0FE022003F0BA
:10369000FBFD0021022003F099FE3100032003F01E
:1036A00095FE300003F0F0FD0021032003F08EFEB4
:1036B0000196B61939002141019B3000194003F0F1
:1036C00085FE012003F0E0FD0121032003F07EFED2
:1036D000300003F0D9FD0320002103F077FE012024
:1036E00003F0D2FD013CE5D20121042003F06EFE7F
:1036F000022003F0C9FD00232B70F7BDF72D002039
:10370000074B10B51868FFF7E7FC0022054BFEF7E2
:10371000CDFA0022044BFEF7D3FEFFF79BFD10BD50
:0C372000B002002000E06F400088C340B1
:10372C0010B5174C1749200003F09AFA16492000DF
:10373C0003F096FA1549200003F092FA1449200080
:10374C0003F08EFA1349200003F08AFA1249200084
:10375C0003F086FA1149200003F082FA1049200088
:10376C0003F07EFA0F49200003F07AFA0E4920008C
:10377C0003F076FA0D49200003F072FA10BDC04632
:10378C00481F0020EF8401100A85011020850110CC
:10379C003B8501105E8501107A850110938501101F
:1037AC00B0850110CB850110E08501100C8601104D
:1037BC00F7B5304C3049200003F052FA00231D00BD
:1037CC002E4E2F4932885800405A904200D11D008D
:1037DC000133152BF7D12B49200003F028FA2900CF
:1037EC000A22200003F0A1FA2749200003F01FFA57
:1037FC000F25012731880A2229412000394003F086
:10380C0090FA013DF6D2200003F022FA1F49200065
:10381C0003F00DFA1E4B0A221968200003F081FAFE
:10382C001C49200003F003FAFFF764FFFFF7BAFC12
:10383C00009702000B00200003F054FB16492000F7
:10384C0003F00EFA1549200003F0F1F9144B0A228B
:10385C001978200003F069FA1249200003F0E7F907
:10386C00114B12491B78002B00D11149200003F099
:10387C00F7F9F7BD481F00209B8401106A2D00202A
:10388C001E860110AB840110C0840110C984011084
:10389C00B0020020CF840110D3840110D784011012
:1038AC00F62D0020E3840110BC020020948401104A
:0438BC0097840110DC
:1038C00010B50024064B21000D201C7003F07EFD76
:1038D000044B1C60044B1C70044B1C7010BDC04694
:1038E000F62D0020682A0020EF2D0020FA2D002060
:1038F00010B50400FFF7E4FF03F0A8FC054B01211D
:103900001860054B0D201C6003F060FD0122034B85
:103910001A7010BD382D0020342D0020F62D002007
:1039200070B504000E001500FFF7CAFFE343002244
:10393000DB171C400A4B1C600A4B1A600A4B1E60C6
:103940000A4B1D6003F082FC0121094B1860094BF2
:103950000D20197003F03AFD0222074B1A7070BD5A
:10396000782A0020682A0020742A0020702A00206B
:0C3970006C2A0020EF2D0020F62D002016
:10397C0070B50C000021051C1600FCF761FF002837
:10398C0023D1002C21D0FFF795FF291C0F48FDF700
:10399C00AFFA0CF00FFAFCF7FDFF0D4B18600D4B56
:1039AC001C6003F04DFC0C4B18600C4B1E6003F0BC
:1039BC0057FC01210A4B24181C600A4B0D2019706E
:1039CC0003F0FEFC0322084B1A7070BD00247449EE
:1039DC005C2D0020602D0020642D0020542D002033
:0C39EC00582D0020FA2D0020F62D0020A0
:1039F800F8B503F027FC050003F034FC384E04004A
:103A08003378022B11D0032B35D0012B0CD1354B39
:103A18001B68ED1A344B1B689D4205D300210D200D
:103A280003F0D0FC00233370F8BD304C304B2268D3
:103A38001B689A42F2DA2F4E2F4A33681178EB1A34
:103A480000290DD02D4909689942EDD800210D2093
:103A5800117003F0B7FC2368356001332360E3E796
:103A6800274909689942DFD801210D20117003F018
:103A7800A9FC3560D8E7234B234A1B681268EB1A68
:103A8800224D934207D300210D2003F09BFC002315
:103A980033702B70C8E71E4E2A783368002A14D07A
:103AA8001C4F3A68D31A1B189A42BDD800210D2022
:103AB80003F088FC0023184A2B7011683A68914279
:103AC80000D98B1A1C193460AEE7C31AACD4012193
:103AD8000D2003F077FC01232B700E4B1B68F1E7D8
:103AE800F62D0020382D0020342D0020682A0020D3
:103AF800782A00206C2A0020EF2D0020742A00204C
:103B0800702A0020642D0020542D0020FA2D00205A
:0C3B1800582D0020602D00205C2D0020A6
:103B240010B501210D2003F011FC00210D2003F03C
:103B34004BFC0121032003F009FC0121022003F0C6
:103B440005FC0121042003F001FC0121052003F000
:103B5400FDFB0121062003F0F9FB0021032003F003
:103B640033FC0021022003F02FFC0121042003F088
:103B74002BFC0121052003F027FC0021062003F083
:103B840023FCE121104C4902200001F06FFCFA20D3
:103B9400C00003F073FB0D4800F0D6FD002803D1EC
:103BA4000B49200003F060F80A49200003F05CF898
:103BB400FFF7BAFD084B1868C0B2FFF757FD0020A5
:103BC400FFF746FD10BDC046481F002054160020D4
:0C3BD400A9870110D4870110B002002066
:103BE000F0B5C84C91B0200001F052FB00287AD00B
:103BF0000125C54B0A22210009A81D7003F0A0F978
:103C000009A803F0AEFA0B9B002B63D009A803F0C0
:103C10009BFABE4909A803F035FA002806D0FFF741
:103C20004FFEBB49200003F021F853E0B94909A831
:103C300003F028FA061E03D0B74BB8491D70F1E710
:103C4000B74909A803F01EFA002803D0B24BB549C2
:103C50001E70E7E7B4490CA803F0D9F90CA909A82C
:103C600003F03AFA06000CA803F082F9002E00D106
:103C700074E1022209A90CA8FFF798FC0CA803F034
:103C800099FA06000CA803F073F90F2E22D8280029
:103C9000B040A64F3B88584080B23880FFF78EFC7A
:103CA000A149200002F0C9FF31000A22200003F0E0
:103CB0003EF89F49200002F0C0FF0F2639880A22F3
:103CC00031412000294003F032F8013EF6D22000B5
:103CD00002F0C4FF00238C4A0520137003F0D0FAD1
:103CE00009A803F045F98C4B1B78002B00D105E1A6
:103CF000854B1B78002B00D000E103F0A7FA8D4D17
:103D00002B68C01A092800D8F8E003F09FFA286051
:103D1000112003F0DFFA0C90102003F0DBFA0D9075
:103D20000F2003F0D7FA0E900E2003F0D3FA0026EE
:103D3000814F0F90380004960596069607960896D0
:103D4000099600F097FC002857D0380000F099FC45
:103D5000002852D006AB05AA04A9380000F0E8FB01
:103D60000498FFF725FA754A754BFDF783FCFFF7BA
:103D700071FA04900598FFF71BFA724A724BFDF72F
:103D800079FCFFF767FA051C05900698FFF710FA13
:103D900002900391311C281CFCF762FD002802D11F
:103DA00080231B06ED18281CFFF702FA654A664BB4
:103DB000FEF786FB634A644BFDF75CFC029A039BAB
:103DC000FDF758FCFFF746FA08AA069009AB07A9C9
:103DD000380000F0F7FB5D4B07981968FDF766FAAD
:103DE0005B4B079019680898FDF760FA594B0890EB
:103DF00019680998FDF75AFA099003F027FAFFF7B6
:103E0000A5F90022544B0325FDF750FF00950B0048
:103E10000200200003F06CF82C21200002F018FFB3
:103E20000A220C99200002F082FF2C21200002F0CF
:103E30000FFF0A220D99200002F079FF2C212000AB
:103E400002F006FF0A220E99200002F070FF2C21DA
:103E5000200002F0FDFE0A220F99200002F067FF09
:103E60002C21200002F0F4FE0498FFF7A1F9009540
:103E700002000B00200003F03BF82C21200002F090
:103E8000E7FE0598FFF794F9009502000B0020006B
:103E900003F02EF82C21200002F0DAFE0698FFF73E
:103EA00087F9009502000B00200003F021F82C2177
:103EB000200002F0CDFE0798FFF77AF90095020086
:103EC0000B00200003F014F82C21200002F0C0FEAB
:103ED0000898FFF76DF9009502000B00200003F031
:103EE00007F82C21200002F0B3FE0998FFF760F9D3
:103EF000009502000B00200003F000F8FFF77CFDA6
:103F000011B0F0BD481F0020F72D00204886011099
:103F10004D86011064860110BC0200206E860110DF
:103F2000808601108B8601109E8601106A2D00206C
:103F3000A18601101C290020541600209A999999F5
:103F40009999993F7B14AE47E17A843FC4020020DF
:103F5000C8020020CC02002000408F40D7490CA8A6
:103F600003F055F80CA909A803F0B6F80290002850
:103F700004D00B9B9D42AD416B4202930CA802F012
:103F8000F7FF029B002B25D0012209A90CA8FFF7FF
:103F90000DFB0CA803F00EF905000CA802F0E8FFD9
:103FA000142D00D996E62800FFF754FBC4492000E1
:103FB00002F043FE0A222900200002F0B8FEC149A7
:103FC000200002F03AFEC04BAD00E958200002F09C
:103FD00061FE7FE60B9B102B29D1029D01272E004D
:103FE000290009A803F084F80378312B16D13A0090
:103FF000223B5B1B9A401643B6B20135102DEFD120
:10400000B24B30001E80FFF7D9FAB149200002F010
:1040100014FE09A9200002F033FE5BE6290009A87E
:1040200003F066F80378302BE7D0AA49FAE5AA49ED
:1040300009A803F027F8002802D0FFF777FB49E62C
:10404000A64909A803F01EF80028F6D1A4490CA837
:1040500002F0DDFF0CA909A803F03EF805000CA84A
:1040600002F086FF002D79D0012209A90CA8FFF7E4
:104070009DFA0CA803F09EF806000CA802F078FF49
:10408000FF2E00D926E6974DF0B22E60FFF7F0FA2A
:104090002868FFF721F806000F002000924902F07F
:1040A000CCFD0A222968200002F041FE8F49200041
:1040B00002F0C3FDFFF724FBFFF77AF80B0002992B
:1040C00002000091200002F013FF8949200002F055
:1040D000B4FD884A884B30003900FEF7F1F9874A71
:1040E000874BFDF7C7FA02000B0000208549FDF75A
:1040F000DDFD854A854BFEF7E3F9FFF7ABF8FFF7E7
:1041000057F80B00032102000091200002F0F0FE9E
:104110007F4D2000290002F0A9FD7E49200002F019
:104120008CFD7D4A7D4B30003900FEF7C9F97C4A91
:104130007C4BFDF79FFA02000B0000207149FDF750
:10414000B5FDFFF787F8FFF733F80B0003210200F6
:104150000091200002F0CCFE290063E5724909A815
:1041600002F090FF002805D0704B1868FFF7C0FBE5
:104170006F4957E56F490CA802F049FF0CA909A83F
:1041800002F0AAFF05000CA802F0F2FE002D16D0E6
:1041900009A902220CA8FFF709FA0CA803F00AF8F3
:1041A000624D28600CA802F0E3FE6349200002F093
:1041B00044FD0A222968200002F0D7FD8AE55F4904
:1041C00009A802F05FFF002809D05D4B1A685D4B1B
:1041D00019685D4B1868FFF7A3FB5C4922E55C4951
:1041E0000CA802F014FF0CA909A802F075FF050045
:1041F0000CA802F0BDFE002D16D0022209A90CA8C1
:10420000FFF7D4F90CA802F0D5FF4F4D28600CA899
:1042100002F0AEFE4F49200002F00FFD0A2229688D
:10422000200002F088FD55E54B490CA802F0EFFE96
:104230000CA909A802F050FF05000CA802F098FE96
:10424000002D0ED009A902220CA8FFF7AFF90CA887
:1042500002F0B0FF3B4D28600CA802F089FE3F49F8
:10426000A4E73F490CA802F0D2FE0CA909A802F06D
:1042700033FF05000CA802F07BFE002D0ED009A92B
:1042800002220CA8FFF792F90CA802F093FF2C4D24
:1042900028600CA802F06CFE324987E7324909A871
:1042A00002F0F0FE002869D0304B1A68304B1968D4
:1042B000304B1868FFF762FB2F49B3E4BC8601104E
:1042C000B2860110928701105C0200206A2D002046
:1042D0008C87011097870110BE860110C0860110DF
:1042E00037870110B0020020C5860110CD8601106D
:1042F000D5860110D42B6519E258873FB30C71ACF9
:104300008BDBD03F0000F03FB01BA25C1077EF3F8B
:10431000EC860110F0860110C217265305A3823FD8
:10432000AF25E4839ECDC23F66870110B80200200E
:1043300009870110188701101B8701101F870110C2
:1043400050020020540200204C020020218701105E
:104350002F8701103287011036870110398701102D
:104360003D8701104087011044870110C0020020E2
:10437000B4020020580200204687011037490CA8DB
:1043800002F045FE0CA909A802F0A6FE05000CA843
:1043900002F0EEFD002D1BD0012209A90CA8FFF7A9
:1043A00005F90CA802F019FF2D4D28600CA802F0A9
:1043B000DFFD2C49200002F040FC2868FEF7F8FEE3
:1043C0000B00022102000091200002F097FD81E421
:1043D00025490CA802F01BFE0CA909A802F07CFEDE
:1043E00005000CA802F0C4FD002D0ED009A9012281
:1043F0000CA8FFF7DBF80CA802F0DCFE1B4D2860D0
:104400000CA802F0B5FD1A49D0E61A490CA802F032
:10441000FEFD0CA909A802F05FFE05000CA802F041
:10442000A7FD002D0ED009A902220CA8FFF7BEF8A7
:104430000CA802F0BFFE104D28600CA802F098FDF9
:104440000E49B3E60E4909A802F01CFE002802D06E
:10445000FFF7B4F93EE40B49FFF7E4FB898601104E
:1044600058020020548701109F860110B4020020DA
:10447000578701105A870110C00200205D87011084
:0844800061870110688701103B
:0244880070477B
:10448A00F7B5456804000F0001921E00002D21D0E7
:10449A002B6882694169DB6928009847E368002133
:1044AA00D8B202F08EFF80216068394303689B68A6
:1044BA00984760683200036801991B699847E36866
:1044CA000121D8B202F07DFF606803681B6A984731
:1044DA00012027E00068217A0368DB6A9847206890
:1044EA00390003681B6898472068290003681B6B1A
:1044FA009847051E14D12068217A03683200DB6BC5
:10450A00984703002800B3420CD1019DEE18AE4231
:10451A00DED0206803685B69984728700135F6E7A2
:06452A0001204042FEBD2D
:1045300073B50E0015001C006A4606232821FFF7FC
:10454000A4FF002804D11D4B33602B60236076BD8F
:104550006B460020185EFEF7BFFD0022184BFDF7EA
:10456000AFFFFC2300229B05FDF7AAFFFEF772FEBA
:104570006B4630600220185EFEF7AEFD0022104B45
:10458000FDF79EFFFC2300229B05FDF799FFFEF738
:1045900061FE6B4628600420185EFEF79DFD002238
:1045A000074BFDF78DFFFC2300229B05FDF788FFDD
:1045B000FEF750FE20600120C9E7C0460000C07F22
:0445C00000001040A7
:1045C40073B50E0015001C006A4606232221FFF76E
:1045D4005AFF002804D11D4B33602B60236076BD45
:1045E4006B460020185EFEF775FD0022184BFDF7A0
:1045F40065FFFC2300229B05FDF760FFFEF728FE04
:104604006B4630600220185EFEF764FD0022104BFA
:10461400FDF754FFFC2300229B05FDF74FFFFEF737
:1046240017FE6B4628600420185EFEF753FD002237
:10463400074BFDF743FFFC2300229B05FDF73EFFDC
:10464400FEF706FE20600120C9E7C0460000C07FD7
:0446540000409F4043
:1046580013B56B46DC1D22000123FFF712FF01286A
:0C46680001D1207816BD01204042FBE784
:0E46740010B51E21FFF7EEFF0123184010BD08
:0E46820010B51E21FFF7E7FF8007C00F10BD27
:1046900070B5040040680E00150000281ED00368A5
:1046A000A269DB6961699847E3680021D8B202F02A
:1046B0008DFE6068310003689B6898476068290038
:1046C00003689B689847E3680121D8B202F07EFE38
:1046D000606803681B6A9847012070BD2068217AD2
:1046E0000368DB6A98472068310003681B689847B5
:1046F0002068290003681B689847206803685B6B83
:08470000984743425841E8E7E5
:1047080070B545680400002D0ED02B6828001B6B7F
:104718009847E3680021D8B202F054FEE06800210F
:10472800C0B202F011FE70BD2A001121FFF7ACFFE4
:104738002A0010212000FFF7A7FF206803685B6AA2
:044748009847F0E7B7
:10474C00436810B50400002B1ED0C3680121D8B2F9
:10475C0002F0F8FDE3680121D8B202F031FE606886
:10476C000368DB6A98470F212000FFF76FFF6C2866
:10477C000ED00F212000FFF769FF692808D0200018
:10478C00FFF7BCFF002010BD00680368DB69E9E798
:10479C004C2211212000FFF775FF4A221021200026
:1047AC00FFF770FF002216212000FFF76BFF092294
:0C47BC0017212000FFF766FF0120E4E752
:1047C8000848094B6A2210B5036000230272074AA1
:1047D80043600376013342614376054A054908F090
:1047E8001DFC10BD54160020AC16002000093D0029
:0847F800480200208944001072
:0448000000207047DD
:024804007047FB
:0C48060010B50368C9B21B68984710BDCC
:0E4812008B23002249009B00C161C2507047F9
:0C48200010B5036801211B6B984710BD08
:0C482C0010B503689C6B0123A04710BD71
:1048380030B58B248025A400025903006D000020A8
:10484800AA4206D0501C185101209B182D33FF3363
:04485800197030BDE6
:02485C007047A3
:08485E008C239B00C150704740
:084866008D239B00C150704737
:10486E000300FC33DA6A002A04D09B6A0130C018B8
:0A487E00C07F704701204042FBE7B5
:1048880070B5036804005B6A9847402008F0E8FDAB
:1048980005001A23E25E1823E15E05F04BF8656116
:0248A80070BDE1
:0A48AA0010B50C220CF01BFE10BD2F
:1048B40070B58B25AD00435906001400D018802232
:1048C4005200904200D9D41A30002D30FF30C01865
:1048D40022000CF007FE735920001B19735170BDA0
:1048E40070B5050040690C00002801D004F04AFFAF
:0E48F4002869002802D0210005F066F870BD8A
:1049020010B50400FC3408F00EF9E46A08F021F94D
:04491200200010BDB4
:1049160010B5040008F005F92300FC33DA6A002A12
:1049260011D0DA6A002A0ED09A6A0134A4189A6A5B
:10493600E47F0132D2B29A62DA6A013ADA6208F0A8
:0C49460006F9200010BD01246442F8E7CF
:1049520070B504004069002804D00368DB689847FA
:10496200002363612369002B13D08E25AD006059AB
:1049720009F059F8605909F077F86059002802D017
:1049820003685B6898470C21206908F09CFD0023AE
:04499200236170BD70
:104996008B2330B502000C0001259B00C35885B05F
:1049A6004069D1696C40002B07D100942B0003AA03
:1049B60004F017FFC0B205B030BD2D32FF320094AF
:0C49C60004F0EFFE431E98414000F4E7AF
:1049D200F0B514008022C3B005005200944200D901
:1049E200140001225340009302AE4900230032001A
:1049F200686904F0F8FE002817D12B00FF27FC336A
:104A02000135A04212D08021DA6A49008A420AD0D6
:104A12005A6A315CAA18D1775A6A01323A405A620C
:104A2200DA6A0132DA620130EBE70024200043B097
:024A3200F0BDD5
:104A3400F0B50400FF27C1B0206904F0D2FF0328B9
:104A4400FAD8FBF70FFD5C0222228D239B00E3586A
:104A5400002B00D098478B26B600A359002BEBD02F
:104A640008F060F82100A5592D313D402A00FF319E
:104A740068460CF037FD0023A35108F069F82A00BA
:104A84006946206904F0B5FFD6E7F022694620693B
:104A940004F0ABFF050008F045F823000022FC33C6
:104AA4005A62601C9A62DA62AA4215DA8026D96ACE
:104AB4007600B14210D0D96AB1420BD06E46596A21
:104AC400B65C4118CE77596A013139405962D96AC6
:104AD4000131D9620132E7E708F03AF8236820008F
:104AE4001B6998470028A7DD8C239B00E558002DFF
:104AF400A2D0236820001B699847A8479CE702F0CE
:044B0400D1FB99E761
:064B08000023C3607047AA
:0E4B0E00C36810B5002B01D09B68984710BDFE
:104B1C00FA2370B500254283802204009B00836039
:104B2C000C4B4560083305614561036001835200FD
:104B3C00290020300CF064FD2300FC335D629D6283
:104B4C00DD628B239B00E5500433E5500433E550C4
:084B5C00200070BDE88C01107F
:0E4B640010B504000021FFF7CDFF200010BDAA
:0C4B720010B50400FFF7CAFF200010BDC2
:104B7E0010B542680368086854100019D20701D5B1
:084B8E000268D358984710BDDE
:0C4B960010B501000430FFF7EFFF10BD68
:104BA40010B5024BC3601CC91CC010BDD08C0110D1
:104BB40010B586B00400684603910092436004ABCC
:104BC40006C806C3200003A9FFF7EAFF200006B0C9
:024BD40010BD12
:0C4BD60013B50400FFF7EBFF200016BD34
:104BE40070B5036888B05B6A04000E0098470C2017
:104BF40008F038FC05001A23E25E1823E15E04F095
:104C0400C9FE71002561280004F0E2FEBC2008F012
:104C140029FC0500134B08C0FFF7A2FF2800002160
:104C2400403008F077FE2800543008F00FFE802250
:104C34000D4B2800009312010023182108F0E8FE10
:104C44008E239B00094AE5502100002304A8FFF7A6
:104C5400C0FF04A9280008F045FF04A8FFF787FF58
:104C640008B070BD94A30110DC8C0110354A00100B
:084C740010B5FFF78EFF10BD23
:084C7C0010B5FFF7F9FF10BDB0
:104C840010B5122002F0CAFA0400132002F0C6FA8A
:104C9400210002000148FFF73FFF10BDAC160020C1
:104CA4000B000F2130B50122172487B069440B7023
:104CB400C3686C44186803680092DD682300A84741
:064CC400207807B030BDAE
:104CCA00F8B5427A036805000C00CFB29B680E0A59
:104CDA00002A0FD13900FF2798472B68BC430443A9
:104CEA009B68310028009847030220003840184387
:104CFA0080B2F8BD31009847FF262B680002344085
:104D0A0004439B68390028009847B4432043EFE7DF
:104D1A0013B5C368186803680092DC680B00A047E3
:024D2A0013BDB7
:024D2C007047CE
:024D2E007047CC
:024D30007047CA
:104D320037B5436804000D0000910192994204D1F5
:104D42006B469A8803899A4210D06B461A79E368B7
:104D52000821186804F0F0FEE3682900186804F0DE
:0E4D620007FF201D062269460CF0BDFB37BD81
:104D7000C36810B50400002B0BD01868002808D0B9
:104D800003685B6898470421E06808F09DFB0023F6
:044D9000E36010BD0F
:0E4D940010B50400182108F095FB200010BD9A
:104DA20037B5C5680400002D04D1042008F05BFB70
:104DB200E0600560E3681B68002B11D1302008F029
:104DC20052FB1422A35E05001021625E1220215EB6
:104DD200012040420090280004F073FEE3681D6049
:024DE20037BDDB
:104DE400F7B50C2002F01AFA07000B2002F016FAAD
:104DF40006000D2002F012FA00240122184B194D6E
:104E04001F825E82184F194E5C6031001C725A7208
:104E140098823A00180008351D60DC6008F000F93B
:104E2400192002F0FBF900901C2002F0F7F9019020
:104E34001D2002F0F3F901220D4B31005A726A462B
:104E4400128898821A826A4692885C605A821C721E
:104E54003A0018001D60DC6008F0E2F8F7BDC046B7
:104E64007C160020408D011048020020314D0010B6
:044E74009416002070
:104E780070B5124C12492068124A134B884213D15C
:104E88006068904210D1A06898420DD100250D208D
:104E9800256002F0C1F904000C480AF06DFB03001C
:104EA80001202900A0409847216009480021A360FB
:104EB80062600AF0CFF90023236070BDC81000209B
:104EC800DE8116F0299B72BD7ABE59D35542000087
:044ED80020A107000E
:104EDC001B220A4B1A600A4B023A1A60094B013228
:104EEC001A60094B08321A60084B05321A60084BDD
:104EFC00033A1A60074B013A1A6070477816002083
:104F0C00741600207016002044160020481600204D
:084F1C004C1600205016002085
:104F24000B00F0B50F2700260E33023902003A4079
:104F3400D5B22C0000093034092A00DD07341C7076
:0A4F44005E70023B9942F1D1F0BD0E
:044F4E001E2070476A
:024F52007047A6
:104F540013B50400684609F001FC21000098FFF72E
:104F6400DFFF210001981031FFF7DAFF202016BD82
:104F740010B50D2002F052F9040004480AF0FEFABC
:104F8400030001200021A0409847C046554200007C
:104F94009A2370B55B00C35C05001400002B1CD180
:104FA4000368DB699847F0210C4B09012140C918BB
:104FB4004B1E9941F0232340303B5A4253410F2268
:104FC4000731144001330D3A012C02D0023C6242F5
:104FD4006241A869006804F028FF70BD00FDFFFF6E
:104FE4009A2310B55B00C35C0400002B05D1A369B0
:0C4FF400186804F04AFF0028F9D010BD36
:105000009A2370B55B00C55C0400002D14D1836940
:10501000002B0CD01868002809D00368DB6898477B
:10502000A36904211D60A06908F04EFAA561002360
:0A503000FC34E3622363636370BD88
:10503A009A23F7B55B00C35C0400002B2AD18025B4
:10504A00FF276D00A369186804F000FF002821D02B
:10505A0007F065FDA369012218686B46DE1D036827
:10506A0031005B6998472300FC335A6BAA420ED081
:10507A005A6BAA420BD02200D96A3078283250548F
:10508A00DA6A01323A40DA625A6B01325A6307F03D
:06509A005CFDD7E7F7BD45
:1050A0009A2210B552000300805C002806D001202F
:1050B00002F0E6F8054801F0A6FA10BD9B69002B46
:1050C000FBD01868431E9841C0B2F6E7E8180020EC
:1050D00070B504000D0001F096FA03000020834231
:1050E00004D0236829001B6C2000984770BD08B4C9
:1050F000024B9C46024BC01A08BC6047D1500010BE
:04510000400100006A
:1051040037B56B46DC1D9A2321705B00C35C050038
:10511400002B04D0C9B20A48FFF7D8FF3EBDAB69E3
:10512400186804F0B2FE0028F9D0AB6901221868AF
:10513400210003681B6998470130431E9841EDE73D
:04514400E818002047
:10514800F7B5060001911700002401F058FAA042B3
:105158000DD0A7420BD93D1B402D00D94025019BFE
:105168002A001919300000F07DFF6419F1E72000CA
:10517800FEBD08B4024B9C46024BC01A08BC6047EF
:08518800495100104001000034
:105190009A2370B55B00C35C05000E001400002B61
:1051A00005D00F48FFF7D0FF0400200070BDAB69A9
:1051B000186804F06CFE0028F9D0AB6901211B6867
:1051C00018005B6F74301B6B9847AB69220018683E
:1051D000310003681B699847431CE6D10024E4E7CB
:0451E000E8180020AB
:1051E400F0B5C3B0050001F0F7F9932380229B00CA
:1051F400E918CB6852000400D31A984201DDCC6848
:10520400141B01AB220002A92800A82601F029F8EA
:105214000021019802AB241A76001C1993238022E2
:105224009B00EB18DF685200974211D081420FD0E7
:10523400DF6897420AD05A68675CAA1897555A687B
:105244000132D2B25A60DA680132DA600131E5E73C
:0452540043B0F0BDB6
:1052580070B5040000F0E8FB2000FFF7BFFF9323C0
:105268009B00E318DD68200000F0E5FB280070BD16
:1052780008B4034B9C46034BC01A08BC6047C046A1
:08528800595200104001000022
:105290009A2310B55B00C35C0400002B05D00648C0
:1052A000FFF7DAFF0400200010BDFC3407F03CFCDF
:0C52B000646B07F04FFCF6E7E8180020E4
:1052BC0070B5040000F0B6FB2000FFF78DFF9323C0
:1052CC009B00E318DA68002A09D0A8229B685200D8
:1052DC00E3189D5C200000F0ACFB280070BD01259C
:1052EC006D42F7E708B4034B9C46034BC01A08BC4D
:0C52FC006047C046BD5200104001000099
:105308009A2310B55B00C35C0400002B05D00B4842
:10531800FFF7D0FF0400200010BD07F001FC2300B8
:10532800FC335A6B002A05D01B6B2834E45C07F069
:105338000DFCF0E701246442F9E7C046E8180020B4
:1053480070B5040000F070FB2000FFF747FF9323BF
:105358009B00E318DA68002A10D0A8219A6849004F
:10536800A218555C9A680132D2B29A60DA68013A9A
:10537800DA60200000F05FFB280070BD01256D4257
:10538800F7E708B4024B9C46024BC01A08BC6047BA
:08539800495300104001000020
:1053A0009A2310B55B00C35C0400002B05D00E48A7
:1053B000FFF7CAFF0400200010BD07F0B5FB230073
:1053C000FC335A6B002A0CD01A6B2834A45C1A6B7D
:1053D0000132D2B21A635A6B013A5A6307F0BAFB30
:0C53E000E9E701246442F9E7E818002026
:1053EC00802210B50400520000210CF009F92300B2
:0E53FC000022FC335A6020009A60DA6010BD77
:10540A0010B542680368086854100019D20701D51C
:08541A000268D358984710BD49
:0C54220010B501000430FFF7EFFF10BDD3
:1054300010B5024BC3601CC91CC010BD7C8D01108F
:1054400010B586B00400684603910092436004AB37
:1054500006C806C3200003A9FFF7EAFF200006B034
:0254600010BD7D
:0C54620013B50400FFF7EBFF200016BD9F
:105470009A2370B55B00C35C86B004000D00002B5E
:1054800036D18669002E04D1042007F0EDFFA0611B
:105490000660A369186800282CD1783007F0E4FF73
:1054A00006002223E25E2023E15E2B0004F0DEFFF3
:1054B000A3691E602423E25E531C06D0A069262146
:1054C000635E0068032104F0DFFFA3691D68002DFF
:1054D0000ED00026094A3300210002A8FFF7C1FFC1
:1054E0002800320002A904F03DFD02A8FFF741FBAD
:1054F00006B070BD290004F089FCDBE73B500010CA
:0855000010B5FFF78EFF10BD8E
:0855080010B5FFF7F9FF10BD1B
:10551000F0B53A4B3A4DFA2685B000240833009393
:105520002B602023B6006C60AE6036486B61AC61C6
:10553000EC61FFF75BFF9A2201205200A85401F0B2
:105540006FFE0700200001F06BFE2F4D20232F84FB
:10555000012700997F426C60AE6068842B48296007
:105560006B61AC61EC61AF84EF84FFF73FFF9A227F
:1055700019205200AC5401F053FE01901A2001F0A2
:105580004FFE02901C2001F04BFE03901B2001F007
:1055900047FE20231E4D00996B616B462960998858
:1055A0006C6029841989AE6069849989E8841948F6
:1055B000A984AC61EC61FFF719FF9A22192052000F
:1055C000AC5401F02DFE01901A2001F029FE202399
:1055D000114D00996B616B469B8868846C60AE606E
:1055E0000E482960AC61EC612B84AF84EF84FFF737
:1055F000FDFE9A225200AC5405B0F0BD888D01101A
:10560000481F0020701F0020A01B0020C81B002086
:10561000D81C0020001D0020101E0020381E002075
:0456200000207047AF
:025624007047CD
:025626007047CB
:1056280010B5054BC458002C05D023682000DB6A50
:0C5638009847A468F7E710BD8C0500003F
:1056440070B50D00054BC458002C06D0236820000B
:10565400DB6829009847A468F6E770BD8C05000054
:0856640000487047588E011048
:10566C0010B50400044B036006F010FA200006F09D
:0C567C0043FB200010BDC046D88D01107B
:1056880010B50400FFF7EEFFB2212000C90007F0B3
:0656980017FF200010BD09
:1056A000F0B50F4B0500C458002385B0019102AA44
:1056B000D61C002C12D0236801991F69320003AB5D
:1056C0002000B84731780300042905D0039A280048
:1056D00005F088FC05B0F0BDA468E8E73178F5E78F
:0456E0008C05000035
:1056E40070B50E0005000021002A0CD10A4BC458E5
:1056F400002C0ED0236800225B69310020009847FB
:10570400002804D00121280005F036FA70BDA468F1
:0C571400EEE72100F7E7C0468C0500001E
:1057200070B50E0005000021074BC458002C07D0AF
:105730002368310020009B699847A4680100F5E7C1
:0C574000280005F025FB70BD8C05000062
:10574C00F8B505000E001700084BC458002C07D004
:10575C0023682000DB693A0031009847A468F5E71C
:10576C002800012105F07AFBF8BDC0468C0500002D
:10577C00F0B5002187B0040005F0A6FD6B460022B1
:10578C00DA80238901A9A588E28889260B731B0A74
:10579C004B730F4BEF27CB81042376000E80113E09
:1057AC00FF3ECE704E710D728A72FF330A34013E89
:1057BC002D0A120AC871CA720F718E714D720B824A
:1057CC00122220000BF08AFE200007B0F0BDC0466C
:0457DC0001020000C6
:1057E000F8B506000C000500002730000CF00EFA9A
:1057F000AB1B984205D92B786770237001350234B2
:08580000F3E74000C0B2F8BD5F
:1058080070B504000C4BC558002D07D02B68280034
:105818005B6A9847002802D1AD68F5E72800A925FA
:10582800064BED006353064BE118FFF7D5FF635DA8
:10583800C0186055601970BD8C0500000203000097
:045848004A0500000D
:10584C0070B5A125064BED004353064B0400C1185F
:10585C000548FFF7BFFF635DC0186055601970BD48
:0C586C00020300000A050000BC8D0110C2
:1058780070B59925064BED004353064B0400C0183C
:10588800FFF764FB635DC0186055601970BDC046C2
:0858980002030000CA04000035
:1058A0000023F0B587B003A98B71B123DB00C35C83
:1058B00005000B7101234B71BF33CB713A330B726F
:1058C000CE2309249B00154AC718039238000922E9
:1058D0000BF00AFE124BEE58002E17D03368002151
:1058E0009B6830009847C37882781B021343093BBA
:1058F0000193CE2301009B00E01828180931019A7A
:105900000BF0F2FD019BB668E418E5E73800054BA3
:10591000EC54054B2412EC5407B0F0BD0902FFFF14
:0C5920008C0500003A0300003B0300006F
:10592C0073B504000D00160008F0E0FB80235B004B
:10593C00010000932A003300200006F089F9024B85
:0C594C002000236076BDC046D88D0110FD
:1059580010B50E4A04008358002B12D18150B12390
:10596800DB00E25C48790A71E25C1218E2540B68C9
:1059780008009B6A9847238918182081012010BDC8
:1059880013009A68002AFBD19960E8E78C050000AB
:105998001FB5040005F092FC0100684604F03CFEC7
:1059A8004021684604F0B2FE074BE458002C06D0AC
:1059B800236820001B6A69469847A468F6E768468A
:0C59C80004F031FE1FBDC0468C0500003D
:1059D40010B50400FFF7DEFF200005F055FC10BDF4
:1059E40070B50D4D2B78BFF35B8F0C4CDB0711D4D6
:1059F400280007F029FB00280CD05E22084920006B
