:020000041000EA
:1000000000B5324B212058609868022188439860DF
:10001000D860186158612E4B002199600221596106
:100020000121F02299502B49196001219960352056
:1000300000F044F80222904214D00621196600F024
:1000400034F8196E01211966002018661A6600F04E
:100050002CF8196E196E196E052000F02FF8012189
:100060000842F9D1002199601B49196000215960AB
:100070001A491B48016001219960EB211966A021F2
:10008000196600F012F800219960164914480160C1
:100090000121996001BC002800D000471248134993
:1000A000086003C880F30888084703B5996A0420EC
:1000B0000142FBD001200142F8D103BD02B5186610
:1000C0001866FFF7F2FF186E186E02BD00000240BE
:1000D000000000180000070000035F00212200005C
:1000E000F4000018222000A00001001008ED00E03C
:1000F00000000000000000000000000074B24E7A12
:1001000000000420E3010010C3010010E903001007
:10011000C1010010C1010010C1010010C101001097
:10012000C1010010C1010010C10100104503001001
:10013000C1010010C1010010C9030010D503001057
:10014000CD010010CD010010CD010010CD01001037
:10015000CD010010CD010010CD010010CD01001027
:10016000CD010010CD010010CD010010CD01001017
:10017000CD010010CD010010CD010010CD01001007
:10018000CD010010CD010010CD010010CD010010F7
:10019000CD010010CD010010CD010010CD010010E7
:1001A000CD010010CD010010CD010010CD010010D7
:1001B000CD010010CD010010CD010010CD010010C7
:1001C00000BE00BE00BE00BE00BE00BE00F03FF894
:1001D000103800BE00202049086006C881F3088856
:1001E00010471E48006800282DD10CA40ECC002911
:1001F00002D000F010F8F9E719491A4A002000E08F
:1002000001C19142FCD1184988471849884700BE6E
:10021000FDE701C901C29A42FBD37047A4BB01109C
:10022000C00000209410002084CB011000000420A6
:100230000000042084CB01100010042000100420D2
:100240000000000070470A4810F0E2FD0047EFF39D
:100250000580C0B27047000008ED00E0000000D04B
:10026000A0100020ACAF0020CD020010B5E80010B7
:1002700057560000F8B5C046F8BC08BC9E4670470B
:10028000F8B5C04610B5064C2378002B07D1054BB6
:10029000002B02D0044800E000BF0123237010BDF2
:1002A000F01500200000000084020010044B10B57F
:1002B000002B03D00349044800E000BF10BDC04636
:1002C00000000000F415002084020010164B002BE3
:1002D00000D1144B9D46402292029A1A9246002168
:1002E0008B460F461348144A121A13F0ADF90F4B00
:1002F000002B00D098470E4B002B00D098470020D1
:10030000002104000D000D48002802D00C480EF01A
:10031000D4FA12F003FD200029000AF0A1FC0EF02F
:10032000C9FAC046000008000000042000000000D8
:10033000C1AB0010A0100020ACAF0020BBE8001043
:10034000000000007046C0082CD3EFF309808169DB
:1003500002390978002929D101B50FC8B8470CBC6A
:1003600003C29E461E4B06CB91421ED0083B1A602C
:10037000002909D0EFF3098020388863F0C0444693
:100380004D4656465F46F0C0906B1030F0C8A04610
:10039000A946B246BB4680F309882038F0C802203F
:1003A000C0430047EFF30880D1E770470D4A136858
:1003B0009942FAD801B5890053589C460FC8E047C6
:1003C0000CBC10609E46704701B509F0BFFE03BC2F
:1003D0008E46C7E701B509F077FE03BC8E46C1E73C
:1003E000A8040020E4940110102304E0202302E07C
:1003F000302300E040239C46F0B404AE7546E80884
:1004000001D3EFF309860E4F0FCE0FC70FBC0FC7F6
:100410004046494652465B460FC71DCE3100A60AEC
:1004200000D304316E0900D248311FC7EFF30980B1
:100430006946EFF3148663C7604601490DF0D6FDA7
:100440001CAF002001480421014B1847A0060020E2
:10045000210E011002B471464908490009564900AD
:100460008E4402BC7047C04602B471464908490038
:10047000095C49008E4402BC7047C0460022430814
:100480008B4274D303098B425FD3030A8B4244D35C
:10049000030B8B4228D3030C8B420DD3FF2209029E
:1004A00012BA030C8B4202D31212090265D0030B5D
:1004B0008B4219D300E0090AC30B8B4201D3CB0353
:1004C000C01A5241830B8B4201D38B03C01A524195
:1004D000430B8B4201D34B03C01A5241030B8B4297
:1004E00001D30B03C01A5241C30A8B4201D3CB0282
:1004F000C01A5241830A8B4201D38B02C01A524167
:10050000430A8B4201D34B02C01A5241030A8B4269
:1005100001D30B02C01A5241CDD2C3098B4201D381
:10052000CB01C01A524183098B4201D38B01C01AFF
:10053000524143098B4201D34B01C01A5241030976
:100540008B4201D30B01C01A5241C3088B4201D325
:10055000CB00C01A524183088B4201D38B00C01AD2
:10056000524143088B4201D34B00C01A5241411AF9
:1005700000D20146524110467047FFE701B5002006
:1005800000F0F0F802BDC0460029F7D076E77047CA
:1005900003460B437FD4002243088B4274D30309E4
:1005A0008B425FD3030A8B4244D3030B8B4228D385
:1005B000030C8B420DD3FF22090212BA030C8B42AB
:1005C00002D31212090265D0030B8B4219D300E04B
:1005D000090AC30B8B4201D3CB03C01A5241830BD0
:1005E0008B4201D38B03C01A5241430B8B4201D380
:1005F0004B03C01A5241030B8B4201D30B03C01AA9
:100600005241C30A8B4201D3CB02C01A5241830A22
:100610008B4201D38B02C01A5241430A8B4201D351
:100620004B02C01A5241030A8B4201D30B02C01A7B
:100630005241CDD2C3098B4201D3CB01C01A5241E2
:1006400083098B4201D38B01C01A524143098B426B
:1006500001D34B01C01A524103098B4201D30B0154
:10066000C01A5241C3088B4201D3CB00C01A524179
:1006700083088B4201D38B00C01A524143088B423E
:1006800001D34B00C01A5241411A00D201465241D7
:10069000104670475DE0CA0F00D04942031000D3F6
:1006A0004042534000229C4603098B422DD3030A4B
:1006B0008B4212D3FC22890112BA030A8B420CD35B
:1006C000890192118B4208D3890192118B4204D384
:1006D00089013AD0921100E08909C3098B4201D304
:1006E000CB01C01A524183098B4201D38B01C01A3E
:1006F000524143098B4201D34B01C01A52410309B5
:100700008B4201D30B01C01A5241C3088B4201D363
:10071000CB00C01A524183088B4201D38B00C01A10
:100720005241D9D243088B4201D34B00C01A5241E7
:10073000411A00D20146634652415B10104601D374
:100740004042002B00D54942704763465B1000D3FE
:10075000404201B5002000F005F802BD0029F8D0A4
:1007600016E770477047C046D0400B1CD1409C46EE
:10077000203AD3401843524263469340184370478F
:100780009140031C90409C46203A934019435242AA
:100790006346D340194370478446101C62468C461A
:1007A000191C634600E0C0461FB501F0F3FF0028A6
:1007B00001D40021C8421FBD10B501F04BFF4042DB
:1007C000013010BD10B501F0E5FF002801DB00206D
:1007D00010BD012010BDC04610B501F0DBFF0028A0
:1007E00001DD002010BD012010BDC04610B501F094
:1007F0006DFF002801DC002010BD012010BDC046A7
:1008000010B501F063FF002801DA002010BD0120BF
:1008100010BDC0468446081C6146FFE71FB500F0C6
:10082000F5FC002801D40021C8421FBD10B500F01E
:1008300077FC4042013010BD10B500F0E7FC002805
:1008400001DB002010BD012010BDC04610B500F036
:10085000DDFC002801DD002010BD012010BDC046D8
:1008600010B500F085FC002801DC002010BD01203F
:1008700010BDC04610B500F07BFC002801DA002056
:1008800010BD012010BDC0461C2101231B0498424D
:1008900001D3000C10391B0A984201D3000A083911
:1008A0001B09984201D30009043902A2105C4018C8
:1008B0007047C0460403020201010101000000006C
:1008C00000000000002B15D1002A13D1002906DBFF
:1008D00001DC002806D00020C043410802E080214E
:1008E0000906002007B4024801A14018029003BD88
:1008F00075FEFFFF03B4684601B5029800F048F9A1
:10090000019B9E4602B00CBC7047C046002B11D123
:10091000002A0FD1002900D1002802D00021C943AC
:10092000081C07B4024802A14018029003BDC0464B
:1009300035FEFFFF03B4684601B5029800F066F883
:10094000019B9E4602B00CBC7047C046F0B5CE4637
:10095000474615042D0C2E0080B50704140C3F0CDF
:100960009946030C7E435D43674363437F19340C10
:10097000E4199C46A54203D980235B029846C444EF
:100980004B4643435143250C36046544360C24043E
:10099000A4195B19591820000CBC90469946F0BD6B
:1009A0009E2110B5C905041CFFF764FF002803D180
:1009B000201C00F087FF10BD9E21201CC90500F0FF
:1009C000A7FD00F07FFF80231B069C466044F2E7F2
:1009D00070B500220C4B04000D00FFF711FF00283A
:1009E00004D12000290002F013FD70BD064B002247
:1009F0002000290002F0A8F902F00AFD80231B065E
:100A00009C466044F1E7C0460000E041F0B54F4627
:100A10004646D646C0B5040082B00D0091469846C1
:100A20008B422FD82CD04146484602F069FE29005F
:100A30000600200002F064FE331A9C46203B9A46D2
:100A400000D576E04B46524693401F004B46624627
:100A500093401E00AF4228D825D05346A41BBD4169
:100A6000002B00DA7BE00022002300920193012397
:100A7000524693400193012362469340009318E04D
:100A80008242D0D900220023009201930A9B002BBE
:100A900001D01C605D600098019902B01CBC9046BA
:100AA0009946A246F0BDA342D7D900220023009266
:100AB00001936346002BE9D0FB0798464146720834
:100AC0000A437B0866460EE0AB4201D1A2420CD835
:100AD000A41A9D41012024196D410021013E2418D2
:100AE0004D41002E06D0AB42EED9013E24196D4196
:100AF000002EF8D100980199534600196941002B46
:100B000023DB2B005246D3402A006446E2401C00FF
:100B100053461500002B2DDB26005746BE40330000
:100B200026006746BE403200801A9941009001912C
:100B3000ACE7624620239B1A4A46DA40614613001E
:100B400042468A4017001F4380E7624620239B1AD3
:100B50002A0066469A402300F3401343D4E76246D6
:100B6000202300219B1A0022009101920122DA40E9
:100B7000019280E72023624626009B1ADE402F0068
:100B8000B0466646B74046463B003343C8E7C046DA
:100B9000F0B583B016001F000090019102F0BCFD7B
:100BA00004000D0002000B0030003900FFF7CEFEFC
:100BB000009A019B121A8B41089920000A604B6031
:100BC000290003B0F0BDC046F8B54746CE46430203
:100BD0005B0A4400C20F9C464800DD004B02240E15
:100BE0005B0A000E80B5984626009146C90FDB00CF
:100BF000271A8A4229D0002F15DD00284AD1002B60
:100C000000D095E0ED08FF2C00D188E06B025B0A74
:100C1000E6B25B02F605580A3043D20710430CBC1B
:100C200090469946F8BD002F00D087E0601CC0B206
:100C3000012800DCB6E0EE1A720100D5C5E0002EF6
:100C40003DD1002200260023E3E7002F00DC96E0E0
:100C500000285DD0FF2C60D08022D20413431B2FCC
:100C600000DDECE02022D21B18009340F8405A1E11
:100C700093410343ED186B017BD50134FF2C00D168
:100C8000B7E0012207262A406B089A4D1D40154304
:100C90002E4029E0FF2CB5D08022D20413431B2F15
:100CA00000DDB2E02022D21B19009340F9405A1E09
:100CB00093410B43ED1A6B015BD5AD01AE093000DA
:100CC000FFF7E2FD05388640844265DC041B3300F3
:100CD00020200134E340041BA640751EAE4133437F
:100CE00007261D0000241E4001224B461A40002EFC
:100CF00004D00F232B40042B00D004356B0100D40B
:100D000080E70134E6B2FF2C2FD1FF26002380E7D5
:100D1000002B52D1FF2C00D074E70A00ED08002D03
:100D2000F3D08023DB032B435B025B0AFF2670E7D3
:100D3000013F002FBED0FF2CB1D163E7002C47D07C
:100D4000FF2869D08024E4047A4225431B2A00DD71
:100D5000C5E02C002026D440B21A95406A1E954169
:100D600025435D1B04008946A5E7AB015B0A50E7FC
:100D7000002401224B461A406B07BAD142E7002FEC
:100D80003BD10134E0B201284ADDFF2CBDD007265B
:100D9000ED186D082E40A7E70723574D241A35405C
:100DA0001E40A1E7002C1BD1002D6ED1002B00D1DD
:100DB0009AE00A001D003C0024E7013F002F00D10B
:100DC00058E7FF2C00D04AE7A7E75E1B894676E785
:100DD000002D1CD10A00FF281FD004001D0011E7C0
:100DE000002D5DD1002B17D180230022DB03FF26CD
:100DF0000FE70A00FF2600230BE7002C21D1002D6E
:100E000066D1FF28E9D11D0087E7012352E77A1C4C
:100E1000A7D0FA43FF2899D10A001D00FF24F1E66C
:100E2000002E21D1002D4FD0002B4CD0ED186B019E
:100E30009ED5314B07362E4001241D4054E7012337
:100E400018E7FF28DFD08024E4047F4225431B2FCE
:100E50004DDC2026F61B2C00B540FC406A1E954157
:100E60002543ED18040006E7002DCCD0002B00D15F
:100E700053E780216046C903084203D04046084238
:100E800000D11D000121114047E7002B00D1B9E638
:100E9000EA1A500125D507265D1B2E40894623E717
:100EA000FF24002B00D1ADE680226046D203104221
:100EB00004D04046104201D11D00894601224B4614
:100EC000FF241A409EE62B00DD080A0000249DE660
:100ED0007A1CC6D0FF43FF28B9D11D001DE70125AC
:100EE0003FE7151E00D044E70022002391E60125CC
:100EF000B7E7C046FFFFFF7DFFFFFFFBF8B5574692
:100F00004E464546DE464402E0B546008846640A41
:100F1000360EC70F002E63D0FF2E24D08023E400AE
:100F2000DB041C43002399469B467F3E43464246D2
:100F30005D02D20F5B006D0A1B0E9046924665D093
:100F4000FF2B55D080220021ED00D2047F3B1543BA
:100F5000F61A43464A467B400F2A00D98DE06D4879
:100F6000920082589746002C54D108239946063B9C
:100F7000FF269B46DAE70025534602291BD00329AA
:100F800000D1BFE0012928D030007F30002820DDCB
:100F90006A0704D00F222A40042A00D004352A010F
:100FA00003D530005C4A80301540FE2803DCAC01DC
:100FB000640AC2B201E0FF2200246402D205600A82
:100FC000DB07104318433CBC90469946A246AB460B
:100FD000F8BD0122101A1B287CDD00220024ECE75A
:100FE000002C1DD104239946033B00269B469DE718
:100FF000FF3E002D20D1022143464A467B400A4352
:101000000F2AD8D84548920082589746002D19D10A
:101010000121F1E70C239946093BFF269B4685E712
:101020002000FFF731FC7626431F9C4000237642C8
:10103000361A99469B4679E74A4603231A43914656
:10104000032186E72800FFF71FFC431F36189D4049
:10105000763600217DE780240023E403FF22ACE7FD
:1010600000258023DB031C4228D01D4226D12B43C0
:101070005C02640A4346FF229FE762016C01A242C0
:1010800024D21B210025013E012710006D005200D3
:10109000002801DB944201D8121B3D43013900298D
:1010A000F3D11400621E944125436DE7BA465946B8
:1010B00025005346022900D061E77CE78023DB034B
:1010C0001C436402640A3B00FF2276E7121B1A21CC
:1010D0000125D9E79E362A00B5402C00C240651E86
:1010E000AC411443620704D00F222240042A00D0EE
:1010F0000434620103D4A401640A00225DE70122E2
:1011000000245AE78024E4032C436402640AFF228B
:1011100053E7C04698880110FFFFFFF7D8880110F9
:1011200070B542004E024C0045026D0A120EC30F0C
:10113000760A240EC90FFF2A0FD0FF2C11D00120F0
:10114000A24200D070BDB542FCD18B420DD0002A26
:10115000F8D12800451EA841F4E70120002DF1D167
:10116000EBE70120002EEDD1E9E70020EAE7C046D9
:1011700070B54A004E02450244006D0A240EC30FAA
:10118000760A120EC90FFF2C15D0FF2A0ED0002CA4
:1011900015D1002A01D1002E1CD0002D14D08B4275
:1011A00027D00220013B1840013870BD002EEED040
:1011B00002204042F9E7002DFAD1FF2A0ED0002A82
:1011C0000ED1002EEDD00BE0012301399943080028
:1011D0000130EAE70020002DE7D0E2E7002EE7D15A
:1011E0008B42DED1944205DD0221581E08400138B1
:1011F000DBE70024A24204DCB542D2D80020B5428D
:10120000D3D2581E012398430130CEE730B54200B7
:1012100044024D02C30F4800640A120E6D0A000E0C
:10122000C90FFF2A12D0FF280CD0002A12D10028A3
:1012300019D1002D17D1002C2BD00220013B1840D2
:10124000013826E0002DF0D0022022E0002CFBD156
:10125000FF281FD000281FD1002D1DD10220013BE7
:101260001840013815E0002C0ED08B42E5D1002249
:10127000904204DCAC42E0D80020AC4209D2581EB7
:1012800001239843013004E0012301399943080008
:10129000013030BD002DD7D18B42CED18242E7DD67
:1012A0000221581E08400138F3E7C046F0B54E460B
:1012B00057464546DE46E0B543025B0A450083B02B
:1012C0000F1C99462D0EC60F002D57D0FF2D24D090
:1012D0008020DB00C0041843002381469A469B46C9
:1012E0007F3D7C027A00FB0F640A120E984623D0E1
:1012F000FF2A4BD0E30080240020E4047F3A1C4303
:10130000AD186B1C47460193534677403A000F2BAC
:1013100048D87D499B00CB589F46002B00D085E0E4
:1013200008339A46063B9B467C027A00FB0FFF255A
:10133000640A120E9846DBD1002C00D090E0524691
:1013400001231A4392460120DBE74C46584617001A
:10135000022824D0032800D1CFE000220023012856
:101360004DD15802D205400AFF071043384303B05D
:101370003CBC90469946A246AB46F0BD002B5BD1E3
:1013800004239A46033B00259B46AAE7FF35002C21
:1013900060D1524602231A4392460220B1E7FF224F
:1013A0000023DEE74B461B0C9C464B462604360CBE
:1013B000180461463300220C6446000C43434E433C
:1013C0005043544380191A0C1218964203D98021B5
:1013D00049028C4664441B041B0C1004C018830192
:1013E0005E1EB341800E1843130C1B199B0103436F
:1013F0001C00230179D5012362081C401443019A83
:101400007F32002A4DDD630704D00F232340042BD5
:1014100000D00434230103D53C4B019A1C40803298
:10142000FE2ABCDCA3015B0AD2B29AE70C239A46DF
:10143000093BFF259B4654E71800FFF725FA4A466B
:10144000431F76259A4000236D4291462D1A9A46F5
:101450009B4646E7524603231A439246032050E731
:101460002000FFF711FA431F2D1A9C40763D002003
:1014700047E780230027DB03FF2272E7424666E747
:101480004C463200584662E780234A46DB031A4244
:1014900022D01C4220D123435B025B0A4746FF2235
:1014A0005FE701239A1A1B2A21DC23000199D3400C
:1014B0009E318C401A0023005C1EA34113435A073F
:1014C00004D00F221A40042A00D004335A0111D448
:1014D0009B015B0A002244E780234A46DB03134357
:1014E0005B025B0A3700FF223BE7019587E700229A
:1014F000002336E70122002333E78023DB03234365
:101500005B025B0AFF222CE718890110FFFFFFF73F
:10151000F8B54746CE464400C20F80B547024802A0
:10152000400A8446664648007F0A240EF6002500DD
:101530009046FB00000EC90FB146FF2800D185E0A0
:1015400001267140261A914257D0002E43DD002813
:1015500000D07FE04946002900D1AAE0013E002EDC
:1015600000D0F7E05B1A5A0100D48BE09B019C0984
:101570002000FFF789F905388440854200DDD3E07B
:10158000451B230020200135EB40451BAC40621E6B
:1015900094412343072400251C40012241460A4070
:1015A000002C04D00F211940042900D00433590124
:1015B00000D480E00135ECB2FF2D00D0A3E0FF2481
:1015C00000235B02E405580AD207204310430CBCF9
:1015D00090469946F8BD002E74D1601CC0B2012817
:1015E00000DCA7E04A469C1A620100D5B6E0002C58
:1015F000BED1002200240023E3E7002E00DC85E0BA
:10160000002846D0FF2C49D080224846D2041043FF
:10161000814601221B2E09DC20204C46801B844081
:101620004A462000F240441EA04102439B185A0142
:1016300028D50135FF2D00D1A8E0012207249449C7
:101640001A405B080B4013431C40A6E7002E00D055
:1016500078E775E7FF2C54D080224946D204114325
:10166000894601221B2E09DC20214846891B88401F
:101670004A460100F240481E81410A439B1A5A0122
:1016800000D573E7012241460A40590700D089E797
:1016900011E04846002858D1FF2C0CD1DB08002B64
:1016A00000D18CE78020C00303435B025B0AFF2468
:1016B00087E7FF2C25D0DB08FF2DF0D05B025B0A0B
:1016C000ECB27EE7002C4DD0FF2818D08024E40433
:1016D000724223431B2A00DDC4E01C002025D440B5
:1016E000AA1A93405A1E934123434A460500D31A2F
:1016F000884638E7721CF8D0F243FF28EAD10A0086
:101700004B46FF25D7E79B015B0A5AE7002E41D1E4
:10171000651CE9B2012945DDFF2D00D14FE7072403
:101720004B445B081C4038E707225A4B2D1A2340D4
:10173000144032E7002C1DD1002B7AD14B46002BF0
:1017400000D191E00A000025B5E7013E002E19D135
:101750004B446CE7FF2C84D1FF25ACE74A46884612
:10176000D41A05E7002BC5D10A00FF28C8D0050010
:101770004B46A0E7002B49D14B46002B77D00A00FF
:10178000FF2598E7FF2C00D043E787E70A00FF24F6
:10179000002316E7002C15D1002B57D1FF28E6D1E6
:1017A0004B467BE7002C20D1002B57D0494600291F
:1017B00053D04B445A0168D50724364A1C400125B2
:1017C0001340EAE6FF28EBD08022D204764213438E
:1017D0001B2E53DC2025AD1B1A00AB40F2405C1ED3
:1017E000A34113434B44050021E7002BD8D04946C1
:1017F000002900D152E78021C9030F4200D14DE7F3
:101800006046084200D049E74B4647E74846FF2577
:10181000002800D14FE78022D203174204D060464F
:10182000104201D14B46884601224146FF250A401D
:1018300041E7484600281FD01A1A500120D54A46D1
:101840000724D31A1C4088460025A6E6741CC9D07C
:10185000F643FF28BCD14B4620E799464B4600256E
:10186000DB082BE7012340E700220023A9E68023C1
:101870000022DB03FF24A4E600251CE70123B1E7D7
:10188000002AF1D013000025FCE60025FAE6C04648
:10189000FFFFFF7DFFFFFFFB42024B0240004900BC
:1018A000520A5B0A090E000EFF2806D00020FF290D
:1018B00002D11800431E98417047FE38002AFBD120
:1018C000F4E7C04641024200C30F490A120E00204D
:1018D0007E2A0DD99D2A0CD8802000040143952A28
:1018E0000ADC9620821AD1404842002B00D1080021
:1018F0007047034A9818FBE7963A9140F4E7C046D0
:10190000FFFFFF7F70B500283DD0C317C5185D40AD
:10191000C40F2800FEF7B8FF9E22121A962A07DC91
:10192000D2B2082833DD083885406802400A23E037
:10193000992A0BDD052329001B1AD94003001B330C
:101940009D402B005D1EAB4119430D00052801DDB4
:10195000431F9D402B000F490B406E0709D00F26F7
:101960003540042D05D004335D0102D59F220B4084
:10197000121A9B01580AD2B24002D205400AE4076B
:101980001043204370BD002400220020F4E76802C9
:10199000400AF1E7FFFFFFFB70B5041E34D0FEF7ED
:1019A00073FF9E22121A962A07DCD2B208282EDD77
:1019B000083884406002400A21E0992A09DD0300CA
:1019C00021001B3399404B1E994105231B1ADC4013
:1019D0000C43052801DD431F9C4023000D490B40AB
:1019E000650709D00F252C40042C05D004335C0179
:1019F00002D59F220B40121A9B01580AD2B2400214
:101A0000D205400A104370BD00220020F7E76002B3
:101A1000400AF4E7FFFFFFFBF0B54F464646D646C7
:101A20000C000903C0B5490A470F5E0039431F0384
:101A3000DB0F9C4665007B0A570F1F436D0DE40FBB
:101A4000760DA146C000B846D200AB1B64457BD0E2
:101A5000002B5FDD002E00D0A4E03E00164300D135
:101A600012E15E1E002E00D09EE1871A4346B84266
:101A700080410125C91A4042091A0B0200D431E104
:101A800049024E0A002E00D16EE13000FEF7FCFE46
:101A90000300083B1F2B00DD61E120223900D21A30
:101AA0009E40D1409F400E439D4200DD51E15D1BB1
:101AB0006B1C1F2B00DD7CE12021C91A3D0030008A
:101AC0008F408840DD40791E8F4131000722284336
:101AD000D940002507433A40002A09D00F233B4054
:101AE000042B05D03B1DBB42BF417F42C9191F00DB
:101AF0000B0200D426E26A1CC64B55056D0D9A42B6
:101B000000D106E1C44AFF080A40530752023B4392
:101B1000120B8EE0002B00D0B8E06B1C5B055B0D58
:101B2000012B00DC30E1871A4346B842B641CB1A9C
:101B300076429E1B330200D54CE13B003343A1D1DA
:101B400000220024002570E0002B00DCE5E0002EE0
:101B500000D183E0AF4EB54260D0802636043743D3
:101B6000B846382B00DC3EE1434613431F007A1E83
:101B700097413F1887428041404209180B0200D428
:101B8000B0E0A44B01359D4200D1C3E0A24A7B08DE
:101B90000A4001210F401F435108D30707221F436A
:101BA0003A4099E79B4EB54238D0802636043743F9
:101BB000B846382B00DDDCE01F2B00DC30E11E00D6
:101BC0004746203EF740BC46202B04D04026F31A5F
:101BD00046469E403243170063467A1E97411F4394
:101BE000CCE0002B00D104E24346134300D159E17D
:101BF0004B07C00818438023C9081B03194208D0AB
:101C00004546ED081D4204D14346D0085907084314
:101C10002900420FC9007F4D1143C0004B07CA087D
:101C20007C49C00803438D4268D012036D05120B36
:101C30006D0D002112031800130B0A0D12051A4333
:101C4000764B2D0513402B435B00E4075B082343D1
:101C500019001CBC90469946A246F0BD3E001643B2
:101C600012D05E1E002E00D000E18718874280410E
:101C700041444042091801250B0233D5022585E76E
:101C800064463300414610001D00C7E7002D00D018
:101C9000DAE00C000443F3D05C1C00D19FE15D4C02
:101CA000A64200D12FE1DB43382B00DD66E11F2B7C
:101CB00000DD83E120240500E41A0F00DD40D94057
:101CC000A0404346A7405B1A441EA04198462F43BC
:101CD0003843171ABA42924143465242991A64460F
:101CE0003500CAE607223A40002A00D0F6E64B0744
:101CF000CA084849FF083B438D4296D11900114359
:101D000000D19EE1802109030A431203120B414DC9
:101D10008FE71500002200238BE7002B00D0C7E0DF
:101D20006B1C5F057F0D012F00DCF1E0394DAB42EC
:101D300000D1B9E085180A008542894142444942F0
:101D400051180722CF076D082F4349083A401D005C
:101D5000C2E607223049ED1A31403A40BCE63E0067
:101D60002838864000279FE63800FEF78DFD20309A
:101D70008EE6434613431F007A1E9741C71BB842A5
:101D800080414042091A78E60E003B0006431343A7
:101D9000002D61D1002E00D0F4E0002B00D11BE11A
:101DA00064463900100039E71A4FBB427AD033003D
:101DB000FFE630001F3DE840202B03D04021CB1A26
:101DC0009E4037437B1E9F41072207433A40002134
:101DD000002589E7171A4346BA42B641591A764296
:101DE0008E1B64464EE61F2B00DDADE020264746E5
:101DF000F61AB740B9461700B246DF404E463E439A
:101E000037005646B240561EB24117434246DA40AA
:101E10008918AEE6FF070000FFFF7FFFFFFF0F807E
:101E200020264746F61AB740B9461700B246DF40AB
:101E30004E463E4337005646B240561EB241174307
:101E40004246DA40891A99E77F4CA6425BD080244B
:101E500024045B42214327E7002E0CD1002B00D144
:101E6000CBE0644639001000774DD7E6764FBB4291
:101E700018D0330075E6002B14D04B07C008184368
:101E80008023C9081B03194207D0FC081C4204D157
:101E90007907D0080843E14621004C46420FC900AB
:101EA0001143C000684DB9E61D0000220023C0E6C2
:101EB000002D5BD10D00054300D1E2E65D1C00D191
:101EC000B0E0614DAE421FD0DB43382B71DC1F2BDD
:101ED00000DD96E020250F00ED1AAF40B94607005F
:101EE000AA46DF404D463D432F005546A840D94005
:101EF000451EA84188440743BF189742924151426A
:101F0000414435003AE6644635004146100085E616
:101F10000B000343002D00D063E6002BF5D04346B1
:101F2000134300D17AE68718874280410722414453
:101F3000404209183A400B0200D4D5E6434B013524
:101F40001940C9E5380069E61E004746203EF740C3
:101F5000BC46202B04D04026F31A46469E4032430E
:101F6000170063467A1E97411F4302E6364DAE4284
:101F7000CAD080252D045B422943A6E70843411EB1
:101F80008841A6E6002B00D148E6871A4346B842AE
:101F9000B641CB1A76429E1B33024BD5171A4346E5
:101FA000BA429241591A5242891A072264463A406B
:101FB00092E501430F00791E8F419DE71C000F0041
:101FC000203CE740202B03D04024E31A99400843EB
:101FD000411E884138437CE60022002425E6171A7A
:101FE0004346BA429241591A5242891A6446350010
:101FF00043E541461000144D10E6802200241203F0
:1020000080E61D000F00203DEF40BC46202B03D092
:102010004025EB1A9940084307006346781E874124
:102020001F4369E7871897429B4141445B42C918A7
:102030003500A3E53B003343CED0072231003A40C0
:1020400052E600231A00F4E5FF070000FFFF7FFFC0
:10205000F0B55746DE464E464546E0B58346070096
:102060000E03480085B092461C00360B400DCD0F84
:10207000002800D19DE0954B984239D08023F6008E
:102080001B041E43924A7B0F334399469446030038
:102090006344009300230026FF00029323031B0BDD
:1020A00098466300E40F52465B0D019400D1B3E003
:1020B00086498B4200D19EE04246D1008022120424
:1020C0000A435146490F11438B46814952468C467B
:1020D00000996344CB1A0021D20000932B00634087
:1020E0009A460F2E00D905E17A4BB6009B599F46C0
:1020F0005B463343994600D0B8E002230826002708
:1021000000900293CAE7CB463A0002990195019BE1
:102110009A46022927D0032900D180E2012944D020
:102120006D49009B8C4663441C00002C38DD53072E
:1021300000D013E2D2085B46DB0109D55946674B54
:1021400019408B468021C9008C46009B63441C00CB
:10215000634B9C4207DC5B4664055F075B021743E9
:102160001B0B620D02E000230027584A00211B03CD
:102170001C0B0B0D1B05234314055A4A3800134052
:102180001C4353466400DB0764081C43210005B070
:102190003CBC90469946A246AB46F0BD0122524255
:1021A00001231B1B382B00DCADE10022002300279C
:1021B000DCE75B46334399465ED0002E00D18AE1CE
:1021C0003000FEF761FB03000B3B1C2B00DD7BE1C5
:1021D0001D22D31A5A460100DA4008398E401300F6
:1021E0005F46334399468F403F4B00261B1A0093AE
:1021F0000023029352E7414653460B433B499B461B
:102200008C46009B634400935B46002B3BD102232A
:1022100000221E43022161E7434613439B4637D009
:102220004346002B00D162E14046FEF72DFB030040
:102230000B3B1C2B00DD53E102004146083A914064
:1022400088461D21CB1A5146D9400B0041460B430D
:102250009B46534693401A00009B25499C46604488
:1022600003008C4663440093002137E70323B14603
:1022700000900C26029311E70023009301330426FB
:10228000002702930AE70323C3461E43032125E7E1
:1022900001331E430022012120E700239A468023B8
:1022A00000271B03094A61E7802349461B031942A3
:1022B00000D1E2E05946194200D0DEE00B431B0397
:1022C00017001B0BA246014A50E7C046FF0700005B
:1022D00001FCFFFF58890110FF030000FFFFFFFE14
:1022E000FE070000FFFF0F800DFCFFFF01F8FFFF5E
:1022F000F3030000D94500D9CBE000D1C6E03C0093
:1023000048460027009B013B00935B46160E1B02CC
:102310001E431302984633041B0C9946310C01915D
:10232000FEF732F94A4642430B04210C05001943DB
:102330008A4207D98919013D8E4203D88A4201D9C0
:10234000851E8919881A0199FEF71EF909048C4621
:102350004A46210464464243090C030021438A4251
:1023600004D98919013B8E4200D8F1E02D041D43A8
:10237000AB464346891A4246280C12041D0C5B46A4
:10238000140C22001B041B0C5A4303946B4344435C
:10239000029568431B19150CEB189C4203D9802445
:1023A0006402A44660441C0C15041B042D0C201868
:1023B0005D19814277D373D00C1AA24A7D1BAF42BC
:1023C000BF419446009B7F426344E01B1C00864251
:1023D00000D1DBE00199FEF7D7F84A4642430B04EF
:1023E000290C070019438A4207D98919013F8E42F7
:1023F00003D88A4201D9871E8919881A0199FEF7E4
:10240000C3F809044A46894629044D464243090C4B
:10241000030029438A4207D98919013B8E4203D818
:102420008A4201D9831E89193F04891A3A00039F01
:102430001A43380013041B0C584381460298150CAC
:102440006F43434345434846000C8446DB196344CD
:102450009F4203D9802040028446654448461F0CB1
:1024600000041B04000C7D191818A94200D284E056
:1024700000D17FE001231A4357E680234A461B031D
:1024800013431B031B0BAA466F4A6FE6BA4200D9DF
:1024900035E74B46DC0758087B081C43FF0734E749
:1024A0000024AF4289D247444745A4415B46644279
:1024B000A4196418013BA6421ED2A0426DD800D1D7
:1024C000B6E0241A9B4678E703005A46283B9A4018
:1024D0000027914688E65846FEF7D6F9203072E686
:1024E00003005246283B9A4093460022B4E65046E9
:1024F000FEF7CAF920309AE6A642E2D1B845DCD907
:10250000341A9B4659E71F2B65DC504C0099A446B2
:102510005C46614408008C4011008240D940501E46
:1025200082410C4314435A46DA401300620709D033
:102530000F222240042A05D02200141D9442894112
:1025400049425B181A0262D50122002300270DE6DA
:102550008A4200D80AE7831E891907E70F23134030
:10256000042B00D1E6E5171D9742924153429B444C
:10257000FA08E0E5002800D1D7E57118531EB142F2
:1025800027D3A94215D358D01A0073E7002B00DCDB
:1025900004E6012300229B44CDE50223474447453E
:1025A00089415B429C46494289190C19E344241A2B
:1025B00003E743465F0047459B41B8465B429E198F
:1025C000023A8919A94200D054E7404500D051E7AA
:1025D000ABE51A00F6E71F215F4649420C1BE740B6
:1025E000202B07D01A49009B8C46634418005B4699
:1025F00083401A43501E82413A4307270023174065
:1026000009D00F21002311401400042995D1220084
:102610005F075B021B0BD20817430022A6E580234D
:1026200059461B030B431B0317001B0B064A9DE572
:10263000BD42B2D89B460024BFE68045B9D31A00FC
:10264000C3E7C046FF030000FF0700001E040000B0
:102650003E040000F0B54F464646D6468446C0B517
:102660008046194E18030F034D00000B5C00824694
:102670003F0B6D0DC90F9146640DDB0F0120B54274
:102680000AD0B44203D0A54201D157450CD01CBC9E
:1026900090469946A246F0BD66463E43F7D1AC420D
:1026A000F5D154461443F2D10120C845EFD19942E7
:1026B00007D0002DEBD163461F433800471EB841B9
:1026C000E5E70020E3E7C046FF070000F0B54F460E
:1026D0004646D6464D00C0B50E03C90F8A462C4962
:1026E0001F035C008046360B6D0D91463F0B640D59
:1026F000DB0F8D421ED08C4216D0002D1ED13043F0
:102700008446002C01D13A4323D06246002A1AD0D5
:102710009A4529D0514602200139084001381CBC95
:1027200090469946A246F0BD39001143E5D00220FB
:102730004042F4E73043FAD1AC420FD0002C0FD125
:102740003A43E7D00CE00122013B934318000130EB
:10275000E5E763460020002BE1D0DBE73A43E6D112
:102760009A45D7D1A542D5DCA54205DBBE42D1D8DA
:1027700008D00020BE42D2D25046012301389843EF
:102780000130CCE7C845C5D80020C845F4D3C6E71A
:10279000FF070000F0B54F464646D6464D00C0B58F
:1027A0000E03C90F8A462E491F035C008046360B74
:1027B0006D0D91463F0B640DDB0F8D4218D08C429E
:1027C00011D0002D18D130438446002C1ED13A433D
:1027D0001CD163460020002B30D051460220013925
:1027E000084001382AE039001143EAD0022025E0F0
:1027F0003043FBD1AC4226D0002C26D13A4324D121
:102800005146022001390840013817E06246002A8B
:102810000FD09A45E1D1A54205DBBE42DDD819D0E3
:102820000020BE420AD250460123013898430130AD
:1028300004E00122013B9343180001301CBC904688
:102840009946A246F0BD3A43D0D19A45C5D1A5429A
:10285000C3DCE0E7C845C0D80020C845E3D3EDE7B6
:10286000FF070000F0B55746DE464E464546E0B548
:10287000834606000F03480087B092461D003F0BB9
:10288000400DCC0F002800D16FE0DE4B984238D0CD
:102890008023FF001B041F43730F3B430193DA4B5C
:1028A0000027994600239B46F60081442B036900CC
:1028B0001B0B52469846490DED0F002900D185E0CB
:1028C000D04B994200D173E04346DA0080231B04C9
:1028D00013435246CC48520F8446134352460020BD
:1028E0006144D20089442100694000918C46012155
:1028F00049448A460F2F00D990E0C449BF00CF5900
:10290000BF465B463B43019300D06AE102230827A0
:10291000002681469B46C9E732005846019B614626
:102920000091022800D175E0032800D1FEE10128C2
:1029300000D02CE100230027002600253F032A0DAC
:102940003F0BB34812053A4302401B051343009A5C
:102950005B00D1075B080B433000190007B03CBC9B
:1029600090469946A246AB46F0BD5B463B43019379
:1029700000D12FE1002F00D1A5E13800FDF784FF41
:1029800003000B3B1C2B00DD96E11D22D31A5A4697
:102990000100DA405E4608398F4013008E403B4309
:1029A00001939C4B00271B1A994600239B467DE709
:1029B000414653460B4393498C46E144002B00D0DB
:1029C0001AE102220220174300228CE7134300D1B0
:1029D0000DE14346002B00D181E14046FDF754FF55
:1029E00002000B3A1C2A00DD72E10100434608395F
:1029F0008B4098461D239A1A5346D3401A004346EB
:102A0000134352468A404946081A824989468144FE
:102A1000002068E77B4B002700268EE7140C120489
:102A2000120C1100370C3604350C794328008C4603
:102A30002E0060436044834656432100300C80469C
:102A40005846794340440291844506D988468021FE
:102A500049028C46E044414602913604010C360C92
:102A600000048B4681191E0C1B041B0C03911900DA
:102A700079438C46280075436544A8465843050CA5
:102A800045447743A94203D9802149028C466744D3
:102A9000290C8C4639000004000C2D042D186144CB
:102AA000AB4405915946049101990F043F0C080C61
:102AB000390051434243904602008C46090C8B4634
:102AC00062437C4344445C44A04503D980214902CD
:102AD00088464244210C884661460904090C8C460C
:102AE00039005943434370437E430F0CF6182404C6
:102AF000BE19644442448C46B34203D980235B022E
:102B000098464044029B61469846049B37044344E0
:102B10009B46AB45AD416B420D0405992D0C8C468F
:102B20007F196744FD18A8465D462D19A542A441AA
:102B300093466442A446C344DC448F42BF41984557
:102B40009B4193459241A445A4415B427F421F4370
:102B5000360C52426442BF192243BF1862463818ED
:102B60004302D20D039913436A020A43501E824165
:102B70006146ED0D2A434E023243D90100D4B3E041
:102B80000126500832400243DE0732435B08224CE4
:102B90005444002C62DD510709D00F201040042856
:102BA00005D0101D9042924152429B180200D9015B
:102BB00004D580241948E400034054441848844252
:102BC00000DD27E75E075B02D2081F0B6305164393
:102BD0005B0DB2E6002399460133042700269B468D
:102BE00064E60323019781460C279B465EE601229B
:102BF00001201743002276E6032303201F434346A8
:102C000071E6C046FF07000001FCFFFF9889011034
:102C1000FFFF0F800DFCFFFFFF030000FFFFFFFE23
:102C2000FE0700000023802700933F030026434B4C
:102C300083E6019B3200A446584670E6AC466EE639
:102C4000802701993F0339422DD03B422BD11F43AE
:102C50003F033F0B00951600384B6EE601252D1BF8
:102C6000382D00DD66E61F2D40DC35481C00504441
:102C7000160082408440EE40501E8241344314438B
:102C8000EB40620709D00F222240042A05D022001F
:102C9000141D9442804140421B181A023ED5012364
:102CA0000027002649E68027019B3F031F433F037F
:102CB0003F0B0094214B40E603005A46283B9A40C4
:102CC000002601926DE65846FDF7DEFD203057E6FE
:102CD00003005246283B9A401300002293E65046D8
:102CE000FDF7D2FD20307BE6CA4650E71F201E00CC
:102CF0004042041BE640202D03D0124C5444A34014
:102D00001A43501E8241324307260027164009D03D
:102D10000F200023104014000428B9D122005E07C0
:102D20005B021F0BD2081643002306E680273F03F1
:102D30001F433F033F0B1600004BFEE5FF0700005B
:102D40001E0400003E040000F8B557464E464546B6
:102D5000DE460C000903E0B5490A460F5F00314327
:102D60001E03DB0F760A9B46530F3343C84E6500A4
:102D7000C000E40FD2006D0DA24681467F0D9C4637
:102D80009046B74200D1B9E05B46012673409B46AE
:102D9000EE1BA34500D183E0002E63DD002F00D0A1
:102DA000B1E06346134300D123E1731E002B00D032
:102DB000BAE1861A6346B04280410125C91A4042F1
:102DC000091A0B0200D447E149024B0A98464346D0
:102DD000002B00D189E14046FDF756FD0300083B7A
:102DE0001F2B00DD7CE120223000D21A4146D0406A
:102DF000994002009E400A439D4200DD6AE15D1B4E
:102E00006B1C1F2B00DD94E1202110003500C91A36
:102E10008E40DA408840DD40711E8E41110007224D
:102E20002843002506433240002A09D00F233340AF
:102E3000042B05D0331DB342B641764289191E00DA
:102E40000B0200D43DE26A1C914B55056D0D9A4270
:102E500000D119E18F4AF6080A405707520237435A
:102E6000120B9BE0002E00D0C5E06E1C7605760D9F
:102E7000012E00DC48E16746861ACB1BB042BF41F9
:102E80007F42B8461F004346FF1A3B00B8461B026C
:102E900000D55FE137439AD100220024002579E074
:102EA000002E00DCFAE0002F00D18DE0784B9D422F
:102EB00067D0802367461B041F43BC46382E00DCC6
:102EC00052E1634613435A1E93411E1886428041C5
:102ED000404209180B0200D4BEE06D4B01359D4203
:102EE00000D1D2E06B4A73080A4001210E401E4314
:102EF0005108D30707221E43324095E71E001643B0
:102F000000D045E740E7624B9D423AD080236746B8
:102F10001B041F43BC46382E00DDEBE01F2E00DCF7
:102F20003AE133006746203BDF403B00202E05D0CE
:102F30004027BF1B6646BE40324390464646721E3F
:102F400096413343DAE0002B00D114E26346134389
:102F500000D168E180234E07C008C9081B0306435F
:102F6000194208D06046C008184204D163460100E7
:102F7000D2085E071643F3009946C900720F444D0C
:102F800011434B46DE08424B4F073743CA089D4268
:102F900000D16EE012036D05120B6D0D00211203BE
:102FA000130B0A0D12051A433B4B2D0513402B43FF
:102FB0005B00E4075B082343380019003CBC9046E3
:102FC0009946A246AB46F8BD6346134311D0731E23
:102FD000002B00D007E186188642804161444042C0
:102FE000091801250B0237D502257BE73E00614613
:102FF00091463500C5E75C46002D00D0E1E00B00AE
:103000000343F3D0731C00D1ACE1214B9F4200D1AC
:103010003AE1F343382B00DD6FE11F2B00DD8CE13B
:1030200020250E00ED1AAE40B0460600AA46DE404E
:10303000454635432E005546D940A8406346451EB7
:10304000A8415B1A9C463043161AB242924163462D
:103050005242991A3D00B4E607223240002A00D0BD
:10306000E4E60B4BF6084F073743CA089D4200D0F1
:1030700090E73B00134300D1A6E180231B031A43D2
:103080001203120B024D89E715000022002785E785
:10309000FF070000FFFF7FFFFFFF0F80002E00D023
:1030A000C7E06B1C5E05760D012E00DCF0E0C84D1C
:1030B000AB4200D1B9E085180A00854289416244DB
:1030C000494251180722CE076D082E434908324065
:1030D0001D00A9E6BF49ED1A114007223240A3E6C0
:1030E000320028388240002686E63000FDF7CCFB0F
:1030F000203073E6634613435A1E9341C61AB0420A
:1031000080414042091A5CE60E00674606431743B9
:10311000002D5ED1002E00D0F3E0002F00D11EE183
:103120005C46614691462CE7A94FBE427BD01E000B
:10313000F1E610001F3DE840202B03D04021CB1AC0
:103140009A401643731E9E410722064332400021D7
:10315000002583E7161A6346B2428041591A40425D
:103160000B1A98465C4632E61F2E00DDABE02027A6
:10317000BB1B9A4663465746BB40994613004F46D1
:10318000F3401F433B005746BA40571EBA41134312
:103190006246F240891898E62027BB1B9A46634690
:1031A0005746BB40994613004F46F3401F433B0030
:1031B0005746BA40571EBA4113436246F240891A35
:1031C0009CE7834B9F425FD080252D0473422943A7
:1031D00020E7002E0CD1002F00D1D0E05C466146E4
:1031E00091467B4DCDE67A4FBE421CD01E0065E66F
:1031F000002F18D0C0084E0706438020C9080003DE
:10320000014208D06346DC08044204D12100DA46BA
:10321000D2085E071643F300994601245346C900BD
:10322000720F11431C406A4DABE61D0000220027BF
:10323000B4E6002D59D10B00034300D1D6E6731C30
:1032400000D1B2E0624B9F421ED0F343382B6FDCBB
:103250001F2B00DD97E020250E00ED1AAE40B04692
:103260000600AA46DE40454635432E005546A84096
:10327000D940451EA8418C440643B6189642924157
:10328000514261443D0025E63D006146914678E6A5
:103290000B000343002D00D055E6002BF5D063460C
:1032A000134300D16DE68618864280416144404256
:1032B000091800220B0200D4D0E6464B0135194014
:1032C000B2E5B1465DE633006746203BDF403B0098
:1032D000202E05D04027BF1B6646BE403243904695
:1032E0004646721E96413343EFE5394B9F42CBD0A1
:1032F00080252D0473422943A8E70843411E8841D5
:10330000A2E6002F00D13CE66346861ACF1AB042EF
:103310009B415B42FB1A98461B024ED5161A634628
:10332000B2429241591A5242891A5C4600227BE508
:1033300001430E00711E8E419FE71D000E00203DCF
:10334000EE40B046202B04D04025EB1A99400843AC
:10335000814648464346411E8841184374E6002290
:10336000002417E6161A6346B2429241591A524295
:10337000891A3D0025E561469146154D01E68022FA
:103380000024120379E61D000E00203DEE40B046F9
:10339000202B04D04025EB1A9940084381464E4625
:1033A0004346711E8E411E4367E7861896429B4135
:1033B00061445B42C9183D008CE547463743CED097
:1033C00007224146324049E600273A00E6E5C0467A
:1033D000FF070000FFFF7FFF70B50C4E0D031C03BD
:1033E00049005B002D0B490D240B5B0DB14208D049
:1033F000064900208B4203D114432000441EA04103
:1034000070BD05430120002DFAD1F1E7FF07000050
:1034100030B5144D0A034B00120B5B0DC90F00248D
:10342000AB4211DD104CA34210DC80246403224324
:103430000E4CE41A1F2C0CDD0D48C31ADA401300A1
:103440005C42002900D11C00200030BD094BCC1883
:10345000FAE7094DE040AC4663449A401300034349
:10346000EEE7C046FE0300001D0400003304000028
:1034700013040000FFFFFF7FEDFBFFFF70B5002886
:103480002DD0C317C5185D40C40F2800FDF7FCF907
:10349000154B1B1A5B055B0D0A2815DD0B388540A3
:1034A00000222D032D0B002110002D030A0D2D0BE2
:1034B00012052A430D4D1B052A4013435B00E40708
:1034C0005B082343190070BD0200290015329140AA
:1034D0000A000B21081AC5402D032D0BE3E7002439
:1034E000002300250022DEE71E040000FFFF0F80FE
:1034F00010B5041E25D0FDF7C7F9144B1B1A5B0548
:103500005B0D0A2812DD0B38844000222403240BB3
:103510000021100024030A0D240B120522430C4C39
:103520001B05224013435B00590810BD0200210017
:10353000153291400A000B21081AC4402403240BC1
:10354000E6E7002300240022E2E7C0461E04000054
:10355000FFFF0F804100090E4B1C70B5DBB2460225
:10356000750AC40F012B14DDE0239B006D07360B99
:10357000CB1800210A0D280012051C4D32435B05B3
:103580002A405B0813435B00E4075B0823431900F0
:1035900070BD002914D1002D1ED02800FDF774F94C
:1035A0000A281CDC0B232A001B1ADA4003001533FF
:1035B0009D400F4B12031B1A5B05160B5B0DD8E7E2
:1035C000002D06D0320B802636036D071643094BBB
:1035D000CFE7084B0026CCE700230026C9E703000D
:1035E0002A000B3B9A400025E3E7C046FFFF0F800F
:1035F00089030000FF070000F0B54C00640D0B03C9
:10360000621C5B0A460F5205C90F1E43C500520DCE
:10361000012A29DD374BE718FE2F1CDC002F3BDD8C
:103620008001431E98410722F3006D0F03432B4393
:103630001A40002A04D00F221A40042A00D0043372
:103640008022D2041A4024D00137FAB2FF2F02D0D0
:103650009B01580A01E0FF2200204002D205400AE7
:10366000C90710430843F0BD3543002C04D1002D99
:103670000AD100220020F0E7002DECD08020C0030A
:103680003043FF22E9E7002400235B02580AE2B23C
:10369000E3E7DB083C00F8E73B001733F3DB80236C
:1036A0001B0433431E26F61B1F2E14DD022252423A
:1036B000D71B1A00FA401700202E04D00E4A944659
:1036C0006444A3401D432B005D1EAB4107223B43D6
:1036D0001A400027ADE7094A2800A21895409340F8
:1036E0006C1EA541F04007222B4303431A400027DC
:1036F0009FE7C04680FCFFFFA2FCFFFF82FCFFFFAC
:1037000010B5002903D1FDF7BFF8203002E0081CF6
:10371000FDF7BAF810BDC046F0B54E465746DE4636
:103720004546E0B50F00002183B006008946002F12
:1037300006DA3900002746428F4101214942894675
:10374000002B07DA4946C9431000894619000023B7
:1037500042428B4134003D0092469846BB4269D8B4
:1037600066D041465046FFF7CBFF83463900300014
:10377000FFF7C6FF5B461B1A9C46203B9B4600D5C5
:1037800075E05146584681400B00514660468140E5
:103790000A00BB4261D85ED034003D005946A41AED
:1037A0009D41002900DA7AE00021002001260090E6
:1037B000019159468E400196614601268E40614630
:1037C0000096002950D0D90756085F080E4363467B
:1037D0000EE0AF4201D1A6420CD8A41BBD4101218D
:1037E00024196D410022013B64185541002B06D07D
:1037F000AF42EED9013B24196D41002BF8D100985E
:1038000001995B4600196941002B3DDB2E00DE402B
:1038100063462C00DC405B46002B4BDB34005D46EE
:10382000AC4023006446A6403200801A994103E070
:10383000B24296D9002000214B46002B04D0030051
:103840000C0000215842A14103B03CBC904699466F
:10385000A246AB46F0BDB1429ED9002100200090A7
:10386000019161460029AED100980199E4E7202337
:10387000624651469B1AD9404046009161468840B5
:10388000030000990B4380E7624620239B1A2A001D
:103890009A40260013006246D6401E43B8E76146B0
:1038A00020260127761A00200021F7400090019180
:1038B000019781E76746202362463500BC409B1A8A
:1038C000DD4023002B43ADE7024670B50A43920763
:1038D0002AD11E4DEE0104C808C9541B944334403C
:1038E00017D0D0B2D9B2401A2106014310D190B2FC
:1038F00099B2401A210401430AD110021902000AA8
:10390000090A401A2102014302D1100E190E401A71
:1039100070BD9A42DFD010BA19BA884201D901208D
:1039200070BD0020C04370BD02780B7801300131BA
:10393000002A09D09A4207D102780B780130013170
:10394000002A01D09A42EFD0D01A70BD01010101C6
:10395000F0B50E1C8BB0011C151C0993071CFDF75C
:10396000A5FC311C041C301CFDF7A0FC011C201C14
:10397000FDF72AF9291C041C281CFDF797FC011CE3
:10398000201CFDF721F90DF0B9FED549041CFCF708
:1039900053FF002800D0A0E1211C381CFDF7AEFA2F
:1039A000211C0590301CFDF7A9FA211C071C281CBE
:1039B000FDF7A4FACB4B061C1B680193CA4B019878
:1039C0001B680293C94B02991B680393C84B1B6881
:1039D0000493FDF76BFC0499041C0398FDF766FC47
:1039E000011C201CFDF794FD011CFDF7EDF8039967
:1039F00006900198FDF75AFC0499041C0298FDF703
:103A000055FC011C201CFDF7DFF8011CFDF7DCF85C
:103A10000399041C081CFDF749FC0199051C081CAE
:103A2000FDF744FC011C281CFDF772FD0499051CE0
:103A3000081CFDF73BFC011C281CFDF769FD0299E1
:103A4000051C081CFDF732FC011C281CFDF7BCF806
:103A5000051C011C381CFDF729FC211C0790301C9B
:103A6000FDF724FC011C0798FDF752FD069907900D
:103A7000301CFDF71BFC291C061C0598FDF716FCE5
:103A8000011C301CFDF744FD211C08900598FDF732
:103A90000DFC0699041C381CFDF708FC011C201CB9
:103AA000FDF736FD934906900798FDF7FFFB129945
:103AB000FDF7FCFB904C2168FDF786F88D49061C4C
:103AC00020600898FDF7F2FB1299FDF7EFFB8B4C95
:103AD0002168FDF779F88749051C20600698FDF7F5
:103AE000E5FB1299FDF7E2FB854F3968FDF76CF8AD
:103AF0008449041C38600998FDF7D8FB8249071CEB
:103B00000798FDF7D3FB311CFDF75EF8391CFDF774
:103B10005BF87C49071C1098FDF7C8FB7A49061C26
:103B20000898FDF7C3FB291CFDF74EF8311CFDF783
:103B30004BF8744905901198FDF7B8FB7249051CC4
:103B40000698FDF7B3FB211CFDF73EF8291CFDF795
:103B50003BF8FC21041C89051298FDF7A7FB802285
:103B6000019B1206061C391C9818FDF79FFB05994E
:103B7000051C0498FDF79AFB011C281CFDF7C8FCE6
:103B8000211C051C0298FDF791FB011C281CFDF768
:103B9000BFFC311CFDF78AFB0399FDF715F8534B69
:103BA000391C186006900398FDF780FB211C051C4A
:103BB0000498FDF77BFB011C281CFDF705F805990F
:103BC000051C0298FDF772FB011C281CFDF7A0FCE8
:103BD000311CFDF76BFB0199FCF7F6FF414B059992
:103BE000186007900398FDF761FB211C051C0198E4
:103BF000FDF75CFB011C281CFDF78AFC391C051C29
:103C00000298FDF753FB011C281CFCF7DDFF311C5B
:103C1000FDF74CFB0499FCF7D7FF354B051C1860EA
:103C2000211C0398FDF742FB0599041C0198FDF740
:103C30003DFB011C201CFCF7C7FF391C041C049829
:103C4000FDF734FB011C201CFDF762FC311CFDF765
:103C50002DFB0299FCF7B8FF234B06991860041C52
:103C6000081CFDF723FB0799071C081CFDF71EFB2A
:103C7000011C381CFCF7A8FF291C061C281CFDF79A
:103C800015FB011C301CFCF79FFF211C051C201C90
:103C9000FDF70CFB011C281CFCF796FF0DF02EFD18
:103CA000124B041C011C1868FDF728F90F4B211C4E
:103CB00018600C4B1868FDF721F90A4B211C18609D
:103CC0000B4B1868FDF71AF9094B211C1860064BBD
:103CD0001868FDF713F9044B18600BB0F0BDC0462F
:103CE000BD378635D02D0020D82D00208002002041
:103CF000D42D00200AD7A33CF02A0020F42A00206B
:0C3D0000F82A002035FA8E3C0000A0409C
:103D0C0080210D4B10B51A680C4B09061A600C4B30
:103D1C000C4A1B680C485B1813600C4B0C4A1B6854
:103D2C005B1813600B4B0C4A1B685B180B49136038
:103D3C0004F038FD10BDC046800200208402002033
:103D4C00D02D0020DC2D0020901F0020D42D002031
:103D5C00E02D0020D82D0020E42D0020D889011062
:103D6C00F0B58D4B8BB01D688C4B07901B68089180
:103D7C0001938B4B01991B68281C0293894B099268
:103D8C001B680393884B1B680493884B1F68884BF4
:103D9C001B680593874B1E68FDF782FA0399041C78
:103DAC000298FDF77DFA011C201CFDF7ABFB391CBA
:103DBC00041C0498FDF774FA011C201CFDF7A2FBEF
:103DCC00311C041C0598FDF76BFA011C201CFDF737
:103DDC0099FB03990690281CFDF762FA0299041CC2
:103DEC000198FDF75DFA011C201CFCF7E7FE311C65
:103DFC00041C0498FDF754FA011C201CFCF7DEFE91
:103E0C000599041C381CFDF74BFA011C201CFDF70E
:103E1C0079FB391C0090281CFDF742FA311C041C5C
:103E2C000298FDF73DFA011C201CFDF76BFB049971
:103E3C00041C0198FDF734FA011C201CFCF7BEFE93
:103E4C000599041C0398FDF72BFA011C201CFCF7A8
:103E5C00B5FE311C041C281CFDF722FA391C051C6C
:103E6C000298FDF71DFA011C281CFCF7A7FE04990B
:103E7C00051C0398FDF714FA011C281CFDF742FBE6
:103E8C000599051C0198FDF70BFA011C281CFCF781
:103E9C0095FE211C051C201CFDF702FA0099071C3D
:103EAC00081CFDF7FDF9391CFCF788FE011CFCF71A
:103EBC0085FE011CFE208005FDF724FB0099061CE5
:103ECC000698FDF7EDF9291C0190201CFDF7E8F987
:103EDC00011C0198FCF772FE011CFCF76FFE311CF3
:103EEC000DF002FC3449FDF7DBF9099B211C18602D
:103EFC000698FDF7D5F9291C061C0098FDF7D0F99A
:103F0C00011C301CFDF7FEFA011CFCF757FE2B4977
:103F1C00061CFCF78BFC002838D1FE21301C8905CF
:103F2C00FCF798FC002833D1301C0DF08BFB224998
:103F3C00FDF7B6F9089B291C1860281CFDF7B0F991
:103F4C00391CFCF73BFE011CFCF738FE011CFE2063
:103F5C008005FDF7D7FA291C061C0698FDF7A0F979
:103F6C00211C051C0098FDF79BF9011C281CFCF773
:103F7C0025FE011CFCF722FE311C0DF0B5FB0E4991
:103F8C00FDF78EF9079B18600BB0F0BD0B4ECBE71D
:103F9C00FE26B605C8E7C046840200208002002039
:103FAC00DC2D0020D02D0020E02D0020D42D002071
:103FBC00E42D0020D82D0020E12E6542000080BFAA
:103FCC00F7B50D1C0021041C01921F1CFCF74CFCC6
:103FDC0000285CD1324E64006408291C201CFCF7BC
:103FEC0025FC8023002850D1291C201CFDF78AFABF
:103FFC00291C041C2B48FDF785FA011C201CFCF71E
:10400C0077FF0199FDF74CF9FE218905041CFCF79B
:10401C0021FC002801D0FE24A405211C201CFDF746
:10402C003FF9211CFDF73CF9391CFDF739F9051C4A
:10403C00FE20391C8005FDF765FA211CFDF730F9CF
:10404C00011C281CFCF7BAFD0021041CFCF7EEFB3C
:10405C0000281FD1FE21201C8905FCF7FBFB002842
:10406C001AD1211C301CFDF71BF90F49FDF718F96B
:10407C008621C905FCF7A2FDFDF71EFC2823272885
:10408C0003DDDC2800DDDC20C3B21800FEBDFE26FB
:10409C00B605A0E70024E4E7FE24A405E1E7C0464A
:0C40AC00000080BF000034420000B84259
:1040B80070B50C00FDF722FC1C4BA400E158FDF77D
:1040C80023FA1B4B051C1B49E058FDF7EBF8041CB1
:1040D80068004008211CFCF7ABFB00281ED100211A
:1040E800281CFCF7C3FB002802D180231B06E41818
:1040F800211C281CFDF708FA0F49FCF7FBFE0F49A5
:10410800041CFCF795FB00280AD1FE21201C890518
:10411800FCF7A2FB002805D1201C70BD0024FBE79A
:10412800064CF9E7FE24A405F6E7C0466002002025
:10413800700200200000404000001643000080BFCD
:104148003C4BF7B51B783C4F0D003E68002B05D162
:10415800301CFCF721FCC3B21800FEBD0221FFF79A
:10416800A7FF0321041C2800FFF7A2FF011C201C45
:10417800FDF7CAF93149041CFCF75AFB00284FD156
:10418800FE21201C8905FCF767FB00284BD1002184
:10419800201CFCF76BFB002848D0FE25AD0563000A
:1041A8005B08211C201C0193FDF77CF80199FDF7A1
:1041B80079F82349FDF776F82249041C0198FDF7A0
:1041C80071F8011C201CFCF7FBFC291CFDF76AF8A0
:1041D8001D49FDF767F88621C905FCF7F1FC1B4965
:1041E800041CFCF725FB002822D11949201CFCF7E8
:1041F80033FB002800D0164C311C201CFDF784F935
:104208001449FDF74FF8311CFCF7DAFC3860FDF76C
:1042180055FB282327289FDDDC289CDDDC209AE736
:10422800064C251CBBE7FE24A405FAE7034DB6E7B8
:10423800064CE1E7BE2E002088020020000080BF67
:104248009A99993E3333333F0000B8420000204228
:0842580000005C438FC2F53D3C
:10426000F0B5040089B002930EAB1B780091039364
:104270000FAB1B780192049310AB1B780C220593B3
:1042800011AB1E8812AB1F882F4913AB1D880FF08E
:1042900049F920002673360A667306222B490E3030
:1042A0000FF040F96A46127806AB1A706A46127926
:1042B00020005A706A46127A19009A706A46127B78
:1042C0001430DA706A46127C00261A716A46127D32
:1042D0005A7106220FF026F920000A221A30002116
:1042E0000FF0B2F9330006AA925D01365340062E54
:1042F000F9D1621DD37720009922A31DDA7700211E
:104300006D3A26300FF0A0F92000320010495230EB
:104310000FF008F923002200200058331F70593293
:104320003B0A13700B4912225A300FF0FBF823009E
:1043300020006C331D702D0A5D700E2206496E3010
:104340000FF0F0F809B0F0BD238A01102F8A011098
:0C4350001D8A0110358A0110478A0110F7
:10435C00F0B52E4C85B0051C0F1C20002C49161CEA
:10436C00039304F002FA281CFFF7EEF80125020073
:10437C000B000095200004F043FB2649200004F0BC
:10438C00F4F9381CFFF7E0F8009502000B00200050
:10439C0004F036FB2049200004F0E7F9301CFFF74D
:1043AC00D3F800950B000200200004F029FB1B49F8
:1043BC00200004F0DAF90A220399200004F049FAEB
:1043CC001749200004F0D1F90A220A99200004F0C0
:1043DC0040FA1449200004F0C8F90A220B99200075
:1043EC0004F037FA1049200004F0BFF90A220C99A6
:1043FC00200004F02EFA0D49200004F0B6F90A2230
:10440C000D99200004F029FA05B0F0BD901F002092
:10441C00FA890110FD890110018A0110058A011029
:10442C00098A01100E8A0110138A0110188A0110D2
:10443C0010B5034801F018FB024804F039F810BD20
:08444C000C2E0020D82A0020EC
:10445400F0B5AFB034AC2478069435AC2478079426
:10446400224C2478002C3ED0214C2478002C3AD0C5
:10447400204D2E882C880134A4B22C801E4D2F8808
:104484002C880134A4B22C801C4D2C88A4462C8882
:104494000134A4B22C8064460594079C03960294CC
:1044A400069C00930194130004970A0001000FA8CE
:1044B400FFF7D4FE1248134B021D09930AAB70CACE
:1044C40070C31268104C1A60037D09A90F4A2000BA
:1044D4000B7501F033FA7C220FA9200001F04BFA8E
:1044E400200001F043FA2FB0F0BDC046C72E0020D3
:1044F400580200202A2E00205A0200205C020020CC
:10450400D82A0020C49401100C2E00206022000040
:1045140073B50825022680242300220021002000F0
:1045240001960096FFF794FF013D192004F0CAFAA2
:06453400002DF1D173BD62
:10453C00E121F0B5414C87B04902200002F02AFC81
:10454C00FA20C00004F0BAFA3D49200004F02AF920
:10455C003C49200004F009F93B4800F07DFD00289F
:10456C0009D120003949FA2404F01CF96400200018
:10457C0004F0A4FAFBE73649200004F013F935499E
:10458C00200004F0F2F8344E2000316804F0F1F809
:10459C003249200004F0E9F8314D324B31681A6889
:1045AC002800FA2701F00FF91F267F00280001F0E0
:1045BC00FAF803280AD0013E002E07D0380004F088
:1045CC007DFA2E21200004F0D8F8EFE7280001F046
:1045DC00EAF8254B03282CD10122244920001A701B
:1045EC0004F0C3F82900684601F0D4F869462000AD
:1045FC0004F0E2F81E4B1F48196804F04DF81E49F0
:10460C001E4801F027F91E49200004F0CBF81D4983
:10461C00200004F0C7F804F047FA1B4B186004F0B4
:10462C0033FA1A4B186004F02FFA194B186007B0C4
:10463C00F0BD002217491A70E6E7C046901F002013
:10464C00108C01103B8C01101C1600205B8C01108F
:10465C006F8C0110728C011054020020888C011098
:10466C007416002050020020C72E00208E8C0110E2
:10467C004C020020D82A0020622200000C2E0020C0
:10468C00AC8C0110018D0110B82B0020B42B002034
:08469C00BC2B0020C48C0110AE
:1046A400F0B5884C91B0200000F06EFC00285DD07D
:1046B400200000F070FC002858D00CAB0BAA0AA90B
:1046C400200000F0BFFB0FAB20000EAA0DA900F0E4
:1046D40003FC7D4B0E981B780D9C0F9D002B00D185
:1046E40012E17A4B1B78002B00D13CE10B9B069323
:1046F4000A9B05930C9B0793754B1968FCF706FFFF
:1047040080231B060890E018724B1968FCF7FEFE24
:10471400714B09901968281CFCF7F8FE071C04F07B
:10472400C7F96E4D06002B68C01AFDF733F96C49C2
:10473400FCF7BAFD6B49041CFCF790F8002800D084
:10474400684C802212069446059B2E60634419002F
:10475400099B079A0093069802940197089BFFF718
:10476400F5F8614A61496248FFF7FEFA102004F047
:10477400CFF90700112004F0CBF905900E2004F0C6
:10478400C7F906900F2004F0C3F90790102004F035
:10479400BFF90890112004F0BBF94B4B09901B782A
:1047A400002B5CD004F074F9524C2368C01A13280F
:1047B40055D904F06DF9FC23FE22812120604C4878
:1047C4009B059205C9050068FFF7FEFBFC23FE224A
:1047D4008221060045489B059205C9050068FFF73C
:1047E400F3FBFC23FE22822105003F489B05920532
:1047F400C9050068FFF7E8FB059904003800FFF7D6
:10480400A1FC3D4B07001B780200002B03D1802440
:104814002822250026000223019300232000009370
:1048240029003300FFF714FE04F032F9334C2368F7
:10483400C01A272813D904F02BF9099B206003938D
:10484400089B294A0293079B28490193069B284801
:10485400009312683B0009680068FFF77DFD284D4E
:10486400280002F0ABF9002800D180E1280002F012
:104874002DFA0400280002F0A1F9002800D078E104
:10488400280002F09BF9002802D0280002F01EFA4A
:10489400E4B2582C00D1B0E100DD8FE14C2C00D102
:1048A400BAE100DD6FE1412C00D190E1432C00D14D
:1048B400B9E114493F2C00D059E1280003F076FFF8
:1048C40055E1C0461C160020C02E0020BE2E00203C
:1048D400902B0020942B0020982B0020B82B002034
:1048E400BD378635CDCC4C3DE82D0020CC2D0020A5
:1048F400242E0020B42B0020BF2E0020BC2B00202F
:10490400901F0020B48B0110CD4F3968FCF75AF981
:104914003860CC4F211C061C3868FCF7F7FD386062
:10492400C94F041C3968281CFCF74CF9C74A051CFC
:104934001368386001331360F92B14DDC449301C4B
:10494400FCF7DAFAC34BC2491860201CFCF7D4FA0E
:10495400C14BBF491860281CFCF7CEFABF4BC04AB4
:10496400186001231370BF4B1C78002C46D1BE4B3A
:10497400E058C0B204F0CCF8FCF7C2FFBB4E051CF3
:10498400011CA059FCF71EF9291CA051281CFCF796
:104994008BFCB74F011CE059FCF714F9E0510434C7
:1049A400102CE4D1B34A1368013313604F2B25DD77
:1049B4000024B1493059FCF79FFAAF49051C385916
:1049C400FCF79AFA291C0590281CFCF76DFC011CC5
:1049D4000598FCF79BFDA94BE5500CF08DFEA8490A
:1049E400051CFBF727FF002800D0A54DA54BE5507B
:1049F4000434102CDDD101239A4A1370984B1B7890
:104A0400002B71D0974B1B78002B6DD09E4C2378D4
:104A1400002B69D10125FFF777F925709B4C9C4940
:104A2400200003F0A6FE8B4B03261868FEF790FDCA
:104A3400009602000B00200003F0E6FF954F2000D3
:104A4400390003F096FE844B1868FEF781FD00964A
:104A540002000B00200003F0D7FF3900200003F010
:104A640088FE7E4B1868FEF773FD009602000B006B
:104A7400200003F0CFFF8849200003F07AFE7F4E28
:104A84003068FEF765FD009502000B00200003F07E
:104A9400BBFF8249200003F06CFE7068FEF758FDEE
:104AA400009502000B00200003F0AEFF7C492000BB
:104AB40003F05FFEB068FEF74BFD009502000B00AB
:104AC400200003F0A1FF7749200003F052FEF068B4
:104AD400FEF73EFD009502000B00200003F09AFF54
:104AE4007149200003F062FE03F0D2FF6F4C23688B
:104AF400C01A13280CD90223019300230093803396
:104B0400282219001800FFF7A3FC03F0C1FF20605E
:104B140003F0BEFF664C2368C01A272823D903F08C
:104B2400B7FF644B20601C68634B0E201B68059321
:104B3400624B1B68069303F0EBFF05000F2003F0A4
:104B4400E7FF0600102003F0E3FF0700112003F045
:104B5400DFFF02970390019600952823069A059992
:104B6400201CFFF7F9FB03F0A3FF554B186011B0AD
:104B7400F0BD280002F05EF80A2800D180E6280083
:104B840002F0A4F876E6502C2CD004DC4F2CEED1A5
:104B9400FFF7BAF8EBE7522C00D1A3E0542CE6D18E
:104BA4000123484A1370022200937F3301921900B3
:104BB4001A001800FFF74CFC43497EE66F2CE7D03F
:104BC4000ADC632C2FD06C2C26D0612CCFD101228F
:104BD4003E4B3F491A7070E6722C00D182E008DC2B
:104BE400702CC4D10023394A3A491370354A1370E2
:104BF40063E6742CD4D0782CB9D10022314B1A70CE
:104C040002230193033300937B3319001A00180025
:104C1400FFF71EFC304950E6FFF77AFC0022294BCF
:104C24002E491A7049E602230193DB1800937C3362
:104C340019001A001800FFF70BFC29493DE6C0468D
:104C4400A02B0020A42B0020A82B00209C2B0020AC
:104C540000007A43902B0020942B0020982B0020F6
:104C6400C02E0020BE2E0020588A01106C2B00207C
:104C74007C2B0020682B00200000A0426002002052
:104C84000000A04070020020C82E0020901F0020C9
:104C9400688A0110828A0110858A01109B8A01109A
:104CA400A18A0110A78A0110AD8A0110B42B00203B
:104CB400BC2B0020242E0020CC2D0020E82D002029
:104CC400B82B0020BF2E0020E38A011058020020D8
:104CD4009E8B0110748B01101C8B0110F68A01103D
:104CE400368B011000260024184B10221E70184B1E
:104CF40031001E70174B18481E70184B1E70184B4D
:104D04001E60184B1E60184B1C60184B1C60184B1F
:104D14001C600EF097FC1022310016480EF092FC35
:104D2400FE22154B92051C60144B15491C60154B53
:104D34001C60154B1A608622144BD2051C60144B60
:104D44001C60144B1C60144B1A60B6E5BF2E002087
:104D5400C02E0020BE2E00206C2B0020C82E002068
:104D64009C2B0020682B0020A82B0020A42B0020C3
:104D7400A02B00207C2B0020F82A0020F42A0020FD
:104D84004B8B0110F02A002080020020D82D002037
:0C4D9400D42D0020D02D0020880200202B
:024DA00070475A
:104DA200F7B5456804000F0001921E00002D21D0C6
:104DB2002B6882694169DB6928009847E368002112
:104DC200D8B203F022FF80216068394303689B68F0
:104DD200984760683200036801991B699847E36845
:104DE2000121D8B203F011FF606803681B6A98477B
:104DF200012027E00068217A0368DB6A984720686F
:104E0200390003681B6898472068290003681B6BF8
:104E12009847051E14D12068217A03683200DB6BA3
:104E2200984703002800B3420CD1019DEE18AE4210
:104E3200DED0206803685B69984728700135F6E781
:064E420001204042FEBD0C
:104E480073B50E0015001C006A4606232821FFF7DB
:104E5800A4FF002804D11D4B33602B60236076BD6E
:104E68006B460020185EFEF705FB0022184BFDF785
:104E7800F5FCFC2300229B05FDF7F0FCFEF7B8FBD0
:104E88006B4630600220185EFEF7F4FA0022104BE1
:104E9800FDF7E4FCFC2300229B05FDF7DFFCFEF791
:104EA800A7FB6B4628600420185EFEF7E3FA002291
:104EB800074BFDF7D3FCFC2300229B05FDF7CEFC36
:104EC800FEF796FB20600120C9E7C0460000C07FBE
:044ED8000000104086
:104EDC0073B50E0015001C006A4606232221FFF74D
:104EEC005AFF002804D11D4B33602B60236076BD24
:104EFC006B460020185EFEF7BBFA0022184BFDF73C
:104F0C00ABFCFC2300229B05FDF7A6FCFEF76EFB19
:104F1C006B4630600220185EFEF7AAFA0022104B96
:104F2C00FDF79AFCFC2300229B05FDF795FCFEF790
:104F3C005DFB6B4628600420185EFEF799FA002290
:104F4C00074BFDF789FCFC2300229B05FDF784FC35
:104F5C00FEF74CFB20600120C9E7C0460000C07F73
:044F6C0000409F4022
:104F700013B56B46DC1D22000123FFF712FF012849
:0C4F800001D1207816BD01204042FBE763
:0E4F8C0010B51E21FFF7EEFF0123184010BDE7
:0E4F9A0010B51E21FFF7E7FF8007C00F10BD06
:104FA80070B5040040680E00150000281ED0036884
:104FB800A269DB6961699847E3680021D8B203F008
:104FC80021FE6068310003689B6898476068290083
:104FD80003689B689847E3680121D8B203F012FE82
:104FE800606803681B6A9847012070BD2068217AB1
:104FF8000368DB6A98472068310003681B68984794
:105008002068290003681B689847206803685B6B61
:08501800984743425841E8E7C4
:1050200070B545680400002D0ED02B6828001B6B5E
:105030009847E3680021D8B203F0E8FDE06800215A
:10504000C0B203F0A5FD70BD2A001121FFF7ACFF2F
:105050002A0010212000FFF7A7FF206803685B6A81
:045060009847F0E796
:10506400436810B50400002B1ED0C3680121D8B2D8
:1050740003F08CFDE3680121D8B203F0C5FD60683C
:105084000368DB6A98470F212000FFF76FFF6C2845
:105094000ED00F212000FFF769FF692808D02000F7
:1050A400FFF7BCFF002010BD00680368DB69E9E777
:1050B4004C2211212000FFF775FF4A221021200005
:1050C400FFF770FF002216212000FFF76BFF092273
:0C50D40017212000FFF766FF0120E4E731
:1050E0006A22094810B5094B0272094A03604261FD
:1050F00000230122037642768376064A06494360FE
:1051000009F0D6FB10BDC0461C160020F416002086
:0C51100000093D0048020020A14D0010E5
:04511C0000207047B8
:025120007047D6
:0C51220010B50368C9B21B68984710BDA7
:0E512E008B23002249009B00C161C2507047D4
:0C513C0010B5036801211B6B984710BDE3
:0C51480010B503689C6B0123A04710BD4C
:1051540030B58B248025A400025903006D00002083
:10516400AA4206D0501C185101209B182D33FF333E
:04517400197030BDC1
:0251780070477E
:08517A008C239B00C15070471B
:085182008D239B00C150704712
:10518A000300FC33DA6A002A04D09B6A0130C01893
:0A519A00C07F704701204042FBE790
:1051A40070B5036804005B6A9847402009F0A0FDCD
:1051B40005001A23E25E1823E15E06F003F8656138
:0251C40070BDBC
:0A51C60010B50C220EF0ABF910BD7D
:1051D00070B58B25AD00435906001400D01880220D
:1051E0005200904200D9D41A30002D30FF30C01840
:1051F00022000EF097F9735920001B19735170BDEE
:1052000070B5050040690C00002801D005F002FFD0
:0E5210002869002802D0210006F01EF870BDAB
:10521E0010B50400FC3409F0C6F8E46A09F0D9F8B8
:04522E00200010BD8F
:1052320010B5040009F0BDF82300FC33DA6A002A35
:1052420011D0DA6A002A0ED09A6A0134A4189A6A36
:10525200E47F0132D2B29A62DA6A013ADA6209F082
:0C526200BEF8200010BD01246442F8E7F3
:10526E0070B504004069002804D00368DB689847D5
:10527E00002363612369002B13D08E25AD00605986
:10528E000AF011F860590AF02FF86059002802D080
:10529E0003685B6898470C21206909F054FD0023D0
:0452AE00236170BD4B
:1052B2008B2330B502000C0001259B00C35885B03A
:1052C2004069D1696C40002B07D100942B0003AADE
:1052D20005F0CFFEC0B205B030BD2D32FF320094D2
:0C52E20005F0A7FE431E98414000F4E7D1
:1052EE00F0B514008022C3B005005200944200D9DC
:1052FE00140001225340009302AE490023003200F5
:10530E00686905F0B0FE002817D12B00FF27FC338B
:10531E000135A04212D08021DA6A49008A420AD0B1
:10532E005A6A315CAA18D1775A6A01323A405A62E7
:10533E00DA6A0132DA620130EBE70024200043B072
:02534E00F0BDB0
:10535000F0B50400FF27C1B0206905F08AFF0328DB
:10536000FAD8FBF781F85C0222228D239B00E358D8
:10537000002B00D098478B26B600A359002BEBD00A
:1053800009F018F82100A5592D313D402A00FF31C0
:1053900068460EF0C7F80023A35109F021F82A004F
:1053A0006946206905F06DFFD6E7F022694620695D
:1053B00005F063FF050008F0FDFF23000022FC3329
:1053C0005A62601C9A62DA62AA4215DA8026D96AA9
:1053D0007600B14210D0D96AB1420BD06E46596AFC
:1053E000B65C4118CE77596A013139405962D96AA1
:1053F0000131D9620132E7E708F0F2FF23682000AB
:105400001B6998470028A7DD8C239B00E558002DD9
:10541000A2D0236820001B699847A8479CE703F0A7
:0454200063FB99E7AA
:065424000023C360704785
:0E542A00C36810B5002B01D09B68984710BDD9
:10543800FA2370B500254283802204009B00836014
:105448000C4B4560083305614561036001835200D8
:10545800290020300EF0F4F82300FC335D629D62D1
:10546800DD628B239B00E5500433E5500433E5509F
:08547800200070BDAC8F011093
:0E54800010B504000021FFF7CDFF200010BD85
:0C548E0010B50400FFF7CAFF200010BD9D
:10549A0010B542680368086854100019D20701D58C
:0854AA000268D358984710BDB9
:0C54B20010B501000430FFF7EFFF10BD43
:1054C00010B5024BC3601CC91CC010BD948F0110E5
:1054D00010B586B00400684603910092436004ABA7
:1054E00006C806C3200003A9FFF7EAFF200006B0A4
:0254F00010BDED
:0C54F20013B50400FFF7EBFF200016BD0F
:1055000070B5036888B05B6A04000E0098470C20F1
:1055100009F0F0FB05001A23E25E1823E15E05F0B6
:1055200081FE71002561280005F09AFEBC2009F07B
:10553000E1FB0500134B08C0FFF7A2FF2800002184
:10554000403009F02FFE2800543009F0C7FD8022BA
:105550000D4B2800009312010023182109F0A0FE32
:105560008E239B00094AE5502100002304A8FFF781
:10557000C0FF04A9280009F0FDFE04A8FFF787FF7B
:1055800008B070BDA4A60110A08F011051530010E7
:0855900010B5FFF78EFF10BDFE
:0855980010B5FFF7F9FF10BD8B
:1055A00010B5122003F060FA0400132003F05CFA37
:1055B000210002000148FFF73FFF10BDF416002054
:1055C0000B000F2130B50122172487B069440B70FE
:1055D000C3686C44186803680092DD682300A8471C
:0655E000207807B030BD89
:1055E600F8B5427A036805000C00CFB29B680E0A34
:1055F600002A0FD13900FF2798472B68BC43044384
:105606009B68310028009847030220003840184361
:1056160080B2F8BD31009847FF262B68000234405F
:1056260004439B68390028009847B4432043EFE7BA
:1056360013B5C368186803680092DC680B00A047BE
:0256460013BD92
:025648007047A9
:02564A007047A7
:02564C007047A5
:10564E0030B5436885B004000D0002910392994273
:10565E0005D113000192826853401B0210D002AB99
:10566E001A79E3680821186805F0A6FEE368290098
:10567E00186805F0BDFE201D072202A90DF04BFF94
:04568E0005B030BD76
:10569200C36810B50400002B0BD01868002808D08E
:1056A20003685B6898470421E06809F052FB002315
:0456B200E36010BDE4
:0E56B60010B50400182109F04AFB200010BDB9
:1056C40037B5C5680400002D04D1042009F010FB8F
:1056D400E0600560E3681B68002B11D1302009F0FD
:1056E40007FB1422A35E05001021625E1220215ED6
:1056F400012040420090280005F028FEE3681D6068
:0257040037BDAF
:10570800F7B50C2003F0ACF907000B2003F0A8F95B
:1057180006000D2003F0A4F900240122194B1A4DAC
:105728001F825E82194F1A4E5C6031001C725A72D9
:105738009C723A009882083518001D60DC6009F0F8
:10574800B3F8192003F08CF900901C2003F088F9B5
:1057580001901D2003F084F901220E4B31005A728A
:105768006A46128898821A826A4692885C605A82CF
:105778001C723A009C7218001D60DC6009F094F8F5
:10578800F7BDC046441600200490011048020020CE
:085798004D5600105C160020C4
:1057A00010B5040002F08AFE200000F01DFD20006C
:0257B00010BD2A
:0857B20010B500F0EEFC10BD83
:0C57BA0010B50800110000F0A8FD10BDA3
:0C57C600436810B5002B00D0984710BDC0
:1057D200F8B5050008000E0017000EF028FA0400C4
:1057E20038000EF024FAE1B2C3B23A00300000F001
:1057F2008CFC0424431C14D003F04BF90024060053
:1058020003F047F92B68801B98420AD22800FFF761
:10581200D9FF642003F057F900F0BBFC0400022812
:06582200EED92000F8BDE4
:105828000022024B024906C37047C0467416002086
:0458380050C3000059
:0A583C0010B503689B6B984710BD80
:0458460040697047FE
:10584A0013B56B460268D9710733546819000122EF
:04585A00A04716BD90
:02585E00704791
:10586000F8B5037C04000F00FF2B02D003685B6ACD
:10587000984700F08FFB00250600FF2808D00100A4
:105880000122380000F090F96561267467820135C5
:045890002800F8BD37
:10589400F8B5037C04000F001600FF2B02D0036848
:1058A4005B6A984700F074FB05000020FF2D0DD0C3
:1058B4003B7D834200D1386903232A00310000F084
:0E58C400AFF900230120257466826361F8BDF0
:1058D40010B50400007CFF2807D000F025FA217CD5
:1058E400024800F0DBF8FF23237410BD7C1600206F
:1058F400F0B50E008FB0040002A8019202F0DCFDA6
:1059040002AA31000B48FFF756FF002810D0236885
:1059140003AA9E6A084B08A9089309ABA1CAA1C3AC
:10592400126820001A6002AB1B7D019A0B75B04708
:0C5934000FB0F0BD74160020C4940110E8
:1059400070B5037C04000D001600FF2B02D100F09F
:1059500021FB2074227C0020FF2A08D02B7D83426B
:1059600000D128690123310000F09EF9012070BDAB
:0A59700010B5007C00F0D0FA10BD65
:10597A0010B51400007C92B200F07FFA200010BD2E
:10598C00436937B50400002B0CDD6B46DD1D017C33
:10599C0001232A00054800F0D3F863692878013BFD
:1059AC0063613EBD01204042FBE7C0467C160020EF
:1059BC0013B504006369217C5A1E6261002B06D06A
:1059CC006A4601230732044800F0BAF8F2E70800EF
:0C59DC0000F0DAF9606116BD7C160020B6
:1059E800436910B5002B04DD017C034800F09AF8E8
:0C59F80010BD01204042FBE77C1600209F
:105A040007B500236A4601931380007C01A900F0C6
:105A140037FB6B466A461B7850781B02C01880B26D
:025A24000EBDB5
:105A260013B500236A46040001931380087C01A97C
