:020000041000EA
:1000000000B5324B212058609868022188439860DF
:10001000D860186158612E4B002199600221596106
:100020000121F02299502B49196001219960352056
:1000300000F044F80222904214D00621196600F024
:1000400034F8196E01211966002018661A6600F04E
:100050002CF8196E196E196E052000F02FF8012189
:100060000842F9D1002199601B49196000215960AB
:100070001A491B48016001219960EB211966A021F2
:10008000196600F012F800219960164914480160C1
:100090000121996001BC002800D000471248134993
:1000A000086003C880F30888084703B5996A0420EC
:1000B0000142FBD001200142F8D103BD02B5186610
:1000C0001866FFF7F2FF186E186E02BD00000240BE
:1000D000000000180000070000035F00212200005C
:1000E000F4000018222000A00001001008ED00E03C
:1000F00000000000000000000000000074B24E7A12
:1001000000000420E3010010C3010010E903001007
:10011000C1010010C1010010C1010010C101001097
:10012000C1010010C1010010C10100104503001001
:10013000C1010010C1010010C9030010D503001057
:10014000CD010010CD010010CD010010CD01001037
:10015000CD010010CD010010CD010010CD01001027
:10016000CD010010CD010010CD010010CD01001017
:10017000CD010010CD010010CD010010CD01001007
:10018000CD010010CD010010CD010010CD010010F7
:10019000CD010010CD010010CD010010CD010010E7
:1001A000CD010010CD010010CD010010CD010010D7
:1001B000CD010010CD010010CD010010CD010010C7
:1001C00000BE00BE00BE00BE00BE00BE00F03FF894
:1001D000103800BE00202049086006C881F3088856
:1001E00010471E48006800282DD10CA40ECC002911
:1001F00002D000F010F8F9E719491A4A002000E08F
:1002000001C19142FCD1184988471849884700BE6E
:10021000FDE701C901C29A42FBD37047A4C2021094
:10022000C00000203811002028D302100000042054
:100230000000042028D30210001004200010042025
:100240000000000070470A4819F05EFE0047EFF317
:100250000580C0B27047000008ED00E0000000D04B
:10026000481100204CF30020CD020010B17901109C
:1002700057560000F8B5C046F8BC08BC9E4670470B
:10028000F8B5C04610B5064C2378002B07D1054BB6
:10029000002B02D0044800E000BF0123237010BDF2
:1002A000981600200000000084020010044B10B5D6
:1002B000002B03D00349044800E000BF10BDC04636
:1002C000000000009C16002084020010164B002B3A
:1002D00000D1144B9D46402292029A1A9246002168
:1002E0008B460F461348144A121A1CF06BFC0F4B36
:1002F000002B00D098470E4B002B00D098470020D1
:10030000002104000D000D48002802D00C4817F011
:1003100052FB1BF0BDFF2000290013F01FFD17F05A
:1003200047FBC04600000800000004200000000059
:10033000BD3C0110481100204CF30020B77901109A
:10034000000000007046C0082CD3EFF309808169DB
:1003500002390978002929D101B50FC8B8470CBC6A
:1003600003C29E461E4B06CB91421ED0083B1A602C
:10037000002909D0EFF3098020388863F0C0444693
:100380004D4656465F46F0C0906B1030F0C8A04610
:10039000A946B246BB4680F309882038F0C802203F
:1003A000C0430047EFF30880D1E770470D4A136858
:1003B0009942FAD801B5890053589C460FC8E047C6
:1003C0000CBC10609E46704701B512F03DFF03BCA7
:1003D0008E46C7E701B512F0F5FE03BC8E46C1E7B5
:1003E0004405002064980210102304E0202302E05A
:1003F000302300E040239C46F0B404AE7546E80884
:1004000001D3EFF309860E4F0FCE0FC70FBC0FC7F6
:100410004046494652465B460FC71DCE3100A60AEC
:1004200000D304316E0900D248311FC7EFF30980B1
:100430006946EFF3148663C76046014916F054FE1F
:10044000BCF2002001480421014B1847400700205E
:10045000199F011002B47146490849000956490024
:100460008E4402BC7047C04602B471464908490038
:10047000095C49008E4402BC7047C0460022430814
:100480008B4274D303098B425FD3030A8B4244D35C
:10049000030B8B4228D3030C8B420DD3FF2209029E
:1004A00012BA030C8B4202D31212090265D0030B5D
:1004B0008B4219D300E0090AC30B8B4201D3CB0353
:1004C000C01A5241830B8B4201D38B03C01A524195
:1004D000430B8B4201D34B03C01A5241030B8B4297
:1004E00001D30B03C01A5241C30A8B4201D3CB0282
:1004F000C01A5241830A8B4201D38B02C01A524167
:10050000430A8B4201D34B02C01A5241030A8B4269
:1005100001D30B02C01A5241CDD2C3098B4201D381
:10052000CB01C01A524183098B4201D38B01C01AFF
:10053000524143098B4201D34B01C01A5241030976
:100540008B4201D30B01C01A5241C3088B4201D325
:10055000CB00C01A524183088B4201D38B00C01AD2
:10056000524143088B4201D34B00C01A5241411AF9
:1005700000D20146524110467047FFE701B5002006
:1005800000F0F0F802BDC0460029F7D076E77047CA
:1005900003460B437FD4002243088B4274D30309E4
:1005A0008B425FD3030A8B4244D3030B8B4228D385
:1005B000030C8B420DD3FF22090212BA030C8B42AB
:1005C00002D31212090265D0030B8B4219D300E04B
:1005D000090AC30B8B4201D3CB03C01A5241830BD0
:1005E0008B4201D38B03C01A5241430B8B4201D380
:1005F0004B03C01A5241030B8B4201D30B03C01AA9
:100600005241C30A8B4201D3CB02C01A5241830A22
:100610008B4201D38B02C01A5241430A8B4201D351
:100620004B02C01A5241030A8B4201D30B02C01A7B
:100630005241CDD2C3098B4201D3CB01C01A5241E2
:1006400083098B4201D38B01C01A524143098B426B
:1006500001D34B01C01A524103098B4201D30B0154
:10066000C01A5241C3088B4201D3CB00C01A524179
:1006700083088B4201D38B00C01A524143088B423E
:1006800001D34B00C01A5241411A00D201465241D7
:10069000104670475DE0CA0F00D04942031000D3F6
:1006A0004042534000229C4603098B422DD3030A4B
:1006B0008B4212D3FC22890112BA030A8B420CD35B
:1006C000890192118B4208D3890192118B4204D384
:1006D00089013AD0921100E08909C3098B4201D304
:1006E000CB01C01A524183098B4201D38B01C01A3E
:1006F000524143098B4201D34B01C01A52410309B5
:100700008B4201D30B01C01A5241C3088B4201D363
:10071000CB00C01A524183088B4201D38B00C01A10
:100720005241D9D243088B4201D34B00C01A5241E7
:10073000411A00D20146634652415B10104601D374
:100740004042002B00D54942704763465B1000D3FE
:10075000404201B5002000F005F802BD0029F8D0A4
:1007600016E770477047C046D0400B1CD1409C46EE
:10077000203AD3401843524263469340184370478F
:10078000D0400B1C1141203A03D49C46134118431E
:1007900063465242934018437047C0469140031C41
:1007A00090409C46203A9340194352426346D340BE
:1007B000194370478446101C62468C46191C6346D8
:1007C00000E0C0461FB502F04FF8002801D4002118
:1007D000C8421FBD10B501F0A7FF4042013010BD57
:1007E00010B502F041F8002801DB002010BD012007
:1007F00010BDC04610B502F037F8002801DD00201A
:1008000010BD012010BDC04610B501F0C9FF002881
:1008100001DC002010BD012010BDC04610B501F064
:10082000BFFF002801DA002010BD012010BDC04626
:100830008446081C6146FFE71FB500F051FD002803
:1008400001D40021C8421FBD10B500F0D3FC4042C6
:10085000013010BD10B500F043FD002801DB002081
:1008600010BD012010BDC04610B500F039FD0028B4
:1008700001DD002010BD012010BDC04610B500F004
:10088000E1FC002801DC002010BD012010BDC046A5
:1008900010B500F0D7FC002801DA002010BD0120BF
:1008A00010BDC0461C2101231B04984201D3000C3B
:1008B00010391B0A984201D3000A08391B099842D3
:1008C00001D30009043902A2105C40187047C046E9
:1008D0000403020201010101000000000000000009
:1008E00010B5002903D1FFF7DDFF203002E0081C1E
:1008F000FFF7D8FF10BDC046002B15D1002A13D139
:10090000002906DB01DC002806D00020C043410896
:1009100002E080210906002007B4024801A1401826
:10092000029003BD41FEFFFF03B4684601B5029883
:1009300000F098F9019B9E4602B00CBC7047C0467F
:10094000002B11D1002A0FD1002900D1002802D09C
:100950000021C943081C07B4024802A140180290B4
:1009600003BDC04601FEFFFF03B4684601B502980F
:1009700000F0B6F8019B9E4602B00CBC7047C04622
:10098000F0B5CE46474615042D0C2E0080B5070461
:10099000140C3F0C9946030C7E435D43674363434D
:1009A0007F19340CE4199C46A54203D980235B02CD
:1009B0009846C4444B4643435143250C3604654492
:1009C000360C2404A4195B19591820000CBC90465D
:1009D0009946F0BD9E2110B5C905041CFFF758FFCC
:1009E000002803D1201C00F0D7FF10BD9E21201C41
:1009F000C90500F0F7FD00F0CFFF80231B069C46E1
:100A00006044F2E770B500220C4B04000D00FFF7C4
:100A100005FF002804D12000290002F063FD70BD0D
:100A2000064B00222000290002F0F8F902F05AFDDE
:100A300080231B069C466044F1E7C0460000E0416D
:100A400070B505000C000022002328002100FFF7EC
:100A5000C7FE002804D12800210000F00DF870BD69
:100A600080231B06E118280000F006F802000B00A6
:100A7000002150429941F2E770B500220B4B0D0066
:100A8000040001F059FFFFF7BDFF060002F09AFDD8
:100A90000022074B01F050FF02000B00200029004C
:100AA00002F0BCF9FFF7AEFF310070BD0000F03D71
:100AB0000000F04170B50600080002F049FD002278
:100AC000064B01F039FF0D000400300002F07AFD02
:100AD0002B00220001F00AF870BDC0460000F04172
:100AE000F0B54F464646D646C0B5040082B00D006C
:100AF000914698468B422FD82CD041464846FFF766
:100B0000EFFE290006002000FFF7EAFE331A9C469C
:100B1000203B9A4600D576E04B46524693401F0054
:100B20004B46624693401E00AF4228D825D053461C
:100B3000A41BBD41002B00DA7BE0002200230092C1
:100B4000019301235246934001930123624693404F
:100B5000009318E08242D0D9002200230092019332
:100B60000A9B002B01D01C605D600098019902B0C7
:100B70001CBC90469946A246F0BDA342D7D900229C
:100B80000023009201936346002BE9D0FB079846AF
:100B9000414672080A437B0866460EE0AB4201D12B
:100BA000A2420CD8A41A9D41012024196D410021B4
:100BB000013E24184D41002E06D0AB42EED9013E35
:100BC00024196D41002EF8D100980199534600195F
:100BD0006941002B23DB2B005246D3402A00644698
:100BE000E2401C0053461500002B2DDB2600574623
:100BF000BE40330026006746BE403200801A99414D
:100C000000900191ACE7624620239B1A4A46DA40E5
:100C10006146130042468A4017001F4380E7624640
:100C200020239B1A2A0066469A402300F340134370
:100C3000D4E76246202300219B1A002200910192F2
:100C40000122DA40019280E72023624626009B1AA7
:100C5000DE402F00B0466646B74046463B00334371
:100C6000C8E7C046F0B583B016001F0000900191A0
:100C700002F0B0FD04000D0002000B00300039004E
:100C8000FFF77EFE009A019B121A8B410899200003
:100C90000A604B60290003B0F0BDC046F8B5474676
:100CA000CE4643025B0A4400C20F9C464800DD006A
:100CB0004B02240E5B0A000E80B598462600914632
:100CC000C90FDB00271A8A4229D0002F15DD002822
:100CD0004AD1002B00D095E0ED08FF2C00D188E030
:100CE0006B025B0AE6B25B02F605580A3043D20794
:100CF00010430CBC90469946F8BD002F00D087E009
:100D0000601CC0B2012800DCB6E0EE1A720100D50A
:100D1000C5E0002E3DD1002200260023E3E7002F8E
:100D200000DC96E000285DD0FF2C60D08022D20449
:100D300013431B2F00DDECE02022D21B1800934050
:100D4000F8405A1E93410343ED186B017BD50134E3
:100D5000FF2C00D1B7E0012207262A406B089A4DEC
:100D60001D4015432E4029E0FF2CB5D08022D2042F
:100D700013431B2F00DDB2E02022D21B1900934049
:100D8000F9405A1E93410B43ED1A6B015BD5AD013F
:100D9000AE093000FFF786FD05388640844265DCE9
:100DA000041B330020200134E340041BA640751EC1
:100DB000AE41334307261D0000241E4001224B464E
:100DC0001A40002E04D00F232B40042B00D00435F2
:100DD0006B0100D480E70134E6B2FF2C2FD1FF264F
:100DE000002380E7002B52D1FF2C00D074E70A00CB
:100DF000ED08002DF3D08023DB032B435B025B0A5D
:100E0000FF2670E7013F002FBED0FF2CB1D163E772
:100E1000002C47D0FF2869D08024E4047A4225437F
:100E20001B2A00DDC5E02C002026D440B21A9540D4
:100E30006A1E954125435D1B04008946A5E7AB0169
:100E40005B0A50E7002401224B461A406B07BAD1D7
:100E500042E7002F3BD10134E0B201284ADDFF2CEC
:100E6000BDD00726ED186D082E40A7E70723574D84
:100E7000241A35401E40A1E7002C1BD1002D6ED155
:100E8000002B00D19AE00A001D003C0024E7013F3E
:100E9000002F00D158E7FF2C00D04AE7A7E75E1BE0
:100EA000894676E7002D1CD10A00FF281FD00400D8
:100EB0001D0011E7002D5DD1002B17D180230022EA
:100EC000DB03FF260FE70A00FF2600230BE7002CB9
:100ED00021D1002D66D1FF28E9D11D0087E701232C
:100EE00052E77A1CA7D0FA43FF2899D10A001D00C7
:100EF000FF24F1E6002E21D1002D4FD0002B4CD045
:100F0000ED186B019ED5314B07362E4001241D4054
:100F100054E7012318E7FF28DFD08024E4047F4250
:100F200025431B2F4DDC2026F61B2C00B540FC4032
:100F30006A1E95412543ED18040006E7002DCCD02C
:100F4000002B00D153E780216046C903084203D03B
:100F50004046084200D11D000121114047E7002B07
:100F600000D1B9E6EA1A500125D507265D1B2E40AF
:100F7000894623E7FF24002B00D1ADE6802260469E
:100F8000D203104204D04046104201D11D008946D0
:100F900001224B46FF241A409EE62B00DD080A0082
:100FA00000249DE67A1CC6D0FF43FF28B9D11D005E
:100FB0001DE701253FE7151E00D044E7002200236E
:100FC00091E60125B7E7C046FFFFFF7DFFFFFFFB6E
:100FD000F8B557464E464546DE464402E0B5460063
:100FE0008846640A360EC70F002E63D0FF2E24D029
:100FF0008023E400DB041C43002399469B467F3E8C
:10100000434642465D02D20F5B006D0A1B0E9046BE
:10101000924665D0FF2B55D080220021ED00D204EE
:101020007F3B1543F61A43464A467B400F2A00D9B8
:101030008DE06D48920082589746002C54D10823C9
:101040009946063BFF269B46DAE7002553460229D0
:101050001BD0032900D1BFE0012928D030007F3008
:10106000002820DD6A0704D00F222A40042A00D07D
:1010700004352A0103D530005C4A80301540FE2833
:1010800003DCAC01640AC2B201E0FF220024640266
:10109000D205600ADB07104318433CBC90469946D2
:1010A000A246AB46F8BD0122101A1B287CDD0022A7
:1010B0000024ECE7002C1DD104239946033B0026B5
:1010C0009B469DE7FF3E002D20D1022143464A4624
:1010D0007B400A430F2AD8D8454892008258974649
:1010E000002D19D10121F1E70C239946093BFF2678
:1010F0009B4685E72000FFF7D5FB7626431F9C40E3
:1011000000237642361A99469B4679E74A460323DE
:101110001A439146032186E72800FFF7C3FB431FCC
:1011200036189D40763600217DE780240023E403B5
:10113000FF22ACE700258023DB031C4228D01D42A0
:1011400026D12B435C02640A4346FF229FE76201DB
:101150006C01A24224D21B210025013E0127100070
:101160006D005200002801DB944201D8121B3D4360
:1011700001390029F3D11400621E944125436DE723
:10118000BA46594625005346022900D061E77CE75C
:101190008023DB031C436402640A3B00FF2276E7E2
:1011A000121B1A210125D9E79E362A00B5402C00D2
:1011B000C240651EAC411443620704D00F22224096
:1011C000042A00D00434620103D4A401640A00227A
:1011D0005DE7012200245AE78024E4032C436402E3
:1011E000640AFF2253E7C0469C390210FFFFFFF755
:1011F000DC39021070B542004E024C0045026D0A07
:10120000120EC30F760A240EC90FFF2A0FD0FF2C2F
:1012100011D00120A24200D070BDB542FCD18B425A
:101220000DD0002AF8D12800451EA841F4E701207E
:10123000002DF1D1EBE70120002EEDD1E9E70020F0
:10124000EAE7C04670B54A004E02450244006D0A06
:10125000240EC30F760A120EC90FFF2C15D0FF2AD9
:101260000ED0002C15D1002A01D1002E1CD0002D4B
:1012700014D08B4227D00220013B1840013870BDAA
:10128000002EEED002204042F9E7002DFAD1FF2ACD
:101290000ED0002A0ED1002EEDD00BE00123013933
:1012A000994308000130EAE70020002DE7D0E2E78B
:1012B000002EE7D18B42DED1944205DD0221581E7B
:1012C00008400138DBE70024A24204DCB542D2D852
:1012D0000020B542D3D2581E012398430130CEE7F7
:1012E00030B5420044024D02C30F4800640A120E9A
:1012F0006D0A000EC90FFF2A12D0FF280CD0002A59
:1013000012D1002819D1002D17D1002C2BD002208A
:10131000013B1840013826E0002DF0D0022022E0E9
:10132000002CFBD1FF281FD000281FD1002D1DD17C
:101330000220013B1840013815E0002C0ED08B42F2
:10134000E5D10022904204DCAC42E0D80020AC425F
:1013500009D2581E01239843013004E001230139CA
:1013600099430800013030BD002DD7D18B42CED13A
:101370008242E7DD0221581E08400138F3E7C046EB
:10138000F0B54E4657464546DE46E0B543025B0A99
:10139000450083B00F1C99462D0EC60F002D57D067
:1013A000FF2D24D08020DB00C00418430023814699
:1013B0009A469B467F3D7C027A00FB0F640A120E20
:1013C000984623D0FF2A4BD0E30080240020E40479
:1013D0007F3A1C43AD186B1C474601935346774038
:1013E0003A000F2B48D87D499B00CB589F46002BD5
:1013F00000D085E008339A46063B9B467C027A0083
:10140000FB0FFF25640A120E9846DBD1002C00D09A
:1014100090E0524601231A4392460120DBE74C46F6
:1014200058461700022824D0032800D1CFE000221C
:10143000002301284DD15802D205400AFF0710436E
:10144000384303B03CBC90469946A246AB46F0BD3B
:10145000002B5BD104239A46033B00259B46AAE759
:10146000FF35002C60D1524602231A4392460220D7
:10147000B1E7FF220023DEE74B461B0C9C464B46A0
:101480002604360C180461463300220C6446000C16
:1014900043434E435043544380191A0C121896424A
:1014A00003D9802149028C4664441B041B0C1004A0
:1014B000C01883015E1EB341800E1843130C1B1924
:1014C0009B0103431C00230179D5012362081C40C2
:1014D0001443019A7F32002A4DDD630704D00F23A5
:1014E0002340042B00D00434230103D53C4B019A44
:1014F0001C408032FE2ABCDCA3015B0AD2B29AE710
:101500000C239A46093BFF259B4654E71800FFF73A
:10151000C9F94A46431F76259A4000236D429146F9
:101520002D1A9A469B4646E7524603231A43924693
:10153000032050E72000FFF7B5F9431F2D1A9C4008
:10154000763D002047E780230027DB03FF2272E778
:10155000424666E74C463200584662E780234A46D8
:10156000DB031A4222D01C4220D123435B025B0AD8
:101570004746FF225FE701239A1A1B2A21DC23003A
:101580000199D3409E318C401A0023005C1EA34178
:1015900013435A0704D00F221A40042A00D0043300
:1015A0005A0111D49B015B0A002244E780234A467A
:1015B000DB0313435B025B0A3700FF223BE7019525
:1015C00087E70022002336E70122002333E7802348
:1015D000DB0323435B025B0AFF222CE71C3A021069
:1015E000FFFFFFF7F8B54746CE464400C20F80B56F
:1015F00047024802400A8446664648007F0A240E95
:10160000F60025009046FB00000EC90FB146FF28EA
:1016100000D185E001267140261A914257D0002E54
:1016200043DD002800D07FE04946002900D1AAE030
:10163000013E002E00D0F7E05B1A5A0100D48BE087
:101640009B019C092000FFF72DF905388440854255
:1016500000DDD3E0451B230020200135EB40451B76
:10166000AC40621E94412343072400251C40012204
:1016700041460A40002C04D00F211940042900D013
:101680000433590100D480E00135ECB2FF2D00D0C5
:10169000A3E0FF2400235B02E405580AD20720439D
:1016A00010430CBC90469946F8BD002E74D1601CC6
:1016B000C0B2012800DCA7E04A469C1A620100D5AE
:1016C000B6E0002CBED1002200240023E3E7002E68
:1016D00000DC85E0002846D0FF2C49D08022484617
:1016E000D2041043814601221B2E09DC20204C46E7
:1016F000801B84404A462000F240441EA041024321
:101700009B185A0128D50135FF2D00D1A8E00122F0
:10171000072494491A405B080B4013431C40A6E77A
:10172000002E00D078E775E7FF2C54D08022494680
:10173000D2041143894601221B2E09DC2021484690
:10174000891B88404A460100F240481E81410A43F5
:101750009B1A5A0100D573E7012241460A405907F6
:1017600000D089E711E04846002858D1FF2C0CD161
:10177000DB08002B00D18CE78020C00303435B0211
:101780005B0AFF2487E7FF2C25D0DB08FF2DF0D074
:101790005B025B0AECB27EE7002C4DD0FF2818D02C
:1017A0008024E404724223431B2A00DDC4E01C00B1
:1017B0002025D440AA1A93405A1E934123434A46F7
:1017C0000500D31A884638E7721CF8D0F243FF2888
:1017D000EAD10A004B46FF25D7E79B015B0A5AE78F
:1017E000002E41D1651CE9B2012945DDFF2D00D154
:1017F0004FE707244B445B081C4038E707225A4B4D
:101800002D1A2340144032E7002C1DD1002B7AD131
:101810004B46002B00D191E00A000025B5E7013EC0
:10182000002E19D14B446CE7FF2C84D1FF25ACE787
:101830004A468846D41A05E7002BC5D10A00FF287E
:10184000C8D005004B46A0E7002B49D14B46002BE2
:1018500077D00A00FF2598E7FF2C00D043E787E701
:101860000A00FF24002316E7002C15D1002B57D1C6
:10187000FF28E6D14B467BE7002C20D1002B57D028
:101880004946002953D04B445A0168D50724364AAB
:101890001C4001251340EAE6FF28EBD08022D20449
:1018A000764213431B2E53DC2025AD1B1A00AB40A0
:1018B000F2405C1EA34113434B44050021E7002B7B
:1018C000D8D04946002900D152E78021C9030F42F0
:1018D00000D14DE76046084200D049E74B4647E754
:1018E0004846FF25002800D14FE78022D203174247
:1018F00004D06046104201D14B4688460122414641
:10190000FF250A4041E7484600281FD01A1A500117
:1019100020D54A460724D31A1C4088460025A6E64F
:10192000741CC9D0F643FF28BCD14B4620E799462A
:101930004B460025DB082BE7012340E7002200236C
:10194000A9E680230022DB03FF24A4E600251CE790
:101950000123B1E7002AF1D013000025FCE60025A1
:10196000FAE6C046FFFFFF7DFFFFFFFB42024B028E
:1019700040004900520A5B0A090E000EFF2806D0FB
:101980000020FF2902D11800431E98417047FE38FD
:10199000002AFBD1F4E7C04641024200C30F490AC6
:1019A000120E00207E2A0DD99D2A0CD8802000041A
:1019B0000143952A0ADC9620821AD1404842002B26
:1019C00000D108007047034A9818FBE7963A914007
:1019D000F4E7C046FFFFFF7F70B500283DD0C31776
:1019E000C5185D40C40F2800FEF75CFF9E22121A46
:1019F000962A07DCD2B2082833DD08388540680211
:101A0000400A23E0992A0BDD052329001B1AD9403F
:101A100003001B339D402B005D1EAB4119430D009D
:101A2000052801DD431F9D402B000F490B406E0729
:101A300009D00F263540042D05D004335D0102D5B1
:101A40009F220B40121A9B01580AD2B24002D205C3
:101A5000400AE4071043204370BD00240022002008
:101A6000F4E76802400AF1E7FFFFFFFB70B5041ED0
:101A700034D0FEF717FF9E22121A962A07DCD2B244
:101A800008282EDD083884406002400A21E0992AA7
:101A900009DD030021001B3399404B1E99410523AA
:101AA0001B1ADC400C43052801DD431F9C4023002A
:101AB0000D490B40650709D00F252C40042C05D09B
:101AC00004335C0102D59F220B40121A9B01580A75
:101AD000D2B24002D205400A104370BD002200205D
:101AE000F7E76002400AF4E7FFFFFFFBF0B54F465F
:101AF0004646D6460C000903C0B5490A470F5E00AA
:101B000039431F03DB0F9C4665007B0A570F1F43B9
:101B10006D0DE40F760DA146C000B846D200AB1B98
:101B200064457BD0002B5FDD002E00D0A4E03E009A
:101B3000164300D112E15E1E002E00D09EE1871AEE
:101B40004346B84280410125C91A4042091A0B0296
:101B500000D431E149024E0A002E00D16EE130007E
:101B6000FEF7A0FE0300083B1F2B00DD61E12022F1
:101B70003900D21A9E40D1409F400E439D4200DD65
:101B800051E15D1B6B1C1F2B00DD7CE12021C91A7C
:101B90003D0030008F408840DD40791E8F4131008C
:101BA00007222843D940002507433A40002A09D09C
:101BB0000F233B40042B05D03B1DBB42BF417F425E
:101BC000C9191F000B0200D426E26A1CC64B55053A
:101BD0006D0D9A4200D106E1C44AFF080A4053073E
:101BE00052023B43120B8EE0002B00D0B8E06B1C7E
:101BF0005B055B0D012B00DC30E1871A4346B842E0
:101C0000B641CB1A76429E1B330200D54CE13B0015
:101C10003343A1D100220024002570E0002B00DC1A
:101C2000E5E0002E00D183E0AF4EB54260D08026C3
:101C300036043743B846382B00DC3EE143461343B5
:101C40001F007A1E97413F18874280414042091881
:101C50000B0200D4B0E0A44B01359D4200D1C3E09B
:101C6000A24A7B080A4001210F401F435108D307B5
:101C700007221F433A4099E79B4EB54238D0802651
:101C800036043743B846382B00DDDCE01F2B00DC80
:101C900030E11E004746203EF740BC46202B04D0D2
:101CA0004026F31A46469E403243170063467A1E8A
:101CB00097411F43CCE0002B00D104E2434613437D
:101CC00000D159E14B07C00818438023C9081B0302
:101CD000194208D04546ED081D4204D14346D008BC
:101CE000590708432900420FC9007F4D1143C00026
:101CF0004B07CA087C49C00803438D4268D01203D1
:101D00006D05120B6D0D002112031800130B0A0D47
:101D100012051A43764B2D0513402B435B00E40755
:101D20005B08234319001CBC90469946A246F0BDAF
:101D30003E00164312D05E1E002E00D000E1871830
:101D40008742804141444042091801250B0233D5A6
:101D5000022585E764463300414610001D00C7E7B1
:101D6000002D00D0DAE00C000443F3D05C1C00D15D
:101D70009FE15D4CA64200D12FE1DB43382B00DD13
:101D800066E11F2B00DD83E120240500E41A0F002B
:101D9000DD40D940A0404346A7405B1A441EA04105
:101DA00098462F433843171ABA429241434652424B
:101DB000991A64463500CAE607223A40002A00D044
:101DC000F6E64B07CA084849FF083B438D4296D1C7
:101DD0001900114300D19EE1802109030A43120337
:101DE000120B414D8FE71500002200238BE7002BDB
:101DF00000D0C7E06B1C5F057F0D012F00DCF1E018
:101E0000394DAB4200D1B9E085180A0085428941BD
:101E10004244494251180722CF076D082F43490811
:101E20003A401D00C2E607223049ED1A31403A40DF
:101E3000BCE63E002838864000279FE63800FEF7C3
:101E400031FD20308EE6434613431F007A1E974132
:101E5000C71BB84280414042091A78E60E003B0099
:101E600006431343002D61D1002E00D0F4E0002B77
:101E700000D11BE164463900100039E71A4FBB421C
:101E80007AD03300FFE630001F3DE840202B03D01E
:101E90004021CB1A9E4037437B1E9F4107220743B8
:101EA0003A400021002589E7171A4346BA42B64155
:101EB000591A76428E1B64464EE61F2B00DDADE0BC
:101EC00020264746F61AB740B9461700B246DF400B
:101ED0004E463E4337005646B240561EB241174367
:101EE0004246DA408918AEE6FF070000FFFF7FFF99
:101EF000FFFF0F8020264746F61AB740B946170065
:101F0000B246DF404E463E4337005646B240561E6C
:101F1000B24117434246DA40891A99E77F4CA642FC
:101F20005BD0802424045B42214327E7002E0CD1A0
:101F3000002B00D1CBE0644639001000774DD7E686
:101F4000764FBB4218D0330075E6002B14D04B07F8
:101F5000C00818438023C9081B03194207D0FC0896
:101F60001C4204D17907D0080843E14621004C46C1
:101F7000420FC9001143C000684DB9E61D000022A0
:101F80000023C0E6002D5BD10D00054300D1E2E641
:101F90005D1C00D1B0E0614DAE421FD0DB43382B59
:101FA00071DC1F2B00DD96E020250F00ED1AAF40FD
:101FB000B9460700AA46DF404D463D432F0055462F
:101FC000A840D940451EA84188440743BF189742FE
:101FD00092415142414435003AE66446350041465B
:101FE000100085E60B000343002D00D063E6002BB4
:101FF000F5D04346134300D17AE6871887428041E3
:1020000007224144404209183A400B0200D4D5E669
:10201000434B01351940C9E5380069E61E004746C3
:10202000203EF740BC46202B04D04026F31A4646FB
:102030009E403243170063467A1E97411F4302E6D3
:10204000364DAE42CAD080252D045B422943A6E717
:102050000843411E8841A6E6002B00D148E6871AB6
:102060004346B842B641CB1A76429E1B33024BD54B
:10207000171A4346BA429241591A5242891A072204
:1020800064463A4092E501430F00791E8F419DE777
:102090001C000F00203CE740202B03D04024E31A13
:1020A00099400843411E884138437CE600220024C1
:1020B00025E6171A4346BA429241591A5242891AE2
:1020C0006446350043E541461000144D10E6802279
:1020D0000024120380E61D000F00203DEF40BC46A7
:1020E000202B03D04025EB1A994008430700634694
:1020F000781E87411F4369E7871897429B414144F7
:102100005B42C9183500A3E53B003343CED007221C
:1021100031003A4052E600231A00F4E5FF070000C0
:10212000FFFF7FFFF0B55746DE464E464546E0B519
:10213000834607000E03480085B092461C00360B0C
:10214000400DCD0F002800D19DE0954B984239D02D
:102150008023F6001B041E43924A7B0F33439946AB
:10216000944603006344009300230026FF0002937B
:1021700023031B0B98466300E40F52465B0D01944A
:1021800000D1B3E086498B4200D19EE04246D100A7
:10219000802212040A435146490F11438B4681495C
:1021A00052468C4600996344CB1A0021D20000931A
:1021B0002B0063409A460F2E00D905E17A4BB600FA
:1021C0009B599F465B463343994600D0B8E00223B3
:1021D0000826002700900293CAE7CB463A000299EE
:1021E0000195019B9A46022927D0032900D180E25C
:1021F000012944D06D49009B8C4663441C00002C8F
:1022000038DD530700D013E2D2085B46DB0109D565
:102210005946674B19408B468021C9008C46009B6C
:1022200063441C00634B9C4207DC5B4664055F070C
:102230005B0217431B0B620D02E000230027584A84
:1022400000211B031C0B0B0D1B05234314055A4ACD
:10225000380013401C4353466400DB0764081C43EA
:10226000210005B03CBC90469946A246AB46F0BD65
:102270000122524201231B1B382B00DCADE100225E
:1022800000230027DCE75B46334399465ED0002EEF
:1022900000D18AE13000FEF705FB03000B3B1C2B4D
:1022A00000DD7BE11D22D31A5A460100DA400839CD
:1022B0008E4013005F46334399468F403F4B0026C4
:1022C0001B1A00930023029352E7414653460B43E7
:1022D0003B499B468C46009B634400935B46002B26
:1022E0003BD1022300221E43022161E743461343F0
:1022F0009B4637D04346002B00D162E14046FEF7B3
:10230000D1FA03000B3B1C2B00DD53E102004146D8
:10231000083A914088461D21CB1A5146D9400B00FE
:1023200041460B439B46534693401A00009B254968
:102330009C46604403008C4663440093002137E7C9
:102340000323B14600900C26029311E7002300936B
:1023500001330426002702930AE70323C3461E43E2
:10236000032125E701331E430022012120E700233A
:102370009A46802300271B03094A61E780234946C8
:102380001B03194200D1E2E05946194200D0DEE0B9
:102390000B431B0317001B0BA246014A50E7C04624
:1023A000FF07000001FCFFFF5C3A0210FF03000082
:1023B000FFFFFFFEFE070000FFFF0F800DFCFFFF89
:1023C00001F8FFFFF3030000D94500D9CBE000D1AD
:1023D000C6E03C0048460027009B013B00935B465B
:1023E000160E1B021E431302984633041B0C99461B
:1023F000310C0191FEF7C8F84A4642430B04210C08
:10240000050019438A4207D98919013D8E4203D834
:102410008A4201D9851E8919881A0199FEF7B4F8F4
:1024200009048C464A46210464464243090C0300D1
:1024300021438A4204D98919013B8E4200D8F1E038
:102440002D041D43AB464346891A4246280C12040C
:102450001D0C5B46140C22001B041B0C5A430394F6
:102460006B434443029568431B19150CEB189C42BF
:1024700003D980246402A44660441C0C15041B0488
:102480002D0C20185D19814277D373D00C1AA24A03
:102490007D1BAF42BF419446009B7F426344E01BDB
:1024A0001C00864200D1DBE00199FEF76DF84A4638
:1024B00042430B04290C070019438A4207D98919A2
:1024C000013F8E4203D88A4201D9871E8919881A92
:1024D0000199FEF759F809044A46894629044D46F0
:1024E0004243090C030029438A4207D98919013B59
:1024F0008E4203D88A4201D9831E89193F04891A62
:102500003A00039F1A43380013041B0C58438146BA
:102510000298150C6F43434345434846000C8446DC
:10252000DB1963449F4203D98020400284466544FE
:1025300048461F0C00041B04000C7D191818A94202
:1025400000D284E000D17FE001231A4357E68023C4
:102550004A461B0313431B031B0BAA466F4A6FE635
:10256000BA4200D935E74B46DC0758087B081C43C4
:10257000FF0734E70024AF4289D247444745A441CE
:102580005B466442A4196418013BA6421ED2A042D5
:102590006DD800D1B6E0241A9B4678E703005A466E
:1025A000283B9A400027914688E65846FEF77AF97C
:1025B000203072E603005246283B9A4093460022A0
:1025C000B4E65046FEF76EF920309AE6A642E2D114
:1025D000B845DCD9341A9B4659E71F2B65DC504CB3
:1025E0000099A4465C46614408008C40110082407A
:1025F000D940501E82410C4314435A46DA4013001E
:10260000620709D00F222240042A05D02200141D9F
:102610009442894149425B181A0262D50122002383
:1026200000270DE68A4200D80AE7831E891907E7CA
:102630000F231340042B00D1E6E5171D974292416A
:1026400053429B44FA08E0E5002800D1D7E5711811
:10265000531EB14227D3A94215D358D01A0073E7AD
:10266000002B00DC04E6012300229B44CDE502237D
:102670004744474589415B429C46494289190C19A8
:10268000E344241A03E743465F0047459B41B846AD
:102690005B429E19023A8919A94200D054E740458D
:1026A00000D051E7ABE51A00F6E71F215F4649422B
:1026B0000C1BE740202B07D01A49009B8C46634433
:1026C00018005B4683401A43501E82413A43072755
:1026D0000023174009D00F210023114014000429C2
:1026E00095D122005F075B021B0BD2081743002223
:1026F000A6E5802359461B030B431B0317001B0B46
:10270000064A9DE5BD42B2D89B460024BFE68045FF
:10271000B9D31A00C3E7C046FF030000FF0700005B
:102720001E0400003E040000F0B54F464646D64663
:102730008446C0B58046194E18030F034D00000BA8
:102740005C0082463F0B6D0DC90F9146640DDB0F97
:102750000120B5420AD0B44203D0A54201D1574569
:102760000CD01CBC90469946A246F0BD66463E433E
:10277000F7D1AC42F5D154461443F2D10120C845FB
:10278000EFD1994207D0002DEBD163461F433800AB
:10279000471EB841E5E70020E3E7C046FF07000019
:1027A000F0B54F464646D6464D00C0B50E03C90F9C
:1027B0008A462C491F035C008046360B6D0D9146FE
:1027C0003F0B640DDB0F8D421ED08C4216D0002DC6
:1027D0001ED130438446002C01D13A4323D06246B7
:1027E000002A1AD09A4529D05146022001390840C2
:1027F00001381CBC90469946A246F0BD39001143F1
:10280000E5D002204042F4E73043FAD1AC420FD089
:10281000002C0FD13A43E7D00CE00122013B934357
:1028200018000130E5E763460020002BE1D0DBE72C
:102830003A43E6D19A45D7D1A542D5DCA54205DB7E
:10284000BE42D1D808D00020BE42D2D25046012389
:10285000013898430130CCE7C845C5D80020C845A9
:10286000F4D3C6E7FF070000F0B54F464646D6460C
:102870004D00C0B50E03C90F8A462E491F035C00E8
:102880008046360B6D0D91463F0B640DDB0F8D427C
:1028900018D08C4211D0002D18D130438446002C22
:1028A0001ED13A431CD163460020002B30D0514644
:1028B00002200139084001382AE039001143EAD0EA
:1028C000022025E03043FBD1AC4226D0002C26D19B
:1028D0003A4324D15146022001390840013817E01B
:1028E0006246002A0FD09A45E1D1A54205DBBE42DF
:1028F000DDD819D00020BE420AD25046012301384B
:102900009843013004E00122013B93431800013059
:102910001CBC90469946A246F0BD3A43D0D19A4598
:10292000C5D1A542C3DCE0E7C845C0D80020C845F2
:10293000E3D3EDE7FF070000F0B55746DE464E460D
:102940004546E0B5834606000F03480087B092462F
:102950001D003F0B400DCC0F002800D16FE0DE4B77
:10296000984238D08023FF001B041F43730F3B4362
:102970000193DA4B0027994600239B46F6008144D9
:102980002B0369001B0B52469846490DED0F002999
:1029900000D185E0D04B994200D173E04346DA0084
:1029A00080231B0413435246CC48520F84461343E2
:1029B000524600206144D2008944210069400091C0
:1029C0008C46012149448A460F2F00D990E0C44922
:1029D000BF00CF59BF465B463B43019300D06AE13D
:1029E00002230827002681469B46C9E73200584645
:1029F000019B61460091022800D175E0032800D1B7
:102A0000FEE1012800D02CE100230027002600254C
:102A10003F032A0D3F0BB34812053A4302401B0502
:102A20001343009A5B00D1075B080B433000190089
:102A300007B03CBC90469946A246AB46F0BD5B460B
:102A40003B43019300D12FE1002F00D1A5E13800D5
:102A5000FDF728FF03000B3B1C2B00DD96E11D2238
:102A6000D31A5A460100DA405E4608398F401300F7
:102A70008E403B4301939C4B00271B1A9946002331
:102A80009B467DE7414653460B4393498C46E144C0
:102A9000002B00D01AE102220220174300228CE70B
:102AA000134300D10DE14346002B00D181E14046A4
:102AB000FDF7F8FE02000B3A1C2A00DD72E101006E
:102AC000434608398B4098461D239A1A5346D340F3
:102AD0001A004346134352468A404946081A82491F
:102AE00089468144002068E77B4B002700268EE75B
:102AF000140C1204120C1100370C3604350C7943F7
:102B000028008C462E0060436044834656432100D3
:102B1000300C80465846794340440291844506D99A
:102B20008846802149028C46E044414602913604A1
:102B3000010C360C00048B4681191E0C1B041B0C67
:102B40000391190079438C46280075436544A846D3
:102B50005843050C45447743A94203D980214902D3
:102B60008C466744290C8C4639000004000C2D0467
:102B70002D186144AB4405915946049101990F0405
:102B80003F0C080C390051434243904602008C46EA
:102B9000090C8B4662437C4344445C44A04503D902
:102BA0008021490288464244210C88466146090436
:102BB000090C8C4639005943434370437E430F0C44
:102BC000F6182404BE19644442448C46B34203D927
:102BD00080235B0298464044029B61469846049BD2
:102BE000370443449B46AB45AD416B420D04059908
:102BF0002D0C8C467F196744FD18A8465D462D199B
:102C0000A542A44193466442A446C344DC448F4297
:102C1000BF4198459B4193459241A445A4415B42E5
:102C20007F421F43360C52426442BF192243BF18F1
:102C3000624638184302D20D039913436A020A43CD
:102C4000501E82416146ED0D2A434E023243D901A6
:102C500000D4B3E00126500832400243DE0732437D
:102C60005B08224C5444002C62DD510709D00F2030
:102C70001040042805D0101D9042924152429B18EA
:102C80000200D90104D580241948E40003405444CB
:102C90001848844200DD27E75E075B02D2081F0B5D
:102CA000630516435B0DB2E6002399460133042702
:102CB00000269B4664E60323019781460C279B462A
:102CC0005EE6012201201743002276E6032303205B
:102CD0001F43434671E6C046FF07000001FCFFFFAB
:102CE0009C3A0210FFFF0F800DFCFFFFFF03000066
:102CF000FFFFFFFEFE0700000023802700933F0335
:102D00000026434B83E6019B3200A446584670E6FA
:102D1000AC466EE6802701993F0339422DD03B42F5
:102D20002BD11F433F033F0B00951600384B6EE637
:102D300001252D1B382D00DD66E61F2D40DC3548B2
:102D40001C005044160082408440EE40501E8241D8
:102D500034431443EB40620709D00F222240042A77
:102D600005D02200141D9442804140421B181A02D3
:102D70003ED501230027002649E68027019B3F031B
:102D80001F433F033F0B0094214B40E603005A468C
:102D9000283B9A40002601926DE65846FDF782FDD9
:102DA000203057E603005246283B9A401300002289
:102DB00093E65046FDF776FD20307BE6CA4650E7A5
:102DC0001F201E004042041BE640202D03D0124C61
:102DD0005444A3401A43501E824132430726002721
:102DE000164009D00F200023104014000428B9D148
:102DF00022005E075B021F0BD2081643002306E683
:102E000080273F031F433F033F0B1600004BFEE5A7
:102E1000FF0700001E0400003E040000F8B55746FE
:102E20004E464546DE460C000903E0B5490A460F0A
:102E30005F0031431E03DB0F760A9B46530F33437B
:102E4000C84E6500C000E40FD2006D0DA246814659
:102E50007F0D9C469046B74200D1B9E05B46012603
:102E600073409B46EE1BA34500D183E0002E63DD3B
:102E7000002F00D0B1E06346134300D123E1731E5D
:102E8000002B00D0BAE1861A6346B042804101258A
:102E9000C91A4042091A0B0200D447E149024B0A01
:102EA00098464346002B00D189E14046FDF7FAFCE5
:102EB0000300083B1F2B00DD7CE120223000D21AEA
:102EC0004146D040994002009E400A439D4200DDA9
:102ED0006AE15D1B6B1C1F2B00DD94E120211000BB
:102EE0003500C91A8E40DA408840DD40711E8E419F
:102EF000110007222843002506433240002A09D04A
:102F00000F233340042B05D0331DB342B641764224
:102F100089191E000B0200D43DE26A1C914B550535
:102F20006D0D9A4200D119E18F4AF6080A40570701
:102F300052023743120B9BE0002E00D0C5E06E1CFE
:102F40007605760D012E00DC48E16746861ACB1B1C
:102F5000B042BF417F42B8461F004346FF1A3B00C4
:102F6000B8461B0200D55FE137439AD10022002406
:102F7000002579E0002E00DCFAE0002F00D18DE082
:102F8000784B9D4267D0802367461B041F43BC4695
:102F9000382E00DC52E1634613435A1E93411E183B
:102FA00086428041404209180B0200D4BEE06D4BBE
:102FB00001359D4200D1D2E06B4A73080A400121DD
:102FC0000E401E435108D30707221E43324095E7A7
:102FD0001E00164300D045E740E7624B9D423AD0C1
:102FE000802367461B041F43BC46382E00DDEBE000
:102FF0001F2E00DC3AE133006746203BDF403B00F8
:10300000202E05D04027BF1B6646BE403243904667
:103010004646721E96413343DAE0002B00D114E29B
:103020006346134300D168E180234E07C008C908F6
:103030001B030643194208D06046C008184204D159
:1030400063460100D2085E071643F3009946C900A3
:10305000720F444D11434B46DE08424B4F07374336
:10306000CA089D4200D16EE012036D05120B6D0D72
:1030700000211203130B0A0D12051A433B4B2D05B9
:1030800013402B435B00E4075B082343380019001F
:103090003CBC90469946A246AB46F8BD63461343F6
:1030A00011D0731E002B00D007E1861886428041A4
:1030B00061444042091801250B0237D502257BE700
:1030C0003E00614691463500C5E75C46002D00D0C4
:1030D000E1E00B000343F3D0731C00D1ACE1214BC2
:1030E0009F4200D13AE1F343382B00DD6FE11F2B03
:1030F00000DD8CE120250E00ED1AAE40B046060042
:10310000AA46DE40454635432E005546D940A840E4
:103110006346451EA8415B1A9C463043161AB242CC
:10312000924163465242991A3D00B4E6072232406A
:10313000002A00D0E4E60B4BF6084F073743CA08D5
:103140009D4200D090E73B00134300D1A6E18023CD
:103150001B031A431203120B024D89E715000022CC
:10316000002785E7FF070000FFFF7FFFFFFF0F80BD
:10317000002E00D0C7E06B1C5E05760D012E00DC32
:10318000F0E0C84DAB4200D1B9E085180A00854295
:1031900089416244494251180722CE076D082E43E7
:1031A000490832401D00A9E6BF49ED1A1140072227
:1031B0003240A3E6320028388240002686E63000FE
:1031C000FDF770FB203073E6634613435A1E9341AC
:1031D000C61AB04280414042091A5CE60E006746BA
:1031E00006431743002D5ED1002E00D0F3E0002FE0
:1031F00000D11EE15C46614691462CE7A94FBE42D4
:103200007BD01E00F1E610001F3DE840202B03D0CC
:103210004021CB1A9A401643731E9E410722064353
:1032200032400021002583E7161A6346B2428041EE
:10323000591A40420B1A98465C4632E61F2E00DDB2
:10324000ABE02027BB1B9A4663465746BB409946D6
:1032500013004F46F3401F433B005746BA40571EEA
:10326000BA4113436246F240891898E62027BB1BF7
:103270009A4663465746BB40994613004F46F34073
:103280001F433B005746BA40571EBA41134362469C
:10329000F240891A9CE7834B9F425FD080252D0422
:1032A0007342294320E7002E0CD1002F00D1D0E03B
:1032B0005C46614691467B4DCDE67A4FBE421CD0BE
:1032C0001E0065E6002F18D0C0084E070643802078
:1032D000C9080003014208D06346DC08044204D157
:1032E0002100DA46D2085E071643F300994601240E
:1032F0005346C900720F11431C406A4DABE61D00D6
:1033000000220027B4E6002D59D10B00034300D161
:10331000D6E6731C00D1B2E0624B9F421ED0F3434D
:10332000382B6FDC1F2B00DD97E020250E00ED1AF7
:10333000AE40B0460600AA46DE40454635432E0064
:103340005546A840D940451EA8418C440643B618AE
:1033500096429241514261443D0025E63D0061465E
:10336000914678E60B000343002D00D055E6002B74
:10337000F5D06346134300D16DE68618864280413E
:1033800061444042091800220B0200D4D0E6464BAB
:1033900001351940B2E5B1465DE633006746203B92
:1033A000DF403B00202E05D04027BF1B6646BE40B5
:1033B000324390464646721E96413343EFE5394B01
:1033C0009F42CBD080252D0473422943A8E70843B0
:1033D000411E8841A2E6002F00D13CE66346861AD2
:1033E000CF1AB0429B415B42FB1A98461B024ED556
:1033F000161A6346B2429241591A5242891A5C46E1
:1034000000227BE501430E00711E8E419FE71D00E7
:103410000E00203DEE40B046202B04D04025EB1A94
:1034200099400843814648464346411E8841184317
:1034300074E60022002417E6161A6346B24292414F
:10344000591A5242891A3D0025E561469146154DAB
:1034500001E680220024120379E61D000E00203DC3
:10346000EE40B046202B04D04025EB1A994008438B
:1034700081464E464346711E8E411E4367E78618BD
:1034800096429B4161445B42C9183D008CE547462A
:103490003743CED007224146324049E600273A0062
:1034A000E6E5C046FF070000FFFF7FFF70B50C4E4A
:1034B0000D031C0349005B002D0B490D240B5B0D14
:1034C000B14208D0064900208B4203D114432000AA
:1034D000441EA04170BD05430120002DFAD1F1E743
:1034E000FF07000030B5144D0A034B00120B5B0DB3
:1034F000C90F0024AB4211DD104CA34210DC802424
:10350000640322430E4CE41A1F2C0CDD0D48C31A31
:10351000DA4013005C42002900D11C00200030BDBD
:10352000094BCC18FAE7094DE040AC4663449A4099
:1035300013000343EEE7C046FE0300001D04000035
:103540003304000013040000FFFFFF7FEDFBFFFFCB
:1035500070B500282DD0C317C5185D40C40F2800D2
:10356000FDF7A0F9154B1B1A5B055B0D0A2815DD4D
:103570000B38854000222D032D0B002110002D0358
:103580000A0D2D0B12052A430D4D1B052A4013432E
:103590005B00E4075B082343190070BD02002900AB
:1035A000153291400A000B21081AC5402D032D0B3E
:1035B000E3E70024002300250022DEE71E040000CC
:1035C000FFFF0F8010B5041E25D0FDF76BF9144BDB
:1035D0001B1A5B055B0D0A2812DD0B3884400022A4
:1035E0002403240B0021100024030A0D240B1205D0
:1035F00022430C4C1B05224013435B00590810BDAD
:1036000002002100153291400A000B21081AC44023
:103610002403240BE6E7002300240022E2E7C0464F
:103620001E040000FFFF0F804100090E4B1C70B507
:10363000DBB24602750AC40F012B14DDE0239B00A8
:103640006D07360BCB1800210A0D280012051C4D02
:1036500032435B052A405B0813435B00E4075B08C9
:103660002343190070BD002914D1002D1ED028005D
:10367000FDF718F90A281CDC0B232A001B1ADA4074
:10368000030015339D400F4B12031B1A5B05160BED
:103690005B0DD8E7002D06D0320B802636036D0770
:1036A0001643094BCFE7084B0026CCE70023002642
:1036B000C9E703002A000B3B9A400025E3E7C04618
:1036C000FFFF0F8089030000FF070000F0B54C00EA
:1036D000640D0B03621C5B0A460F5205C90F1E43A3
:1036E000C500520D012A29DD374BE718FE2F1CDCDF
:1036F000002F3BDD8001431E98410722F3006D0F30
:1037000003432B431A40002A04D00F221A40042AF4
:1037100000D004338022D2041A4024D00137FAB2F8
:10372000FF2F02D09B01580A01E0FF220020400237
:10373000D205400AC90710430843F0BD3543002CA9
:1037400004D1002D0AD100220020F0E7002DECD09A
:103750008020C0033043FF22E9E7002400235B02FE
:10376000580AE2B2E3E7DB083C00F8E73B00173316
:10377000F3DB80231B0433431E26F61B1F2E14DDB0
:1037800002225242D71B1A00FA401700202E04D002
:103790000E4A94466444A3401D432B005D1EAB417A
:1037A00007223B431A400027ADE7094A2800A21828
:1037B000954093406C1EA541F04007222B430343E4
:1037C0001A4000279FE7C04680FCFFFFA2FCFFFFD6
:1037D00082FCFFFFF0B54E465746DE464546E0B553
:1037E0000F00002183B006008946002F06DA390059
:1037F000002746428F41012149428946002B07DAC2
:103800004946C943100089461900002342428B41B2
:1038100034003D0092469846BB4269D866D0414686
:103820005046FDF75DF8834639003000FDF758F843
:103830005B461B1A9C46203B9B4600D575E05146D3
:10384000584681400B005146604681400A00BB4209
:1038500061D85ED034003D005946A41A9D4100292C
:1038600000DA7AE0002100200126009001915946FB
:103870008E400196614601268E40614600960029E1
:1038800050D0D90756085F080E4363460EE0AF429A
:1038900001D1A6420CD8A41BBD41012124196D41C0
:1038A0000022013B64185541002B06D0AF42EED9EF
:1038B000013B24196D41002BF8D1009801995B461A
:1038C00000196941002B3DDB2E00DE4063462C00D1
:1038D000DC405B46002B4BDB34005D46AC402300F4
:1038E0006446A6403200801A994103E0B24296D95C
:1038F000002000214B46002B04D003000C000021C7
:103900005842A14103B03CBC90469946A246AB4602
:10391000F0BDB1429ED90021002000900191614686
:103920000029AED100980199E4E720236246514670
:103930009B1AD94040460091614688400300009997
:103940000B4380E7624620239B1A2A009A402600F8
:1039500013006246D6401E43B8E761462026012781
:10396000761A00200021F74000900191019781E72D
:103970006746202362463500BC409B1ADD40230089
:103980002B43ADE7024670B50A4392072AD11E4D7C
:10399000EE0104C808C9541B9443344017D0D0B278
:1039A000D9B2401A2106014310D190B299B2401AFF
:1039B000210401430AD110021902000A090A401A1F
:1039C0002102014302D1100E190E401A70BD9A4215
:1039D000DFD010BA19BA884201D9012070BD002089
:1039E000C04370BD02780B7801300131002A09D044
:1039F0009A4207D102780B7801300131002A01D0B8
:0C3A00009A42EFD0D01A70BD0101010104
:0A3A0C0000230360436083607047ED
:0A3A160000230360436083607047E3
:0A3A200000230360436083607047D9
:043A2A0001207047C0
:0A3A2E0010B503681B6A984710BD2D
:0A3A380010B503685B6A984710BDE3
:023A42007047CB
:103A440070B50400002020290ED023000022242574
:103A5400FC33186F90420AD02B005343E618B66922
:103A64008E4202D1181D201870BD0132F2E70020E9
:023A7400FAE76F
:103A7600E02302005B0030B5C45800237132FF32E8
:103A86009C420AD00432151F2D688D4203D166333D
:0E3A96009B00185830BD0133F2E70020FAE71C
:103AA4000300F7B5050004000F000026FC331B6F6C
:103AB40018350193019BB34210D02B68202B0AD1F7
:103AC40039006868FFF75CFF002804D12430704394
:103AD40004302018FEBD01362435EBE70020F9E759
:103AE40010B50400DD30FF300DF0B0FE200010BD35
:103AF40003680200C31A19880020042903D99B888B
:083B0400834200D0D058704745
:103B0C0010B5012108200EF0F9F801200EF054F840
:103B1C00002108200EF0F2F801200EF04DF810BD37
:103B2C0070B5060001254C1E002C09DB3100E1406C
:103B3C00092029400EF0E2F8013CFFF7E1FFF3E722
:023B4C0070BD4A
:103B500070B5012406000E4D21000A202C700EF0D5
:103B6000D3F8002107200EF0CFF830001021FFF726
:103B7000DDFF210007200EF0C7F802200EF022F82A
:103B8000002107200EF0C0F800232B7070BDC04646
:043B9000617200203E
:103B9400F8B50124114E21000700072034700EF0FF
:103BA400B1F800210A200EF0ADF8210009200EF032
:103BB400A9F80725FFF7A8FF39002941092021406A
:103BC4000EF0A0F8FFF7A0FF013DF5D201210A2075
:103BD4000EF098F800233370F8BDC04661720020DF
:103BE400031FDBB20348102B02D8034A9B009858EA
:0C3BF4007047C046EA3C0210203B021063
:103C000010B50024064B21000C201C700EF07CF82F
:103C1000044B1C60044B1C70044B1C7010BDC04650
:103C20005F720020C42C00206072002062720020AD
:103C300070B5061C15000C00FFF7E2FF311C1048A0
:103C4000FDF7C6F916F062FFFCF7C4FE0D4B1860D5
:103C50000D4B1C600DF098FF0C4B18600C4B1D6059
:103C60000DF0A2FF01210B4B24181C600A4B0C2005
:103C700019700EF049F80322084B1A7070BDC04647
:103C800000247449E82C0020EC2C0020F02C0020AB
:103C9000E02C0020E42C0020627200205F720020E3
:103CA000F0B597B00893BE4B05901B78069107922C
:103CB000002B00D0DDE00DF067FFBA4B04901B68CD
:103CC0001B1A002B00DDD4E0B74A1168431A092BF8
:103CD00000D8CEE0059B1060802B00D8CBE0180008
:103CE0008038FDF779FEB149FDF772F901900021A6
:103CF0000198FCF7AFFD002800D0C3E0FE21019839
:103D00008905FCF7BBFD002802D0FE239B0501932B
:103D1000069B802B00D8B7E018008038FDF75CFECA
:103D2000A249FDF755F9029000210298FCF792FD97
:103D3000002800D0AFE0FE2102988905FCF79EFD27
:103D4000002802D0FE239B050293079B802B00D8FE
:103D5000A3E018008038FDF73FFE9449FDF738F9DD
:103D6000039000210398FCF775FD002800D09BE02C
:103D7000FE2103988905FCF781FD002802D0FE236F
:103D80009B050393089B802B00D88FE01800803898
:103D9000FDF722FE8549FDF71BF90021071CFCF702
:103DA00059FD002800D088E0FE21381C8905FCF769
:103DB00065FD002801D0FE27BF05002101980124E0
:103DC000FCF75CFD002800D1041CE3B2002102983E
:103DD00009930124FCF752FD002800D1041CE3B232
:103DE000002103980A930124FCF748FD002800D124
:103DF000041CE3B20021381C0B930124FCF73EFDA8
:103E0000002800D1041CE3B2002101980C93FCF7B8
:103E100035FD002853D100210298FCF72FFD002822
:103E20004DD100210398FCF729FD002847D100213E
:103E3000381CFCF723FD041E41D1FFF7E1FE0122EF
:103E40005B4B52421C745B4B1C745B4B1C745B4B96
:103E50001C745B4B5B4C1A605B4B1B78002B06D0D1
:103E60002378002B03D0594959480DF09FFB0023BC
:103E7000237017B0F0BD8020059BC01AFDF7ACFD84
:103E8000544931E7002342E78020069BC01AFDF722
:103E9000A3FD504945E7002356E78020079BC01A41
:103EA000FDF79AFD4B4959E700236AE78020089BFC
:103EB000C01AFDF791FD47496DE700277DE73C4BB0
:103EC000DC689B68E01A0D93FDF786FD0199FDF70C
:103ED00057FAFDF761FD231A0D93364BDC689B689A
:103EE000E01A0E93FDF778FD0299FDF749FAFDF708
:103EF00053FD314E231A0E93F468B368E01AFDF7B0
:103F00006BFD0399FDF73CFAFDF746FD2B4D231A97
:103F10000F93EC68AB68E01AFDF75EFD391CFDF706
:103F20002FFAFDF739FD24216A465218127810AB9A
:103F30001A706A4604315218127804315A706A466F
:103F40005218127804319A706A4652181278184939
:103F5000DA700D9A097812920E9A241A13920F9A17
:103F60001D48149211AA11701249159409785170C4
:103F70003178917029780425D170114A6D42126808
:103F8000511C05320C00044002D5013C2C43013485
:103F90001E5D002E22D101319142F3D169E7C04666
:103FA00059720020C02C0020002D00200000B842D3
:103FB000E402002090020020B0020020C80200208D
:103FC0008C0200205D7200205E720020003E021014
:103FD000382000200000B04203000080002C00DAEE
:103FE00047E7674B674A1C6011AB1B5D5B00985A43
:103FF000FFF7AEFD0020A30012AA9B58834203DB0B
:10400000FF2B00DDFF23D8B2FFF7C4FD5E4B1B780A
:10401000032B00D1A5E0C8215C4A49005C48FFF7AA
:1040200007FE24216B4628205B1869461B78594AF5
:10403000091809781374584B043019746946091823
:10404000564B09780430197469460918544B09789D
:1040500019746B461B7D5BB2002B00DB88E0FE23EE
:104060009B0553606B461B7E5BB2002B00DB81E03F
:10407000FE239B0548494B606B461B7F5BB2002BC0
:104080007ADAFE239B0545494B606B4620215B187D
:104090001B785BB2002B71DAFE218905404B596019
:1040A000049951613C4A596151613C4A3D4B51610F
:1040B00001221A703C4B1B78002B00D1D9E63B4DF6
:1040C0003B4928000DF04DFA3A4BA600F158280064
:1040D0000DF052FA384928000DF043FA11AB185D83
:1040E000FFF780FD010028000DF046FA3349280053
:1040F0000DF037FA12ABF1580A2228000DF0C1FA80
:104100002F4928000DF02DFA00210198FCF7B6FB8D
:10411000002803D02B4928000DF023FA0021029833
:10412000FCF7ACFB002803D0274928000DF019FA52
:1041300000210398FCF7A2FB002803D023492800A4
:104140000DF00FFA0021381CFCF798FB002803D073
:104150001F4928000DF005FA1E4928000DF026FA27
:1041600087E61D4B049A1A601C4B084A1A6058E7F0
:104170001B4B76E71A4B7DE7194B84E718498DE70F
:104180008C020020F45802105F72002060EA0000E8
:104190000000C842E402002090020020B00200208B
:1041A000C80200205D7200205E72002038200020CE
:1041B000293E0210103B02103C3E0210423E02100B
:1041C000483E0210523E0210543E0210563E02106B
:1041D000583E02105A3E0210F02C0020E02C002025
:0441E000000080BF9C
:1041E40010B50400FFF70AFD0DF0CCFC054B0121CE
:1041F4001860054B0C201C600DF084FD0122034B5C
:104204001A7010BDDC2C0020D82C00205F72002016
:1042140070B504000E001500FFF7F0FCE343002224
:10422400DB171C400A4B1C600A4B1A600A4B1E60C9
:104234000A4B1D600DF0A6FC0121094B1860094BC7
:104244000C2019700DF05EFD0222074B1A7070BD30
:10425400D42C0020C42C0020D02C0020CC2C0020F6
:0C426400C82C0020607200205F72002057
:10427000F7B50E00304B150042000700D05AFFF78B
:1042800067FCF0B2FFF786FC002D00DC01256422FC
:1042900032212800FFF7BEFF64226B1E5343323ADF
:1042A0006A439B1801930DF06FFC019BC018234BD0
:1042B0001860234B1B78002B3CD0224C2249200055
:1042C0000DF04FF93800FFF78DFC010020000DF0D4
:1042D00053F91E4920000DF044F90A223100200054
:1042E0000DF0CFF91A4920000DF03BF90A22290000
:1042F00020000DF0C6F9174920000DF032F90A220E
:10430000322120000DF0CBF9134920000DF029F9DE
:104310000A22642120000DF0C2F9104920000DF09E
:1043200020F901990A2220000DF0B9F90C4920006A
:104330000DF03CF9F7BDC046F4580210C02C002027
:104340005E720020382000203D3D0210423E0210E7
:104350004F3D0210573D02105C3D0210643D0210BB
:044360006D3D02109D
:1043640070B50D000021041C1600FCF77BFA002830
:1043740006D1002D04D032002900201CFFF756FC82
:0243840070BD0A
:10438800F8B50DF0FDFB05000DF00AFC384E0400F1
:104398003378022B11D0032B35D0012B0CD1354BA0
:1043A8001B68ED1A344B1B689D4205D300210C2075
:1043B8000DF0A6FC00233370F8BD304C304B22685A
:1043C8001B689A42F2DA2F4E2F4A33681178EB1A9B
:1043D80000290DD02D4909689942EDD800210C20FB
:1043E80011700DF08DFC2368356001332360E3E71D
:1043F800274909689942DFD801210C2011700DF076
:104408007FFC3560D8E7234B234A1B681268EB1AF8
:10441800224D934207D300210C200DF071FC00239C
:1044280033702B70C8E71E4E2A783368002A14D0E0
:104438001C4F3A68D31A1B189A42BDD800210C2089
:104448000DF05EFC0023184A2B7011683A689142FF
:1044580000D98B1A1C193460AEE7C31AACD40121F9
:104468000C200DF04DFC01232B700E4B1B68F1E75F
:104478005F720020DC2C0020D82C0020C42C0020E7
:10448800D42C0020C82C002060720020D02C0020E2
:10449800CC2C0020F02C0020E02C002062720020A0
:0C44A800E42C0020EC2C0020E82C00206C
:1044B40080210D4B10B51A680C4B09061A600C4B81
:1044C4000C4A1B680C485B1813600C4B0C4A1B68A5
:1044D4005B1813600B4B0C4A1B685B180B49136089
:1044E4000DF062F810BDC0461C030020200300201C
:1044F4002C2F0020382F002038200020302F0020BF
:104504003C2F0020342F0020402F00208B3B021032
:10451400F0B50E1C8BB0011C151C0993071CFCF78D
:104524002DFF311C041C301CFCF728FF011C201C2F
:10453400FCF7B2FB291C041C281CFCF71FFF011C00
:10454400201CFCF7A9FB16F057FBD549041CFCF70B
:104554007FF9002800D0A0E1211C381CFCF736FDAF
:10456400211C0590301CFCF731FD211C071C281C64
:10457400FCF72CFDCB4B061C1B680193CA4B01981E
:104584001B680293C94B02991B680393C84B1B68B1
:104594000493FCF7F3FE0499041C0398FCF7EEFE65
:1045A400011C201CFDF71CF8011CFCF775FB03998A
:1045B40006900198FCF7E2FE0499041C0298FCF7AB
:1045C400DDFE011C201CFCF767FB011CFCF764FBEF
:1045D4000399041C081CFCF7D1FE0199051C081C56
:1045E400FCF7CCFE011C281CFCF7FAFF0499051CFF
:1045F400081CFCF7C3FE011C281CFCF7F1FF029900
:10460400051C081CFCF7BAFE011C281CFCF744FB23
:10461400051C011C381CFCF7B1FE211C0790301C42
:10462400FCF7ACFE011C0798FCF7DAFF069907902B
:10463400301CFCF7A3FE291C061C0598FCF79EFE03
:10464400011C301CFCF7CCFF211C08900598FCF7DA
:1046540095FE0699041C381CFCF790FE011C201CD6
:10466400FCF7BEFF934906900798FCF787FE129962
:10467400FCF784FE904C2168FCF70EFB8D49061C68
:1046840020600898FCF77AFE1299FCF777FE8B4CB1
:104694002168FCF701FB8749051C20600698FCF79C
:1046A4006DFE1299FCF76AFE854F3968FCF7F4FA3F
:1046B4008449041C38600998FCF760FE8249071C91
:1046C4000798FCF75BFE311CFCF7E6FA391CFCF793
:1046D400E3FA7C49071C1098FCF750FE7A49061C43
:1046E4000898FCF74BFE291CFCF7D6FA311CFCF7A2
:1046F400D3FA744905901198FCF740FE7249051CE1
:104704000698FCF73BFE211CFCF7C6FA291CFCF7B3
:10471400C3FAFC21041C89051298FCF72FFE8022A1
:10472400019B1206061C391C9818FCF727FE0599F4
:10473400051C0498FCF722FE011C281CFCF750FF02
:10474400211C051C0298FCF719FE011C281CFCF70F
:1047540047FF311CFCF712FE0399FCF79DFA534BFB
:10476400391C186006900398FCF708FE211C051CF0
:104774000498FCF703FE011C281CFCF78DFA05992C
:10478400051C0298FCF7FAFD011C281CFCF728FF05
:10479400311CFCF7F3FD0199FCF77EFA414B0599B6
:1047A400186007900398FCF7E9FD211C051C01988B
:1047B400FCF7E4FD011C281CFCF712FF391C051C46
:1047C4000298FCF7DBFD011C281CFCF765FA311C80
:1047D400FCF7D4FD0499FCF75FFA354B051C18600F
:1047E400211C0398FCF7CAFD0599041C0198FCF7E9
:1047F400C5FD011C201CFCF74FFA391C041C04984D
:10480400FCF7BCFD011C201CFCF7EAFE311CFCF784
:10481400B5FD0299FCF740FA234B06991860041C75
:10482400081CFCF7ABFD0799071C081CFCF7A6FD48
:10483400011C381CFCF730FA291C061C281CFCF748
:104844009DFD011C301CFCF727FA211C051C201CB3
:10485400FCF794FD011C281CFCF71EFA16F0CCF999
:10486400124B041C011C1868FCF7B0FB0F4B211CF5
:1048740018600C4B1868FCF7A9FB0A4B211C186044
:104884000B4B1868FCF7A2FB094B211C1860064B64
:104894001868FCF79BFB044B18600BB0F0BDC046D6
:1048A400BD3786352C2F0020342F00201C03002018
:1048B400302F00208FC2F53CF42B0020F82B002071
:0C48C400FC2B002035FA8E3C0000604008
:1048D000F0B58D4B8BB01D688C4B07901B68089111
:1048E00001938B4B01991B68281C0293894B0992F9
:1048F0001B680393884B1B680493884B1F68884B85
:104900001B680593874B1E68FCF73AFD0399041C4E
:104910000298FCF735FD011C201CFCF763FE391CD6
:10492000041C0498FCF72CFD011C201CFCF75AFE0B
:10493000311C041C0598FCF723FD011C201CFCF70E
:1049400051FE03990690281CFCF71AFD0299041CDD
:104950000198FCF715FD011C201CFCF79FF9311C88
:10496000041C0498FCF70CFD011C201CFCF796F9B4
:104970000599041C381CFCF703FD011C201CFCF7E6
:1049800031FE391C0090281CFCF7FAFC311C041C79
:104990000298FCF7F5FC011C201CFCF723FE04998F
:1049A000041C0198FCF7ECFC011C201CFCF776F9B8
:1049B0000599041C0398FCF7E3FC011C201CFCF780
:1049C0006DF9311C041C281CFCF7DAFC391C051C91
:1049D0000298FCF7D5FC011C281CFCF75FF9049930
:1049E000051C0398FCF7CCFC011C281CFCF7FAFD05
:1049F0000599051C0198FCF7C3FC011C281CFCF759
:104A00004DF9211C051C201CFCF7BAFC0099071C61
:104A1000081CFCF7B5FC391CFCF740F9011CFCF73D
:104A20003DF9011CFE208005FCF7DCFD0099061C09
:104A30000698FCF7A5FC291C0190201CFCF7A0FCA3
:104A4000011C0198FCF72AF9011CFCF727F9311C1D
:104A500016F0D0F83449FCF793FC099B211C186030
:104A60000698FCF78DFC291C061C0098FCF788FCB6
:104A7000011C301CFCF7B6FD011CFCF70FF92B499B
:104A8000061CFBF7E7FE002838D1FE21301C890503
:104A9000FBF7F4FE002833D1301C16F059F82249F8
:104AA000FCF76EFC089B291C1860281CFCF768FCAE
:104AB000391CFCF7F3F8011CFCF7F0F8011CFE2090
:104AC0008005FCF78FFD291C061C0698FCF758FC96
:104AD000211C051C0098FCF753FC011C281CFCF74A
:104AE000DDF8011CFCF7DAF8311C16F083F80E49EA
:104AF000FCF746FC079B18600BB0F0BD0B4ECBE7F4
:104B0000FE26B605C8E7C046200300201C0300208F
:104B1000382F00202C2F00203C2F0020302F002089
:104B2000402F0020342F0020E12E6542000080BF7E
:104B3000F7B50D1C0021041C01921F1CFBF7A8FEF9
:104B400000285CD1324E64006408291C201CFBF74D
:104B500081FE8023002850D1291C201CFCF742FD37
:104B6000291C041C2B48FCF73DFD011C201CFCF7F4
:104B70002FFA0199FCF704FCFE218905041CFBF7C0
:104B80007DFE002801D0FE24A405211C201CFCF77A
:104B9000F7FB211CFCF7F4FB391CFCF7F1FB051CAF
:104BA000FE20391C8005FCF71DFD211CFCF7E8FBED
:104BB000011C281CFCF772F80021041CFBF74AFEBC
:104BC00000281FD1FE21201C8905FBF757FE002875
:104BD0001AD1211C301CFCF7D3FB0F49FCF7D0FB8A
:104BE0008621C905FCF75AF8FCF7D6FE28232728AA
:104BF00003DDDC2800DDDC20C3B21800FEBDFE268C
:104C0000B605A0E70024E4E7FE24A405E1E7C046DA
:0C4C1000000080BF000034420000B842E9
:104C1C0070B50C00FCF7DAFE1C4BA400E158FCF755
:104C2C00DBFC1B4B051CE058011CFCF731F8041C89
:104C3C0068004008211CFBF707FE00281ED100214C
:104C4C00281CFBF71FFE002802D180231B06E4184A
:104C5C00211C281CFCF7C0FC0E49FCF7B3F90E49CB
:104C6C00041CFBF7F1FD00280AD1FE21201C89054C
:104C7C00FBF7FEFD002805D1201C70BD0024FBE7CE
:104C8C00054CF9E7FE24A405F6E7C04660020020B7
:0C4C9C00700200200000B442000080BF45
:104CA800514BF7B51B78514D0E002F68002B05D1DD
:104CB800381CFBF78BFEC3B21800FEBD0221FFF7BC
:104CC800A9FF0321041C3000FFF7A4FF011C201CCE
:104CD800FCF784FC4649041CFBF7B8FD002876D194
:104CE800FE21201C8905FBF7C5FD002872D1002193
:104CF800201CFBF7C9FD00286FD0FE26B60564000E
:104D080064083C49201CFBF7B5FD002867D03949E9
:104D1800201CFCF763FC3849FCF756F9041C211CDD
:104D2800201CFCF729FB211CFCF726FB3349FCF768
:104D380023FB33490190201CFCF71EFB011C019842
:104D4800FBF7A8FF311CFCF717FB2E49FCF714FBF7
:104D58008621C905FBF79EFF2B49061CFBF776FD4C
:104D680000283ED12949301CFBF784FD002800D0DB
:104D7800264E391C301CFCF731FC1E49FCF7FCFAA6
:104D8800391CFBF787FF0021061C2860201CFBF755
:104D980057FD00280FD08621301CC905FCF71EFCE2
:104DA800802140004008C905FBF75AFD002802D0C1
:104DB8008623DB052B602868FCF7EAFD28232728D3
:104DC80000DC79E7DC2800DC75E7DC2073E7084CB9
:104DD800261C94E7FE24A405FAE7054E8FE7002475
:104DE8009DE7094EC5E7C0465772002024030020FE
:104DF800000080BF8FC2F53DAE47613FCDCCCC3DB2
:104E08006666663F0000B8420000204200005C432E
:104E1800F0B5040089B002930EAB1B7800910393A0
:104E28000FAB1B780192049310AB1B780C220593EF
:104E380011AB1E8812AB1F882F4913AB1D8817F0C2
:104E48002BFE20002673360A667306222B490E3085
:104E580017F022FE6A46127806AB1A706A46127973
:104E680020005A706A46127A19009A706A46127BB4
:104E78001430DA706A46127C00261A716A46127D6E
:104E88005A71062217F008FE20000A221A30002163
:104E980017F094FE330006AA925D01365340062EA1
:104EA800F9D1621DD37720009922A31DDA7700215A
:104EB8006D3A263017F082FE200032001049523039
:104EC80017F0EAFD23002200200058331F705932E2
:104ED8003B0A13700B4912225A3017F0DDFD2300EC
:104EE80020006C331D702D0A5D700E2206496E304D
:104EF80017F0D2FD09B0F0BDB0580210BC5802102E
:0C4F080050430210C2580210D45802108E
:104F1400064B10B51B78002B06D00122044B054923
:104F240005481A700CF040FB10BDC0466E7200209C
:0C4F340050720020053D021038200020C3
:104F4000002210B5034B044904481A700CF02EFBE4
:104F500010BDC046507200205C3E02103820002078
:104F600070B5030004000D001600002809D0174991
:104F7000FEF708FD002806D1DC2333705C3B2B7064
:104F80007F3B180070BD12492000FEF7FBFC002893
:104F900003D1282333705833F1E70E492000FEF780
:104FA000F1FC002805D180233370583B2B70273B40
:104FB000E7E709492000FEF7E5FC00239842E0D12D
:104FC000803333705C332B70DB3BDAE7213D02101A
:0C4FD000293D0210323D0210373D021056
:104FDC000023034A1370034A1370034A136070478B
:0C4FEC00597200205A720020902C002006
:104FF800F0B5304B85B01B780F00009001922E4C15
:105008002E49002B13D02E4B2E491B78002B0ED186
:1050180002AB9E1D802302AAD51D2A0031000098EC
:1050280033702B70FFF798FF002805D12649200020
:105038000CF0B8FA05B0F0BD3278244B14201A7081
:105048002A78234B12211A706A46224B12791F7054
:10505800214B1A70214B1B785A1E9341204A023368
:10506800137001231F4A13701F4A1060144A1370EB
:105078000322FFF7F9F81D4920000CF093FA1C49A8
:1050880020000CF06AFA009920000CF09FFA1949E8
:1050980020000CF062FA0A22390020000CF007FB0D
:1050A800154920000CF059FA0A22019920000CF049
:1050B80002FBBFE75872002038200020744202101B
:1050C8005972002095420210BA4202108402002050
:1050D80083020020810200208202002063720020E7
:1050E800800200205A720020902C0020F542021005
:0C50F8001B430210294302104243021027
:10510400F8B5204C079F2478002C1FD00025069E5C
:1051140035701D4E367816701C4E36781E701C4E37
:105124003378012B14D11B4D2D7805701A48007863
:1051340008703B70D3331370184A1368013B136033
:10514400002B03DC02233370083313602000F8BD06
:10515400022B12D17E3303700B704C3313700F4A41
:105164003D701368013B1360002BEFDCFFF734FF45
:105174000B490C480CF018FAE8E7FFF72DFF2C0058
:10518400E4E7C04659720020810200208202002018
:105194005A7200208402002083020020902C0020F8
:0851A400B53B02103820002089
:1051AC0070B5002400251026254B1C70FFF710FF4E
:1051BC00244B32001C70244B21001C70234B2448C0
:1051CC001C70244B1C60244B1C60244B1D60244B16
:1051DC001D60244B1D6017F0EFFC320021002248AB
:1051EC0017F0EAFCFE22214B92051D60204B1D603E
:1051FC00204B1D60204B1A608622204BD2051D606F
:10520C001F4B1D601F4B1D601F4B1A6001221F4B53
:10521C001A7001231E4A5B4213601E4A13601E4A19
:10522C0014601E4A13601E4B1C701E4B1C701E4BD0
:10523C001C601E4B1E491F481C700CF0B1F970BD50
:10524C00587200205B720020577200206F72002091
:10525C00702C0020A42C00206C2C0020BC2C0020D6
:10526C00B82C0020B42C0020802C0020FC2B00201B
:10527C00F82B0020F42B00201C030020342F0020DE
:10528C00302F00202C2F0020240300204D720020F2
:10529C0018030020040300208C2D002000030020A4
:1052AC006772002068720020902D00206A72002026
:0852BC00BC4102103820002063
:1052C400F0B589B003930EAB1B78494C04930FAB34
:1052D4001B78051C059310AB1B780F1C069311ABB0
:1052E4001B7844492000161C07930CF038F9281C3D
:1052F400FEF798F9012502000B00009520000CF040
:105304009FFA3D4920000CF02AF9381CFEF78AF96F
:10531400009502000B0020000CF092FA374920009F
:105324000CF01DF9301CFEF77DF900950B0002000E
:1053340020000CF085FA324920000CF010F90A2202
:10534400069920000CF09BF92E4920000CF007F977
:105354000A22049920000CF092F92B4920000CF049
:10536400FEF80A22039920000CF089F9274920004D
:105374000CF0F5F80A22059920000CF080F9244974
:1053840020000CF0ECF80A22079920000CF077F9C1
:10539400204920000CF0E3F80A22129920000CF0B6
:1053A4006EF91D4920000CF0DAF80A221399200046
:1053B4000CF065F9194920000CF0D1F80A2214996F
:1053C40020000CF05CF9164920000CF0C8F80A2201
:1053D400159920000CF053F9124920000CF0BFF885
:1053E400114B0A22196820000CF04DF909B0F0BDE8
:1053F40038200020B83C0210AE3C0210B23C02102F
:10540400B63C0210BB3C0210C03C0210C53C02106A
:10541400CA3C0210D03C0210D53C0210DA3C021007
:0C542400DF3C0210E43C021018030020E2
:10543000013810B5062843D8FBF716F804431321AA
:1054400042422F000122264B122114201A70FEF72F
:105450000FFF244C244920000CF0A8F82349200019
:105460002CE00122224B142104201A70FEF700FFC9
:105470001C4C204920000CF099F81F49EFE7FFF77A
:1054800019F801221E210C20FEF7F2FE154C1B49D3
:1054900020000CF08BF81A49E1E70122194B1A7031
:1054A0000022194B1A700CF06FFB184B1221186078
:1054B00003221420FEF7DCFE15490A480CF076F8AA
:1054C00010BD0122134B192108201A70FEF7D0FEDF
:1054D000044C114920000CF069F81049BFE7C046A0
:1054E0005572002038200020C13B0210E23B021020
:1054F00056720020F33B0210173C02102B3C0210A6
:105500004C3C02106772002068720020902D002031
:105510005D3C021053720020783C02109B3C02104C
:10552000F0B58D4B87B01B7805900C00002B5ED03A
:105530008A4B1B78002B5AD00CF026FB884A01902E
:105540001168431A4F2B52D910602000FCF744FA1F
:10555000844D6968FCF746F8834F7968FBF738FD9E
:10556000E623824E5B00F4580490E36805980293AA
:1055700023690393FCF730FA2968FCF733F839689C
:10558000FBF726FD0299FBF723FD15F0BFFAFCF7A8
:1055900003FA039BC0187F2800DD7F2002006368A8
:1055A000803201DA80204042187002990498FBF79B
:1055B0000FFD15F0ABFAFCF7EFF9039BC0187F283D
:1055C00000DD7F20E62302005B00F3585B68803239
:1055D00001DA802040425870E4235B00F05805F067
:1055E000A7FA002805D0624962480BF0DFFF07B038
:1055F000F0BDE8235B00F35800215D6880230122A1
:10560000040069565B42A85688421CDC061C98427E
:1056100000DA1E1C73B20132092AF4D1CB1A0293AC
:10562000A31E5A1E9341029804335349534A83429E
:105630000DDD002301201360514A40421060514AA1
:1056400008601370D3E70B0014000100E3E70B6858
:10565000A34270D00C600021019B1360494B19706C
:105660008C42C4D01368002BC1D0019AD31A5E2299
:10567000FF329342BBD9424A1460042C23D1414AE1
:105680001278002A1FD1404A93421CD901273F4E6D
:10569000032233781E217B400C203370FEF7E8FD97
:1056A000344D3B4928000BF081FF364B3949280027
:1056B0001F700BF056FF33783749002B00D0374965
:1056C00028000BF073FF364E3368A34200D18EE7FB
:1056D000344F019B3A689B1A334A934200D886E7BD
:1056E000244D324928000BF03CFF3149082C02D8E8
:1056F000304BA200D15828000BF03EFF2E49280065
:105700000BF02FFF0A22210028000BF0BAFF2B49D3
:1057100028000BF026FF0A22029928000BF0B1FFA7
:10572000274928000BF042FF2000FFF781FE019B74
:1057300034603B605BE7002C94D11368019AD31A64
:105740005E22FF32934200D851E70D4B5F3A1C6056
:10575000134BFF3A1A604AE7697200206672002014
:105760000C2D00200803002010030020682F0020CB
:10577000773D021038200020040300208C2D0020EB
:10578000180300206A720020CF0700006372002017
:10579000893D0210B83D0210733D0210703D0210A9
:1057A00000030020082D002083030000DE3D0210CE
:1057B000AD3B0210643B0210ED3D0210F43D0210BF
:0457C000FE3D021098
:1057C400F0B5050006003E4BD535C35ADD368FB023
:1057D4000400FF35FF36002B0BD13A490BA80CF01F
:1057E40084F80BA930000CF093F801230BA82B715B
:1057F40034E0354BC35A002B01D13449EEE70B6832
:10580400C8182060FEF774F903282CD0304905A885
:105814000CF06BF805A908A80CF08AF8032108A875
:105824000CF0ECF82B490CF0DBF807002068FEF7CD
:105834005FF9010038000CF0ECF801000BA80CF043
:1058440077F80BA930000CF063F801230BA82B7137
:105854000BF0FCFF08A80BF0F9FF05A80BF0F6FF0E
:1058640028000FB0F0BDB02012F0C0FA002302935C
:1058740001938023DB0100932300E9332168221D77
:10588400FF33070004F0B6FEE4235B00E750380062
:1058940005F05AF81049071EA0D1E4235B0001006B
:1058A400E05804F01DFFE6235B00E050043B3900A0
:1058B400E05804F0F3FEE8235B00E05007498DE76D
:1058C400E8410000F8590210EA4100001A5A021097
:1058D4003D5A02105F5A0210665A02105E5A0210B4
:1058E400F0B585B005000E0014000393202908D1FB
:1058F400234805F04DF9234805F04AF9012005B085
:10590400F0BD03681B6A98470190002807D01E4821
:1059140005F03EF931001D4805F03AF9EEE7FC23A5
:105924009C46AC446346196F092906D931001848CE
:1059340005F02EF90A211748EEE7242322004B43F1
:10594400EB1802931F1D19CA19C73C0089CA89C4E0
:1059540089CA89C4029B01319E6163461967E021AB
:1059640049006B5801989A00AA181400FC34666721
:10597400CC24039E6400013316516B50BFE7C0462C
:105984001E5902104F590210645902109359021003
:08599400B4590210E55902109C
:10599C0070B52F4D8AB02F4928000BF001FE2E4E0A
:1059AC002E4B2F4A01A8F25007F0CCFA2D4C2E4B5F
:1059BC0001AA09212000FFF78FFF01A805F018FCB0
:1059CC002A4B01AA13212000FFF786FF01A807F03C
:1059DC00A1FB274B01AA19212000FFF77DFF01A88D
:1059EC0005F03AFF234B01AA72212000FFF774FF48
:1059FC0001A805F0C3FD204B01AA06212000FFF7EA
:105A0C006BFF1E493000FFF7D7FE1D4908300CF024
:105A1C0007F81C491C4B002812D1187008701B4940
:105A2C0028000BF098FD1A4901A80BF07DFF01A985
:105A3C0028000BF0BFFD01A80BF004FF0AB070BDED
:105A4C00012228000A7013491A700BF0A9FDF5E722
:105A5C0038200020E2410210682F0020E8410000AD
:105A6C00020009006C2F002049860010FD850010F3
:105A7C0035870010F9850010F58500106043021081
:105A8C005E5A0210697200206672002011420210E8
:085A9C004431002027420210F2
