:020000041000EA
:1000000000B5324B212058609868022188439860DF
:10001000D860186158612E4B002199600221596106
:100020000121F02299502B49196001219960352056
:1000300000F044F80222904214D00621196600F024
:1000400034F8196E01211966002018661A6600F04E
:100050002CF8196E196E196E052000F02FF8012189
:100060000842F9D1002199601B49196000215960AB
:100070001A491B48016001219960EB211966A021F2
:10008000196600F012F800219960164914480160C1
:100090000121996001BC002800D000471248134993
:1000A000086003C880F30888084703B5996A0420EC
:1000B0000142FBD001200142F8D103BD02B5186610
:1000C0001866FFF7F2FF186E186E02BD00000240BE
:1000D000000000180000070000035F00212200005C
:1000E000F4000018222000A00001001008ED00E03C
:1000F00000000000000000000000000074B24E7A12
:1001000000000420E3010010C3010010E903001007
:10011000C1010010C1010010C1010010C101001097
:10012000C1010010C1010010C10100104503001001
:10013000C1010010C1010010C9030010D503001057
:10014000CD010010CD010010CD010010CD01001037
:10015000CD010010CD010010CD010010CD01001027
:10016000CD010010CD010010CD010010CD01001017
:10017000CD010010CD010010CD010010CD01001007
:10018000CD010010CD010010CD010010CD010010F7
:10019000CD010010CD010010CD010010CD010010E7
:1001A000CD010010CD010010CD010010CD010010D7
:1001B000CD010010CD010010CD010010CD010010C7
:1001C00000BE00BE00BE00BE00BE00BE00F03FF894
:1001D000103800BE00202049086006C881F3088856
:1001E00010471E48006800282DD10CA40ECC002911
:1001F00002D000F010F8F9E719491A4A002000E08F
:1002000001C19142FCD1184988471849884700BE6E
:10021000FDE701C901C29A42FBD370476C86021008
:10022000C0000020B81000207096021000000420CA
:10023000000004207096021000100420001004201A
:100240000000000070470A4818F0C6F90047EFF3B5
:100250000580C0B27047000008ED00E0000000D04B
:10026000C81000202CF20020CD0200108160011087
:1002700057560000F8B5C046F8BC08BC9E4670470B
:10028000F8B5C04610B5064C2378002B07D1054BB6
:10029000002B02D0044800E000BF0123237010BDF2
:1002A000181600200000000084020010044B10B556
:1002B000002B03D00349044800E000BF10BDC04636
:1002C000000000001C16002084020010164B002BBA
:1002D00000D1144B9D46402292029A1A9246002168
:1002E0008B460F461348144A121A1AF0BDFF0F4BE3
:1002F000002B00D098470E4B002B00D098470020D1
:10030000002104000D000D48002802D00C4815F013
:10031000BAFE1AF013FB2000290012F087F815F03E
:10032000AFFEC046000008000000042000000000EE
:100330008D230110C81000202CF2002087600110CE
:10034000000000007046C0082CD3EFF309808169DB
:1003500002390978002929D101B50FC8B8470CBC6A
:1003600003C29E461E4B06CB91421ED0083B1A602C
:10037000002909D0EFF3098020388863F0C0444693
:100380004D4656465F46F0C0906B1030F0C8A04610
:10039000A946B246BB4680F309882038F0C802203F
:1003A000C0430047EFF30880D1E770470D4A136858
:1003B0009942FAD801B5890053589C460FC8E047C6
:1003C0000CBC10609E46704701B511F0A5FA03BC45
:1003D0008E46C7E701B511F05DFA03BC8E46C1E752
:1003E000C4040020645E0210102304E0202302E015
:1003F000302300E040239C46F0B404AE7546E80884
:1004000001D3EFF309860E4F0FCE0FC70FBC0FC7F6
:100410004046494652465B460FC71DCE3100A60AEC
:1004200000D304316E0900D248311FC7EFF30980B1
:100430006946EFF3148663C76046014915F0BCF9BD
:100440009CF1002001480421014B1847C006002000
:10045000E985011002B4714649084900095649006E
:100460008E4402BC7047C04602B471464908490038
:10047000095C49008E4402BC7047C04603B4714613
:10048000490840004900095A49008E4403BC70479E
:10049000002243088B4274D303098B425FD3030AC3
:1004A0008B4244D3030B8B4228D3030C8B420DD3D6
:1004B000FF22090212BA030C8B4202D31212090264
:1004C00065D0030B8B4219D300E0090AC30B8B42A2
:1004D00001D3CB03C01A5241830B8B4201D38B0350
:1004E000C01A5241430B8B4201D34B03C01A5241F5
:1004F000030B8B4201D30B03C01A5241C30A8B4238
:1005000001D3CB02C01A5241830A8B4201D38B0222
:10051000C01A5241430A8B4201D34B02C01A5241C6
:10052000030A8B4201D30B02C01A5241CDD2C30938
:100530008B4201D3CB01C01A524183098B4201D3B4
:100540008B01C01A524143098B4201D34B01C01A9F
:10055000524103098B4201D30B01C01A5241C30817
:100560008B4201D3CB00C01A524183088B4201D386
:100570008B00C01A524143088B4201D34B00C01A72
:100580005241411A00D20146524110467047FFE7DE
:1005900001B5002000F0F0F802BDC0460029F7D0F8
:1005A00076E7704703460B437FD4002243088B4213
:1005B00074D303098B425FD3030A8B4244D3030BEA
:1005C0008B4228D3030C8B420DD3FF22090212BAAF
:1005D000030C8B4202D31212090265D0030B8B422B
:1005E00019D300E0090AC30B8B4201D3CB03C01A15
:1005F0005241830B8B4201D38B03C01A5241430BF0
:100600008B4201D34B03C01A5241030B8B4201D3DF
:100610000B03C01A5241C30A8B4201D3CB02C01A4A
:100620005241830A8B4201D38B02C01A5241430AC2
:100630008B4201D34B02C01A5241030A8B4201D3B1
:100640000B02C01A5241CDD2C3098B4201D3CB0158
:10065000C01A524183098B4201D38B01C01A524107
:1006600043098B4201D34B01C01A524103098B420B
:1006700001D30B01C01A5241C3088B4201D3CB00F6
:10068000C01A524183088B4201D38B00C01A5241D9
:1006900043088B4201D34B00C01A5241411A00D289
:1006A00001465241104670475DE0CA0F00D04942F2
:1006B000031000D34042534000229C4603098B4262
:1006C0002DD3030A8B4212D3FC22890112BA030AEA
:1006D0008B420CD3890192118B4208D3890192116C
:1006E0008B4204D389013AD0921100E08909C309F1
:1006F0008B4201D3CB01C01A524183098B4201D3F3
:100700008B01C01A524143098B4201D34B01C01ADD
:10071000524103098B4201D30B01C01A5241C30855
:100720008B4201D3CB00C01A524183088B4201D3C4
:100730008B00C01A5241D9D243088B4201D34B00DF
:10074000C01A5241411A00D20146634652415B1021
:10075000104601D34042002B00D549427047634602
:100760005B1000D3404201B5002000F005F802BD47
:100770000029F8D016E770477047C046D0400B1CE0
:10078000D1409C46203AD34018435242634693409E
:1007900018437047D0400B1C1141203A03D49C46AB
:1007A0001341184363465242934018437047C04672
:1007B0009140031C90409C46203A9340194352427A
:1007C0006346D340194370478446101C62468C46EA
:1007D000191C634600E0C0461FB502F04FF8002820
:1007E00001D40021C8421FBD10B501F0A7FF40424F
:1007F000013010BD10B502F041F8002801DB0020E7
:1008000010BD012010BDC04610B502F037F8002819
:1008100001DD002010BD012010BDC04610B501F063
:10082000C9FF002801DC002010BD012010BDC0461A
:1008300010B501F0BFFF002801DA002010BD012033
:1008400010BDC0468446081C6146FFE71FB500F096
:1008500051FD002801D40021C8421FBD10B500F091
:10086000D3FC4042013010BD10B500F043FD00281C
:1008700001DB002010BD012010BDC04610B500F006
:1008800039FD002801DD002010BD012010BDC0464B
:1008900010B500F0E1FC002801DC002010BD0120B3
:1008A00010BDC04610B500F0D7FC002801DA0020CA
:1008B00010BD012010BDC0461C2101231B0498421D
:1008C00001D3000C10391B0A984201D3000A0839E1
:1008D0001B09984201D30009043902A2105C401898
:1008E0007047C0460403020201010101000000003C
:1008F0000000000010B5002903D1FFF7DDFF203014
:1009000002E0081CFFF7D8FF10BDC046002B15D130
:10091000002A13D1002906DB01DC002806D00020C4
:10092000C043410802E080210906002007B40248C4
:1009300001A14018029003BD41FEFFFF03B46846C9
:1009400001B5029800F098F9019B9E4602B00CBCDC
:100950007047C046002B11D1002A0FD1002900D1C9
:10096000002802D00021C943081C07B4024802A194
:100970004018029003BDC04601FEFFFF03B4684665
:1009800001B5029800F0B6F8019B9E4602B00CBC7F
:100990007047C046F0B5CE46474615042D0C2E00D4
:1009A00080B50704140C3F0C9946030C7E435D434D
:1009B000674363437F19340CE4199C46A54203D96D
:1009C00080235B029846C4444B4643435143250C65
:1009D00036046544360C2404A4195B195918200008
:1009E0000CBC90469946F0BD9E2110B5C905041C6B
:1009F000FFF758FF002803D1201C00F0D7FF10BDDF
:100A00009E21201CC90500F0F7FD00F0CFFF8023D8
:100A10001B069C466044F2E770B500220C4B0400B4
:100A20000D00FFF705FF002804D12000290002F087
:100A300063FD70BD064B00222000290002F0F8F98A
:100A400002F05AFD80231B069C466044F1E7C04635
:100A50000000E04170B505000C00002200232800D2
:100A60002100FFF7C7FE002804D12800210000F074
:100A70000DF870BD80231B06E118280000F006F871
:100A800002000B00002150429941F2E770B50022AC
:100A90000B4B0D00040001F059FFFFF7BDFF0600EE
:100AA00002F09AFD0022074B01F050FF02000B00FC
:100AB0002000290002F0BCF9FFF7AEFF310070BD45
:100AC0000000F03D0000F04170B50600080002F0A3
:100AD00049FD0022064B01F039FF0D0004003000F3
:100AE00002F07AFD2B00220001F00AF870BDC0462A
:100AF0000000F041F0B54F464646D646C0B504006A
:100B000082B00D00914698468B422FD82CD041469A
:100B10004846FFF7EFFE290006002000FFF7EAFE37
:100B2000331A9C46203B9A4600D576E04B46524607
:100B300093401F004B46624693401E00AF4228D8A8
:100B400025D05346A41BBD41002B00DA7BE00022D8
:100B50000023009201930123524693400193012305
:100B600062469340009318E08242D0D900220023CD
:100B7000009201930A9B002B01D01C605D600098DD
:100B8000019902B01CBC90469946A246F0BDA34212
:100B9000D7D900220023009201936346002BE9D0AD
:100BA000FB079846414672080A437B0866460EE0FA
:100BB000AB4201D1A2420CD8A41A9D4101202419B4
:100BC0006D410021013E24184D41002E06D0AB425C
:100BD000EED9013E24196D41002EF8D100980199FB
:100BE000534600196941002B23DB2B005246D340AA
:100BF0002A006446E2401C0053461500002B2DDB02
:100C000026005746BE40330026006746BE403200ED
:100C1000801A994100900191ACE7624620239B1A0B
:100C20004A46DA406146130042468A4017001F4395
:100C300080E7624620239B1A2A0066469A402300DA
:100C4000F3401343D4E76246202300219B1A00227D
:100C5000009101920122DA40019280E7202362464E
:100C600026009B1ADE402F00B0466646B740464637
:100C70003B003343C8E7C046F0B583B016001F0001
:100C80000090019102F0B0FD04000D0002000B0085
:100C900030003900FFF77EFE009A019B121A8B414B
:100CA000089920000A604B60290003B0F0BDC046DF
:100CB000F8B54746CE4643025B0A4400C20F9C4645
:100CC0004800DD004B02240E5B0A000E80B59846FA
:100CD00026009146C90FDB00271A8A4229D0002F2F
:100CE00015DD00284AD1002B00D095E0ED08FF2C3F
:100CF00000D188E06B025B0AE6B25B02F605580A97
:100D00003043D20710430CBC90469946F8BD002FE3
:100D100000D087E0601CC0B2012800DCB6E0EE1A0B
:100D2000720100D5C5E0002E3DD10022002600232F
:100D3000E3E7002F00DC96E000285DD0FF2C60D0B8
:100D40008022D20413431B2F00DDECE02022D21BB3
:100D500018009340F8405A1E93410343ED186B016D
:100D60007BD50134FF2C00D1B7E0012207262A40B1
:100D70006B089A4D1D4015432E4029E0FF2CB5D03D
:100D80008022D20413431B2F00DDB2E02022D21BAD
:100D900019009340F9405A1E93410B43ED1A6B0121
:100DA0005BD5AD01AE093000FFF786FD0538864002
:100DB000844265DC041B330020200134E340041B23
:100DC000A640751EAE41334307261D0000241E4079
:100DD00001224B461A40002E04D00F232B40042B37
:100DE00000D004356B0100D480E70134E6B2FF2C5B
:100DF0002FD1FF26002380E7002B52D1FF2C00D0FB
:100E000074E70A00ED08002DF3D08023DB032B43A9
:100E10005B025B0AFF2670E7013F002FBED0FF2C6C
:100E2000B1D163E7002C47D0FF2869D08024E404C7
:100E30007A4225431B2A00DDC5E02C002026D44041
:100E4000B21A95406A1E954125435D1B04008946F0
:100E5000A5E7AB015B0A50E7002401224B461A408C
:100E60006B07BAD142E7002F3BD10134E0B2012831
:100E70004ADDFF2CBDD00726ED186D082E40A7E7F0
:100E80000723574D241A35401E40A1E7002C1BD1E3
:100E9000002D6ED1002B00D19AE00A001D003C000D
:100EA00024E7013F002F00D158E7FF2C00D04AE78C
:100EB000A7E75E1B894676E7002D1CD10A00FF28B4
:100EC0001FD004001D0011E7002D5DD1002B17D1AC
:100ED00080230022DB03FF260FE70A00FF26002302
:100EE0000BE7002C21D1002D66D1FF28E9D11D0090
:100EF00087E7012352E77A1CA7D0FA43FF2899D14C
:100F00000A001D00FF24F1E6002E21D1002D4FD054
:100F1000002B4CD0ED186B019ED5314B07362E407F
:100F200001241D4054E7012318E7FF28DFD0802467
:100F3000E4047F4225431B2F4DDC2026F61B2C00AA
:100F4000B540FC406A1E95412543ED18040006E7B4
:100F5000002DCCD0002B00D153E780216046C9037F
:100F6000084203D04046084200D11D000121114033
:100F700047E7002B00D1B9E6EA1A500125D507262C
:100F80005D1B2E40894623E7FF24002B00D1ADE6F0
:100F900080226046D203104204D04046104201D164
:100FA0001D00894601224B46FF241A409EE62B0075
:100FB000DD080A0000249DE67A1CC6D0FF43FF2806
:100FC000B9D11D001DE701253FE7151E00D044E7FC
:100FD0000022002391E60125B7E7C046FFFFFF7D11
:100FE000FFFFFFFBF8B557464E464546DE46440236
:100FF000E0B546008846640A360EC70F002E63D05F
:10100000FF2E24D08023E400DB041C4300239946F8
:101010009B467F3E434642465D02D20F5B006D0A0F
:101020001B0E9046924665D0FF2B55D080220021A2
:10103000ED00D2047F3B1543F61A43464A467B40F7
:101040000F2A00D98DE06D48920082589746002CF7
:1010500054D108239946063BFF269B46DAE7002534
:10106000534602291BD0032900D1BFE0012928D013
:1010700030007F30002820DD6A0704D00F222A408C
:10108000042A00D004352A0103D530005C4A8030A0
:101090001540FE2803DCAC01640AC2B201E0FF2265
:1010A00000246402D205600ADB07104318433CBCED
:1010B00090469946A246AB46F8BD0122101A1B285D
:1010C0007CDD00220024ECE7002C1DD1042399468E
:1010D000033B00269B469DE7FF3E002D20D10221C9
:1010E00043464A467B400A430F2AD8D845489200D7
:1010F00082589746002D19D10121F1E70C2399461A
:10110000093BFF269B4685E72000FFF7D5FB7626A7
:10111000431F9C4000237642361A99469B4679E746
:101120004A4603231A439146032186E72800FFF726
:10113000C3FB431F36189D40763600217DE780248F
:101140000023E403FF22ACE700258023DB031C42DD
:1011500028D01D4226D12B435C02640A4346FF225D
:101160009FE762016C01A24224D21B210025013EAF
:10117000012710006D005200002801DB944201D8C5
:10118000121B3D4301390029F3D11400621E944122
:1011900025436DE7BA46594625005346022900D03B
:1011A00061E77CE78023DB031C436402640A3B00A5
:1011B000FF2276E7121B1A210125D9E79E362A0065
:1011C000B5402C00C240651EAC411443620704D0F8
:1011D0000F222240042A00D00434620103D4A40167
:1011E000640A00225DE7012200245AE78024E40318
:1011F0002C436402640AFF2253E7C0466C050210C8
:10120000FFFFFFF7AC05021070B542004E024C0024
:1012100045026D0A120EC30F760A240EC90FFF2A6B
:101220000FD0FF2C11D00120A24200D070BDB542DA
:10123000FCD18B420DD0002AF8D12800451EA841D0
:10124000F4E70120002DF1D1EBE70120002EEDD1D4
:10125000E9E70020EAE7C04670B54A004E024502C1
:1012600044006D0A240EC30F760A120EC90FFF2C1C
:1012700015D0FF2A0ED0002C15D1002A01D1002E46
:101280001CD0002D14D08B4227D00220013B1840E7
:10129000013870BD002EEED002204042F9E7002D4B
:1012A000FAD1FF2A0ED0002A0ED1002EEDD00BE08D
:1012B00001230139994308000130EAE70020002D9D
:1012C000E7D0E2E7002EE7D18B42DED1944205DD84
:1012D0000221581E08400138DBE70024A24204DC4A
:1012E000B542D2D80020B542D3D2581E012398432C
:1012F0000130CEE730B5420044024D02C30F480032
:10130000640A120E6D0A000EC90FFF2A12D0FF28C0
:101310000CD0002A12D1002819D1002D17D1002C91
:101320002BD00220013B1840013826E0002DF0D0E0
:10133000022022E0002CFBD1FF281FD000281FD163
:10134000002D1DD10220013B1840013815E0002C72
:101350000ED08B42E5D10022904204DCAC42E0D8B2
:101360000020AC4209D2581E01239843013004E00A
:101370000123013999430800013030BD002DD7D138
:101380008B42CED18242E7DD0221581E084001384F
:10139000F3E7C046F0B54E4657464546DE46E0B553
:1013A00043025B0A450083B00F1C99462D0EC60F01
:1013B000002D57D0FF2D24D08020DB00C00418431F
:1013C000002381469A469B467F3D7C027A00FB0FB4
:1013D000640A120E984623D0FF2A4BD0E3008024E3
:1013E0000020E4047F3A1C43AD186B1C4746019370
:1013F000534677403A000F2B48D87D499B00CB5885
:101400009F46002B00D085E008339A46063B9B465A
:101410007C027A00FB0FFF25640A120E9846DBD18E
:10142000002C00D090E0524601231A43924601203E
:10143000DBE74C4658461700022824D0032800D189
:10144000CFE00022002301284DD15802D205400AE6
:10145000FF071043384303B03CBC90469946A24670
:10146000AB46F0BD002B5BD104239A46033B00251D
:101470009B46AAE7FF35002C60D1524602231A434F
:1014800092460220B1E7FF220023DEE74B461B0C09
:101490009C464B462604360C180461463300220C49
:1014A0006446000C43434E435043544380191A0C86
:1014B0001218964203D9802149028C4664441B04C9
:1014C0001B0C1004C01883015E1EB341800E18432C
:1014D000130C1B199B0103431C00230179D5012325
:1014E00062081C401443019A7F32002A4DDD6307D5
:1014F00004D00F232340042B00D00434230103D550
:101500003C4B019A1C408032FE2ABCDCA3015B0AE2
:10151000D2B29AE70C239A46093BFF259B4654E733
:101520001800FFF7C9F94A46431F76259A40002361
:101530006D4291462D1A9A469B4646E75246032332
:101540001A439246032050E72000FFF7B5F9431FE6
:101550002D1A9C40763D002047E780230027DB03BF
:10156000FF2272E7424666E74C463200584662E781
:1015700080234A46DB031A4222D01C4220D1234357
:101580005B025B0A4746FF225FE701239A1A1B2A88
:1015900021DC23000199D3409E318C401A002300A6
:1015A0005C1EA34113435A0704D00F221A40042A99
:1015B00000D004335A0111D49B015B0A002244E796
:1015C00080234A46DB0313435B025B0A3700FF229A
:1015D0003BE7019587E70022002336E7012200233D
:1015E00033E78023DB0323435B025B0AFF222CE704
:1015F000EC050210FFFFFFF7F8B54746CE46440062
:10160000C20F80B547024802400A84466646480039
:101610007F0A240EF60025009046FB00000EC90F3D
:10162000B146FF2800D185E001267140261A91427B
:1016300057D0002E43DD002800D07FE04946002926
:1016400000D1AAE0013E002E00D0F7E05B1A5A015B
:1016500000D48BE09B019C092000FFF72DF9053891
:101660008440854200DDD3E0451B23002020013566
:10167000EB40451BAC40621E9441234307240025E8
:101680001C40012241460A40002C04D00F21194081
:10169000042900D00433590100D480E00135ECB2B4
:1016A000FF2D00D0A3E0FF2400235B02E405580ACD
:1016B000D207204310430CBC90469946F8BD002E3B
:1016C00074D1601CC0B2012800DCA7E04A469C1A15
:1016D000620100D5B6E0002CBED100220024002318
:1016E000E3E7002E00DC85E0002846D0FF2C49D03F
:1016F00080224846D2041043814601221B2E09DC79
:1017000020204C46801B84404A462000F240441E64
:10171000A04102439B185A0128D50135FF2D00D165
:10172000A8E00122072494491A405B080B401343A8
:101730001C40A6E7002E00D078E775E7FF2C54D0B8
:1017400080224946D2041143894601221B2E09DC1E
:1017500020214846891B88404A460100F240481E25
:1017600081410A439B1A5A0100D573E70122414681
:101770000A40590700D089E711E04846002858D1AF
:10178000FF2C0CD1DB08002B00D18CE78020C0039C
:1017900003435B025B0AFF2487E7FF2C25D0DB08AD
:1017A000FF2DF0D05B025B0AECB27EE7002C4DD03F
:1017B000FF2818D08024E404724223431B2A00DD52
:1017C000C4E01C002025D440AA1A93405A1E93411D
:1017D00023434A460500D31A884638E7721CF8D0DE
:1017E000F243FF28EAD10A004B46FF25D7E79B01C9
:1017F0005B0A5AE7002E41D1651CE9B2012945DD9B
:10180000FF2D00D14FE707244B445B081C4038E70D
:1018100007225A4B2D1A2340144032E7002C1DD1C9
:10182000002B7AD14B46002B00D191E00A00002515
:10183000B5E7013E002E19D14B446CE7FF2C84D153
:10184000FF25ACE74A468846D41A05E7002BC5D1E8
:101850000A00FF28C8D005004B46A0E7002B49D15D
:101860004B46002B77D00A00FF2598E7FF2C00D0CD
:1018700043E787E70A00FF24002316E7002C15D171
:10188000002B57D1FF28E6D14B467BE7002C20D117
:10189000002B57D04946002953D04B445A0168D5F4
:1018A0000724364A1C4001251340EAE6FF28EBD006
:1018B0008022D204764213431B2E53DC2025AD1B1D
:1018C0001A00AB40F2405C1EA34113434B44050099
:1018D00021E7002BD8D04946002900D152E78021CA
:1018E000C9030F4200D14DE76046084200D049E7E6
:1018F0004B4647E74846FF25002800D14FE78022A6
:10190000D203174204D06046104201D14B468846AC
:1019100001224146FF250A4041E7484600281FD0E2
:101920001A1A500120D54A460724D31A1C4088466B
:101930000025A6E6741CC9D0F643FF28BCD14B464F
:1019400020E799464B460025DB082BE7012340E7BB
:1019500000220023A9E680230022DB03FF24A4E663
:1019600000251CE70123B1E7002AF1D01300002570
:10197000FCE60025FAE6C046FFFFFF7DFFFFFFFB08
:1019800042024B0240004900520A5B0A090E000E57
:10199000FF2806D00020FF2902D11800431E9841DD
:1019A0007047FE38002AFBD1F4E7C04641024200EE
:1019B000C30F490A120E00207E2A0DD99D2A0CD889
:1019C000802000040143952A0ADC9620821AD14027
:1019D0004842002B00D108007047034A9818FBE7E3
:1019E000963A9140F4E7C046FFFFFF7F70B50028AC
:1019F0003DD0C317C5185D40C40F2800FEF75CFF3B
:101A00009E22121A962A07DCD2B2082833DD083843
:101A100085406802400A23E0992A0BDD052329004E
:101A20001B1AD94003001B339D402B005D1EAB41A8
:101A300019430D00052801DD431F9D402B000F4970
:101A40000B406E0709D00F263540042D05D0043316
:101A50005D0102D59F220B40121A9B01580AD2B297
:101A60004002D205400AE4071043204370BD002421
:101A700000220020F4E76802400AF1E7FFFFFFFBC5
:101A800070B5041E34D0FEF717FF9E22121A962A54
:101A900007DCD2B208282EDD083884406002400AF4
:101AA00021E0992A09DD030021001B3399404B1ED8
:101AB000994105231B1ADC400C43052801DD431F17
:101AC0009C4023000D490B40650709D00F252C4091
:101AD000042C05D004335C0102D59F220B40121A5E
:101AE0009B01580AD2B24002D205400A104370BD91
:101AF00000220020F7E76002400AF4E7FFFFFFFB47
:101B0000F0B54F464646D6460C000903C0B5490A13
:101B1000470F5E0039431F03DB0F9C4665007B0ABD
:101B2000570F1F436D0DE40F760DA146C000B84658
:101B3000D200AB1B64457BD0002B5FDD002E00D0B4
:101B4000A4E03E00164300D112E15E1E002E00D03C
:101B50009EE1871A4346B84280410125C91A404296
:101B6000091A0B0200D431E149024E0A002E00D1BD
:101B70006EE13000FEF7A0FE0300083B1F2B00DDE6
:101B800061E120223900D21A9E40D1409F400E438D
:101B90009D4200DD51E15D1B6B1C1F2B00DD7CE1D4
:101BA0002021C91A3D0030008F408840DD40791E59
:101BB0008F41310007222843D940002507433A408E
:101BC000002A09D00F233B40042B05D03B1DBB420C
:101BD000BF417F42C9191F000B0200D426E26A1CD4
:101BE000C64B55056D0D9A4200D106E1C44AFF0867
:101BF0000A40530752023B43120B8EE0002B00D0E9
:101C0000B8E06B1C5B055B0D012B00DC30E1871A33
:101C10004346B842B641CB1A76429E1B330200D5EA
:101C20004CE13B003343A1D100220024002570E0A9
:101C3000002B00DCE5E0002E00D183E0AF4EB54282
:101C400060D0802636043743B846382B00DC3EE1AE
:101C5000434613431F007A1E97413F188742804135
:101C6000404209180B0200D4B0E0A44B01359D425C
:101C700000D1C3E0A24A7B080A4001210F401F4364
:101C80005108D30707221F433A4099E79B4EB542BC
:101C900038D0802636043743B846382B00DDDCE0E8
:101CA0001F2B00DC30E11E004746203EF740BC46BB
:101CB000202B04D04026F31A46469E40324317009C
:101CC00063467A1E97411F43CCE0002B00D104E20B
:101CD0004346134300D159E14B07C0081843802302
:101CE000C9081B03194208D04546ED081D4204D11E
:101CF0004346D008590708432900420FC9007F4DC9
:101D00001143C0004B07CA087C49C00803438D42F9
:101D100068D012036D05120B6D0D0021120318001F
:101D2000130B0A0D12051A43764B2D0513402B4356
:101D30005B00E4075B08234319001CBC90469946EE
:101D4000A246F0BD3E00164312D05E1E002E00D00B
:101D500000E187188742804141444042091801252B
:101D60000B0233D5022585E7644633004146100057
:101D70001D00C7E7002D00D0DAE00C000443F3D0CB
:101D80005C1C00D19FE15D4CA64200D12FE1DB43FA
:101D9000382B00DD66E11F2B00DD83E120240500E8
:101DA000E41A0F00DD40D940A0404346A7405B1A2B
:101DB000441EA04198462F433843171ABA42924115
:101DC00043465242991A64463500CAE607223A4011
:101DD000002A00D0F6E64B07CA084849FF083B43F3
:101DE0008D4296D11900114300D19EE18021090353
:101DF0000A431203120B414D8FE715000022002306
:101E00008BE7002B00D0C7E06B1C5F057F0D012F17
:101E100000DCF1E0394DAB4200D1B9E085180A0091
:101E2000854289414244494251180722CF076D0833
:101E30002F4349083A401D00C2E607223049ED1AF7
:101E400031403A40BCE63E002838864000279FE6F5
:101E50003800FEF731FD20308EE6434613431F0065
:101E60007A1E9741C71BB84280414042091A78E662
:101E70000E003B0006431343002D61D1002E00D01D
:101E8000F4E0002B00D11BE164463900100039E773
:101E90001A4FBB427AD03300FFE630001F3DE840C6
:101EA000202B03D04021CB1A9E4037437B1E9F41FD
:101EB000072207433A400021002589E7171A4346C5
:101EC000BA42B641591A76428E1B64464EE61F2B23
:101ED00000DDADE020264746F61AB740B9461700A8
:101EE000B246DF404E463E4337005646B240561E8D
:101EF000B24117434246DA408918AEE6FF070000B8
:101F0000FFFF7FFFFFFF0F8020264746F61AB740EE
:101F1000B9461700B246DF404E463E4337005646AC
:101F2000B240561EB24117434246DA40891A99E739
:101F30007F4CA6425BD0802424045B42214327E7E8
:101F4000002E0CD1002B00D1CBE0644639001000EC
:101F5000774DD7E6764FBB4218D0330075E6002B9D
:101F600014D04B07C00818438023C9081B0319422B
:101F700007D0FC081C4204D17907D0080843E14689
:101F800021004C46420FC9001143C000684DB9E61C
:101F90001D0000220023C0E6002D5BD10D0005438B
:101FA00000D1E2E65D1C00D1B0E0614DAE421FD031
:101FB000DB43382B71DC1F2B00DD96E020250F0062
:101FC000ED1AAF40B9460700AA46DF404D463D43F3
:101FD0002F005546A840D940451EA84188440743D4
:101FE000BF18974292415142414435003AE6644657
:101FF00035004146100085E60B000343002D00D05C
:1020000063E6002BF5D04346134300D17AE68718E8
:102010008742804107224144404209183A400B025E
:1020200000D4D5E6434B01351940C9E5380069E6CF
:102030001E004746203EF740BC46202B04D04026D9
:10204000F31A46469E403243170063467A1E974174
:102050001F4302E6364DAE42CAD080252D045B42B6
:102060002943A6E70843411E8841A6E6002B00D17C
:1020700048E6871A4346B842B641CB1A76429E1BC1
:1020800033024BD5171A4346BA429241591A52426B
:10209000891A072264463A4092E501430F00791EEF
:1020A0008F419DE71C000F00203CE740202B03D010
:1020B0004024E31A99400843411E884138437CE696
:1020C0000022002425E6171A4346BA429241591AC3
:1020D0005242891A6446350043E541461000144DCA
:1020E00010E680220024120380E61D000F00203D30
:1020F000EF40BC46202B03D04025EB1A9940084303
:1021000007006346781E87411F4369E78718974297
:102110009B4141445B42C9183500A3E53B00334372
:10212000CED0072231003A4052E600231A00F4E5EF
:10213000FF070000FFFF7FFFF0B55746DE464E4623
:102140004546E0B5834607000E03480085B0924639
:102150001C00360B400DCD0F002800D19DE0954BA3
:10216000984239D08023F6001B041E43924A7B0F0D
:1021700033439946944603006344009300230026AA
:10218000FF00029323031B0B98466300E40F5246A3
:102190005B0D019400D1B3E086498B4200D19EE0F3
:1021A0004246D100802212040A435146490F11438E
:1021B0008B46814952468C4600996344CB1A0021D4
:1021C000D20000932B0063409A460F2E00D905E100
:1021D0007A4BB6009B599F465B463343994600D0E5
:1021E000B8E002230826002700900293CAE7CB46F6
:1021F0003A0002990195019B9A46022927D00329AA
:1022000000D180E2012944D06D49009B8C46634493
:102210001C00002C38DD530700D013E2D2085B46C7
:10222000DB0109D55946674B19408B468021C9000F
:102230008C46009B63441C00634B9C4207DC5B465E
:1022400064055F075B0217431B0B620D02E000236E
:102250000027584A00211B031C0B0B0D1B052343B1
:1022600014055A4A380013401C4353466400DB07E8
:1022700064081C43210005B03CBC90469946A24628
:10228000AB46F0BD0122524201231B1B382B00DC60
:10229000ADE1002200230027DCE75B46334399468B
:1022A0005ED0002E00D18AE13000FEF705FB03006E
:1022B0000B3B1C2B00DD7BE11D22D31A5A4601008B
:1022C000DA4008398E4013005F46334399468F4009
:1022D0003F4B00261B1A00930023029352E741460E
:1022E00053460B433B499B468C46009B63440093FB
:1022F0005B46002B3BD1022300221E43022161E7F3
:10230000434613439B4637D04346002B00D162E13E
:102310004046FEF7D1FA03000B3B1C2B00DD53E1D6
:1023200002004146083A914088461D21CB1A514689
:10233000D9400B0041460B439B46534693401A003D
:10234000009B25499C46604403008C4663440093EF
:10235000002137E70323B14600900C26029311E7D2
:102360000023009301330426002702930AE7032386
:10237000C3461E43032125E701331E4300220121EA
:1023800020E700239A46802300271B03094A61E7C0
:10239000802349461B03194200D1E2E05946194205
:1023A00000D0DEE00B431B0317001B0BA246014AC3
:1023B00050E7C046FF07000001FCFFFF2C0602109B
:1023C000FF030000FFFFFFFEFE070000FFFF0F807E
:1023D0000DFCFFFF01F8FFFFF3030000D94500D912
:1023E000CBE000D1C6E03C0048460027009B013B03
:1023F00000935B46160E1B021E43130298463304DD
:102400001B0C9946310C0191FEF7C8F84A4642432D
:102410000B04210C050019438A4207D98919013D93
:102420008E4203D88A4201D9851E8919881A0199DA
:10243000FEF7B4F809048C464A4621046446424338
:10244000090C030021438A4204D98919013B8E42B9
:1024500000D8F1E02D041D43AB464346891A42469D
:10246000280C12041D0C5B46140C22001B041B0CD0
:102470005A4303946B434443029568431B19150C5C
:10248000EB189C4203D980246402A44660441C0CCF
:1024900015041B042D0C20185D19814277D373D0CD
:1024A0000C1AA24A7D1BAF42BF419446009B7F425B
:1024B0006344E01B1C00864200D1DBE00199FEF77B
:1024C0006DF84A4642430B04290C070019438A421F
:1024D00007D98919013F8E4203D88A4201D9871E44
:1024E0008919881A0199FEF759F809044A4689465C
:1024F00029044D464243090C030029438A4207D967
:102500008919013B8E4203D88A4201D9831E891959
:102510003F04891A3A00039F1A43380013041B0C26
:10252000584381460298150C6F4343434543484640
:10253000000C8446DB1963449F4203D9802040028B
:102540008446654448461F0C00041B04000C7D199A
:102550001818A94200D284E000D17FE001231A4379
:1025600057E680234A461B0313431B031B0BAA4653
:102570006F4A6FE6BA4200D935E74B46DC07580888
:102580007B081C43FF0734E70024AF4289D247444D
:102590004745A4415B466442A4196418013BA64226
:1025A0001ED2A0426DD800D1B6E0241A9B4678E72F
:1025B00003005A46283B9A400027914688E6584631
:1025C000FEF77AF9203072E603005246283B9A4023
:1025D00093460022B4E65046FEF76EF920309AE6A4
:1025E000A642E2D1B845DCD9341A9B4659E71F2BE5
:1025F00065DC504C0099A4465C46614408008C4060
:1026000011008240D940501E82410C4314435A4667
:10261000DA401300620709D00F222240042A05D0B5
:102620002200141D9442894149425B181A0262D566
:102630000122002300270DE68A4200D80AE7831E04
:10264000891907E70F231340042B00D1E6E5171D76
:102650009742924153429B44FA08E0E5002800D19A
:10266000D7E57118531EB14227D3A94215D358D0CC
:102670001A0073E7002B00DC04E6012300229B44D0
:10268000CDE502234744474589415B429C46494288
:1026900089190C19E344241A03E743465F004745B0
:1026A0009B41B8465B429E19023A8919A94200D063
:1026B00054E7404500D051E7ABE51A00F6E71F218B
:1026C0005F4649420C1BE740202B07D01A49009B6C
:1026D0008C46634418005B4683401A43501E824177
:1026E0003A4307270023174009D00F210023114048
:1026F0001400042995D122005F075B021B0BD2084E
:1027000017430022A6E5802359461B030B431B03F6
:1027100017001B0B064A9DE5BD42B2D89B4600241C
:10272000BFE68045B9D31A00C3E7C046FF030000E7
:10273000FF0700001E0400003E040000F0B54F46F5
:102740004646D6468446C0B58046194E18030F0348
:102750004D00000B5C0082463F0B6D0DC90F91468A
:10276000640DDB0F0120B5420AD0B44203D0A5426C
:1027700001D157450CD01CBC90469946A246F0BDED
:1027800066463E43F7D1AC42F5D154461443F2D1EC
:102790000120C845EFD1994207D0002DEBD1634607
:1027A0001F433800471EB841E5E70020E3E7C04675
:1027B000FF070000F0B54F464646D6464D00C0B56F
:1027C0000E03C90F8A462C491F035C008046360B56
:1027D0006D0D91463F0B640DDB0F8D421ED08C4278
:1027E00016D0002D1ED130438446002C01D13A432F
:1027F00023D06246002A1AD09A4529D05146022099
:102800000139084001381CBC90469946A246F0BDEB
:1028100039001143E5D002204042F4E73043FAD1B9
:10282000AC420FD0002C0FD13A43E7D00CE001228C
:10283000013B934318000130E5E763460020002B7D
:10284000E1D0DBE73A43E6D19A45D7D1A542D5DCC2
:10285000A54205DBBE42D1D808D00020BE42D2D26C
:1028600050460123013898430130CCE7C845C5D80C
:102870000020C845F4D3C6E7FF070000F0B54F4677
:102880004646D6464D00C0B50E03C90F8A462E49AE
:102890001F035C008046360B6D0D91463F0B640DA7
:1028A000DB0F8D4218D08C4211D0002D18D130434F
:1028B0008446002C1ED13A431CD163460020002BD5
:1028C00030D0514602200139084001382AE0390051
:1028D0001143EAD0022025E03043FBD1AC4226D0A0
:1028E000002C26D13A4324D1514602200139084018
:1028F000013817E06246002A0FD09A45E1D1A5427F
:1029000005DBBE42DDD819D00020BE420AD25046B7
:10291000012301389843013004E00122013B934335
:10292000180001301CBC90469946A246F0BD3A43BF
:10293000D0D19A45C5D1A542C3DCE0E7C845C0D88F
:102940000020C845E3D3EDE7FF070000F0B5574688
:10295000DE464E464546E0B5834606000F03480076
:1029600087B092461D003F0B400DCC0F002800D1D0
:102970006FE0DE4B984238D08023FF001B041F43DA
:10298000730F3B430193DA4B0027994600239B4684
:10299000F60081442B0369001B0B52469846490DF3
:1029A000ED0F002900D185E0D04B994200D173E0B2
:1029B0004346DA0080231B0413435246CC48520F8F
:1029C00084461343524600206144D20089442100CA
:1029D000694000918C46012149448A460F2F00D955
:1029E00090E0C449BF00CF59BF465B463B430193CB
:1029F00000D06AE102230827002681469B46C9E7EA
:102A000032005846019B61460091022800D175E0D2
:102A1000032800D1FEE1012800D02CE1002300278B
:102A2000002600253F032A0D3F0BB34812053A4309
:102A300002401B051343009A5B00D1075B080B4360
:102A40003000190007B03CBC90469946A246AB4600
:102A5000F0BD5B463B43019300D12FE1002F00D135
:102A6000A5E13800FDF728FF03000B3B1C2B00DD20
:102A700096E11D22D31A5A460100DA405E46083913
:102A80008F4013008E403B4301939C4B00271B1A41
:102A9000994600239B467DE7414653460B439349A5
:102AA0008C46E144002B00D01AE102220220174399
:102AB00000228CE7134300D10DE14346002B00D1E7
:102AC00081E14046FDF7F8FE02000B3A1C2A00DDCA
:102AD00072E10100434608398B4098461D239A1A3B
:102AE0005346D3401A004346134352468A40494650
:102AF000081A824989468144002068E77B4B0027F9
:102B000000268EE7140C1204120C1100370C360448
:102B1000350C794328008C462E0060436044834680
:102B200056432100300C8046584679434044029178
:102B3000844506D98846802149028C46E0444146B6
:102B400002913604010C360C00048B4681191E0CD0
:102B50001B041B0C0391190079438C462800754314
:102B60006544A8465843050C45447743A94203D918
:102B7000802149028C466744290C8C4639000004A8
:102B8000000C2D042D186144AB4405915946049165
:102B900001990F043F0C080C390051434243904601
:102BA00002008C46090C8B4662437C4344445C44DF
:102BB000A04503D98021490288464244210C884619
:102BC00061460904090C8C4639005943434370435C
:102BD0007E430F0CF6182404BE19644442448C460C
:102BE000B34203D980235B0298464044029B61466E
:102BF0009846049B370443449B46AB45AD416B422A
:102C00000D0405992D0C8C467F196744FD18A846C4
:102C10005D462D19A542A44193466442A446C3448F
:102C2000DC448F42BF4198459B4193459241A44566
:102C3000A4415B427F421F43360C52426442BF199B
:102C40002243BF18624638184302D20D039913433A
:102C50006A020A43501E82416146ED0D2A434E022C
:102C60003243D90100D4B3E0012650083240024378
:102C7000DE0732435B08224C5444002C62DD5107CE
:102C800009D00F201040042805D0101D9042924119
:102C900052429B180200D90104D580241948E4004F
:102CA000034054441848844200DD27E75E075B0276
:102CB000D2081F0B630516435B0DB2E6002399464D
:102CC0000133042700269B4664E6032301978146CF
:102CD0000C279B465EE6012201201743002276E680
:102CE000032303201F43434671E6C046FF0700004D
:102CF00001FCFFFF6C060210FFFF0F800DFCFFFFC1
:102D0000FF030000FFFFFFFEFE07000000238027F7
:102D100000933F030026434B83E6019B3200A44609
:102D2000584670E6AC466EE6802701993F0339426B
:102D30002DD03B422BD11F433F033F0B0095160084
:102D4000384B6EE601252D1B382D00DD66E61F2D64
:102D500040DC35481C005044160082408440EE4060
:102D6000501E824134431443EB40620709D00F22C6
:102D70002240042A05D02200141D94428041404282
:102D80001B181A023ED501230027002649E680279A
:102D9000019B3F031F433F033F0B0094214B40E641
:102DA00003005A46283B9A40002601926DE6584699
:102DB000FDF782FD203057E603005246283B9A403B
:102DC0001300002293E65046FDF776FD20307BE6A7
:102DD000CA4650E71F201E004042041BE640202D3B
:102DE00003D0124C5444A3401A43501E8241324334
:102DF00007260027164009D00F200023104014009A
:102E00000428B9D122005E075B021F0BD2081643CB
:102E1000002306E680273F031F433F033F0B1600B6
:102E2000004BFEE5FF0700001E0400003E0400000A
:102E3000F8B557464E464546DE460C000903E0B558
:102E4000490A460F5F0031431E03DB0F760A9B469B
:102E5000530F3343C84E6500C000E40FD2006D0D20
:102E6000A24681467F0D9C469046B74200D1B9E00C
:102E70005B46012673409B46EE1BA34500D183E0D1
:102E8000002E63DD002F00D0B1E06346134300D174
:102E900023E1731E002B00D0BAE1861A6346B042CC
:102EA00080410125C91A4042091A0B0200D447E1AA
:102EB00049024B0A98464346002B00D189E140461F
:102EC000FDF7FAFC0300083B1F2B00DD7CE120220C
:102ED0003000D21A4146D040994002009E400A4339
:102EE0009D4200DD6AE15D1B6B1C1F2B00DD94E140
:102EF000202110003500C91A8E40DA408840DD409C
:102F0000711E8E41110007222843002506433240DE
:102F1000002A09D00F233340042B05D0331DB342C0
:102F2000B641764289191E000B0200D43DE26A1CAC
:102F3000914B55056D0D9A4200D119E18F4AF60863
:102F40000A40570752023743120B9BE0002E00D075
:102F5000C5E06E1C7605760D012E00DC48E1674663
:102F6000861ACB1BB042BF417F42B8461F00434682
:102F7000FF1A3B00B8461B0200D55FE137439AD1E8
:102F800000220024002579E0002E00DCFAE0002F6A
:102F900000D18DE0784B9D4267D0802367461B04AB
:102FA0001F43BC46382E00DC52E1634613435A1ED1
:102FB00093411E1886428041404209180B0200D4FA
:102FC000BEE06D4B01359D4200D1D2E06B4A7308E3
:102FD0000A4001210E401E435108D30707221E4319
:102FE000324095E71E00164300D045E740E7624BAC
:102FF0009D423AD0802367461B041F43BC46382EAF
:1030000000DDEBE01F2E00DC3AE133006746203B99
:10301000DF403B00202E05D04027BF1B6646BE4048
:10302000324390464646721E96413343DAE0002B07
:1030300000D114E26346134300D168E180234E07B8
:10304000C008C9081B030643194208D06046C008DF
:10305000184204D163460100D2085E071643F3000C
:103060009946C900720F444D11434B46DE08424B4E
:103070004F073743CA089D4200D16EE012036D0529
:10308000120B6D0D00211203130B0A0D12051A43CA
:103090003B4B2D0513402B435B00E4075B082343A8
:1030A000380019003CBC90469946A246AB46F8BD94
:1030B0006346134311D0731E002B00D007E186181E
:1030C0008642804161444042091801250B0237D5F0
:1030D00002257BE73E00614691463500C5E75C4628
:1030E000002D00D0E1E00B000343F3D0731C00D1AE
:1030F000ACE1214B9F4200D13AE1F343382B00DD94
:103100006FE11F2B00DD8CE120250E00ED1AAE4093
:10311000B0460600AA46DE40454635432E005546D9
:10312000D940A8406346451EA8415B1A9C463043DF
:10313000161AB242924163465242991A3D00B4E6D1
:1031400007223240002A00D0E4E60B4BF6084F0776
:103150003743CA089D4200D090E73B00134300D19B
:10316000A6E180231B031A431203120B024D89E7C9
:1031700015000022002785E7FF070000FFFF7FFF03
:10318000FFFF0F80002E00D0C7E06B1C5E05760DA0
:10319000012E00DCF0E0C84DAB4200D1B9E085184B
:1031A0000A00854289416244494251180722CE07EC
:1031B0006D082E43490832401D00A9E6BF49ED1AAB
:1031C000114007223240A3E6320028388240002610
:1031D00086E63000FDF770FB203073E6634613434C
:1031E0005A1E9341C61AB04280414042091A5CE619
:1031F0000E00674606431743002D5ED1002E00D017
:10320000F3E0002F00D11EE15C46614691462CE7B9
:10321000A94FBE427BD01E00F1E610001F3DE840E2
:10322000202B03D04021CB1A9A401643731E9E4197
:103230000722064332400021002583E7161A634621
:10324000B2428041591A40420B1A98465C4632E617
:103250001F2E00DDABE02027BB1B9A466346574676
:10326000BB40994613004F46F3401F433B0057466F
:10327000BA40571EBA4113436246F240891898E695
:103280002027BB1B9A4663465746BB40994613000E
:103290004F46F3401F433B005746BA40571EBA41C2
:1032A00013436246F240891A9CE7834B9F425FD0EA
:1032B00080252D047342294320E7002E0CD1002FD6
:1032C00000D1D0E05C46614691467B4DCDE67A4F19
:1032D000BE421CD01E0065E6002F18D0C0084E0765
:1032E00006438020C9080003014208D06346DC0879
:1032F000044204D12100DA46D2085E071643F300E7
:10330000994601245346C900720F11431C406A4D6F
:10331000ABE61D0000220027B4E6002D59D10B00BA
:10332000034300D1D6E6731C00D1B2E0624B9F424A
:103330001ED0F343382B6FDC1F2B00DD97E02025D8
:103340000E00ED1AAE40B0460600AA46DE404546E5
:1033500035432E005546A840D940451EA8418C440F
:103360000643B61896429241514261443D0025E61B
:103370003D006146914678E60B000343002D00D0E6
:1033800055E6002BF5D06346134300D16DE6861851
:103390008642804161444042091800220B0200D459
:1033A000D0E6464B01351940B2E5B1465DE6330043
:1033B0006746203BDF403B00202E05D04027BF1B47
:1033C0006646BE40324390464646721E964133439F
:1033D000EFE5394B9F42CBD080252D047342294322
:1033E000A8E70843411E8841A2E6002F00D13CE631
:1033F0006346861ACF1AB0429B415B42FB1A98463D
:103400001B024ED5161A6346B2429241591A5242D5
:10341000891A5C4600227BE501430E00711E8E4135
:103420009FE71D000E00203DEE40B046202B04D04B
:103430004025EB1A99400843814648464346411EC1
:103440008841184374E60022002417E6161A6346E2
:10345000B2429241591A5242891A3D0025E561460D
:103460009146154D01E680220024120379E61D00E5
:103470000E00203DEE40B046202B04D04025EB1A34
:103480009940084381464E464346711E8E411E4375
:1034900067E7861896429B4161445B42C9183D002C
:1034A0008CE547463743CED007224146324049E6B5
:1034B00000273A00E6E5C046FF070000FFFF7FFF58
:1034C00070B50C4E0D031C0349005B002D0B490D1C
:1034D000240B5B0DB14208D0064900208B4203D17A
:1034E00014432000441EA04170BD05430120002D5F
:1034F000FAD1F1E7FF07000030B5144D0A034B0085
:10350000120B5B0DC90F0024AB4211DD104CA3421E
:1035100010DC8024640322430E4CE41A1F2C0CDDC3
:103520000D48C31ADA4013005C42002900D11C0088
:10353000200030BD094BCC18FAE7094DE040AC46FD
:1035400063449A4013000343EEE7C046FE030000C5
:103550001D0400003304000013040000FFFFFF7F80
:10356000EDFBFFFF70B500282DD0C317C5185D40D7
:10357000C40F2800FDF7A0F9154B1B1A5B055B0D66
:103580000A2815DD0B38854000222D032D0B002164
:1035900010002D030A0D2D0B12052A430D4D1B059E
:1035A0002A4013435B00E4075B082343190070BD06
:1035B00002002900153291400A000B21081AC5406B
:1035C0002D032D0BE3E70024002300250022DEE776
:1035D0001E040000FFFF0F8010B5041E25D0FDF76C
:1035E0006BF9144B1B1A5B055B0D0A2812DD0B38B7
:1035F000844000222403240B0021100024030A0D20
:10360000240B120522430C4C1B05224013435B0084
:10361000590810BD02002100153291400A000B210B
:10362000081AC4402403240BE6E7002300240022E8
:10363000E2E7C0461E040000FFFF0F804100090EB4
:103640004B1C70B5DBB24602750AC40F012B14DDAA
:10365000E0239B006D07360BCB1800210A0D2800D4
:1036600012051C4D32435B052A405B0813435B0087
:10367000E4075B082343190070BD002914D1002D15
:103680001ED02800FDF718F90A281CDC0B232A009D
:103690001B1ADA40030015339D400F4B12031B1A0F
:1036A0005B05160B5B0DD8E7002D06D0320B80268C
:1036B00036036D071643094BCFE7084B0026CCE7CE
:1036C00000230026C9E703002A000B3B9A4000258F
:1036D000E3E7C046FFFF0F8089030000FF070000FB
:1036E000F0B54C00640D0B03621C5B0A460F5205DB
:1036F000C90F1E43C500520D012A29DD374BE718BB
:10370000FE2F1CDC002F3BDD8001431E9841072269
:10371000F3006D0F03432B431A40002A04D00F22FD
:103720001A40042A00D004338022D2041A4024D044
:103730000137FAB2FF2F02D09B01580A01E0FF22A5
:1037400000204002D205400AC90710430843F0BDDB
:103750003543002C04D1002D0AD100220020F0E7CF
:10376000002DECD08020C0033043FF22E9E7002485
:1037700000235B02580AE2B2E3E7DB083C00F8E70B
:103780003B001733F3DB80231B0433431E26F61B59
:103790001F2E14DD02225242D71B1A00FA401700D6
:1037A000202E04D00E4A94466444A3401D432B00AF
:1037B0005D1EAB4107223B431A400027ADE7094A93
:1037C0002800A218954093406C1EA541F0400722A6
:1037D0002B4303431A4000279FE7C04680FCFFFFAE
:1037E000A2FCFFFF82FCFFFFF0B54E465746DE46C7
:1037F0004546E0B50F00002183B006008946002F42
:1038000006DA3900002746428F41012149428946A4
:10381000002B07DA4946C9431000894619000023E6
:1038200042428B4134003D0092469846BB4269D8E3
:1038300066D041465046FDF75DF8834639003000BA
:10384000FDF758F85B461B1A9C46203B9B4600D56B
:1038500075E05146584681400B0051466046814014
:103860000A00BB4261D85ED034003D005946A41A1C
:103870009D41002900DA7AE0002100200126009015
:10388000019159468E400196614601268E4061465F
:103890000096002950D0D90756085F080E436346AA
:1038A0000EE0AF4201D1A6420CD8A41BBD410121BC
:1038B00024196D410022013B64185541002B06D0AC
:1038C000AF42EED9013B24196D41002BF8D100988D
:1038D00001995B4600196941002B3DDB2E00DE405B
:1038E00063462C00DC405B46002B4BDB34005D461E
:1038F000AC4023006446A6403200801A994103E0A0
:10390000B24296D9002000214B46002B04D0030080
:103910000C0000215842A14103B03CBC904699469E
:10392000A246AB46F0BDB1429ED9002100200090D6
:10393000019161460029AED100980199E4E7202366
:10394000624651469B1AD9404046009161468840E4
:10395000030000990B4380E7624620239B1A2A004C
:103960009A40260013006246D6401E43B8E76146DF
:1039700020260127761A00200021F74000900191AF
:10398000019781E76746202362463500BC409B1AB9
:10399000DD4023002B43ADE7024670B50A43920792
:1039A0002AD11E4DEE0104C808C9541B944334406B
:1039B00017D0D0B2D9B2401A2106014310D190B22B
:1039C00099B2401A210401430AD110021902000AD7
:1039D000090A401A2102014302D1100E190E401AA1
:1039E00070BD9A42DFD010BA19BA884201D90120BD
:1039F00070BD0020C04370BD02780B7801300131EA
:103A0000002A09D09A4207D102780B78013001319F
:103A1000002A01D09A42EFD0D01A70BD01010101F5
:0A3A200000230360436083607047D9
:0A3A2A0000230360436083607047CF
:0A3A340000230360436083607047C5
:043A3E0001207047AC
:0A3A420010B503681B6A984710BD19
:0A3A4C0010B503685B6A984710BDCF
:023A56007047B7
:103A580070B50400002020290ED023000022242560
:103A6800FC33186F90420AD02B005343E618B6690E
:103A78008E4202D1181D201870BD0132F2E70020D5
:023A8800FAE75B
:103A8A00E02302005B0030B5C45800237132FF32D4
:103A9A009C420AD00432151F2D688D4203D1663329
:0E3AAA009B00185830BD0133F2E70020FAE708
:103AB80010B50400DD30FF300CF032FA200010BDE4
:103AC8000300F7B5050004000F000026FC331B6F48
:103AD80018350193019BB34210D02B68202B0AD1D3
:103AE80039006868FFF754FF002804D12430704378
:103AF80004302018FEBD01362435EBE70020F9E735
:103B080003680200C31A19880020042903D99B8876
:083B1800834200D0D058704731
:103B2000F0B50E1C8BB0011C151C0993071CFDF78A
:103B300031FC311C041C301CFDF72CFC011C201C2A
:103B4000FDF7B6F8291C041C281CFDF723FC011CFA
:103B5000201CFDF7ADF815F0B9FBD549041CFCF7A6
:103B600083FE002800D0A0E1211C381CFDF73AFAA2
:103B7000211C0590301CFDF735FA211C071C281C60
:103B8000FDF730FACB4B061C1B680193CA4B01981A
:103B90001B680293C94B02991B680393C84B1B68AF
:103BA0000493FDF7F7FB0499041C0398FDF7F2FB5F
:103BB000011C201CFDF720FD011CFDF779F803997D
:103BC00006900198FDF7E6FB0499041C0298FDF7A6
:103BD000E1FB011C201CFDF76BF8011CFDF768F8E8
:103BE0000399041C081CFDF7D5FB0199051C081C52
:103BF000FDF7D0FB011C281CFDF7FEFC0499051CF9
:103C0000081CFDF7C7FB011C281CFDF7F5FC0299F9
:103C1000051C081CFDF7BEFB011C281CFDF748F81D
:103C2000051C011C381CFDF7B5FB211C0790301C3E
:103C3000FDF7B0FB011C0798FDF7DEFC0699079025
:103C4000301CFDF7A7FB291C061C0598FDF7A2FBFD
:103C5000011C301CFDF7D0FC211C08900598FDF7D5
:103C600099FB0699041C381CFDF794FB011C201CD1
:103C7000FDF7C2FC934906900798FDF78BFB12995C
:103C8000FDF788FB904C2168FDF712F88D49061C62
:103C900020600898FDF77EFB1299FDF77BFB8B4CAB
:103CA0002168FDF705F88749051C20600698FDF797
:103CB00071FB1299FDF76EFB854F3968FCF7F8FF31
:103CC0008449041C38600998FDF764FB8249071C8D
:103CD0000798FDF75FFB311CFCF7EAFF391CFCF786
:103CE000E7FF7C49071C1098FDF754FB7A49061C36
:103CF0000898FDF74FFB291CFCF7DAFF311CFCF795
:103D0000D7FF744905901198FDF744FB7249051CD3
:103D10000698FDF73FFB211CFCF7CAFF291CFCF7A6
:103D2000C7FFFC21041C89051298FDF733FB802294
:103D3000019B1206061C391C9818FDF72BFB0599F0
:103D4000051C0498FDF726FB011C281CFDF754FCFC
:103D5000211C051C0298FDF71DFB011C281CFDF70A
:103D60004BFC311CFDF716FB0399FCF7A1FF534BED
:103D7000391C186006900398FDF70CFB211C051CEC
:103D80000498FDF707FB011C281CFCF791FF05991F
:103D9000051C0298FDF7FEFA011C281CFDF72CFCFF
:103DA000311CFDF7F7FA0199FCF782FF414B0599A9
:103DB000186007900398FDF7EDFA211C051C019887
:103DC000FDF7E8FA011C281CFDF716FC391C051C40
:103DD0000298FDF7DFFA011C281CFCF769FF311C73
:103DE000FDF7D8FA0499FCF763FF354B051C186002
:103DF000211C0398FDF7CEFA0599041C0198FDF7E4
:103E0000C9FA011C201CFCF753FF391C041C049840
:103E1000FDF7C0FA011C201CFDF7EEFB311CFDF77D
:103E2000B9FA0299FCF744FF234B06991860041C69
:103E3000081CFDF7AFFA0799071C081CFDF7AAFA42
:103E4000011C381CFCF734FF291C061C281CFDF73C
:103E5000A1FA011C301CFCF72BFF211C051C201CA7
:103E6000FDF798FA011C281CFCF722FF15F02EFA2A
:103E7000124B041C011C1868FDF7B4F80F4B211CF1
:103E800018600C4B1868FDF7ADF80A4B211C186040
:103E90000B4B1868FDF7A6F8094B211C1860064B60
:103EA0001868FDF79FF8044B18600BB0F0BDC046D2
:103EB000BD3786355C2E0020642E00209C02002039
:103EC000602E00200AD7A33C702B0020742B00200A
:0C3ED000782B002035FA8E3C0000A0404A
:103EDC0080210D4B10B51A680C4B09061A600C4B5F
:103EEC000C4A1B680C485B1813600C4B0C4A1B6883
:103EFC005B1813600B4B0C4A1B685B180B49136067
:103F0C000BF0C2FE10BDC0469C020020A002002097
:103F1C005C2E0020682E0020B81F0020602E002090
:103F2C006C2E0020642E0020702E0020070702103B
:103F3C00F0B58D4B8BB01D688C4B07901B680891AE
:103F4C0001938B4B01991B68281C0293894B099296
:103F5C001B680393884B1B680493884B1F68884B22
:103F6C001B680593874B1E68FDF70EFA0399041C1A
:103F7C000298FDF709FA011C201CFDF737FB391CD0
:103F8C00041C0498FDF700FA011C201CFDF72EFB05
:103F9C00311C041C0598FDF7F7F9011C201CFDF7DA
:103FAC0025FB03990690281CFDF7EEF90299041CD9
:103FBC000198FDF7E9F9011C201CFCF773FE311C7C
:103FCC00041C0498FDF7E0F9011C201CFCF76AFEA8
:103FDC000599041C381CFDF7D7F9011C201CFDF7B2
:103FEC0005FB391C0090281CFDF7CEF9311C041C74
:103FFC000298FDF7C9F9011C201CFDF7F7FA04998A
:10400C00041C0198FDF7C0F9011C201CFCF74AFEAA
:10401C000599041C0398FDF7B7F9011C201CFCF74B
:10402C0041FE311C041C281CFDF7AEF9391C051C83
:10403C000298FDF7A9F9011C281CFCF733FE049922
:10404C00051C0398FDF7A0F9011C281CFDF7CEFAFE
:10405C000599051C0198FDF797F9011C281CFCF724
:10406C0021FE211C051C201CFDF78EF90099071C54
:10407C00081CFDF789F9391CFCF714FE011CFCF730
:10408C0011FE011CFE208005FDF7B0FA0099061CFC
:10409C000698FDF779F9291C0190201CFDF774F99D
:1040AC00011C0198FCF7FEFD011CFCF7FBFD311C0B
:1040BC0015F002F93449FDF767F9099B211C1860CA
:1040CC000698FDF761F9291C061C0098FDF75CF9B0
:1040DC00011C301CFDF78AFA011CFCF7E3FD2B498F
:1040EC00061CFCF7BBFB002838D1FE21301C8905CF
:1040FC00FCF7C8FB002833D1301C15F08BF8224993
:10410C00FDF742F9089B291C1860281CFDF73CF9A7
:10411C00391CFCF7C7FD011CFCF7C4FD011CFE207B
:10412C008005FDF763FA291C061C0698FDF72CF98F
:10413C00211C051C0098FDF727F9011C281CFCF715
:10414C00B1FD011CFCF7AEFD311C15F0B5F80E49A4
:10415C00FDF71AF9079B18600BB0F0BD0B4ECBE7BF
:10416C00FE26B605C8E7C046A00200209C0200202F
:10417C00682E00205C2E00206C2E0020602E00206B
:10418C00702E0020642E0020E12E6542000080BFBE
:10419C00F7B50D1C0021041C01921F1CFCF77CFBC5
:1041AC0000285CD1324E64006408291C201CFCF7EA
:1041BC0055FB8023002850D1291C201CFDF716FA32
:1041CC00291C041C2B48FDF711FA011C201CFCF7C0
:1041DC0003FF0199FDF7D8F8FE218905041CFCF7B3
:1041EC0051FB002801D0FE24A405211C201CFDF746
:1041FC00CBF8211CFDF7C8F8391CFDF7C5F8051CD8
:10420C00FE20391C8005FDF7F1F9211CFDF7BCF8E7
:10421C00011C281CFCF746FD0021041CFCF71EFBAE
:10422C0000281FD1FE21201C8905FCF72BFB002840
:10423C001AD1211C301CFDF7A7F80F49FDF7A4F883
:10424C008621C905FCF72EFDFDF7AAFB282327289C
:10425C0003DDDC2800DDDC20C3B21800FEBDFE2629
:10426C00B605A0E70024E4E7FE24A405E1E7C04678
:0C427C00000080BF000034420000B84287
:1042880070B50C00FDF7AEFB1C4BA400E158FDF720
:10429800AFF91B4B051C1B49E058FDF777F8041CC8
:1042A80068004008211CFCF7DBFA00281ED1002119
:1042B800281CFCF7F3FA002802D180231B06E41817
:1042C800211C281CFDF794F90F49FCF787FE0F49BC
:1042D800041CFCF7C5FA00280AD1FE21201C890518
:1042E800FCF7D2FA002805D1201C70BD0024FBE79A
:1042F800064CF9E7FE24A405F6E7C0466002002054
:10430800700200200000404000001643000080BFFB
:104318003C4BF7B51B783C4F0D003E68002B05D190
:10432800301CFCF75DFBC3B21800FEBD0221FFF78D
:10433800A7FF0321041C2800FFF7A2FF011C201C73
:10434800FDF756F93149041CFCF78AFA00284FD1C9
:10435800FE21201C8905FCF797FA00284BD1002183
:10436800201CFCF79BFA002848D0FE25AD05630009
:104378005B08211C201C0193FDF708F80199FDF743
:1043880005F82349FDF702F82249041C0198FCF7B7
:10439800FDFF011C201CFCF787FC291CFCF7F6FF1D
:1043A8001D49FCF7F3FF8621C905FCF77DFC1B4975
:1043B800041CFCF755FA002822D11949201CFCF7E7
:1043C80063FA002800D0164C311C201CFDF710F9A8
:1043D8001449FCF7DBFF311CFCF766FC3860FDF77D
:1043E800E1FA282327289FDDDC289CDDDC209AE7DA
:1043F800064C251CBBE7FE24A405FAE7034DB6E7E7
:10440800064CE1E73F710020A4020020000080BFB5
:104418009A99993E3333333F0000B8420000204256
:0844280000005C438FC2F53D6A
:10443000F0B5040089B002930EAB1B780091039392
:104440000FAB1B780192049310AB1B780C220593E1
:1044500011AB1E8812AB1F882F4913AB1D8816F0B5
:1044600071FE20002673360A667306222B490E3031
:1044700016F068FE6A46127806AB1A706A46127920
:1044800020005A706A46127A19009A706A46127BA6
:104490001430DA706A46127C00261A716A46127D60
:1044A0005A71062216F04EFE20000A221A30002110
:1044B00016F0DAFE330006AA925D01365340062E4E
:1044C000F9D1621DD37720009922A31DDA7700214C
:1044D0006D3A263016F0C8FE2000320010495230E6
:1044E00016F030FE23002200200058331F7059328E
:1044F0003B0A13700B4912225A3016F023FE230098
:1045000020006C331D702D0A5D700E2206496E303E
:1045100016F018FE09B0F0BD101E02101C1E02108D
:0C452000AC080210221E0210341E021013
:10452C00F0B5334C85B0051C0F1C20003149161C0E
:10453C0003930BF084FB281CFFF77AF8012502008B
:10454C000B00009520000BF0D7FC2B4920000BF042
:10455C0076FB381CFFF76CF8009502000B0020006E
:10456C000BF0CAFC254920000BF069FB301CFFF74F
:10457C005FF800950B00020020000BF0BDFC2049F9
:10458C0020000BF05CFB0A22039920000BF0DDFBF2
:10459C001C4920000BF053FB0A220A9920000BF057
:1045AC00D4FB194920000BF04AFB0A220B9920007E
:1045BC000BF0CBFB154920000BF041FB0A220C99A8
:1045CC0020000BF0C2FB124920000BF038FB0A2232
:1045DC000D9920000BF0B9FB0E4920000BF02FFBBE
:1045EC000D4B0A22196820000BF0B3FB05B0F0BD8F
:1045FC00B81F00209B0702109E070210A207021092
:10460C00A6070210AA070210AF070210B407021087
:0C461C00B9070210BE070210980200202F
:1046280070B5002400251026204B32001C70204B4A
:1046380021001C701F4B20481C70204B1C70204B05
:104648001C60204B1C60204B1D60204B1D60204BC4
:104658001D6016F005FE320021001E4816F000FE0F
:10466800FE221D4B92051D601C4B1D491D601D4BF4
:104678001D481D601D4B1A6086221D4BD2051D600A
:104688001C4B1D601C4B1D601C4B1A6001221C4BEF
:104698001A7001231B4A5B4213601B4A13601B4AB2
:1046A80014601B4A13600BF0F1FA70BD40710020D2
:1046B800417100203F710020EC2B00204B7100203D
:1046C8001C2C0020E82B0020282C0020242C002063
:1046D800202C0020FC2B0020782B0020742B00209D
:1046E800F8070210702B0020B81F00209C02002041
:1046F800642E0020602E00205C2E0020A4020020E2
:104708003B7100209802002084020020C02C002069
:0447180080020020FB
:10471C00F0B5050006003E4BD535C35ADD368FB0DB
:10472C000400FF35FF36002B0BD13A490BA80BF0D8
:10473C0044FC0BA930000BF053FC01230BA82B718C
:10474C0034E0354BC35A002B01D13449EEE70B68EA
:10475C00C8182060FFF7D2F903282CD0304905A8DF
:10476C000BF02BFC05A908A80BF04AFC032108A8A8
:10477C000BF0ACFC2B490BF09BFC07002068FFF7FF
:10478C00BDF9010038000BF0ACFC01000BA80BF0DC
:10479C0037FC0BA930000BF023FC01230BA82B7169
:1047AC000BF0BCFB08A80BF0B9FB05A80BF0B6FB93
:1047BC0028000FB0F0BDB02011F07CFE0023029356
:1047CC0001938023DB0100932300E9332168221D30
:1047DC00FF33070004F07EFAE4235B00E750380057
:1047EC0004F022FC1049071EA0D1E4235B00010059
:1047FC00E05804F0E5FAE6235B00E050043B390096
:10480C00E05804F0BBFAE8235B00E05007498DE761
:10481C00E84100002E1F0210EA410000501F021058
:10482C00731F0210951F02109C1F0210941F021080
:10483C00F0B585B005000E0014000393202908D1B3
:10484C00234804F015FD234804F012FD012005B0A7
:10485C00F0BD03681B6A98470190002807D01E48DA
:10486C0004F006FD31001D4804F002FDEEE7FC23C8
:10487C009C46AC446346196F092906D93100184887
:10488C0004F0F6FC0A211748EEE7242322004B43E0
:10489C00EB1802931F1D19CA19C73C0089CA89C499
:1048AC0089CA89C4029B01319E6163461967E02164
:1048BC0049006B5801989A00AA181400FC346667DA
:1048CC00CC24039E6400013316516B50BFE7C046E5
:1048DC00541E0210851E02109A1E0210C91E0210D0
:0848EC00EA1E02101B1F02105E
:1048F40070B52F4D8AB02F4928000BF0C9F92E4E00
:104904002E4B2F4A01A8F25006F094FE2D4C2E4B4C
:1049140001AA09212000FFF78FFF01A804F0E0FF9E
:104924002A4B01AA13212000FFF786FF01A806F0F5
:1049340069FF274B01AA19212000FFF77DFF01A879
:1049440005F002FB234B01AA72212000FFF774FF3C
:1049540001A805F08BF9204B01AA06212000FFF7DE
:104964006BFF1E493000FFF7D7FE1D4908300BF0DE
:10497400C7FB1C491C4B002812D1187008701B4936
:1049840028000BF060F91A4901A80BF03DFB01A9BE
:1049940028000BF087F901A80BF0C4FA0AB070BD27
:1049A400012228000A7013491A700BF071F9F5E717
:1049B400B81F002021080210982E0020E8410000B2
:1049C400020009009C2E0020316D0010E56C0010DF
:1049D4001D6E0010E16C0010DD6C0010C0080210A8
:1049E400941F0210467100204571002050080210E7
:0849F400743000206608021077
:1049FC0070B5154801F094FC14480AF0C3FF144C30
:104A0C00144B002563602300FC335D67E2235B00DD
:104A1C00E5500433E5500433E5500F4A0433E550B8
:104A2C000433E25001220433E2540C490C48256053
:104A3C000BF0C3FA0B4B0C4AE5500C4B0C49E550F0
:104A4C00200011F015FB70BD88700020582B002041
:104A5C00982E0020B406021004070210941F0210B6
:104A6C0074300020E841000048020020EC410000B6
:044A7C00B93A001033
:104A8000F0B5AFB034AC2478069435AC24780794F4
:104A9000224C2478002C3ED0214C2478002C3AD093
:104AA000204D2E882C880134A4B22C801E4D2F88D6
:104AB0002C880134A4B22C801C4D2C88A4462C8850
:104AC0000134A4B22C8064460594079C039602949A
:104AD000069C00930194130004970A0001000FA89C
:104AE000FFF7A6FC1248134B021D09930AAB70CACC
:104AF00070C31268104C1A60037D09A90F4A200088
:104B00000B7501F079FB7C220FA9200001F091FBCD
:104B1000200001F089FB2FB0F0BDC0464A71002093
:104B200058020020A67000205A0200205C020020DB
:104B3000582B0020445E0210887000206022000084
:104B400073B50825022680242300220021002000BE
:104B500001960096FFF794FF013D19200BF09AFB98
:064B6000002DF1D173BD30
:104B680007B50238052815D8FBF77AFC0315262E59
:104B7800142A0022184B1A7002230193033300935E
:104B88007B3319001A001800FFF776FF1349144801
:104B98000BF07CF807BD104A1378002BFAD10133CB
:104BA8001370022200937F33019219001A00180033
:104BB800FFF762FF0B49EAE7FFF78CF90A49E6E7D6
:104BC800FFF72EFD0949E2E7FFF7B6FF0022024B87
:104BD80007491A70DBE7C046407100203107021010
:104BE800B81F00204207021056070210670702107C
:044BF8008A07021016
:104BFC00F0B5774B87B01B7805900C00002B5ED07E
:104C0C00744B1B78002B5AD00BF024FB724A01908A
:104C1C001168431A4F2B52D910602000FCF7E0FEAC
:104C2C006E4D6968FCF7E2FC6D4F7968FCF7D4F9BE
:104C3C00E6236C4E5B00F4580490E36805980293ED
:104C4C0023690393FCF7CCFE2968FCF7CFFC396889
:104C5C00FCF7C2F90299FCF7BFF914F0B9FAFCF7AA
:104C6C009FFE039BC0187F2800DD7F200200636835
:104C7C00803201DA80204042187002990498FCF7C7
:104C8C00ABF914F0A5FAFCF78BFE039BC0187F2838
:104C9C0000DD7F20E62302005B00F3585B68803266
:104CAC0001DA802040425870E4235B00F05804F095
:104CBC00ADFA002805D04C494C480AF0E5FF07B086
:104CCC00F0BDE8235B00F35800215D6880230122CE
:104CDC00040069565B42A85688421ADC061C9842AE
:104CEC0000DA1E1C73B20132092AF4D1CB1A0293DA
:104CFC00631E5A1E9341029804333D493D4A834238
:104D0C000BDD01235B420B60002111603A4A1360FA
:104D1C00D5E70B0014000100E5E70B68A34245D072
:104D2C00019B0C601360002CC9D01368002BC6D0FB
:104D3C00019AD31A5E22FF329342C0D92E4B2F4ECA
:104D4C001C603368A342BAD02D4F019B3A689B1A62
:104D5C002C4A9342B3D9254D2B4928000AF06FFFFA
:104D6C002A49082C02D82A4BA200D15828000AF054
:104D7C0071FF284928000AF062FF0A22210028004E
:104D8C000AF0E3FF244928000AF059FF0A2202998D
:104D9C0028000AF0DAFF214928000AF075FF2000EC
:104DAC00FFF7DCFE019B34603B6088E7002CBCD134
:104DBC001368019AD31A5E22FF32934200D87EE721
:104DCC000D4B5F3A1C600D4BFF3A1A6077E7C046FB
:104DDC004671002045710020402C002088020020E4
:104DEC0090020020982E0020C4070210B81F00204B
:104DFC0084020020C02C0020980200208002002099
:104E0C003C2C002083030000D60702102907021057
:104E1C00E0060210E5070210EC070210F60702107C
:104E2C00E121F0B5424C87B04902200009F01CFA90
:104E3C00FA20C0000BF028FA3E4920000AF024FFAB
:104E4C003D4920000AF0FBFE3C4800F061FD0028C3
:104E5C0009D120003A49FA240AF016FF6400200018
:104E6C000BF012FAFBE7374920000AF00DFF364928
:104E7C0020000AF0E4FE354E200031680AF0EAFE0C
:104E8C00334920000AF0DBFE324D334B31681A688F
:104E9C002800FA2701F0F3F81F267F00280001F004
:104EAC00DEF803280AD0013E002E07D038000BF0A4
:104EBC00EBF92E2120000AF0D1FEEFE7280001F0DB
:104ECC00CEF8264B03282ED10122254920001A703A
:104EDC000AF0B5FE2900684601F0B8F869462000D2
:104EEC000AF0E6FE1F4B204819680AF03FFE1F49E6
:104EFC001F4801F00BF91F4920000AF0C5FE1E499E
:104F0C0020000AF0C1FEFFF7EFFC0BF0B3F91B4BCE
:104F1C0018600BF09FF91A4B18600BF09BF9194BAA
:104F2C00186007B0F0BD002217491A70E4E7C046BC
:104F3C00B81F00208C210210B7210210441600204B
:104F4C00D7210210EB210210EE2102105402002096
:104F5C00042202109C160020500200204A710020EE
:104F6C000A2202104C020020582B00206222000062
:104F7C0088700020282202107D220210382C00207C
:0C4F8C00342C0020442C00204022021095
:104F9800F0B59E4C91B0200000F050FC00285DD088
:104FA800200000F052FC002858D00CAB0BAA0AA92C
:104FB800200000F0A1FB0FAB20000EAA0DA900F005
:104FC800E5FB934B0E981B780D9C0F9D002B00D191
:104FD8003CE1904B1B78002B00D166E10B9B0693BC
:104FE8000A9B05930C9B07938B4B1968FCF700FBF6
:104FF80080231B060890E018884B1968FCF7F8FA1C
:10500800874B09901968281CFCF7F2FA071C0BF06B
:1050180033F9844D06002B68C01AFCF72DFD824930
:10502800FCF7B4F98149041CFBF72EFC002800D0DA
:105038007E4C802212069446059B2E60634419001C
:10504800099B079A0093069802940197089BFEF71C
:1050580063FD774A77497848FEF76CFF10200BF01C
:105068003BF9050011200BF037F907900E200BF0E3
:1050780033F905900F200BF02FF9069010200BF054
:105088002BF9089011200BF027F90599099006983B
:10509800FFF7B0FD5E4B1B78002B5CD00BF0DCF803
:1050A800664C2368C01A132855D90BF0D5F8FC2391
:1050B80080228221206060489B05D205C9050068CE
:1050C800FFF768F8FC23FE228221070059489B0558
:1050D8009205C9050068FFF75DF8FC23FE228221CE
:1050E800060053489B059205C9050068FFF752F86A
:1050F800079904002800FFF70BF9514B05001B78AE
:105108000200002B03D18024282226002700022336
:10511800019300232000009331003B00FFF7ACFC13
:105128000BF09AF8474C2368C01A272813D90BF0BC
:1051380093F8099B20600393089B3D4A0293069BC2
:105148003C490193059B3C48009312682B00096871
:105158000068FFF7E7F93C4C200008F097FF0028AB
:1051680000D1B0E1200009F019F80500200008F08E
:105178008DFF002800D0A8E1200008F087FF002854
:1051880002D0200009F00AF8E8B23F38392800D9DF
:1051980099E1FBF76FF9FB019801E7019801CB0151
:1051A800980198019801980198019801980198012F
:1051B800B5019801EC01D701E0019801DD019801E2
:1051C800A401980198019801BC01980198019801DF
:1051D80098019801980198019801E7019801CB017D
:1051E80098019801980198019801980198019801EF
:1051F800B5019801EC01D701E0019801DD019801A2
:10520800A401980198019801BC01C04644160020E9
:10521800417100203F710020102C0020142C002028
:10522800182C0020382C0020BD378635CDCC4C3DBD
:10523800742E0020582E0020A0700020342C00204E
:1052480040710020442C0020B81F0020D04F39683E
:10525800FBF72AFD3860CF4F211C061C3868FCF785
:10526800C7F93860CC4F041C3968281CFBF71CFDB3
:10527800CA4A051C1368386001331360F92B14DD22
:10528800C749301CFBF7AAFEC64BC5491860201C4D
:10529800FBF7A4FEC44BC2491860281CFBF79EFE0E
:1052A800C24BC34A186001231370C24B1C78002CF0
:1052B80046D1C14BE058C0B20BF00EF8FCF792FB98
:1052C800BE4E051C011CA059FBF7EEFC291CA05181
:1052D800281CFCF75BF8BA4F011CE059FBF7E4FC0B
:1052E800E0510434102CE4D1B64A1368013313603A
:1052F8004F2B25DD0024B4493059FBF76FFEB24926
:10530800051C3859FBF76AFE291C0590281CFCF778
:105318003DF8011C0598FCF76BF9AC4BE55013F010
:10532800D1FFAB49051CFBF79BFA002800D0A84D1C
:10533800A84BE5500434102CDDD101239D4A13708D
:105348009B4B1B78002B7BD09A4B1B78002B77D07C
:10535800A14C2678002E73D1FEF7BCFD01239F4D8A
:1053680023702B789E4C002B04D09E4920000AF015
:105378008DFC2E709C4920000AF063FC894B0325A4
:105388001868FEF757F9009502000B0020000AF094
:10539800B5FD964E200031000AF053FC824B186888
:1053A800FEF748F9009502000B0020000AF0A6FD60
:1053B800310020000AF045FC7C4B1868FEF73AF9EA
:1053C800009502000B0020000AF09EFD884920008D
:1053D8000AF037FC7D4E023D3068FEF72BF9009548
:1053E80002000B0020000AF089FD824920000AF023
:1053F80028FC7068FEF71EF9009502000B002000DB
:105408000AF07CFD7C4920000AF01BFCB068FEF71E
:1054180011F9009502000B0020000AF06FFD774992
:1054280020000AF00EFCF068FEF704F9009502006F
:105438000B0020000AF068FD714920000AF026FCE4
:105448000AF00AFF6F4C2368C01A13280CD90223EC
:105458000193002300938033282219001800FFF7D6
:105468000BFB0AF0F9FE20600AF0F6FE664C236892
:10547800C01A272823D90AF0EFFE644B20601C6865
:10548800634B0E201B680593624B1B6806930AF05A
:1054980023FF05000F200AF01FFF060010200AF066
:1054A8001BFF070011200AF017FF029703900196CF
:1054B80000952823069A0599201CFFF733F80AF06F
:1054C800DBFE554B186011B0F0BD200008F01AFE45
:1054D8000A2800D150E6200008F060FE46E60123C5
:1054E8004E4A1370022200937F33019219001A006A
:1054F8001800FFF7C1FA4A4920000AF0C7FBE2E7A3
:10550800FFF71AFB0022454B46491A70F4E70022C0
:10551800424B1A7002230193033300937B33190023
:105528001A001800FFF7A8FA3F49E5E7022301939C
:10553800DB1800937C3319001A001800FFF79CFA57
:105548003A49D9E7FEF7C6FC0022244B1A70BAE79D
:10555800FFF766F8B7E70023354A364913702F4A34
:105568001370C9E70122324B33491A70C4E701238B
:10557800324D33492A78200053402B700AF061FBE2
:105588002B783049002BB7D12F49B5E72F49B3E71E
:10559800202C0020242C0020282C00201C2C00204B
:1055A80000007A43102C0020142C0020182C002016
:1055B800417100203F710020441E0210EC2B002096
:1055C800FC2B0020E82B00200000A04260020020F5
:1055D8000000A040700200204B7100203B710020A9
:1055E800B81F0020C61F0210FA1F02101420021054
:1055F800172002102D20021033200210392002102B
:105608003F200210342C0020442C0020A0700020E1
:10561800582E0020742E0020382C002040710020C5
:105628007520021088200210AE200210C820021037
:1056380058020020DD2002100721021045710020C9
:105648001D210210B51F0210BD1F021023210210D8
:02565800704799
:10565A00F7B5456804000F0001921E00002D21D005
:10566A002B6882694169DB6928009847E368002151
:10567A00D8B20AF0ACFE80216068394303689B689F
:10568A00984760683200036801991B699847E36884
:10569A000121D8B20AF09BFE606803681B6A98472A
:1056AA00012027E00068217A0368DB6A98472068AE
:1056BA00390003681B6898472068290003681B6B38
:1056CA009847051E14D12068217A03683200DB6BE3
:1056DA00984703002800B3420CD1019DEE18AE4250
:1056EA00DED0206803685B69984728700135F6E7C1
:0656FA0001204042FEBD4C
:1057000073B50E0015001C006A4606232821FFF71A
:10571000A4FF002804D11D4B33602B60236076BDAD
:105720006B460020185EFDF71DFF0022184BFDF7A9
:105730000DF9FC2300229B05FDF708F9FDF7D0FFCA
:105740006B4630600220185EFDF70CFF0022104B04
:10575000FDF7FCF8FC2300229B05FDF7F7F8FDF7A9
:10576000BFFF6B4628600420185EFDF7FBFE002299
:10577000074BFDF7EBF8FC2300229B05FDF7E6F84D
:10578000FDF7AEFF20600120C9E7C0460000C07FE2
:0457900000001040C5
:1057940073B50E0015001C006A4606232221FFF78C
:1057A4005AFF002804D11D4B33602B60236076BD63
:1057B4006B460020185EFDF7D3FE0022184BFDF760
:1057C400C3F8FC2300229B05FDF7BEF8FDF786FF16
:1057D4006B4630600220185EFDF7C2FE0022104BBB
:1057E400FDF7B2F8FC2300229B05FDF7ADF8FDF7A9
:1057F40075FF6B4628600420185EFDF7B1FE002299
:10580400074BFDF7A1F8FC2300229B05FDF79CF84C
:10581400FDF764FF20600120C9E7C0460000C07F97
:0458240000409F4061
:1058280013B56B46DC1D22000123FFF712FF012888
:0C58380001D1207816BD01204042FBE7A2
:0E58440010B51E21FFF7EEFF0123184010BD26
:0E58520010B51E21FFF7E7FF8007C00F10BD45
:1058600070B5040040680E00150000281ED00368C3
:10587000A269DB6961699847E3680021D8B20AF040
:10588000ABFD6068310003689B6898476068290039
:1058900003689B689847E3680121D8B20AF09CFD31
:1058A000606803681B6A9847012070BD2068217AF0
:1058B0000368DB6A98472068310003681B689847D3
:1058C0002068290003681B689847206803685B6BA1
:0858D000984743425841E8E704
:1058D80070B545680400002D0ED02B6828001B6B9E
:1058E8009847E3680021D8B20AF072FDE068002109
:1058F800C0B20AF02FFD70BD2A001121FFF7ACFFDE
:105908002A0010212000FFF7A7FF206803685B6AC0
:045918009847F0E7D5
:10591C00436810B50400002B1ED0C3680121D8B217
:10592C000AF016FDE3680121D8B20AF04FFD606859
:10593C000368DB6A98470F212000FFF76FFF6C2884
:10594C000ED00F212000FFF769FF692808D0200036
:10595C00FFF7BCFF002010BD00680368DB69E9E7B6
:10596C004C2211212000FFF775FF4A221021200044
:10597C00FFF770FF002216212000FFF76BFF0922B2
:0C598C0017212000FFF766FF0120E4E770
:105998006A22094810B5094B0272094A036042613C
:1059A80000230122037642768376064A064943603D
:1059B80010F060FB10BDC046441600201C170020E4
:0C59C80000093D00480200205956001064
:0459D40000207047F8
:0259D800704716
:0C59DA0010B50368C9B21B68984710BDE7
:0E59E6008B23002249009B00C161C250704714
:0C59F40010B5036801211B6B984710BD23
:0C5A000010B503689C6B0123A04710BD8B
:105A0C0030B58B248025A400025903006D000020C2
:105A1C00AA4206D0501C185101209B182D33FF337D
:045A2C00197030BD00
:025A30007047BD
:085A32008C239B00C15070475A
:085A3A008D239B00C150704751
:105A42000300FC33DA6A002A04D09B6A0130C018D2
:0A5A5200C07F704701204042FBE7CF
:105A5C0070B5036804005B6A9847402010F02AFD7B
:105A6C0005001A23E25E1823E15E0CF08DFF6561E0
:025A7C0070BDFB
